:100000000C9446000C9458000C9458000C94580022
:100010000C9458000C9458000C9458000C94580000
:100020000C9458000C9458000C9458000C945800F0
:100030000C9458000C9458000C9458000C940E0327
:100040000C9458000C9458000C9458000C944101E6
:100050000C94C6030C94F0030C9458000C945800B4
:100060000C9458000C9458000C9458000C945800B0
:100070000C9498040C94C2040C9458000C945800EE
:100080000C9458000C9458000C94580011241FBE76
:10009000CFEFD0E4DEBFCDBF21E1A0E0B1E001C0F1
:1000A0001D92A23CB207E1F70E946F0A0C946F0CFC
:1000B0000C940000569A5E9884B1806B84B926989F
:1000C0002C9A85B18F7585B9109200011092150197
:1000D00083ED8CBD1DBC08955E9A08955E980895C9
:1000E000809100018111FECF1092010180911501D4
:1000F00081FF0DC0909116019093020191E09093C1
:10010000030192E090930001E4E0F1E002C0E2E03C
:10011000F1E082FF0BC090911701908392E09183F0
:100120003296909100019E5F9093000183FF0EC074
:1001300090911801209119012083918393E092837B
:100140003396909100019D5F9093000184FF0EC053
:1001500090911A0120911B012083918394E0928356
:100160003396909100019D5F9093000185FF0BC035
:1001700090911C01908395E09183329690910001BB
:100180009E5F9093000186FF0BC090911D019083AC
:1001900096E091833296909100019E5F90930001CA
:1001A00087FF0AC080911E01808387E08183809150
:1001B00000018E5F80930001109215012C9881E25E
:1001C0008A95F1F70000E0910001E11106C081E29B
:1001D0008A95F1F700002C9A0895F0E0EF5FFE4F4A
:1001E00080818EBD8091000181508093000108952F
:1001F000029718F41092160103C081E08093160153
:10020000809115018260809315010895E5E1F1E088
:1002100082838081846080830895E5E1F1E09483A6
:1002200083838081886080830895E5E1F1E096838F
:1002300085838081806180830895E5E1F1E08F5FAF
:10024000878380818062808308959FEF980F9F301D
:1002500080F49FEF960F9F3060F420E1829FC001F1
:100260001124862B80931D01809115018064809359
:1002700015010895E5E1F1E0818780818068808340
:1002800008951F920F920FB60F9211240BB60F9282
:100290008F93EF93FF93E0910001E11106C081E29B
:1002A0008A95F1F700002C9A0AC0F0E0EF5FFE4F4C
:1002B00080818EBD80910001815080930001FF916B
:1002C000EF918F910F900BBE0F900FBE0F901F906C
:1002D0001895F89410921F0110922001109221019C
:1002E00010922201109223011092240110922501F4
:1002F000109226011092850010928400EFE6F0E043
:100300008081816080831092800081E080938100F1
:10031000789408952F923F924F925F926F927F92BE
:100320008F929F92AF92BF92CF92DF92EF92FF9205
:100330000F931F93CF93DF93CDB7DEB727970FB6F9
:10034000F894DEBF0FBECDBFFC01A22FF32EE42E2A
:10035000D52ECB01209085003090840020911F0184
:10036000209120014090210150902201B091230161
:10037000B983B0912401BA83B0912501BB83B091B8
:100380002601BC8398014A2F5F2D6E2D7D2D02E042
:100390000E94E00B39014A016E837D83B82FA92F9B
:1003A0000E94E00B59016A017B018C019301A401B9
:1003B0006E817D818B2F9A2F0E94170C39014A0183
:1003C000DB018E839F83222D30E040E050E060E02F
:1003D00070E080E090E008E00E94E00BB32EA32CD8
:1003E000A22AC42CC42AD52CD52AE980E62AFA8070
:1003F000F72A0B81082B1C81192B9301A401BD0145
:100400008E819F810E94170C208331834283538306
:10041000648375838683978327960FB6F894DEBF2F
:100420000FBECDBFDF91CF911F910F91FF90EF9045
:10043000DF90CF90BF90AF909F908F907F906F9004
:100440005F904F903F902F9008957F928F929F9250
:10045000AF92BF92CF92DF92EF92FF920F931F93D2
:10046000CF93DF93FC0120918500A09084007080E1
:1004700081809280D381C481B581A681E7818091FA
:100480001F0180912001C0902101D0902201E090B5
:100490002301F0902401F09125011091260130E014
:1004A00040E050E060E070E080E090E008E00E9412
:1004B000E00BB32EA22AC42AD52AE62AF72A0F2F48
:1004C000082B192B272D382D492D5D2F6C2F7B2FB5
:1004D0008A2F9E2F0E94200CF1E0A72CB82CC92C4B
:1004E000DD2EEC2EFB2E0A2F1E2F0E94290C08F465
:1004F000F0E08F2FDF91CF911F910F91FF90EF9040
:10050000DF90CF90BF90AF909F908F907F90089595
:100510002F923F924F925F926F927F928F929F9213
:10052000AF92BF92CF92DF92EF92FF920F931F9301
:10053000CF93DF9300D000D01F92CDB7DEB7FC0180
:1005400020918500A09084002080318042805380DB
:1005500064807580A681A983F78180911F018091B5
:100560002001C0902101D0902201E0902301F09061
:100570002401E09125011091260130E040E050E097
:1005800060E070E080E090E008E00E94E00BB32EB5
:10059000A22AC42AD52AE62AF72A0E2F082B192BBD
:1005A0009101A201B3018A2F9F2F0E94200C5B832F
:1005B0008C839D8351016201730109811F2F0E9469
:1005C000290C60F4E4E1AE2EB12CC12CD12CE12C2D
:1005D000F12C00E010E00E943C0B08C020E030E06D
:1005E00040E050E060E070E080E090E00F900F901D
:1005F0000F900F900F90DF91CF911F910F91FF906F
:10060000EF90DF90CF90BF90AF909F908F907F90B2
:100610006F905F904F903F902F9008951F920F9290
:100620000FB60F9211242F933F934F935F936F93C5
:100630007F938F939F9320911F01309120014091D0
:100640002101509122016091230170912401809138
:100650002501909126014F5F5F4F6F4F7F4F8F4F66
:100660009F4F20931F01309320014093210150930D
:1006700022016093230170932401809325019093BC
:1006800026019F918F917F916F915F914F913F9143
:100690002F910F900FBE0F901F90189510922A0364
:1006A00010922B0310922C03109227021092280212
:1006B0001092290282E08093C50088E08093C400F4
:1006C000E0ECF0E0808182608083E1ECF0E080810A
:1006D00088698083E2ECF0E0808186608083089501
:1006E000EFEFF0E0262F30E040912C03DF01A41B58
:1006F000B1092A173B07C4F7282FFC018E2F821B54
:10070000861768F4A0912B03B0E08191A65DBD4FE0
:100710008C9380912B038F5F80932B03EFCF80917D
:100720002C03680F60932C038091C10085FD0AC0E3
:100730008091C00080648093C0008091C10080627D
:100740008093C1000895209129022617E0F3282FF5
:10075000FC018E2F821B861768F4A0912702B0E05F
:10076000A95DBE4F8C918193809127028F5F80930A
:100770002702EFCF80912902861B809329020895DA
:1007800010922C0308951092290208951F920F923F
:100790000FB60F9211240BB60F928F93EF93FF9326
:1007A000809129028F3F91F0E0912802F0E0809142
:1007B000C600E95DFE4F8083809128028F5F8093A1
:1007C0002802809129028F5F80932902FF91EF9187
:1007D0008F910F900BBE0F900FBE0F901F9018952A
:1007E0001F920F920FB60F9211240BB60F928F9398
:1007F000EF93FF9380912C03882399F0E0912A03D3
:10080000F0E0E65DFD4F80818093C60080912A0371
:100810008F5F80932A0380912C03815080932C0357
:1008200005C08091C1008F7D8093C100FF91EF9141
:100830008F910F900BBE0F900FBE0F901F901895C9
:1008400010923005109231051092320510922D044D
:1008500010922E0410922F0482E08093CD0088E045
:100860008093CC00E8ECF0E0808182608083E9EC4A
:10087000F0E0808188698083EAECF0E08081866026
:1008800080830895EFEFF0E0262F30E040913205AD
:10089000DF01A41BB1092A173B07C4F7282FFC016D
:1008A0008E2F821B861768F4A0913105B0E08191EC
:1008B000A05DBB4F8C93809131058F5F8093310594
:1008C000EFCF80913205680F609332058091C900A7
:1008D00085FD0AC08091C80080648093C800809123
:1008E000C90080628093C900089520912F042617C3
:1008F000E0F3282FFC018E2F821B861768F4A0914D
:100900002D04B0E0A35DBC4F8C91819380912D04A8
:100910008F5F80932D04EFCF80912F04861B8093EF
:100920002F04089510923205089510922F0408950F
:100930001F920F920FB60F9211240BB60F928F9346
:10094000EF93FF9380912F048F3F91F0E0912E045D
:10095000F0E08091CE00E35DFC4F808380912E0417
:100960008F5F80932E0480912F048F5F80932F04DC
:10097000FF91EF918F910F900BBE0F900FBE0F90D4
:100980001F9018951F920F920FB60F9211240BB65D
:100990000F928F93EF93FF9380913205882399F004
:1009A000E0913005F0E0E05DFB4F80818093CE0068
:1009B000809130058F5F80933005809132058150A2
:1009C0008093320505C08091C9008F7D8093C90056
:1009D000FF91EF918F910F900BBE0F900FBE0F9074
:1009E0001F90189587B18F7087B988B18F7088B9BB
:1009F0008AB1806A8AB95D985F9A0895AF92BF9272
:100A0000CF92DF92FF920F931F93CF93DF935C01FE
:100A1000EBB1EF75EBB983E08A95F1F700005D9AD1
:100A2000A3E0AA95F1F700005D98B3E0BA95F1F75D
:100A300000005D9AE3E0EA95F1F70000ADE0FA2EE0
:100A4000C12CD12CA0E0B0E0C0E0D0E000E010E08C
:100A50005D98F3E0FA95F1F700005D9A000F111F21
:100A6000CC0FDD1FAA0FBB1FCC0CDD1C349901601D
:100A70003599C1603699A160379B02C06894C0F86F
:100A8000FA94F110E5CF5F9A1F70F501118300838E
:100A9000DF70FB01D183C083BF70FA01B183A083F3
:100AA000F601FF70D901ED93FC93DF91CF911F9177
:100AB0000F91FF90DF90CF90BF90AF900895E3E744
:100AC000F9E081E090E09183808320E533EC33838B
:100AD000228343E650E055834483178216821186B1
:100AE00010861386128615861486E2EBF1E11182D8
:100AF0001082138212821582148217821682118646
:100B00001086138612861586148617861686E1E8E7
:100B1000F9E03183208320E63AEE3383228320ED0F
:100B200037E03583248324EF31E03783268348EB95
:100B30005BE0518740873387228728E0248720E8BD
:100B4000258730EF36873AEF378732E0308B118ACE
:100B5000128A138A148A258B36E9368B38E9378B4B
:100B6000108E118E128E138E148E258F23EC268FED
:100B700029EC278F21E020A311A212A213A214A214
:100B800020E125A327E226A317A210A611A612A6EC
:100B900013A614A696A785A790AB87A708950F93D1
:100BA0001F93CF93DF93E7E3F5E010821182128267
:100BB000138214821582168217821086118612867D
:100BC00013861486158616861786108A118A8AE679
:100BD00097E00E94F30981E695E00E94F3090E94E4
:100BE0006901C1E8D9E00DA11EA12FA138A549A531
:100BF0005AA56BA57CA589E495E00E948A010D8920
:100C00001E892F89388D498D5A8D6B8D7C8D81E59C
:100C100095E00E948A0101E010E020E030E040E031
:100C200050E060E070E089E595E00E948A010E9452
:100C3000F2040E945A000E946E0083E090E00E943D
:100C40001D0180E00E94060180E090E00E940D01FD
:100C50000E947000DF91CF911F910F910C9420049E
:100C60002F923F924F925F926F927F928F929F92BC
:100C7000AF92BF92CF92DF92EF92FF920F931F93AA
:100C8000CF93DF93CDB7DEB768970FB6F894DEBF8A
:100C90000FBECDBF2091B4112C838091B5118B83F1
:100CA000909140059B87E0914105EC87F0914205CA
:100CB000FD87209143052E87809144058F87909171
:100CC0004505988BE0914605E98BF0914705FA8B35
:100CD00081E595E00E9425028823D1F180914805A5
:100CE0008130B9F41092480510927E0910927D0966
:100CF00000919E0910919F092091A0093091A109AE
:100D00004091A2095091A3096091A4097091A5098D
:100D10001BC081111DC080917D0990917E090197B2
:100D2000B9F481E0809348050091960910919709E4
:100D3000209198093091990940919A0950919B0905
:100D400060919C0970919D0981E595E00E948A015E
:100D500089E595E00E942502F82E80917309909113
:100D60007409009709F463C0019709F063C01092F9
:100D700074091092730900918E0910918F092091C6
:100D80009009309191094091920950919309609195
:100D900094097091950989E595E00E948A018091F6
:100DA0003705811142C081E08093370510923805E4
:100DB0001092390510923A0510923B0510923C05AD
:100DC00010923D0510923E0510923F05109240058D
:100DD000109241051092420510924305109244056D
:100DE00010924505109246051092470580917909A9
:100DF00090917A09019719F483E090E002C081E0B4
:100E000090E00E94F80080E090E00E940D0180E0F8
:100E10000E9406010E94700087E893E10197F1F7B4
:100E200000C000000E946C0014C0813091F4FF20CB
:100E300081F006C08FEF9FEF909374098093730940
:100E4000109237051092BB111092BA110E946E00D9
:100E5000EAC18091770990917809853691051CF057
:100E600084E690E005C08C399F4F34F48CE99FEF05
:100E7000909378098093770980917B0990917C0900
:100E8000009761F480918109909182092091750900
:100E90003091760982179307B0F411C0019799F445
:100EA000209175093091760980918109909182098C
:100EB0008217930740F4809183099091840990935D
:100EC0007609809375092091480580917709909162
:100ED0007809213069F4181619062CF480918909D3
:100EE00090918A0911C080918B0990918C090CC056
:100EF000181619062CF4809185099091860904C072
:100F000080918709909188091C01412C512C9C01EA
:100F1000A20160E070E080E090E002E00E94E00B5F
:100F200051016201E12CF12C00E010E00E94200C44
:100F3000F90148875D83B62FA72F8E839F8305E035
:100F40000E94E00B59016A017B018C019F014885D9
:100F50005D816B2F7A2F8E819F810E94170C51012A
:100F60006201E12CF12C00E010E00E94170CE091EE
:100F70007709F09178091E161F0664F41F2F110FD0
:100F8000110B5F01C12ED12EE12EF12E012F0E94F7
:100F90000B0B08C020E030E040E050E060E070E083
:100FA00080E090E0AC801B81110F110BBB80C12E43
:100FB000D12EE12EF12E012F0E94200C2B8339839C
:100FC0004A835C836D837E838F8398872093380563
:100FD0003093390540933A0550933B0560933C05A7
:100FE000E72F70933D05FF81F0933E052885209300
:100FF0003F052B818F2F9885A0904005B09041052B
:10100000C0904205D0904305E0904405F09045051E
:1010100000914605109147050E94170C722E832EF1
:10102000942E588F6F8B472E582E692E2093400593
:101030003093410540934205509343056093440526
:101040004092450550924605609247053091AF09A0
:101050002091AE09932F990F990BAB80B980CA806C
:10106000DC80ED80FE2E0F2F1885492F592F692F18
:10107000792F892F0E94B00A190149875A876B8BF3
:101080007C8B8D8B9E8B3091B1092091B009932F71
:10109000990F990BA72CB82CC92CD88CEF88F42C5D
:1010A000052D162D492F592F692F792F892F0E9431
:1010B000B00A59016A017B018C01910149855A8569
:1010C0006B897C898D899E890E94170CF22E032FD3
:1010D000142FD52EE62EB72FF82FE92FA0E00E946F
:1010E000320C09F02CF52B8139814A815C816D81AC
:1010F0007E818F8198850E94320C0CF06BC0EB854D
:10110000E0934005FC85F09341052D852093420531
:101110008E85809343059F8590934405E889E093ED
:101120004505F989F09346052A892093470552C061
:101130002F2D302F412F5D2D6E2D7B2F8F2F9E2F2A
:1011400008E00E94F90BF9014E8B5B8BB62FA72F9D
:101150008C8B9D8B80917509909176091C01412C97
:10116000512C612C712C43019F016B2F7A2F8C899C
:101170009D895101C12CD12CE12CF12C00E010E013
:101180000E94290C81F17CF12B8139814A815C819B
:101190006D817E818F819885A0E00E94320C51F193
:1011A0004CF18B85809340059C8590934105ED859E
:1011B000E0934205FE85F09343052F852093440577
:1011C000888980934505998990934605EA89E0933B
:1011D000470510C0212C312C412C512C612C712C35
:1011E000812C912C07C01F014E885B886B2E7A2EB4
:1011F0008C889D883092BB112092BA11C1010E9447
:101200000D019101A201B301C40106E00E94F90B96
:10121000C901880F991FFC01EF57F64F81A90E9461
:1012200006010E9470000091A6091091A709209163
:10123000A8093091A9094091AA095091AB09609180
:10124000AC097091AD0989E495E00E948A01689625
:101250000FB6F894DEBF0FBECDBFDF91CF911F91C7
:101260000F91FF90EF90DF90CF90BF90AF909F9045
:101270008F907F906F905F904F903F902F90089548
:10128000CF92DF92EF92FF92CF93DF93CDB7DEB78D
:1012900064970FB6F894DEBF0FBECDBF1D861E86C5
:1012A0001F86188A19861A861B861C861D821E8236
:1012B0001F82188619821A821B821C829E012F5F50
:1012C0003F4FAE014B5F5F4FBE01675F7F4FCE0167
:1012D0000D960E94FE048D859E85AF85B8899C0180
:1012E000AD012D54384041095109A5E0B0E00E94FC
:1012F000A50A24E030E040E050E00E94860A69013F
:101300007A012D873E874F87588B49855A856B8593
:101310007C859A01AB012D54384041095109A4EF55
:10132000B1E00E94A50A20E130E040E050E00E94D8
:10133000860A29873A874B875C87B6018AE697E059
:101340000E940F0A9093B7118093B61169857A8530
:1013500081E695E00E940F0A9093B9118093B8112D
:101360009093B5118093B41189E495E00E94250211
:101370008823C1F08FEF898B9091BA112091BB1116
:101380002A8B9B8B8C8B64E0CE0141960E94420499
:1013900010923305109234051092350510923605DF
:1013A00080E014C08091330590913405A0913505FB
:1013B000B09136050196A11DB11D80933305909320
:1013C0003405A0933505B093360581E064960FB6D9
:1013D000F894DEBF0FBECDBFDF91CF91FF90EF90AD
:1013E000DF90CF900895DC01BE5F1C92FC01EB5FA3
:1013F000FD4F108211821282138234971082118263
:1014000012821382FC0111921192EA17FB07D9F79D
:101410000895FC01EB5FFD4F8081918108954F920B
:101420005F926F927F928F929F92AF92BF92CF9274
:10143000DF92FF920F931F93CF93DF938C015B0199
:101440006C018EEFD81AF601F080E801CF0DD11DA6
:10145000CF0DD11D319648805980052C000C6608AF
:10146000770880819181A281B381AC01BD014419CB
:10147000550966097709C5010B2C000CAA0BBB0B9B
:101480003A014B01680E791E8A1E9B1EC401B301EE
:10149000608271828282938220E031E040E050E0FD
:1014A0000E94860AF801EB5FFD4F2083318342835F
:1014B0005383B982A882F394F601F082C901DF91C7
:1014C000CF911F910F91FF90DF90CF90BF90AF9081
:1014D0009F908F907F906F905F904F9008950FB680
:1014E000F894A895809160008861809360001092C4
:1014F00060000FBE78940E945F050E94CF050E9495
:1015000040098111FCCF0E943006F9CF052E97FBD0
:101510001EF400940E949D0A57FD07D00E943E0CC5
:1015200007FC03D04EF40C949D0A509540953095DD
:1015300021953F4F4F4F5F4F08959095809570953F
:1015400061957F4F8F4F9F4F08950E94600CA59F1C
:10155000900DB49F900DA49F800D911D11240895AE
:10156000DF93CF931F930F939A9DF02D219FF00D42
:101570008B9DF00D8A9DE02DF10D039FF00D029FD4
:10158000E00DF11D4E9DE00DF11D5E9DF00D4F9D96
:10159000F00D7F936F93BF92AF925F934F93D501FE
:1015A0000E94600C8B01AC01D7010E94600CEB0122
:1015B000E80FF91FD6010E94000B2F913F91D60131
:1015C0000E94600CC60FD71FE81FF91FAF91BF9193
:1015D0000E94000B2F913F910E94600CC60FD71FF5
:1015E000E81FF91FD6010E94600CE60FF71F980153
:1015F000BE01CF0111240F911F91CF91DF9108956A
:101600000E94600C460F571FC81FD91F08F431965F
:101610000895689401C0E894F92FF12B12F00C940E
:101620003D0BA0E0B0E0E7E1FBE00C94AF0B092E2E
:10163000059422F40E94990B112392F4F0E80F26EE
:10164000FFEFE094F09400951095B094C094D0947E
:10165000A194BF0ACF0ADF0AEF0AFF0A0F0B1F0B84
:101660000E94480B07FC0E94990BCDB7DEB7ECE057
:101670000C94CB0B689401C0E8948F929F92CF9307
:10168000DF930E94480BDF91CF919F908F90089538
:1016900088249924F401E401B0E49F93AA279A15C1
:1016A0008B049C04ED05FE05CF05D007A10798F437
:1016B000AD2FDC2FCF2FFE2FE92D982C892E982FC0
:1016C000872F762F652F542F432F322F2227B85084
:1016D00031F7BF9127C01B2EBF91BB27220F331FAD
:1016E000441F551F661F771F881F991F881C991C50
:1016F000EE1FFF1FCC1FDD1FAA1FBB1F8A149B04F8
:10170000EC05FD05CE05DF05A007B10748F08A18F6
:101710009B08EC09FD09CE09DF09A00BB10B216084
:101720001A94E1F62EF49401AF01BE01CD01000C34
:101730000895609570958095909530954095509559
:1017400021953F4F4F4F5F4F6F4F7F4F8F4F9F4FB1
:1017500008952F923F924F925F926F927F928F9255
:101760009F92AF92BF92CF92DF92EF92FF920F9330
:101770001F93CF93DF93CDB7DEB7CA1BDB0B0FB63A
:10178000F894DEBF0FBECDBF09942A8839884888F7
:101790005F846E847D848C849B84AA84B984C8848D
:1017A000DF80EE80FD800C811B81AA81B981CE0F84
:1017B000D11D0FB6F894DEBF0FBECDBFED01089569
:1017C0000F93083090F0982F872F762F652F542F86
:1017D000432F322F22270850F4CF220F331F441FEC
:1017E000551F661F771F881F991F0A95B2F70F9123
:1017F000089597FB10F8169400080F93083098F09E
:101800000850232F342F452F562F672F782F892FDD
:10181000902DF4CF05949795879577956795579573
:101820004795379527950A95AAF70F9108952A0DA0
:101830003B1D4C1D5D1D6E1D7F1D801F911F08955A
:101840002A193B094C095D096E097F09800B910B30
:1018500008952A153B054C055D056E057F0580073B
:10186000910708950024A7FD00942A17300540052C
:10187000500560057005800590050895A1E21A2EB7
:10188000AA1BBB1BFD010DC0AA1FBB1FEE1FFF1F24
:10189000A217B307E407F50720F0A21BB30BE40B74
:1018A000F50B661F771F881F991F1A9469F76095BB
:1018B0007095809590959B01AC01BD01CF01089575
:1018C000A29FB001B39FC001A39F700D811D112481
:1018D000911DB29F700D811D1124911D0895F894E2
:0218E000FFCF38
:00000001FF
