:100000000C9446000C9465000C9465000C946500FB
:100010000C9465000C9465000C9465000C946500CC
:100020000C9465000C9465000C9465000C946500BC
:100030000C9465000C9465000C9465000C94C80346
:100040000C9465000C9465000C9465000C944E01B2
:100050000C9446050C9409060C9465000C946500FC
:100060000C9465000C9465000C9465000C9465007C
:100070000C94D1060C94FB060C9465000C9465005E
:100080000C9465000C941A050C94650011241FBE95
:10009000CFEFD0E4DEBFCDBF13E0A0E0B1E0EEE6ED
:1000A000FBE400E00BBF02C007900D92AA31B1073C
:1000B000D9F729E1AAE1B3E001C01D92A037B20748
:1000C000E1F70E94D3210C94B5250C940000569AB8
:1000D0005E9884B1806B84B926982C9A85B18F750F
:1000E00085B910921A0310922F0383ED8CBD1DBCAD
:1000F00008955E9A08955E98089580911A0381117B
:10010000FECF10921B0380912F0381FF0DC09091B1
:10011000300390931C0391E090931D0392E0909321
:100120001A03EEE1F3E002C0ECE1F3E082FF0BC062
:1001300090913103908392E09183329690911A03CB
:100140009E5F90931A0383FF0EC09091320320911B
:1001500033032083918393E09283339690911A0323
:100160009D5F90931A0384FF0EC0909134032091F9
:1001700035032083918394E09283339690911A0300
:100180009D5F90931A0385FF0BC090913603908377
:1001900095E09183329690911A039E5F90931A0393
:1001A00086FF0BC090913703908396E0918332963F
:1001B00090911A039E5F90931A0387FF0AC0809163
:1001C0003803808387E0818380911A038E5F809358
:1001D0001A0310922F032C9881E28A95F1F7000000
:1001E000E0911A03E11106C081E28A95F1F700005F
:1001F0002C9A0895F0E0E55EFC4F80818EBD8091E1
:100200001A03815080931A030895029718F41092EC
:10021000300303C081E08093300380912F0382601C
:1002200080932F030895EFE2F3E08283808184605E
:1002300080830895EFE2F3E0948383838081886074
:1002400080830895EFE2F3E0968385838081806167
:1002500080830895EFE2F3E08F5F8783808180627F
:10026000808308959FEF980F9F3080F49FEF960F43
:100270009F3060F420E1829FC0011124862B80937F
:10028000370380912F03806480932F030895EFE25A
:10029000F3E0818780818068808308951F920F92A8
:1002A0000FB60F9211240BB60F928F93EF93FF931B
:1002B000E0911A03E11106C081E28A95F1F700008E
:1002C0002C9A0AC0F0E0E55EFC4F80818EBD8091E3
:1002D0001A03815080931A03FF91EF918F910F9031
:1002E0000BBE0F900FBE0F901F9018950F931F938A
:1002F000CF93DF9300D0CDB7DEB79C01CB01BA011D
:100300001A821982AC01460F571FF901DC01A417AC
:10031000B50761F0F894A895F999FECFE1BDF2BD5B
:10032000F89A789410B51D933196F1CF260F371FA8
:10033000F894A895F999FECF21BD32BDF89A78942A
:1003400010B52F5F3F4FF894A895F999FECF21BDC6
:1003500032BDF89A789400B59E012E5F3F4FAE01F2
:100360004F5F5F4F0E9438028981081307C081E008
:100370009A81191301C080E0819501C08FEF0F9021
:100380000F90DF91CF911F910F910895EF92FF92FF
:100390000F931F93CF93DF9300D0CDB7DEB78C01BF
:1003A000CB017A011A821982FB01640F751F980133
:1003B000E617F707D9F04191F894A895F894A89515
:1003C000F999FECFA22F21BD532F32BDF89A789410
:1003D000B0B5B41739F0F999FECFA1BD52BD40BDFB
:1003E000FA9AF99A78942F5F3F4FE2CF9E012E5FE1
:1003F0003F4FAE014F5F5F4F6E2D0E9438022A8142
:10040000C701800F911FF894A895F894A895F999C1
:10041000FECF81BD92BDF89A789430B5321739F08D
:10042000F999FECF81BD92BD20BDFA9AF99A7894D0
:1004300029810196F894A895F894A895F999FECF8A
:1004400081BD92BDF89A789430B5321739F0F99998
:10045000FECF81BD92BD20BDFA9AF99A78940F9093
:100460000F90DF91CF911F910F91FF90EF90089522
:10047000CF93DF93DA01E9012FEF28832C939C01BE
:100480006150B0F0F90181919F019C91E82FE9271B
:100490004E2F50E0CA0180509E4FFC018081988110
:1004A00098279C93FA01E050FF4F80818883E8CF22
:1004B000DF91CF910895F894E9E3F3E0108211827F
:1004C000128213821482158216821782109285007E
:1004D00010928400EFE6F0E08081816080831092CA
:1004E000800081E080938100789408952F923F925C
:1004F0004F925F926F927F928F929F92AF92BF9234
:10050000CF92DF92EF92FF920F931F93CF93DF93DF
:10051000CDB7DEB727970FB6F894DEBF0FBECDBFBD
:100520009E838D837901E42FD52ECB012091840009
:1005300030918500A9E3B3E011963C932E932C9063
:1005400011963C90119712964C90129713965C90CE
:1005500013971496FC91149715962C9115972A834E
:1005600016962C9116972B8317962C912C83980115
:10057000A7016E2F7D2D02E00E94832339014A01DD
:100580006F83E72FB82FA92F0E94832359016A0197
:100590007B018C019301A4016F817E2F8B2F9A2FF9
:1005A0000E94BA2351016201EF2EFA800B811C8157
:1005B0000E94BA23ED81FE812083318342835383DD
:1005C000648375838683978327960FB6F894DEBF7E
:1005D0000FBECDBFDF91CF911F910F91FF90EF9094
:1005E000DF90CF90BF90AF909F908F907F906F9053
:1005F0005F904F903F902F9008957F928F929F929F
:10060000AF92BF92CF92DF92EF92FF920F931F9320
:10061000CF93DF93FC0180918400909185009093AB
:100620003A0380933903708081809280D381C481A2
:10063000B581A681F781A0903903B0903A03C090AC
:100640003B03D0903C03E0903D03F0903E030091CB
:100650003F0310914003272D382D492D5D2F6C2F1E
:100660007B2F8A2F9F2F0E94CF23E1E0A72CB82C4D
:10067000C92CDD2EEC2EFB2E0A2F1F2F0E94D82313
:1006800008F4E0E08E2FDF91CF911F910F91FF9042
:10069000EF90DF90CF90BF90AF909F908F907F9022
:1006A00008952F923F924F925F926F927F928F9216
:1006B0009F92AF92BF92CF92DF92EF92FF920F93F1
:1006C0001F93CF93DF9300D000D01F92CDB7DEB73A
:1006D000FC01809184009091850090933A0380936F
:1006E0003903208031804280538064807580A681E8
:1006F000A983E781A0903903B0903A03C0903B03EF
:10070000D0903C03E0903D03F0903E0300913F0306
:10071000109140039101A201B3018A2F9E2F0E94E4
:10072000CF235B838C839D83510162017301098117
:100730001E2F0E94D82360F4E4E1AE2EB12CC12C10
:10074000D12CE12CF12C00E010E00E94DF2208C047
:1007500020E030E040E050E060E070E080E090E0D9
:100760000F900F900F900F900F90DF91CF911F91EE
:100770000F91FF90EF90DF90CF90BF90AF909F9040
:100780008F907F906F905F904F903F902F90089543
:100790001F920F920FB60F9211240BB60F922F9348
:1007A0003F934F935F936F937F938F939F93EF93B9
:1007B000FF93E9E3F3E02081318142815381648139
:1007C0007581868197814F5F5F4F6F4F7F4F8F4F4E
:1007D0009F4F208331834283538364837583868351
:1007E0009783FF91EF919F918F917F916F915F918F
:1007F0004F913F912F910F900BBE0F900FBE0F9016
:100800001F9018958F929F92AF92BF92CF92DF92D6
:10081000EF92FF921F93CF93DF934A015B01C22FA8
:1008200010924C0610924D0610924E0610924505FD
:100830001092440510924705109246051092490502
:10084000109248058093430381E090E09093420327
:100850008093410360EA75E286E290E0A50194018D
:100860000E94F72169017A01C501B4010E94AA24FE
:100870004B015C019B01AC0166E571E283E89CE4FD
:100880000E94FC230E947324122FD32FA5019401F0
:100890006EEC78E08CEE9CE40E94FC230E947324B2
:1008A000209A289ABB27AF2D9E2D8D2D8093C500B1
:1008B000C092C400C13019F020F48EE003C086E37A
:1008C00001C086E28093C20082E08093C00088E984
:1008D0008093C100812F9D2F909399008093980061
:1008E00030939B0020939A001092900010929100F8
:1008F000809171008460809371008091910082608A
:1009000080939100DF91CF911F91FF90EF90DF9046
:10091000CF90BF90AF909F908F900895A895EFEFE4
:10092000F0E0262F30E040914E06DF01A41BB10914
:100930002A173B07C4F7282FFC018E2F821B86172E
:1009400068F4A0914D06B0E08191A45BBA4F8C93FE
:1009500080914D068F5F80934D06EFCF80914E06BC
:10096000680F60934E068091C10085FD17C080918D
:100970004103909142030297D1F788E090E0909371
:1009800042038093410328988091C0008064809343
:10099000C0008091C10080628093C1000895809161
:1009A0004805909149050895A895262F30E040917B
:1009B00048055091490542175307C8F3482FFC01D9
:1009C0008E2F841B861798F4A0914405B09145059D
:1009D000AC5BBC4F8C91819380914405909145050F
:1009E000019691709093450580934405E9CF8091DD
:1009F000480590914905821B930B9093490580937C
:100A00004805089510924E0680914D0680934C063D
:100A10000895109249051092480510924B051092C6
:100A20004A0580914605909147059093450580932E
:100A3000440508951F920F920FB60F9211240BB622
:100A40000F928F939F93EF93FF93EAE4F5E08081F9
:100A5000918190934905809348051182108282E02C
:100A600090E09093420380934103E1E9F0E08081BC
:100A70008D7F8083C19AFF91EF919F918F910F900D
:100A80000BBE0F900FBE0F901F9018951F920F92E4
:100A90000FB60F9211240BB60F922F933F938F93A3
:100AA0009F93EF93FF931092950010929400809182
:100AB0009100826080939100809141039091420364
:100AC000019731F08091410390914203089751F4CE
:100AD000E0914605F09147058091C600EC5BFC4F24
:100AE00080838AC0C19915C08091C00084FD11C067
:100AF0008091C00082FD0DC080914805909149050C
:100B000020914A0530914B05820F931F813092400E
:100B100020F1E0914605F09147058091C600EC5B1D
:100B2000FC4F8083809146059091470520914A05AE
:100B300030914B05821B930B9170909347058093E6
:100B4000460510924B0510924A0581E090E0909383
:100B5000420380934103C19A4FC0E0914605F09152
:100B600047058091C600EC5BFC4F80838091410378
:100B700090914203029769F5E0914605F09147058F
:100B8000EC5BFC4F208180914303022E000C330B61
:100B900090E028173907B1F48091460590914705F8
:100BA00001969170909347058093460580914A0580
:100BB00090914B05019690934B0580934A0584E0F4
:100BC00090E002C081E090E0909342038093410363
:100BD00013C08091460590914705019691709093BE
:100BE00047058093460580914A0590914B050196F3
:100BF00090934B0580934A05FF91EF919F918F91C0
:100C00003F912F910F900BBE0F900FBE0F901F9032
:100C100018951F920F920FB60F9211240BB60F92D8
:100C20008F939F93EF93FF9380914E06882399F0C3
:100C3000E0914C06F0E0E45BFA4F80818093C600BF
:100C400080914C068F5F80934C0680914E068150B8
:100C500080934E0616C08091C1008F7D8093C100A5
:100C6000289AC19A10929500109294008091910058
:100C700082608093910081E090E0909342038093A2
:100C80004103FF91EF919F918F910F900BBE0F90B9
:100C90000FBE0F901F901895109252081092530893
:100CA0001092540810924F0710925007109251075B
:100CB00082E08093CD0088E08093CC00E8ECF0E007
:100CC000808182608083E9ECF0E0808188698083A4
:100CD000EAECF0E08081866080830895A895EFEFCC
:100CE000F0E0262F30E040915408DF01A41BB10949
:100CF0002A173B07C4F7282FFC018E2F821B86176B
:100D000068F4A0915308B0E08191AE5AB84F8C932B
:100D1000809153088F5F80935308EFCF80915408E0
:100D2000680F609354088091C90085FD0AC08091C6
:100D3000C80080648093C8008091C900806280935D
:100D4000C9000895809151070895A89520915107F1
:100D50002617E0F3282FFC018E2F821B861768F4DC
:100D6000A0914F07B0E0A15BB94F8C918193809126
:100D70004F078F5F80934F07EFCF80915107861BFE
:100D800080935107089510925408109252081092BF
:100D9000530808951092510710924F071092500770
:100DA00008951F920F920FB60F9211240BB60F9257
:100DB0008F93EF93FF93809151078F3F91F0E091D4
:100DC0005007F0E08091CE00E15BF94F8083809185
:100DD00050078F5F80935007809151078F5F8093FA
:100DE0005107FF91EF918F910F900BBE0F900FBEA7
:100DF0000F901F9018951F920F920FB60F9211240B
:100E00000BB60F928F93EF93FF9380915408882332
:100E100099F0E0915208F0E0EE5AF84F808180930B
:100E2000CE00809152088F5F8093520880915408C1
:100E300081508093540805C08091C9008F7D8093B4
:100E4000C900FF91EF918F910F900BBE0F900FBED5
:100E50000F901F901895DC01BC5F11961C921E929A
:100E6000FC01E65FFB4F1082118212821382148212
:100E7000158216821782389710821182128213828D
:100E80001482158216821782FC0111921192EA17C0
:100E9000FB07D9F70895FC01E65FFB4F8081918144
:100EA00008952F923F924F925F926F927F928F920E
:100EB0009F92AF92BF92CF92DF92EF92FF920F93E9
:100EC0001F93CF93DF93CDB7DEB728970FB6F89473
:100ED000DEBF0FBECDBFDC013B012C012CEF521A4F
:100EE000F201208031804101880C991C8A0E9B1EE2
:100EF000F4010190F081E02D9F0140E050E060E0BE
:100F000070E0CB01E9833A834B835C836D837E83FE
:100F10008F839887930140E050E060E070E080E0CC
:100F200090E0A980BA80C12CD12CE12CF12C00E0FA
:100F300010E00E94CF23FD01EE5FFB4FA080B18047
:100F4000C280D380E480F580068117810E94BA2395
:100F5000208331834283538364837583868397839D
:100F600009E00E949E23A65FBB4F2C9311963C93F1
:100F7000119712964C93129713965C9313971496AD
:100F80006C93149715967C93159716968C931697D9
:100F900017969C93F40171826082FFEF2F1A3F0A2B
:100FA00041E03422F20131822082C90128960FB635
:100FB000F894DEBF0FBECDBFDF91CF911F910F918F
:100FC000FF90EF90DF90CF90BF90AF909F908F9069
:100FD0007F906F905F904F903F902F90089587B1D2
:100FE0008F7087B988B18F7088B98AB1806A8AB9E1
:100FF0005D985F9A87E69CE00E942B0785E598E064
:101000000C942B070F931F93CF93DF938C01E9016F
:10101000FC0111821082FB0111821082FA011182FF
:101020001082198218825F98F3E0FA95F1F70000B8
:101030005D9883E08A95F1F700005D9AE3E0EA9518
:10104000F1F700005D98F3E0FA95F1F700005D9A82
:1010500083E08A95F1F700002DE05D98E3E0EA95E2
:10106000F1F700005D9AF80180819181880F991F46
:1010700091838083349B03C08160918380838881C6
:101080009981880F991F99838883379B03C081605A
:1010900099838883215009F75F9AF80160817181F3
:1010A0007F7087E69CE00E945107F801918380835E
:1010B000688179817F7085E598E00E945107998366
:1010C0008883DF91CF911F910F910895EEEFF0E1AA
:1010D0004281538164817581268180810C94020450
:1010E000AF92BF92CF92DF92EF92FF920F931F9336
:1010F000CF93DF93CDB7DEB7DA950FB6F894DEBFA6
:101100000FBECDBF0E94CF04882309F40CC262E059
:10111000CE0101960E94D4041A81143009F478C0DB
:101120001CF4133041F0E1C1163009F4F3C0103162
:1011300009F435C1DAC10E94CF04863008F444C1F5
:101140000E94CF04682FCE0103960E94D4049E0112
:10115000265F3F4FAE01475F5F4F66E0CE010196CD
:101160000E9438029F8189859813DDC198858A8500
:101170009813D9C18B8180937A108C8180937910D8
:10118000C0907910D0907A10C601805C9346C090D0
:101190000611D0900711C80ED91E8D8180937A1048
:1011A0008E8180937910A0907910B0907A100A2DDA
:1011B000000F0B8313E0E12CF12CEA14FB0409F47B
:1011C00093C069E770E1C7018C0D9D1D0E94210C41
:1011D000813029F48091FE10898383E876C1E1E0B3
:1011E000F0E0EC0FFD1FE10FF11D80917A1080837C
:1011F00081E0810FE1E0F0E0EC0FFD1FE80FF11D51
:101200001E5F8091791080838FEFE81AF80AD5CF9E
:101210000E94CF04863008F486C10E94CF04682F54
:10122000CE0103960E94D4049E01265F3F4FAE017B
:10123000475F5F4F66E0CE0101960E9438029F81B2
:101240008985981370C198858A8598136CC18B81A4
:1012500080937A108C8180937910C0907910D0900F
:101260007A10C601805D9A48C0900611D09007118F
:10127000C80ED91E8D8180937A108E81809379104B
:10128000A0907910B0907A100A2D000F0B8313E014
:10129000E12CF12CEA14FB0439F169E770E1C70194
:1012A0008C0D9D1D0E94210C813029F48091FE102F
:1012B000898384E80AC1E1E0F0E0EC0FFD1FE10F53
:1012C000F11D80917A10808381E0810FE1E0F0E0F0
:1012D000EC0FFD1FE80FF11D1E5F809179108083D8
:1012E0009FEFE91AF90AD6CF412F50E09A012F5FFC
:1012F0003F4F81E090E08C0F9D1F280F391F480F52
:10130000591F63E0600FCE0101960E94380265E02C
:10131000600F05C10E94CF04863008F404C10E940A
:10132000CF04682FCE0103960E94D4049E01265F4D
:101330003F4FAE01475F5F4F66E0CE0101960E94CE
:1013400038029F8189859813EEC098858A85981305
:10135000EAC08B8180937A108C8180937910809180
:10136000791090917A10805C93462091061130910B
:1013700007114D8140937A104E814093791060910E
:10138000791070917A10820F931F0E944C10813057
:1013900009F0A9C08091FE10898386E896C00E945A
:1013A000CF04853088F065E0CE0103960E94D40416
:1013B0000F81002E000C110B0F5F1F4F0E94CF04F6
:1013C00090E00817190744F00E94CF04682FCE015F
:1013D00001960E94D404A7C00E94CF04682FCE01BA
:1013E00008960E94D4046F81695F9E013395AE0117
:1013F00041505F4FCE0101960E9438028F81082E26
:10140000000C990BE8E0F0E0EC0FFD1FE80FF91F6E
:101410003081C150DF4F2881CF5FD040321383C06D
:10142000FE01E80FF91F9185C050DF4F8881C05041
:10143000D140981378C08B8180937A108C818093EF
:101440007910E0907910F0907A10C701805C934693
:10145000E0900611F0900711E80EF91E8D8180933F
:101460007A108E8180937910C0907910D0907A1084
:1014700000E010E002C00F5F1F4F802F880F895FD0
:101480000C151D0529F190E0E1E0F0E0EC0FFD1FE7
:10149000E80FF91F208120937A10E2E0F0E0EC0FD2
:1014A000FD1FE80FF91F80818093791060917910FA
:1014B00070917A10C8018E0D9F1D0E944C108130D2
:1014C000D1F68091FE10898380E98A8382E01AC078
:1014D0009E01285F3F4FAE01495F5F4F66E0CE013E
:1014E00001960E94380268E01AC00E94CF04682F5B
:1014F000CE0101960E94D4048091FE108983106869
:101500001A8381E08B839E012B5F3F4FAE014C5FBE
:101510005F4F63E0CE0101960E94380265E0CE0184
:1015200001960E948E04D3950FB6F894DEBF0FBECD
:10153000CDBFDF91CF911F910F91FF90EF90DF9082
:10154000CF90BF90AF90089542E758E06EEF70E102
:1015500080E090E00E94C601FFCF42E758E06EEFC6
:1015600070E180E090E00C9476011092EB10109204
:10157000EA101092ED101092EC101092EF101092F1
:10158000EE101092F1101092F0101092F3101092D1
:10159000F2101092F5101092F4101092F7101092B1
:1015A000F6101092F9101092F8101092FB10109291
:1015B000FA101092FD101092FC101092D51010929B
:1015C000D4101092D6101092D7101092D8101092FA
:1015D000D9101092DD101092DC101092DF101092D2
:1015E000DE101092E1101092E0101092E2101092B2
:1015F000E3101092E4101092E5101092FF10109278
:10160000FE1010920011109201111092021110920E
:1016100003111092051110920411109209111092E9
:10162000081110920B1110920A1110920D111092C4
:101630000C1110920F1110920E11109211111092A4
:101640001011109213111092121110921511109284
:101650001411109217111092161110921911109264
:10166000181110921B1110921A1110921D11109244
:101670001C1110921F1110921E1110922011109225
:101680002111109222111092231110922411109204
:1016900025111092261110922711109228111092E4
:1016A000291110922A1110922B1110922C111092C4
:1016B0002D1110922E1110922F11109230111092A4
:1016C0003111109232111092331110923411109284
:1016D0003511109236111092371110923811109264
:1016E000391110923A1110923B1110923C11109244
:1016F0003D1110923E1110923F1110924011109224
:101700004111109242111092431110924411109203
:1017100045111092461110924711109248111092E3
:10172000491110924A1110924B1110924C111092C3
:101730004D1110924E1110924F11109250111092A3
:101740005111109252111092531110925411109283
:101750005511109256111092571110925911109262
:10176000581110925B1110925A1110925D11109243
:101770005C1110925F1110925E1110926111109223
:101780006011109263111092621110926511109203
:1017900064111092671110926611109269111092E3
:1017A000681110926B1110926A1110926D111092C3
:1017B0006C1110926F1110926E1180E090E1909375
:1017C000E9108093E8100E94AD0AE091E810F091D2
:1017D000E9108F3F11F4F0682FC020912011309153
:1017E0002111409122115091231160912411709187
:1017F00025118091261190912711203432444F40B9
:1018000051056105710581059105A1F098F080E40D
:101810008093201182E4809321118FE08093221124
:10182000109223111092241110922511109226115A
:1018300010922711FF7EF062F093E910E093E81018
:1018400008950F93FB0188332EE9920709F496C29D
:1018500008F0FAC08F3A2CE9920709F41AC208F08E
:1018600072C0811526E7920709F43FC288F58B3FC5
:1018700025E7920709F425C288F4893F25E79207F6
:1018800009F411C208F018C2883F25E7920709F051
:10189000E9C38091D4109091D510F7C38D3F45E7EF
:1018A000940709F418C208F411C28E3F45E7940763
:1018B00009F416C28F3F25E7920709F0D3C3809140
:1018C000E2109091E310A091E410B091E5101CC2D9
:1018D000863A4CE9940709F4C8C1F8F48A3246E71D
:1018E000940709F407C250F4813046E7940709F0E1
:1018F000B9C38091E6109091E710C7C3843A2CE9F0
:10190000920709F4ADC1853A4CE9940709F0AAC3DE
:101910008091EC109091ED10B8C3883A2CE99207B1
:1019200009F4ADC108F4A6C1893A2CE9920709F47B
:10193000ABC18E3A4CE9940709F094C38091F6103C
:101940009091F710A2C3823D2DE9920709F4F3C1EB
:1019500008F03FC08E362DE9920709F4D8C118F57A
:10196000863D2CE9920709F499C150F4883B2CE993
:10197000920709F077C38091FA109091FB1085C30C
:101980008C364DE9940709F4BAC18D362DE99207DA
:1019900009F068C38091001190910111A09102118A
:1019A000B0910311B1C180374DE9940709F4B9C171
:1019B00008F4B2C1803D4DE9940709F4B7C1813DF7
:1019C0002DE9920709F04EC380910A1190910B11F5
:1019D0005CC3873D4DE9940709F4C1C1B0F4843D6F
:1019E0004DE9940709F4B1C108F4AAC1853D4DE958
:1019F000940709F4AFC1863D2DE9920709F032C37F
:101A0000809114119091151140C385334EE99407CC
:101A100009F4AAC150F484334EE9940709F022C3B3
:101A2000809118119091191130C386332EE99207D5
:101A300009F49FC187334EE9940709F013C38091DD
:101A40001E1190911F1121C38C342EE9920709F4C5
:101A500075C208F08FC082342EE9920709F4FEC1E6
:101A600008F04AC08D332EE9920709F4BFC110F582
:101A70008A332EE9920709F4A3C108F490C18B338D
:101A80002EE9920709F4ADC18C334EE9940709F0B1
:101A9000E9C2209128113091291140912A115091C9
:101AA0002B1160912C1170912D1180912E1190911C
:101AB0002F117CC28F332EE9920709F4B9C108F4C3
:101AC000A6C180342EE9920709F4B7C181344EE9EA
:101AD000940709F0C7C22091301130913111409123
:101AE0003211509133116091341170913511809100
:101AF0003611909137116CC287342EE9920709F4A0
:101B0000E5C110F584342EE9920709F4BDC108F44B
:101B1000B6C185342EE9920709F4C7C186344EE96F
:101B2000940709F09FC220913811309139114091EA
:101B30003A1150913B1160913C1170913D1180918F
:101B40003E1190913F1156C289342EE9920709F453
:101B5000D3C108F4C0C18A342EE9920709F4DDC16B
:101B60008B344EE9940709F07DC280914011909129
:101B700041118BC286352EE9920709F44BC2F0F56C
:101B800081352EE9920709F413C210F58E342EE93F
:101B9000920709F4F5C108F4E2C18F342EE99207E7
:101BA00009F4FFC180354EE9940709F05BC220912A
:101BB0005011309151114091521150915311609137
:101BC0005411709155118091561190915711EEC199
:101BD00083352EE9920709F413C208F4FBC184355A
:101BE0002EE9920709F411C285354EE9940709F0F0
:101BF00039C280915A1190915B1147C28B352EE901
:101C0000920709F41BC2B0F488352EE9920709F453
:101C10000BC208F404C289352EE9920709F409C2FF
:101C20008A354EE9940709F01DC2809164119091A4
:101C300065112BC28D352EE9920709F409C208F40B
:101C400002C28E352EE9920709F407C28F354EE99C
:101C5000940709F007C280916E1190916F1115C21F
:101C60008091EA109091EB1010C28091EE1090914B
:101C7000EF100BC28091F0109091F11006C280918C
:101C8000F2109091F31001C28091F4109091F51030
:101C9000FCC18091F8109091F910F7C18091FC106F
:101CA0009091FD10F2C18091D6109091D710A09123
:101CB000D810B091D91028C08091D6109091D7102B
:101CC000E4C18091DA109091DB10DFC18091DC10CB
:101CD0009091DD10DAC18091DE109091DF10D5C1B6
:101CE0008091E0109091E110D0C18091E21090912C
:101CF000E310CBC18091E8109091E910C6C18091AA
:101D0000FE109091FF10C1C1B183A083C0C180912A
:101D1000001190910111B9C18091041190910511A8
:101D2000B4C18091061190910711AFC18091081143
:101D300090910911AAC180910C1190910D11A5C12A
:101D400080910E1190910F11A0C18091101190916E
:101D500011119BC1809112119091131196C1809124
:101D600016119091171191C180911A1190911B1128
:101D70008CC180911C1190911D1187C1209120115F
:101D80003091211140912211509123116091241121
:101D900070912511809126119091271107C12091F2
:101DA0002011309121114091221150912311609105
:101DB000241170912511809126119091271108C14D
:101DC0002091201130912111409122115091231125
:101DD0006091241170912511809126119091271105
:101DE00009C180912011909121114FC1209128119A
:101DF0003091291140912A1150912B1160912C1191
:101E000070912D1180912E1190912F11E1C0209190
:101E100028113091291140912A1150912B11609174
:101E20002C1170912D1180912E1190912F11E2C0E3
:101E3000809128119091291128C120913011309161
:101E400031114091321150913311609134117091E0
:101E500035118091361190913711A8C02091301121
:101E60003091311140913211509133116091341100
:101E7000709135118091361190913711BBC08091CE
:101E800030119091311101C12091381130913911E7
:101E900040913A1150913B1160913C1170913D116C
:101EA00080913E1190913F1181C020913811309165
:101EB000391140913A1150913B1160913C11709150
:101EC0003D1180913E1190913F1182C08091381157
:101ED00090913911DAC02091401130914111409117
:101EE00042115091431160914411709145118091BC
:101EF0004611909147115AC02091401130914111E3
:101F000040914211509143116091441170914511DB
:101F100080914611909147115BC020914011309102
:101F200041114091421150914311609144117091BF
:101F3000451180914611909147115CC02091481144
:101F40003091491140914A1150914B1160914C11BF
:101F500070914D1180914E1190914F1127C0209199
:101F600048113091491140914A1150914B116091A3
:101F70004C1170914D1180914E1190914F1128C0CC
:101F8000209148113091491140914A1150914B11C3
:101F900060914C1170914D1180914E1190914F11A3
:101FA00029C080914811909149116FC000E323C06E
:101FB0002091501130915111409152115091531173
:101FC0006091541170915511809156119091571153
:101FD00000E211C0209150113091511140915211E5
:101FE0005091531160915411709155118091561177
:101FF0009091571100E10E949E232083318347C0B6
:10200000809150119091511140C080915811909140
:1020100059113BC080915C1190915D1136C0809147
:102020005E1190915F1131C08091601190916111AA
:102030002CC0809162119091631127C0809166112C
:102040009091671122C080916811909169111DC013
:1020500080916A1190916B1118C080916C119091D0
:102060006D1113C09C012852304A2115384088F464
:10207000A0E0B0E08852904AA109B10982509F4E79
:10208000DC01AE58BF4F8C9190E09183808380E05B
:1020900001C081E00F9108952F923F924F925F927D
:1020A0006F927F928F929F92AF92BF92CF92DF9268
:1020B000EF92FF920F931F93CF93DF93CDB7DEB7CD
:1020C000A4970FB6F894DEBF0FBECDBF8E330EE9D6
:1020D000900709F447C508F0A3C0813D2DE9920798
:1020E00009F401C408F052C08F3A4CE9940709F48E
:1020F000BDC110F5873AACE99A0709F467C170F4DD
:10210000853AECE99E0709F42FC108F044C1843AEE
:102110000CE9900709F413C10C94F218893A1CE9F0
:10212000910709F46DC108F45EC18E3A3CE993074A
:1021300009F475C10C94F2188D364DE9940709F431
:1021400064C388F4863DACE99A0709F43DC38C3634
:10215000BDE99B0709F447C3883BECE99E0711F0F2
:102160000C94F21897C18F36FDE99F0709F48AC3D2
:1021700008F467C380371DE9910709F493C3803DD4
:102180002DE9920709F4A3C30C94F21885333EE9B4
:10219000930709F4FFC300F5853D5DE9950709F450
:1021A000C9C360F42091F6103091F710833DBDE96A
:1021B0009B0709F4ADC308F4A2C3B3C3873DFDE98F
:1021C0009F0709F4CFC308F4C1C384331EE9910704
:1021D00009F4D4C30C94F21889332EE9920709F458
:1021E00018C460F42091F6103091F71087334EE94F
:1021F000940709F4E4C308F4D9C3EAC38B33AEE906
:102200009A0709F45CC408F426C48C33EEE99E07EF
:1022100009F462C48D33FEE99F0709F481C4E2C763
:102220008F340EE9900709F4CFC608F044C0863415
:102230002EE9920709F48FC5D0F42091F610309161
:10224000F71082344EE9940709F40AC540F480344B
:10225000AEE99A0709F4C4C408F4B8C4E2C48434EB
:10226000EEE99E0709F437C508F42BC555C58A3435
:102270000EE9900709F4EDC560F42091F610309155
:10228000F71088344EE9940709F4A3C508F497C5FC
:10229000C1C58C34AEE99A0709F41CC608F40DC612
:1022A0008D34EEE99E0709F439C68E34FEE99F07A6
:1022B00009F456C697C787350EE9900709F427C772
:1022C000D0F42091F6103091F71083354EE9940741
:1022D00009F4F8C640F48135AEE99A0709F4A2C6BC
:1022E00008F47FC6BEC68535EEE99E0709F4FDC633
:1022F00008F4F2C603C78B350EE9900709F42EC720
:1023000060F42091F6103091F71089354EE994076A
:1023100009F412C708F407C718C78D35AEE99A0744
:1023200009F434C708F426C78E35EEE99E0709F490
:102330003DC78F35FEE99F0709F444C753C7809115
:10234000F6109091F710892B41F46130710529F452
:102350007093EB106093EA1010C08FEF9FEF909393
:10236000EB108093EA1009C06536710544F084E6ED
:1023700090E09093ED108093EC1080E047C76C39AB
:102380000FEF70071CF48CE99FEFF3CF7093ED1003
:102390006093EC10F2CF7093EF106093EE10809189
:1023A000F4109091F510019729F480911A119091F1
:1023B0001B1104C08091181190911911861797076D
:1023C000E0F69093EF108093EE10D7CF6130710557
:1023D00029F47093F1106093F010CFCF1092F110A8
:1023E0001092F010CACF6130710529F47093F31088
:1023F0006093F210C2CF1092F3101092F210BDCF82
:102400006130710539F481E090E09093F51080938C
:10241000F410B3CF1092F5101092F410AECF80915B
:10242000F6109091F710009771F461307105C9F4BE
:102430008FEF9FEF9093EB108093EA107093F7105B
:102440006093F6109ACF019761F46130710549F0FD
:102450008091F8109091F910019719F40E94A40A44
:102460008CCF1092F7101092F61087CF8091F61053
:102470009091F710019709F080CF6130710529F430
:102480007093F9106093F81078CF1092F9101092B1
:10249000F81073CF8091F6109091F710019709F022
:1024A0006CCF6130710509F068CF6091581170915F
:1024B000591180E090E00E94AA242DEC3CEE43EFFD
:1024C00054E40E94482520E030E040E05AE30E94B6
:1024D00048250E94732419014B875C876D877E878E
:1024E0008F87988B609108117091091180E090E0BE
:1024F0000E94AA2420E030E045EB54E40E944825E5
:1025000020E030E040E85AE30E9448250E9473240E
:1025100059016A017B01E82F192F04E00E948323EF
:102520000E2F0E94CF2349013A01B62FA72FF82F73
:10253000E92F04E00E94832359016A017B018C0189
:102540009401A3016B2F7A2F8F2F9E2F0E94BA2305
:102550005101CB84DC84ED84FE840F8518890E94B0
:10256000DF22298B3A8B4B8B5B8F6C8F7D8F8E8F0D
:102570009F8F80910C1190910D1145E09695879554
:102580004A95E1F78C0120E030E040E050E0BA01EC
:1025900089831A832B833C834D835E836F83788783
:1025A00020E731E13A872987612C712C812C912C0D
:1025B00019A218A2412C512CA980BA80CB80DC80B2
:1025C000ED80FE800F8118859301A40169A178A197
:1025D000C2010E94DF22E22F2F3F31054105510544
:1025E000610571058105910511F008F0EFEFA985EE
:1025F000BA85ED93BA87A9879301A40169A178A14F
:10260000C201A988BA88CB88DB8CEC8CFD8C0E8D3E
:102610001F8D0E94BA2339014A0169A378A32C01B6
:10262000A057B94149F660910A1170910B1180E0F1
:1026300090E00E94AA2420E030EC4DED54E40E948A
:10264000482520E030E040E85AE30E9448250E94F7
:10265000732459016A017B01E82F192F04E00E94BD
:1026600083230E2F0E94CF2349013A01B62FA72FB3
:10267000F82FE92F04E00E94832359016A017B01AE
:102680008C019401A3016B2F7A2F8F2F9E2F0E9414
:10269000BA235101CB84DC84ED84FE840F85188934
:1026A0000E94DF222B873C874D875E876F87788B60
:1026B000898B9A8B80910E1190910F111C0135E03E
:1026C000369427943A95E1F7F101E059FE4E2081C6
:1026D00030E040E050E060E070E080E090E0AB840B
:1026E000BC84CD84DE84EF84F88809891A890E942D
:1026F000CF232B8F3C8F4D8F5E8F6F8F78A389A355
:102700009AA3612C712C812C912C19821986412C51
:10271000512C1CA21BA2810120E030E040E050E0DF
:10272000BA012B8A1C8B2D8B3E8B4F8B588F698F58
:102730007A8FAB88BC88C12CD12CE12CF12C00E025
:1027400010E09301A40169817985C2010E94DF2212
:10275000AB84BC84CD84DE84EF84F88809891A892F
:102760000E94BA23EBA1FCA1E059FE4EA22F2F3FFD
:10277000310541055105610571058105910511F08E
:1027800008F0AFEFA0832BA13CA12F5F3F4F3CA3EC
:102790002BA39301A40169817985C201AB8CBC8C08
:1027A000CD8CDE8CEF8CF8A009A11AA10E94BA236F
:1027B00039014A01698379872C014BA15CA1241658
:1027C000350608F0B6CFD9CD8091F6109091F7106C
:1027D000019721F46130710509F4FFCF1092FD10CB
:1027E0001092FC10CACD8091F6109091F7100197CD
:1027F00009F0C3CDCB010197873F910508F0BDCD0E
:102800007093FF106093FE10B8CD8091F6109091F8
:10281000F710019709F0B1CDCB01A0E0B0E0BC0109
:10282000552744278091001190910111A091021128
:10283000B0910311AA27BB27842B952BA62BB72B6E
:1028400018C08091F6109091F710019709F095CD7E
:102850008B0120E030E08091001190910111A09156
:102860000211B091031188279927802B912BA22B5D
:10287000B32B8093001190930111A0930211B09398
:1028800003117BCD8091F6109091F710019709F01C
:1028900074CD6330710508F070CD709305116093AD
:1028A00004116BCD8091F6109091F710019709F00B
:1028B00064CD6F3F5FEF75070CF45FCD623071053B
:1028C0000CF05BCD709307116093061156CD80918B
:1028D000F6109091F710019709F04FCD7093091100
:1028E000609308114ACD8091F6109091F7100197EE
:1028F00009F043CD70930B1160930A113ECD213046
:10290000310509F03ACD70930D1160930C1135CD5E
:102910002130310509F031CD70930F1160930E1104
:102920002CCD2130310509F028CD70931111609321
:10293000101123CD8091F6109091F710019709F0B6
:102940001CCD709313116093121117CD8091F61066
:102950009091F710019709F010CD709315116093C5
:1029600014110BCD8091F6109091F710019709F09A
:1029700004CD7093171160931611FFCC8091F6105F
:102980009091F710019709F0F8CC709319116093AA
:102990001811F3CC8091F6109091F710019709F07F
:1029A000ECCC70931B1160931A11E7CC21303105E8
:1029B00009F0E3CC70931D1160931C11DECC213023
:1029C000310509F0DACC70931F1160931E11D5CC3C
:1029D0002130310509F0D1CC9B0140E050E060E0AE
:1029E00070E080E090E000E30E94832300912011DA
:1029F00010912111B0912211A0912311F091241175
:102A0000E0912511202B312B4B2B5A2B6F2B7E2B3A
:102A100045C08091F6109091F710019709F0ADCC68
:102A20009B0140E050E060E070E080E090E000E278
:102A30000E9483230091201110912111B091221145
:102A4000A0912311F0912611E0912711202B312B19
:102A50004B2B5A2B21C08091F6109091F7100197C3
:102A600009F08BCC9B0140E050E060E070E080E03A
:102A700090E000E10E948323009120111091211128
:102A8000B0912411A0912511F0912611E091271108
:102A9000202B312B6B2B7A2B8F2B9E2B20932011ED
:102AA00030932111409322115093231160932411EC
:102AB0007093251180932611909327115ECC8091FD
:102AC000F6109091F710019709F057CC4B016093E5
:102AD00020119092211151CC8091F6109091F71015
:102AE000019709F04ACC9B0140E050E060E070E0C3
:102AF00080E090E000E30E94832300912811109170
:102B00002911B0912A11A0912B11F0912C11E09173
:102B10002D11202B312B4B2B5A2B6F2B7E2B45C08D
:102B20008091F6109091F710019709F026CC9B0147
:102B300040E050E060E070E080E090E000E20E9461
:102B400083230091281110912911B0912A11A0918D
:102B50002B11F0912E11E0912F11202B312B4B2BAB
:102B60005A2B21C08091F6109091F710019709F02F
:102B700004CC9B0140E050E060E070E080E090E039
:102B800000E10E9483230091281110912911B09136
:102B90002C11A0912D11F0912E11E0912F11202BCD
:102BA000312B6B2B7A2B8F2B9E2B2093281130935C
:102BB000291140932A1150932B1160932C1170937B
:102BC0002D1180932E1190932F11D7CB21303105E9
:102BD00009F0D3CB4B016093281190922911CDCBF2
:102BE0002130310509F0C9CB9B0140E050E060E0A5
:102BF00070E080E090E000E30E94832300913011B8
:102C000010913111B0913211A0913311F091341122
:102C1000E0913511202B312B4B2B5A2B6F2B7E2B18
:102C20003FC02130310509F0A8CB9B0140E050E0C6
:102C300060E070E080E090E000E20E948323009179
:102C4000301110913111B0913211A0913311F091E6
:102C50003611E0913711202B312B4B2B5A2B1EC0F4
:102C60002130310509F089CB9B0140E050E060E064
:102C700070E080E090E000E10E9483230091301139
:102C800010913111B0913411A0913511F09136119C
:102C9000E0913711202B312B6B2B7A2B8F2B9E2B16
:102CA00020933011309331114093321150933311EE
:102CB00060933411709335118093361190933711CE
:102CC0005CCB2130310509F058CB4B0160933011BA
:102CD0009092311152CB2130310509F04ECB9B013E
:102CE00040E050E060E070E080E090E000E30E94AF
:102CF00083230091381110913911B0913A11A091AC
:102D00003B11F0913C11E0913D11202B312B4B2BCD
:102D10005A2B6F2B7E2B42C02130310509F02DCB71
:102D20009B0140E050E060E070E080E090E000E275
:102D30000E9483230091381110913911B0913A11FA
:102D4000A0913B11F0913E11E0913F11202B312BCE
:102D50004B2B5A2B21C08091F6109091F7100197C0
:102D600009F00BCB9B0140E050E060E070E080E0B8
:102D700090E000E10E9483230091381110913911F5
:102D8000B0913C11A0913D11F0913E11E0913F11A5
:102D9000202B312B6B2B7A2B8F2B9E2B20933811D2
:102DA0003093391140933A1150933B1160933C1189
:102DB00070933D1180933E1190933F11DECA2130F4
:102DC000310509F0DACA4B0160933811909239113C
:102DD000D4CA2130310509F0D0CA9B0140E050E04F
:102DE00060E070E080E090E000E30E9483230091C7
:102DF000401110914111B0914211A0914311F091F5
:102E00004411E0914511202B312B4B2B5A2B6F2B6A
:102E10007E2B42C02130310509F0AFCA9B0140E052
:102E200050E060E070E080E090E000E20E948323E8
:102E30000091401110914111B0914211A0914311A4
:102E4000F0914611E0914711202B312B4B2B5A2B3F
:102E500021C08091F6109091F710019709F08DCA6A
:102E60009B0140E050E060E070E080E090E000E135
:102E70000E9483230091401110914111B09144119F
:102E8000A0914511F0914611E0914711202B312B73
:102E90006B2B7A2B8F2B9E2B20934011309341115B
:102EA0004093421150934311609344117093451124
:102EB000809346119093471160CA8091F6109091CB
:102EC000F710019709F059CA4B0160934011909295
:102ED000411153CA8091F6109091F710019709F0B3
:102EE0004CCA9B0140E050E060E070E080E090E080
:102EF00000E30E9483230091481110914911B09181
:102F00004A11A0914B11F0914C11E0914D11202BE1
:102F1000312B4B2B5A2B6F2B7E2B45C08091F610FB
:102F20009091F710019709F028CA9B0140E050E00A
:102F300060E070E080E090E000E20E948323009176
:102F4000481110914911B0914A11A0914B11F09183
:102F50004E11E0914F11202B312B4B2B5A2B21C0BE
:102F60008091F6109091F710019709F006CA9B0125
:102F700040E050E060E070E080E090E000E10E941E
:102F800083230091481110914911B0914C11A091E7
:102F90004D11F0914E11E0914F11202B312B6B2BE5
:102FA0007A2B8F2B9E2B20934811309349114093FD
:102FB0004A1150934B1160934C1170934D118093B3
:102FC0004E1190934F11D9C98091F6109091F7103E
:102FD000019709F0D2C94B016093481190924911B1
:102FE000CCC92130310509F0C8C99B0140E050E04F
:102FF00060E070E080E090E000E30E9483230091B5
:10300000501110915111B0915211A0915311F091A2
:103010005411E0915511202B312B4B2B5A2B6F2B38
:103020007E2B3FC02130310509F0A7C99B0140E04C
:1030300050E060E070E080E090E000E20E948323D6
:103040000091501110915111B0915211A091531152
:10305000F0915611E0915711202B312B4B2B5A2B0D
:103060001EC02130310509F088C99B0140E050E0C5
:1030700060E070E080E090E000E10E948323009136
:10308000501110915111B0915411A0915511F0911E
:103090005611E0915711202B312B6B2B7A2B8F2B54
:1030A0009E2B209350113093511140935211509305
:1030B000531160935411709355118093561190934E
:1030C00057115BC92130310509F057C94B01609395
:1030D00050119092511151C92130310509F04DC95B
:1030E000709359116093581148C92130310509F086
:1030F00044C970935B1160935A113FC92130310567
:1031000009F03BC970935D1160935C1136C98091E1
:10311000F6109091F710019709F02FC970935F1185
:1031200060935E112AC92130310509F026C97093D8
:1031300061116093601121C92130310509F01DC969
:10314000709363116093621118C92130310509F041
:1031500014C970936511609364110FC98091F610C2
:103160009091F710019709F008C970936711609367
:10317000661103C98091F6109091F710019709F03C
:10318000FCC87093691160936811F7C88091F610BC
:103190009091F710019709F0F0C86530710508F0BB
:1031A000ECC870936B1160936A11E7C88091F610B8
:1031B0009091F710019709F0E0C870936D1160933A
:1031C0006C11DBC88091F6109091F710019709F00F
:1031D000D4C86430710508F0D0C870936F11609343
:1031E0006E11CBC89C012852304A2115384068F432
:1031F000A0E0B0E08852904AA109B10982509F4EE8
:10320000FC01EE58FF4F6083B8C881E0A4960FB66A
:10321000F894DEBF0FBECDBFDF91CF911F910F910C
:10322000FF90EF90DF90CF90BF90AF909F908F90E6
:103230007F906F905F904F903F902F9008950E94E5
:103240004C0610927B1008952F923F924F925F92FE
:103250006F927F928F929F92AF92BF92CF92DF92A6
:10326000EF92FF920F931F93CF93DF93CDB7DEB70B
:1032700065970FB6F894DEBF0FBECDBF0E94A206C1
:10328000882309F4C2C21A8219820E94A2068823E6
:1032900009F4BBC261E0CE0103960E94A5069B81A2
:1032A000923521F490937C1081E00DC080917B10C9
:1032B000E82FF0E0E558FF4E91839A3019F48A30F8
:1032C00028F414C08F5F80937B10DFCF20917C1097
:1032D000223561F420917D10253441F420917E1037
:1032E000273421F420917F102A3321F069E180E016
:1032F00093E0A9C140918010042E000C550B40535F
:10330000510920E137E2429FB001439F700D529F67
:10331000700D112440918110042E000C550B405368
:103320005109E8EEF3E04E9F90014F9F300D5E9FF4
:10333000300D1124260F371F40918410240F311DAA
:1033400047FD3A9540918210042E000C550B4053D6
:103350005109E4E6E49FB001E59F700D1124A90135
:10336000460F571F20918310022E000C330B205361
:103370003109929FB001939F700D11243A01660E9E
:10338000771E230120E3421A5108815080937B105D
:10339000E82FF0E0E558FF4E91819F3309F056C1C8
:1033A000BE016F5F7F4FC2010E94210C882349F14B
:1033B0004114510479F40CE810E0F80184918B83F6
:1033C0000F5F1F4F8823D1F061E0CE0103960E946A
:1033D0006E06F3CFF8E24F16F8EA5F0679F400E7DD
:1033E00011E1F80181918F018B8361E0CE01039699
:1033F0000E946E06F9E100371F0799F710927B10C3
:1034000004C229EF421625E7520651F04FEF441649
:1034100045E7540629F08DE648168DE95806A1F5D2
:103420003A812981932F990F990B492F592F692F91
:10343000792F892F00E10E9483237B018C01BE013B
:103440006F5F7F4FC3018F972A8B3D8B4B8B5C8BBC
:103450000E94210CFA81A981EF2FEE0FEE0B2A8931
:10346000222E2A2A3D89332E3F2A4B89442E4E2A6A
:103470005C89552E5E2A6E2C6E2A7F2C7E2A802E29
:103480008E2A912E9E2A83C093012B7F29803A8019
:10349000C3018B7E88369E4949F020373E4931F082
:1034A00020E542162EE9520609F06CC0910140E079
:1034B00050E060E070E080E090E000E30E94832351
:1034C000822EA32ED42EE52EB62EC72EF82E192F1F
:1034D000BE016F5F7F4FC3018F970E94210C49810E
:1034E0005A819A0140E050E060E070E080E090E0B6
:1034F00000E20E948323822A9A2C932AD42AE52A66
:10350000B62ABC82C72ACD82F82A192BBE016F5F6A
:103510007F4FC3018E970E94210C49815A819A01E5
:1035200040E050E060E070E080E090E000E10E9468
:103530008323A22E4E8358876987B72EC82E092F62
:10354000BE016F5F7F4FC3018D973D8B0E94210CA1
:1035500089819A81AC01282D282B892D852B222E3B
:103560002A283D89382E332A4E804D2858845E28DB
:103570006C804985642A7D807B288F2C8C28912E35
:10358000902A05C0412C512C612C712C43018AE0FA
:1035900080939B109101A201B301C401A0E00E949D
:1035A000E1234CF40E943C2319012A013B014C0108
:1035B0008DE28D8302C090E29D83BEE1FFEFFB0FA1
:1035C000FC839101A201B301C401A9E0EB2FF0E05B
:1035D0000E94E12329F124F1CF0185589F4E9F835A
:1035E0008E838AE0A82EB12CC12CD12CE12CF12C99
:1035F00000E010E09101A201B301C4010E94AC22DD
:10360000205DEE81FF8121839101A201B301C401FC
:103610000E94AE2219012A013B014C01BC81CECF90
:103620002C8120937B10E558FF4E80E3820D81832F
:10363000822F90E0FC01E558FF4E4D81418361E20D
:103640006B1B84589F4E0E946E06D8CEE1E0E9873E
:103650001A861B861C861D861E861F86188A812C4C
:10366000912C1C821D821E821886212C312CE82F61
:10367000F0E0E558FF4EE181E03209F46CC09FEFC5
:10368000980F998BED3289F480937B1094014C81D3
:103690005D816E817885C1010E943C2349014C8384
:1036A0005D836E8378871C0158C00E2E000CFF0BC3
:1036B000F0979F2F990F990BA984BA84CB84DC844F
:1036C000ED84FE840F8518899F01492F592F692F9A
:1036D000792F892F0E9419225401CC80DD80EE8041
:1036E000F88481010E94BA2349014C835D836E8373
:1036F00078871C0129853A854B855C856D857E859B
:103700008F85988901E00E94832329873A874B8718
:103710005C87B62FA72FF82FE92F7A2F8F2F9E2F98
:1037200002E00E94832359016A017B018C012985F3
:103730003A854B855C856B2F7A2F8F2F9E2F0E94A9
:10374000BA2329873A874B875C876D877E878F8767
:10375000988B89898CCF80937B10FDE64F16FDE90D
:103760005F0691F494014C815D816E817885C10181
:1037700000E10E949C23B9018DE69DE90E944C1056
:10378000B401C3018F973EC0C3018B7F93012B7E91
:1037900028363E4941F080379E4929F0F0E54F1622
:1037A000FEE95F0669F594014C815D816E81788543
:1037B000C10100E30E949C23B901C2010E944C1088
:1037C00094014C815D816E817885C10100E20E9487
:1037D0009C23B901C3018F970E944C1094014C8126
:1037E0005D816E817885C10100E10E949C23B90151
:1037F000C3018E970E944C10B401C3018D9702C083
:10380000B401C2010E944C10F9CD65960FB6F89430
:10381000DEBF0FBECDBFDF91CF911F910F91FF9003
:10382000EF90DF90CF90BF90AF909F908F907F9060
:103830006F905F904F903F902F9008950F931F933C
:10384000CF93DF93ECE9F0E11082118212821382B0
:1038500014821582168217821086118612861386AC
:103860001486158616861786E4EDF0E1848995891D
:10387000937F958B848B0E945B02CEEFD0E10AA1EF
:103880001BA12CA13DA14EA15FA168A579A58CEA41
:1038900090E10E9476020AA91BA92CA93DA94EA974
:1038A0005FA968AD79AD84EB90E10E947602E0E417
:1038B000F1E100811181228133814481558166814A
:1038C000778184EC90E10E947602E0E5F1E10081ED
:1038D00011812281338144815581668177818CEC0D
:1038E00090E10E94760201E010E020E030E040E04C
:1038F00050E060E070E08CEB90E10E9476020E9464
:10390000EF070E9467000E947B00CAE6D1E1888130
:1039100099810E942A0180916E1190916F110E94ED
:103920004701688189816F708F700E94320180E049
:103930000E94130180E090E00E941A01DF91CF9174
:103940001F910F910C947D002F923F924F925F92A6
:103950006F927F928F929F92AF92BF92CF92DF929F
:10396000EF92FF920F931F93CF93DF93CDB7DEB704
:10397000A1970FB6F894DEBF0FBECDBF4090D61012
:103980005090D7106090D8107090D910E091D4105A
:10399000F091D510FB8BEA8BF091A410FC8B209159
:1039A000A5102D8B3091A6103E8B4091A7104F8B08
:1039B0005091A810588F6091A910698F7091AA102A
:1039C0007A8F8091AB108B8FA3019201550F220B40
:1039D000322FA90129833A834B835C839201A3018F
:1039E0006981762F862F962F02E00E948323520151
:1039F0006301E980FE2C0E2D1E2D0E94CF2359015C
:103A00006A017B01E82F192F04E00E9483230E2F07
:103A10000E94CF2302E00E94832352016301E980C8
:103A2000FE2C0E2D1E2D0E94BA2303E00E9483233C
:103A30007901142FB52FF62FE72F6C01A0E00E941B
:103A4000E12374F42150384F4F4F5F4F6F4F7F4F3A
:103A50008F4F9F4F7901142FB52FF62FE72F6C0151
:103A60009701412F5B2F6F2F7E2FC6010BE00E9425
:103A70009C2349011A012B013C016A897B89AB0116
:103A800060E070E080E090E0DC0149835A836B8362
:103A90007C838D839E83AF83B8879A01AB0160E0FE
:103AA00070E080E090E002E00E948323A980BA8069
:103AB000CB80DC80E12CF12C00E010E00E94CF23D1
:103AC00059016A017B01E82F192F04E00E9483232A
:103AD0000E2F0E94CF2302E00E948323A980BA8088
:103AE000CB80DC80E12CF12C00E010E00E94BA23B6
:103AF00003E00E9483230CE00E949C23E091DC10F1
:103B0000F091DD10A5E0F695E795AA95E1F7E0596B
:103B1000FE4EA080B12CC12CD12C00E00E941922B5
:103B200008E00E949C232093E0103093E110C40130
:103B3000092E000CAA0BBB0B8093E2109093E310AC
:103B4000A093E410B093E5108CEB90E10E94FD028D
:103B50002091EA103091EB102115310521F48823D2
:103B600009F47EC06DC02130310509F063C01092A8
:103B7000EB101092EA100091281110912911209158
:103B80002A1130912B1140912C1150912D116091DF
:103B90002E1170912F118CEB90E10E947602809192
:103BA000E8109091E91093FD5BC09F7D986490931D
:103BB000E9108093E81010929C1010929D101092C2
:103BC0009E1010929F101092A0101092A1101092AF
:103BD000A2101092A3101092A4101092A51010928F
:103BE000A6101092A7101092A8101092A91010926F
:103BF000AA101092AB108091F0109091F1100197E3
:103C000019F483E090E002C081E090E00E94050199
:103C100080E090E00E941A0180E00E9413010E945F
:103C20007D0087E893E10197F1F700C000000E9452
:103C3000790016C08FEF9FEF9093EB108093EA10FE
:103C40008091E8109091E910977B90629093E91031
:103C50008093E8101092DD101092DC100E947B001F
:103C60008091E8109091E9109C7F9093E9108093E7
:103C7000E8108091D4109091D51020915C11309172
:103C80005D1182179307E0F420915A1130915B1176
:103C900028173907A8F40091501110915111209163
:103CA000521130915311409154115091551160911E
:103CB0005611709157118CEC90E10E94760212C05F
:103CC0008CEC90E10E94FD022091E8103091E91007
:103CD000811102C0326002C0286030683093E91060
:103CE0002093E8108091E8109091E91092FD3AC07D
:103CF0004091E2105091E3106091E4107091E51052
:103D00008091101190911111A0E0B0E0481759076F
:103D10006A077B073CF58091121190911311A0E086
:103D2000B0E0B095A095909581959F4FAF4FBF4F54
:103D300084179507A607B707ACF4009140111091BE
:103D40004111209142113091431140914411509101
:103D50004511609146117091471184EC90E10E94E9
:103D6000760212C084EC90E10E94FD022091E810DE
:103D70003091E910811102C0316002C022603068C8
:103D80003093E9102093E81084EB90E10E94FD024B
:103D9000882331F18091E8109091E91092FD20C0C4
:103DA0002091F2103091F31021303105C9F4946064
:103DB0009093E9108093E810009130111091311127
:103DC00020913211309133114091341150913511BD
:103DD000609136117091371184EB90E10E94760268
:103DE0008091E8109091E91093FF6BC1A091EE10C3
:103DF000B091EF10BB8BAA8B2091DC103091DD10BD
:103E00008091EC109091ED10A217B30718F41816DA
:103E10001906ACF1009799F19C01092E000C440B96
:103E2000550B1816190694F4609110117091111128
:103E300080E090E00E947222F4E6AF2EB12CC12CFB
:103E4000D12CE12CF12C00E010E016C06091121191
:103E50007091131180E090E00E947222ECE9AE2E86
:103E6000BB24BA94CC24CA94DD24DA94EE24EA94D8
:103E7000FF24FA940FEF1FEF0E94AE2208C020E04B
:103E800030E040E050E060E070E080E090E054011D
:103E90006101720183010E94CF23298339874A87F8
:103EA0005B876C877D878E879F8720939C103093DC
:103EB0009D1040939E1050939F106093A01070939C
:103EC000A1108093A2109093A310A090A410B09082
:103ED000A510C090A610D090A710E090A810F09068
:103EE000A9100091AA101091AB100E94BA23922E33
:103EF00039A348A3452E562E672E782E892E20935F
:103F0000A4103093A5104093A6105093A71060936F
:103F1000A8107093A9108093AA109093AB103091C1
:103F20001D1120911C11932F990F990BA980B98411
:103F3000CA84DB84EC84FD840E851F85492F592FAC
:103F4000692F792F892F0E9419221901488B598BCB
:103F50006C8F7D8F8E8F9F8F30911F1120911E113E
:103F6000932F990F990BA92CB9A0C8A0D42CE52C9C
:103F7000F62C072D182D492F592F692F792F892FAE
:103F80000E94192259016A017B018C019101488923
:103F900059896C8D7D8D8E8D9F8D0E94BA237901FC
:103FA000142FD52E062FB72FF82FE92FA0E00E944F
:103FB000E1232CF5298139854A855B856C857D85D2
:103FC0008E859F850E94E1230CF063C0BC89B0936D
:103FD000A410ED89E093A510FE89F093A6102F8917
:103FE0002093A710388D3093A810498D4093A910C5
:103FF0005A8D5093AA106B8D6093AB104AC09701F5
:10400000412F5D2D602F7B2F8F2F9E2F00E10E946F
:104010009C23F9014F8F5C8FB62FA72F8D8F9E8F1A
:104020008A899B891C019F016B2F7A2F8D8D9E8D14
:104030005101C12CD12CE12CF12C00E010E00E94A8
:10404000D82351F14CF1298139854A855B856C85EE
:104050007D858E859F85A0E00E94E123F1F0ECF044
:104060009C899093A410AD89A093A510BE89B093AC
:10407000A610EF89E093A710F88DF093A810298D72
:104080002093A9103A8D3093AA104B8D4093AB101A
:1040900004C0212C312C01C01F013092DD10209270
:1040A000DC10C1010E941A01F10185E0F695E79547
:1040B0008A95E1F7E059FE4E80810E9413010E942B
:1040C0007D00009120111091211120912211309139
:1040D0002311409124115091251160912611709166
:1040E00027118CEA90E10E947602A1960FB6F8940F
:1040F000DEBF0FBECDBFDF91CF911F910F91FF901B
:10410000EF90DF90CF90BF90AF909F908F907F9077
:104110006F905F904F903F902F9008952F923F9215
:104120004F925F926F927F928F929F92AF92BF92C7
:10413000CF92DF92EF92FF920F931F93CF93DF9373
:10414000CDB7DEB76C970FB6F894DEBF0FBECDBF0C
:10415000198A1A8A1B8A1C8A1D8A1E8A1F8A188E2F
:1041600019861A861B861C861D861E861F86188A3F
:1041700019821A821B821C821D821E821F8218864F
:104180009E01275F3F4FAE014F5F5F4FBA01CE01E7
:1041900041960E94020829893A894B895C896D8978
:1041A0007E898F89988D27563840410951096109C8
:1041B00071098109910959016A017B01E82F192FC1
:1041C00002E00E9483230E2F0E94BA23722E832EB8
:1041D000942EB52FF62FE72F682E192FA0E00E94FE
:1041E000E1235CF4A3E00E94C323722E832E942E5D
:1041F000B52FF62FE72F682E192F272D382D492D93
:104200005B2F6F2F7E2F862D912F02E00E949C2323
:10421000B0905F11A0905E111B2D110F110BC12EDC
:10422000D12EE12EF12E012F0E94BA23322E432EE1
:10423000542E652E698F7A8F8B8F9C8F298B3A8BAA
:104240004B8B5C8B6D8B7E8B8B8D8F8B988F2985A9
:104250003A854B855C856D857E858F859889275647
:104260003840410951096109710981099109222EDA
:10427000732E4A01B62FA72FF82FE92F06E00E94D0
:104280008323A22CB72C6401EB2EFA2E0F2F1E2FA6
:104290000E94CF2301E00E9483230F2F0E94CF238F
:1042A00002E00E948323722E832E942EB52FF62FC8
:1042B000E72F282E192FA0E00E94E1235CF4AFE045
:1042C0000E94C323722E832E942EB52FF62FE72F34
:1042D000282E192F272D382D492D5B2F6F2F7E2F3C
:1042E000822D912F04E00E949C23B0906111A09038
:1042F00060111B2D110F110BC12ED12EE12EF12EAD
:10430000012F0E94BA23122FB32FF42FE52F2987F4
:104310003A874B875C876D877E878F87988B232DA5
:10432000342D452D562D698D7A8D8B8D9C8DA0E079
:104330000E94E12344F4198A1A8A1B8A1C8A1D8A66
:104340001E8A1F8A188E89899A899093D510809326
:10435000D410CF011093D610B093D7109093D810EB
:10436000E093D9108CEA90E10E94FD0291E0811166
:1043700090E0892F6C960FB6F894DEBF0FBECDBFCC
:10438000DF91CF911F910F91FF90EF90DF90CF9031
:10439000BF90AF909F908F907F906F905F904F9065
:1043A0003F902F9008959EE088E10FB6F894A8956D
:1043B000809360000FBE90936000A89578940E944F
:1043C000B50AA8950E941F19A8950E946608A8958D
:1043D0000E941E1CA8950E9470080E9424190E9429
:1043E000A41CA8950E948E208111FBCFF4CFA1E2DE
:1043F0001A2EAA1BBB1BFD010DC0AA1FBB1FEE1F5F
:10440000FF1FA217B307E407F50720F0A21BB30BA9
:10441000E40BF50B661F771F881F991F1A9469F725
:1044200060957095809590959B01AC01BD01CF0181
:104430000895DF93CF931F930F939A9DF02D219FA3
:10444000F00D8B9DF00D8A9DE02DF10D039FF00D79
:10445000029FE00DF11D4E9DE00DF11D5E9DF00DE2
:104460004F9DF00D7F936F93BF92AF925F934F93E9
:10447000D5010E94ED238B01AC01D7010E94ED23F1
:10448000EB01E80FF91FD6010E9469222F913F919D
:10449000D6010E94ED23C60FD71FE81FF91FAF9169
:1044A000BF910E9469222F913F910E94ED23C60F78
:1044B000D71FE81FF91FD6010E94ED23E60FF71F53
:1044C0009801BE01CF0111240F911F91CF91DF916F
:1044D00008950E94ED23460F571FC81FD91F08F4E7
:1044E0003196089597FB57FF0C9482229F938F93E8
:1044F0000E9482226E1B7F0BAF91BF918A0B9B0B98
:104500000895E894DF93CF93FC01DB010E94ED2333
:104510007F936F93E9019A01AC01BF93AF933F93EF
:104520002F93DF010E94ED2326F46C1B7D0B820B81
:10453000930B9E01EB01FC010E946922AF91BF9198
:104540002F913F910E946922BE01CF01F9012F9165
:104550003F91CF91DF910895689401C0E894F92FBD
:10456000F12B12F00C94E022A0E0B0E0EAEBF2E2D2
:104570000C945223092E059422F40E943C2311230B
:1045800092F4F0E80F26FFEFE094F0940095109578
:10459000B094C094D094A194BF0ACF0ADF0AEF0A66
:1045A000FF0A0F0B1F0B0E94EB2207FC0E943C230B
:1045B000CDB7DEB7ECE00C946E23689401C0E894AC
:1045C0008F929F92CF93DF930E94EB22DF91CF9146
:1045D0009F908F90089588249924F401E401B0E419
:1045E0009F93AA279A158B049C04ED05FE05CF0521
:1045F000D007A10798F4AD2FDC2FCF2FFE2FE92D88
:10460000982C892E982F872F762F652F542F432F84
:10461000322F2227B85031F7BF9127C01B2EBF91F0
:10462000BB27220F331F441F551F661F771F881F8C
:10463000991F881C991CEE1FFF1FCC1FDD1FAA1F8E
:10464000BB1F8A149B04EC05FD05CE05DF05A00702
:10465000B10748F08A189B08EC09FD09CE09DF096B
:10466000A00BB10B21601A94E1F62EF49401AF0176
:10467000BE01CD01000C08956095709580959095D0
:1046800030954095509521953F4F4F4F5F4F6F4F5D
:104690007F4F8F4F9F4F08952F923F924F925F927F
:1046A0006F927F928F929F92AF92BF92CF92DF9242
:1046B000EF92FF920F931F93CF93DF93CDB7DEB7A7
:1046C000CA1BDB0B0FB6F894DEBF0FBECDBF09943B
:1046D0002A88398848885F846E847D848C849B8492
:1046E000AA84B984C884DF80EE80FD800C811B81A0
:1046F000AA81B981CE0FD11D0FB6F894DEBF0FBECF
:10470000CDBFED0108950F93083090F0982F872FBB
:10471000762F652F542F432F322F22270850F4CFA6
:10472000220F331F441F551F661F771F881F991FB5
:104730000A95B2F70F91089597FB10F816940008A8
:104740000F93083098F00850232F342F452F562F01
:10475000672F782F892F902DF4CF05949795879503
:104760007795679557954795379527950A95AAF7B1
:104770000F9108952A0D3B1D4C1D5D1D6E1D7F1D63
:10478000801F911F08950024A7FD00942A0F301D5B
:10479000401D501D601D701D801D901D08952A191B
:1047A0003B094C095D096E097F09800B910B089547
:1047B0002A153B054C055D056E057F0580079107B1
:1047C00008950024A7FD00942A17300540055005E0
:1047D00060057005800590050895A29FB001B39F04
:1047E000C001A39F700D811D1124911DB29F700DFA
:1047F000811D1124911D08950E9410240C940E25F2
:104800000E94072558F00E94002540F029F45F3FE0
:1048100029F00C94E72451110C9442250C94ED24BA
:104820000E941F2568F39923B1F3552391F3951B3B
:10483000550BBB27AA2762177307840738F09F5FC1
:104840005F4F220F331F441FAA1FA9F335D00E2E2E
:104850003AF0E0E832D091505040E695001CCAF79B
:104860002BD0FE2F29D0660F771F881FBB1F26175E
:1048700037074807AB07B0E809F0BB0B802DBF0135
:10488000FF2793585F4F3AF09E3F510578F00C9404
:10489000E7240C9442255F3FE4F3983ED4F38695D9
:1048A00077956795B795F7959F5FC9F7880F911D25
:1048B0009695879597F90895E1E0660F771F881F11
:1048C000BB1F621773078407BA0720F0621B730BC4
:1048D000840BBA0BEE1F88F7E0950895BEE304D071
:1048E00008F490E80895BFE322273327A9010E9426
:1048F000272560F19F5748F1B91740F1BFE3B91B75
:104900009927B8503AF4660F771F881F991FB395FF
:10491000D2F316C0B8504AF0232F342F452F562F0C
:10492000672F782F8827B850BAF7B85F49F0869577
:10493000779567955795479537952795BA95B9F720
:1049400016F40E94F02488940895889460E070E042
:10495000CB010895E89409C097FB3EF490958095AB
:10496000709561957F4F8F4F9F4F9923A9F0F92F35
:1049700096E9BB279395F695879577956795B795B3
:10498000F111F8CFFAF4BB0F11F460FF1BC06F5F99
:104990007F4F8F4F9F4F16C0882311F096E911C0AB
:1049A000772321F09EE8872F762F05C0662371F0CC
:1049B00096E8862F70E060E02AF09A95660F771FE0
:1049C000881FDAF7880F9695879597F9089597F9D4
:1049D0009F6780E870E060E008959FEF80EC0895A5
:1049E000909580957095609550954095309521955E
:1049F0003F4F4F4F5F4F6F4F7F4F8F4F9F4F0895E8
:104A000000240A94161617061806090608950024AD
:104A10000A9412161306140605060895092E039427
:104A2000000C11F4882352F0BB0F40F4BF2B11F49B
:104A300060FF04C06F5F7F4F8F4F9F4F089557FDFA
:104A40009058440F551F59F05F3F71F04795880FFC
:104A500097FB991F61F09F3F79F087950895121693
:104A600013061406551FF2CF4695F1DF08C016163F
:104A700017061806991FF1CF8695710561050894F0
:104A80000895E894BB2766277727CB0197F9089507
:104A90000E945B250C940E250E94002538F00E9490
:104AA000072520F0952311F00C94E7240C94ED24B5
:104AB00011240C9442250E941F2570F3959FC1F389
:104AC000950F50E0551F629FF001729FBB27F00DBC
:104AD000B11D639FAA27F00DB11DAA1F649F662711
:104AE000B00DA11D661F829F2227B00DA11D621F60
:104AF000739FB00DA11D621F839FA00D611D221F1A
:104B0000749F3327A00D611D231F849F600D211DFD
:104B1000822F762F6A2F11249F5750409AF0F1F080
:104B200088234AF0EE0FFF1FBB1F661F771F881FE9
:104B300091505040A9F79E3F510580F00C94E72416
:104B40000C9442255F3FE4F3983ED4F38695779525
:104B50006795B795F795E7959F5FC1F7FE2B880F8F
:0E4B6000911D9695879597F90895F894FFCFCB
:104B6E0000C0C101C30302C2C60607C705C5C404FF
:104B7E00CC0C0DCD0FCFCE0E0ACACB0BC90908C86F
:104B8E00D81819D91BDBDA1A1EDEDF1FDD1D1CDC5F
:104B9E0014D4D515D71716D6D21213D311D1D010CF
:104BAE00F03031F133F3F23236F6F737F53534F4BF
:104BBE003CFCFD3DFF3F3EFEFA3A3BFB39F9F8382F
:104BCE0028E8E929EB2B2AEAEE2E2FEF2DEDEC2C1F
:104BDE00E42425E527E7E62622E2E323E12120E08F
:104BEE00A06061A163A3A26266A6A767A56564A47F
:104BFE006CACAD6DAF6F6EAEAA6A6BAB69A9A868EF
:104C0E0078B8B979BB7B7ABABE7E7FBF7DBDBC7CDE
:104C1E00B47475B577B7B67672B2B373B17170B04E
:104C2E00509091519353529296565797559594543E
:104C3E009C5C5D9D5F9F9E5E5A9A9B5B99595898AE
:104C4E00884849894B8B8A4A4E8E8F4F8D4D4C8C9E
:104C5E00448485458747468682424383418180400E
:104C6E0000C1814001C0804101C0804100C181402E
:104C7E0001C0804100C1814000C1814001C080411E
:104C8E0001C0804100C1814000C1814001C080410E
:104C9E0000C1814001C0804101C0804100C18140FE
:104CAE0001C0804100C1814000C1814001C08041EE
:104CBE0000C1814001C0804101C0804100C18140DE
:104CCE0000C1814001C0804101C0804100C18140CE
:104CDE0001C0804100C1814000C1814001C08041BE
:104CEE0001C0804100C1814000C1814001C08041AE
:104CFE0000C1814001C0804101C0804100C181409E
:104D0E0000C1814001C0804101C0804100C181408D
:104D1E0001C0804100C1814000C1814001C080417D
:104D2E0000C1814001C0804101C0804100C181406D
:104D3E0001C0804100C1814000C1814001C080415D
:104D4E0001C0804100C1814000C1814001C080414D
:104D5E0000C1814001C0804101C0804100C181403D
:104D6E0053656E64205245473A30303030303F2024
:0A4D7E00666F722068656C700A0011
:00000001FF
