:100000000C9446000C9465000C9465000C946500FB
:100010000C9465000C9465000C9465000C946500CC
:100020000C9465000C9465000C9465000C946500BC
:100030000C9465000C9465000C9465000C9491047C
:100040000C9465000C9465000C9465000C944E01B2
:100050000C9449050C9473050C9465000C94650090
:100060000C9465000C9465000C9465000C9465007C
:100070000C941E060C9448060C9465000C946500C4
:100080000C9465000C9465000C94650011241FBE4F
:10009000CFEFD0E4DEBFCDBF11E0A0E0B1E0EEE9EC
:1000A000F8E200E00BBF02C007900D92A038B10744
:1000B000D9F72EE0A0E8B1E001C01D92AE39B20739
:1000C000E1F70E9405120C944D140C940000569A0E
:1000D0005E9884B1806B84B926982C9A85B18F750F
:1000E00085B9109280011092950183ED8CBD1DBCE5
:1000F00008955E9A08955E98089580918001811117
:10010000FECF109281018091950181FF0DC09091E9
:1001100096019093820191E09093830192E09093F5
:100120008001E4E8F1E002C0E2E8F1E082FF0BC008
:1001300090919701908392E0918332969091800103
:100140009E5F9093800183FF0EC090919801209153
:1001500099012083918393E092833396909180015B
:100160009D5F9093800184FF0EC090919A01209131
:100170009B012083918394E0928333969091800138
:100180009D5F9093800185FF0BC090919C019083AF
:1001900095E091833296909180019E5F90938001CB
:1001A00086FF0BC090919D01908396E091833296DB
:1001B000909180019E5F9093800187FF0AC080919B
:1001C0009E01808387E08183809180018E5F809390
:1001D0008001109295012C9881E28A95F1F7000038
:1001E000E0918001E11106C081E28A95F1F70000FB
:1001F0002C9A0895F0E0EF57FE4F80818EBD8091DC
:1002000080018150809380010895029718F4109224
:10021000960103C081E080939601809195018260F0
:10022000809395010895E5E9F1E0828380818460FF
:1002300080830895E5E9F1E0948383838081886079
:1002400080830895E5E9F1E096838583808180616C
:1002500080830895E5E9F1E08F5F87838081806284
:10026000808308959FEF980F9F3080F49FEF960F43
:100270009F3060F420E1829FC0011124862B80937F
:100280009D01809195018064809395010895E5E931
:10029000F1E0818780818068808308951F920F92AA
:1002A0000FB60F9211240BB60F928F93EF93FF931B
:1002B000E0918001E11106C081E28A95F1F700002A
:1002C0002C9A0AC0F0E0EF57FE4F80818EBD8091DE
:1002D0008001815080938001FF91EF918F910F9069
:1002E0000BBE0F900FBE0F901F9018952F923F924C
:1002F0004F925F926F927F928F929F92AF92BF9236
:10030000CF92DF92EF92FF920F931F93CF93DF93E1
:10031000FB0128E0829FE00111244E0188EF981A2A
:10032000F8946E0198E0C90ED11C7E01A0E030E087
:1003300040E050E060E070E080E090E02A2F08E0CC
:100340000E94AB13432E542E652E762EB72F382ED7
:10035000292EF999FECFE1BCF2BCF89A80B5A22F04
:10036000A82B342D452D562D672D7B2F832D922DB7
:100370002FEFE21AF20AEC14FD0401F7C85FD74F21
:10038000A12C30E040E050E060E070E080E090E0E0
:100390002A2D08E00E94AB13B32E6A017B018C0169
:1003A000F999FECF81BC92BCF89A80B5A22EA82AFA
:1003B0003B2DA601B701C8012FEF821A920A8C16B5
:1003C0009D0631F778942A2F342D452D562D672D13
:1003D0007B2F832D922D0E94001451F010821182E8
:1003E0001282138214821582168217828FEF09C03F
:1003F000A0834182528263827482B58336822782CF
:1004000080E0DF91CF911F910F91FF90EF90DF90EF
:10041000CF90BF90AF909F908F907F906F905F90A4
:100420004F903F902F9008952F923F924F925F925E
:100430006F927F928F929F92AF92BF92CF92DF92F4
:10044000EF92FF920F931F93CF93DF9300D000D0D2
:100450001F92CDB7DEB7A02F612E722E3D834C8345
:10046000B52F2B0128E0829FF0011124FB83EA8342
:100470001F0138EF331AF8944F0188E0880E911C61
:10048000EA80FB8020E0F0E0A12CB12CC12CD12C23
:1004900000E010E03F2FA501B601C80108E00E946E
:1004A000AB13F999FECFE1BCF2BCF89A10B5212B41
:1004B000F32F5A016B018C01EFEFEE1AFE0AE814DC
:1004C000F90441F7AA2EB62CC72CDD80EC80FB2E58
:1004D00082010E94001479F4EA80FB80F8E0EF0EBC
:1004E000FF1EF10120E0912CA12CB12CC12CD12CAC
:1004F00000E010E029C02A2F362D472D5D816C8148
:100500007B2FC201F999FECF81BC92BC20BDFA9A23
:10051000F99A08E00E94C613E1E08E1A9108EA8178
:10052000FB818E169F0671F7D7CFF999FECFE1BDFB
:10053000F2BDF89A10B5212B932E5A016B018C0154
:100540003196EE15FF0541F0392DA501B601C80120
:1005500008E00E94AB13E9CFAA2EB62CC72CDD8091
:10056000EC80FB2E82010E940014E1F0F999FECF8D
:10057000E1BDF2BDA0BDFA9AF99A2A2F362D472D7A
:100580005D816C817B2FC20108E00E94C613A22FFF
:10059000632E742E5D836C83B72F2C013197E21587
:1005A000F30521F7789480E00F900F900F900F9053
:1005B0000F90DF91CF911F910F91FF90EF90DF90FF
:1005C000CF90BF90AF909F908F907F906F905F90F3
:1005D0004F903F902F900895F89410929F011092A1
:1005E000A0011092A1011092A2011092A3011092F9
:1005F000A4011092A5011092A601109285001092FC
:100600008400EFE6F0E080818160808310928000BA
:1006100081E080938100789408952F923F924F92C9
:100620005F926F927F928F929F92AF92BF92CF9282
:10063000DF92EF92FF920F931F93CF93DF93CDB78B
:10064000DEB727970FB6F894DEBF0FBECDBFFC0113
:10065000A22FF32EE42ED52ECB01209085003090D2
:10066000840020919F012091A0014090A101509011
:10067000A201B091A301B983B091A401BA83B09152
:10068000A501BB83B091A601BC8398014A2F5F2DC1
:100690006E2D7D2D02E00E94AB1339014A016E835D
:1006A0007D83B82FA92F0E94AB1359016A017B01EA
:1006B0008C019301A4016E817D818B2F9A2F0E9462
:1006C000E21339014A01DB018E839F83222D30E042
:1006D00040E050E060E070E080E090E008E00E94E0
:1006E000AB13B32EA32CA22AC42CC42AD52CD52AF2
:1006F000E980E62AFA80F72A0B81082B1C81192B46
:100700009301A401BD018E819F810E94E213208389
:1007100031834283538364837583868397832796CB
:100720000FB6F894DEBF0FBECDBFDF91CF911F9102
:100730000F91FF90EF90DF90CF90BF90AF909F9080
:100740008F907F906F905F904F903F902F90089583
:100750007F928F929F92AF92BF92CF92DF92EF9251
:10076000FF920F931F93CF93DF93FC01209185009D
:10077000A0908400708081809280D381C481B581F3
:10078000A681E78180919F018091A001C090A10185
:10079000D090A201E090A301F090A401F091A501F6
:1007A0001091A60130E040E050E060E070E080E0B1
:1007B00090E008E00E94AB13B32EA22AC42AD52AE7
:1007C000E62AF72A0F2F082B192B272D382D492D14
:1007D0005D2F6C2F7B2F8A2F9E2F0E94F713F1E045
:1007E000A72CB82CC92CDD2EEC2EFB2E0A2F1E2F89
:1007F0000E94001408F4F0E08F2FDF91CF911F9139
:100800000F91FF90EF90DF90CF90BF90AF909F90AF
:100810008F907F9008952F923F924F925F926F92A8
:100820007F928F929F92AF92BF92CF92DF92EF9280
:10083000FF920F931F93CF93DF9300D000D01F92AE
:10084000CDB7DEB7FC0120918500A0908400208008
:1008500031804280538064807580A681A983F781AE
:1008600080919F018091A001C090A101D090A20130
:10087000E090A301F090A401E091A5011091A601E0
:1008800030E040E050E060E070E080E090E008E0C0
:100890000E94AB13B32EA22AC42AD52AE62AF72A2D
:1008A0000E2F082B192B9101A201B3018A2F9F2F24
:1008B0000E94F7135B838C839D8351016201730156
:1008C00009811F2F0E94001460F4E4E1AE2EB12CC8
:1008D000C12CD12CE12CF12C00E010E00E94071378
:1008E00008C020E030E040E050E060E070E080E0F0
:1008F00090E00F900F900F900F900F90DF91CF919D
:100900001F910F91FF90EF90DF90CF90BF90AF902D
:100910009F908F907F906F905F904F903F902F901F
:1009200008951F920F920FB60F9211242F933F93A9
:100930004F935F936F937F938F939F9320919F012A
:100940003091A0014091A1015091A2016091A301B9
:100950007091A4018091A5019091A6014F5F5F4F16
:100960006F4F7F4F8F4F9F4F20939F013093A00178
:100970004093A1015093A2016093A3017093A4013D
:100980008093A5019093A6019F918F917F916F9184
:100990005F914F913F912F910F900FBE0F901F903D
:1009A00018951092AA031092AB031092AC03109208
:1009B000A7021092A8021092A90282E08093C500BB
:1009C00088E08093C400E0ECF0E080818260808366
:1009D000E1ECF0E0808188698083E2ECF0E08081E6
:1009E000866080830895EFEFF0E0262F30E040919D
:1009F000AC03DF01A41BB1092A173B07C4F7282F5A
:100A0000FC018E2F821B861768F4A091AB03B0E027
:100A10008191A655BD4F8C938091AB038F5F8093DE
:100A2000AB03EFCF8091AC03680F6093AC03809170
:100A3000C10085FD0AC08091C00080648093C00021
:100A40008091C10080628093C10008952091A90225
:100A50002617E0F3282FFC018E2F821B861768F4DF
:100A6000A091A702B0E0A955BE4F8C9181938091CF
:100A7000A7028F5F8093A702EFCF8091A902861B08
:100A80008093A90208951092AC0308951092A902D0
:100A900008951F920F920FB60F9211240BB60F926A
:100AA0008F93EF93FF938091A9028F3F91F0E09194
:100AB000A802F0E08091C600E955FE4F8083809146
:100AC000A8028F5F8093A8028091A9028F5F809314
:100AD000A902FF91EF918F910F900BBE0F900FBE67
:100AE0000F901F9018951F920F920FB60F9211241E
:100AF0000BB60F928F93EF93FF938091AC038823F3
:100B000099F0E091AA03F0E0E655FD4F80818093D3
:100B1000C6008091AA038F5F8093AA038091AC03E3
:100B200081508093AC0305C08091C1008F7D80937C
:100B3000C100FF91EF918F910F900BBE0F900FBEF0
:100B40000F901F9018951092B0051092B105109259
:100B5000B2051092AD041092AE041092AF0482E080
:100B60008093CD0088E08093CC00E8ECF0E08081B9
:100B700082608083E9ECF0E0808188698083EAEC20
:100B8000F0E08081866080830895EFEFF0E0262F0B
:100B900030E04091B205DF01A41BB1092A173B07E1
:100BA000C4F7282FFC018E2F821B861768F4A091B2
:100BB000B105B0E08191A055BB4F8C938091B105F8
:100BC0008F5F8093B105EFCF8091B205680F60937E
:100BD000B2058091C90085FD0AC08091C80080647B
:100BE0008093C8008091C90080628093C9000895F5
:100BF0008091AF0408952091AF042617E0F3282FC9
:100C0000FC018E2F821B861768F4A091AD04B0E022
:100C1000A355BC4F8C9181938091AD048F5F8093DD
:100C2000AD04EFCF8091AF04861B8093AF0408958D
:100C30001092B20508951092AF0408951F920F927A
:100C40000FB60F9211240BB60F928F93EF93FF9371
:100C50008091AF048F3F91F0E091AE04F0E080917D
:100C6000CE00E355FC4F80838091AE048F5F80936C
:100C7000AE048091AF048F5F8093AF04FF91EF913A
:100C80008F910F900BBE0F900FBE0F901F90189575
:100C90001F920F920FB60F9211240BB60F928F93E3
:100CA000EF93FF938091B205882399F0E091B0050E
:100CB000F0E0E055FB4F80818093CE008091B0053D
:100CC0008F5F8093B0058091B20581508093B2050B
:100CD00005C08091C9008F7D8093C900FF91EF917D
:100CE0008F910F900BBE0F900FBE0F901F90189515
:100CF00087B18F7087B988B18F7088B98AB1806ADF
:100D00008AB95D985F9A0895AF92BF92CF92DF92B1
:100D1000FF920F931F93CF93DF935C01EBB1EF75BD
:100D2000EBB983E08A95F1F700005D9AA3E0AA95FC
:100D3000F1F700005D98B3E0BA95F1F700005D9A15
:100D4000E3E0EA95F1F70000ADE0FA2EC12CD12CDA
:100D5000A0E0B0E0C0E0D0E000E010E05D98F3E09B
:100D6000FA95F1F700005D9A000F111FCC0FDD1FFF
:100D7000AA0FBB1FCC0CDD1C349901603599C160F2
:100D80003699A160379B02C06894C0F8FA94F110BC
:100D9000E5CF5F9A1F70F50111830083DF70FB01BF
:100DA000D183C083BF70FA01B183A083F601FF70C5
:100DB000D901ED93FC93DF91CF911F910F91FF909B
:100DC000DF90CF90BF90AF90089508958F929F923B
:100DD000AF92BF92CF92DF92EF92FF920F931F9349
:100DE000CF93DF93CCE5DEE088809980840120E01A
:100DF00030E040E050E060E070E080E00E941402EB
:100E00008A809B80840120E030E040E050E060E098
:100E100070E081E00E9414028C809D80840120E0BB
:100E200030E040E050E060E070E082E00E941402B8
:100E30008E809F80840120E030E040E050E060E060
:100E400070E083E00E94140288849984840120E089
:100E500030E040E050E060E070E084E00E94140286
:100E60008A849B84840120E030E040E050E060E030
:100E700070E085E00E9414028C849D84840120E04F
:100E800030E040E050E060E070E086E00E94140254
:100E90008E849F84840120E030E040E050E060E0F8
:100EA00070E087E00E94140288889988840120E01D
:100EB00030E040E050E060E070E088E00E94140222
:100EC0008A889B88840120E030E040E050E060E0C8
:100ED00070E089E00E9414028C889D88840120E0E3
:100EE00030E040E050E060E070E08AE00E941402F0
:100EF0001F890E89712F770F770B272F372F472FD9
:100F0000572F672F8BE00E941402198D088D712FC7
:100F1000770F770B272F372F472F572F672F8CE00F
:100F20000E9414020A8D1B8D2C8D3D8D4E8D5F8D80
:100F300068A179A18DE00E9414020AA11BA12CA135
:100F40003DA14EA15FA168A579A58EE00E94140283
:100F50000AA51BA52CA53DA54EA55FA568A979A945
:100F60008FE00E9414020AA91BA92CA93DA94EA931
:100F70005FA968AD79AD80E10E9414028AAC9BAC98
:100F8000840120E030E040E050E060E070E081E18A
:100F90000E9414028CAD9DAD8C0120E030E040E059
:100FA00050E060E070E082E10E94140280919A0EAD
:100FB00090919B0E8C0120E030E040E050E060E03A
:100FC00070E083E10E94140280919C0E90919D0E2E
:100FD0008C0120E030E040E050E060E070E084E12F
:100FE0000E941402DF91CF911F910F91FF90EF901B
:100FF000DF90CF90BF90AF909F908F900895BF9259
:10100000CF92DF92EF92FF920F931F93CF93DF93D4
:10101000CDB7DEB7C055D1090FB6F894DEBF0FBE0D
:10102000CDBFCE0101967C016C0110E0B82E0F2DD2
:10103000B601812F0E94760187FF03C060E071E056
:10104000E8C01F5F98E0C90ED11C193089F789816B
:101050009A8190935D0E80935C0E89859A8590931A
:101060005F0E80935E0E89899A899093610E8093BA
:10107000600E898D9A8D9093630E8093620E89A184
:101080009AA19093650E8093640E89A59AA590937A
:10109000670E8093660E89A99AA99093690E809332
:1010A000680E89AD9AAD90936B0E80936A0E23966D
:1010B0008EAD9FAD239790936D0E80936C0E67015C
:1010C00010E0B60189E0810F0E94760187FF17C00A
:1010D000143019F46DE071E0C5C0153019F46AE1FF
:1010E00071E0C0C0163019F467E271E0BBC0173080
:1010F00019F464E371E0B6C061E471E08AC01F5F77
:1011000088E0C80ED11C1830E1F689819A8190934D
:101110006F0E80936E0E89859A859093710E8093E1
:10112000700E89899A899093730E8093720E898DBF
:101130009A8D9093750E8093740E89A18093760E8C
:101140008AA18093770E8BA18093780E8CA18093D7
:10115000790E8DA180937A0E8EA180937B0E8FA144
:1011600080937C0E88A580937D0E89A580937E0E4A
:101170008AA580937F0E8BA58093800E8CA580938B
:10118000810E8DA58093820E8EA58093830E8FA5F0
:101190008093840E88A98093850E89A98093860EFA
:1011A0008AA98093870E8BA98093880E8CA980933F
:1011B000890E8DA980938A0E8EA980938B0E8FA99C
:1011C00080938C0E88AD80938D0E89AD80938E0EAA
:1011D0008AAD80938F0E8BAD8093900E8CAD8093F3
:1011E000910E8DAD8093920E8EAD8093930E8FAD48
:1011F0008093940E21968FAD21978093950E10E0E9
:10120000B70181E1810F0E94760187FF0AC06EE479
:1012100071E08CE19EE00E944614105D1093270E51
:101220003BC01F5F98E0E90EF11C133049F789813C
:101230009A819093970E8093960E89859A859093C4
:10124000990E8093980E89899A8990939B0E80932A
:101250009A0E6B2D702F84E10E94760187FF16C0D5
:101260006BE571E08CE19EE0C05BDF4F0FB6F89458
:10127000DEBF0FBECDBFDF91CF911F910F91FF90C9
:10128000EF90DF90CF90BF900C94461489819A81A3
:1012900090939D0E80939C0EC05BDF4F0FB6F89429
:1012A000DEBF0FBECDBFDF91CF911F910F91FF9099
:1012B000EF90DF90CF90BF900895EEE4FEE01182B2
:1012C000108213821282158214821782168211866E
:1012D00010861386128615861486E0E1FAE01182E4
:1012E000108213821282158214821782168211864E
:1012F000108613861286ECE5FEE0118210821382BE
:101300001282158214821782168211861086138625
:1013100012861586148617861686118A108A138AF5
:10132000128A158A148A12A213A214A215A216A256
:1013300017A210A611A612A613A614A615A616A6E5
:1013400017A610AA11AA12AA13AA14AA15AA16AAB5
:1013500017AA10AE11AE128E138E148E158E168E25
:10136000178E10A211A2178A168A118E108E13AE34
:1013700012AE15AE14AE10929B0E10929A0E1092F1
:101380009D0E10929C0E68E671E08CE19EE00E943A
:1013900046140E94FF0765E771E08CE19EE00C9423
:1013A00046140E94A3051092B30508952F923F9210
:1013B0004F925F926F927F928F929F92AF92BF9265
:1013C000CF92DF92EF92FF920F931F93CF93DF9311
:1013D00000D000D01F92CDB7DEB70E94F805882359
:1013E00009F461C20E94F805882309F45CC261E037
:1013F000CE0101960E94FB054981423531F44093AC
:10140000B40581E08093B305EDCF9091B305E92F4A
:10141000F0E0ED54FA4F41834A3021F49A3008F459
:1014200040C204C09F5F9093B305DCCF8091B405A8
:10143000823509F036C28091B505853409F031C294
:101440008091B605873409F02CC28091B7058A33A4
:1014500009F027C2A091B8055091B9052091BA05AD
:101460006091BB058091BC0591509093B305092F05
:1014700010E00D541A4FF80131813F3309F009C2D1
:10148000082E000C990BC0970A2E000CBB0BD097AE
:1014900000E117E2A09F4001A19F900CB09F900C2B
:1014A0001124880D991DE52F550FFF0BF09708EEBD
:1014B00013E0E09FD001E19FB00DF09FB00D11242B
:1014C0008A0F9B1F022E000C330B2053310954E668
:1014D000529FF001539FF00D11248E0F9F1F062E77
:1014E000000C770B60537109469F9001479F300DA8
:1014F0001124820F931F8F36FDE99F0709F414C151
:1015000008F05BC0853AECE99E0709F4CDC030F5E0
:101510008B3F25E7920709F4EEC080F4893FF5E799
:101520009F0709F4DEC008F0E1C0883F954709F045
:1015300060C18091110A2090100AC9C08D3FF5E763
:101540009F0709F4E2C008F4DBC0843A9C4909F023
:1015500050C180914F0E20904E0EB9C0893AFCE9DF
:101560009F0709F4B0C060F4873AECE99E0709F4DC
:10157000A0C008F0A3C02090520E3090530E33C18B
:101580008C362DE9920709F4C5C048F48A3A9C4983
:1015900009F02FC120905A0E30905B0E24C18D3679
:1015A0002DE9920709F4BBC08E369D4909F021C18F
:1015B0002090600E3090610E16C18937FDE99F07BB
:1015C00009F4D0C078F58337EDE99E0709F4BBC074
:1015D00060F481372DE9920709F4ABC008F0AEC082
:1015E0002090640E3090650EFEC08637FDE99F079F
:1015F00009F4AEC048F484379D4909F0FAC0209040
:101600006C0E30906D0EEFC08737FDE99F0709F42F
:10161000A4C088379D4909F0ECC08091730E2090DA
:10162000720E55C08239EDE99E0709F4C2C0F8F484
:1016300082382DE9920709F49AC08A38EDE99E07AD
:1016400009F4A6C08A379D4909F0D3C02090760ED0
:101650003090770E4090780E5090790E60907A0E10
:1016600070907B0E80907C0E90907D0ECAC08F395A
:101670002DE9920709F4AEC048F48E399D4909F06E
:10168000B8C02090960E3090970EADC0803A2DE9EC
:10169000920709F4A4C0883A9D4909F0AAC0209095
:1016A0009C0E30909D0E9FC02090500E3090510E99
:1016B0009AC02090540E3090550E95C02090560E32
:1016C0003090570E90C08091590E2090580E382EB1
:1016D000880F880B482E582E682E782E882E982E2C
:1016E00090C08091130A2090120AF1CF8091150AC0
:1016F0002090140AECCF8091170A2090160AE7CFA9
:101700002090180A3090190A6EC080911B0A209010
:101710001A0ADDCF20905C0E30905D0E64C02090E0
:101720005E0E30905F0E5FC02090620E3090630EB0
:101730005AC02090660E3090670E55C02090680EFB
:101740003090690E50C020906A0E30906B0E4BC0E6
:1017500020906E0E30906F0E46C02090700E30902C
:10176000710E41C08091750E2090740EB0CF209004
:101770007E0E30907F0E4090800E5090810E6090D3
:10178000820E7090830E8090840E9090850E39C0EA
:101790002090860E3090870E4090880E5090890ED3
:1017A00060908A0E70908B0E80908C0E90908D0EB3
:1017B00028C020908E0E30908F0E4090900E50904A
:1017C000910E6090920E7090930E8090940E909077
:1017D000950E17C02090980E3090990E04C020905E
:1017E0009A0E30909B0E412C512C612C712C430190
:1017F00008C0212C312C412C512C612C712C812CB6
:10180000912CEFE1FFEFFE0FFA839101A201B301EA
:10181000C401AAE0F0E00E94091429F120F1CF01EF
:101820008D549A4F9D838C839AE0A92EB12CC12CA4
:10183000D12CE12CF12C00E010E09101A201B301C8
:10184000C4010E940513205DEC81FD81218391017B
:10185000A201B301C4010E94071319012A013B012F
:101860004C01EA81CFCFCF018D549A4F9B838A835D
:101870008AE0A82EB12CC12CD12CE12CF12C00E057
:1018800010E0C4010E940513205DEA81FB812183E1
:1018900008C0E92FF0E0ED54FA4F81819150803279
:1018A000C1F71092B3050F900F900F900F900F900B
:1018B000DF91CF911F910F91FF90EF90DF90CF902C
:1018C000BF90AF909F908F907F906F905F904F9060
:1018D0003F902F9008950F931F93CF93DF93E4EDE4
:1018E000F5E0108211821282138214821582168210
:1018F0001782108611861286138614861586168620
:101900001786108A118A87E098E00E9489118EEF6D
:1019100095E00E9489110E94EC02CCE5DEE00A8D80
:101920001B8D2C8D3D8D4E8D5F8D68A179A186EE2E
:1019300095E00E940D030AA51BA52CA53DA54EA56B
:101940005FA568A979A98EEE95E00E940D0301E0DC
:1019500010E020E030E040E050E060E070E086EF32
:1019600095E00E940D030E9478060E9467000E9485
:101970007B0083E090E00E942A0180E00E94130136
:1019800080E090E00E941A01DF91CF911F910F91AA
:101990000C947D002F923F924F925F926F927F92B4
:1019A0008F929F92AF92BF92CF92DF92EF92FF926F
:1019B0000F931F93CF93DF93CDB7DEB76B970FB61F
:1019C000F894DEBF0FBECDBF4090120A5090130AAC
:1019D0008090100A9090110A8091DD058E87909179
:1019E000DE059F87A091DF05A88BB091E005B98B3C
:1019F000E091E105EA8BF091E205FB8B8091E30534
:101A00008C8B9091E4059D8B052C000C6608770863
:101A1000D301C201BB0F880B982FDC0189839A8305
:101A2000AB83BC839201A3016981762F862F962F09
:101A300002E00E94AB1352016301E980FE2C0E2DDF
:101A40001E2D0E94F71359016A017B01E82F192FFF
:101A500004E00E94AB130E2F0E94F71302E00E94D5
:101A6000AB1352016301E980FE2C0E2D1E2D0E9446
:101A7000E21303E00E94AB13122FD32E042FB52FD5
:101A8000F62FE72F7C01A0E00E9409147CF421507E
:101A9000384F4F4F5F4F6F4F7F4F8F4F9F4F122FDA
:101AA000D32E042FB52FF62FE72F7C01212F3D2DAC
:101AB000402F5B2F6F2F7E2FC7010BE00E94C413B6
:101AC00029873A87342E252E6D837E838F839887CE
:101AD0002401990C66087708D301C201BB0F880B5B
:101AE000982FDC0189839A83AB83BC839201A30185
:101AF0006981762F862F962F02E00E94AB13520148
:101B00006301E980FE2C0E2D1E2D0E94F713590152
:101B10006A017B01E82F192F04E00E94AB130E2FFE
:101B20000E94F71302E00E94AB1352016301E980A7
:101B3000FE2C0E2D1E2D0E94E21303E00E94AB131B
:101B40007901142FB52FF62FE72F6C01A0E00E942A
:101B5000091474F42150384F4F4F5F4F6F4F7F4F30
:101B60008F4F9F4F7901142FB52FF62FE72F6C0160
:101B70009701412F5B2F6F2F7E2FC6010BE00E9434
:101B8000C413E091180AF091190AA6E0F695E795BA
:101B9000AA95E1F7E05FF54FA484B12CC12CD12CBC
:101BA000E12CF12C00E010E00E94411208E00E94BC
:101BB000C4132093140A3093150A99858A8590934B
:101BC000160A8093170A86EF95E00E94A8032091D9
:101BD0004E0E30914F0E2115310521F4882309F462
:101BE00071C068C02130310509F05EC010924F0EFF
:101BF00010924E0E00917E0E10917F0E2091800E5D
:101C00003091810E4091820E5091830E6091840E2E
:101C10007091850E86EF95E00E940D038091D405AA
:101C2000811150C081E08093D4051092D5051092A7
:101C3000D6051092D7051092D8051092D9051092AA
:101C4000DA051092DB051092DC051092DD0510928A
:101C5000DE051092DF051092E0051092E10510926A
:101C6000E2051092E3051092E40580915A0E9091DE
:101C70005B0E019719F483E090E002C081E090E0F0
:101C80000E94050180E090E00E941A0180E00E941D
:101C900013010E947D00A7E8B3E11197F1F700C09E
:101CA00000000E9479000EC08FEF9FEF90934F0EBF
:101CB00080934E0E1092D4051092190A1092180AB1
:101CC0000E947B008EEE95E00E94A8038823D1F14C
:101CD0008091E5058130B9F41092E5051092530E1C
:101CE0001092520E00918E0E10918F0E2091900E38
:101CF0003091910E4091920E5091930E6091940EFE
:101D00007091950E1BC081111DC08091520E909153
:101D1000530E0197B9F481E08093E5050091860E9A
:101D20001091870E2091880E3091890E40918A0E75
:101D300050918B0E60918C0E70918D0E8EEE95E011
:101D40000E940D038091D405882309F481C18091FC
:101D5000E5052091580E3091590E813041F512164B
:101D600013062CF460916A0E70916B0E27C021153A
:101D70003105F1F160916C0E70916D0E80E090E094
:101D8000032E000C440B550B0E949A12FCE9AF2E57
:101D9000BB24BA94CC24CA94DD24DA94EE24EA94C9
:101DA000FF24FA940FEF1FEF0E94D61229C01216DB
:101DB0001306B4F46091660E7091670E80E090E0B7
:101DC000032E000C440B550B0E949A12E4E6AE2E33
:101DD000B12CC12CD12CE12CF12C00E010E0E4CF8F
:101DE0002115310529F06091680E7091690EC6CFFA
:101DF00020E030E040E050E060E070E080E090E023
:101E0000A984BA84C32CD22CED80FE800F81188562
:101E10000E94F71329833D834E835F836887798708
:101E20008A879B872093D5053093D605E42F40936E
:101E3000D705F52F5093D805862F6093D905972F96
:101E40007093DA05AA85A093DB05BB85B093DC050A
:101E5000AF01BC01CD01A090DD05B090DE05C090C2
:101E6000DF05D090E005E090E105F090E2050091FB
:101E7000E3051091E4050E94E213722E832E942E46
:101E80005B8F6A8F472E582E692E2093DD05309385
:101E9000DE054093DF055093E0056093E105709304
:101EA000E2058093E3059093E4053091730E209151
:101EB000720E932F990F990BA980BD80CE80DF8081
:101EC000E884F9848D01492F592F692F792F892FA3
:101ED0000E94411219014C875D876E8B7F8B888F22
:101EE000998F3091750E2091740E932F990F990B45
:101EF000A72CB82CC92CDB8CEA8CF42C052D162DC4
:101F0000492F592F692F792F892F0E94411259018A
:101F10006A017B018C0191014C855D856E897F8909
:101F2000888D998D0E94E2137901142FD52E062FEA
:101F3000B72FF82FE92FA0E00E9409142CF5298172
:101F40003D814E815F81688579858A859B850E9468
:101F500009140CF065C08E858093DD059F859093F4
:101F6000DE05A889A093DF05B989B093E005EA8969
:101F7000E093E105FB89F093E2058C898093E3050A
:101F80009D899093E4054CC09701412F5D2D602FF2
:101F90007B2F8F2F9E2F00E10E94C413F901498FE0
:101FA0005E8BB62FA72F8F8B988F8091560E9091B6
:101FB000570E1C019F016B2F7A2F8F89988D51012D
:101FC000C12CD12CE12CF12C00E010E00E94001477
:101FD00051F14CF129813D814E815F816885798580
:101FE0008A859B85A0E00E940914F1F0ECF0AE8593
:101FF000A093DD05BF85B093DE05E889E093DF059A
:10200000F989F093E0058A898093E1059B89909393
:10201000E205AC89A093E305BD89B093E40504C053
:10202000212C312C01C01F013092190A2092180A6C
:10203000C1010E941A01F10186E0F695E7958A95A3
:10204000E1F7E05FF54F84850E9413010E947D0057
:102050000091760E1091770E2091780E3091790EC6
:1020600040917A0E50917B0E60917C0E70917D0EA6
:1020700086EE95E00E940D036B960FB6F894DEBFD6
:102080000FBECDBFDF91CF911F910F91FF90EF90C9
:10209000DF90CF90BF90AF909F908F907F906F9088
:1020A0005F904F903F902F9008952F923F924F92C4
:1020B0005F926F927F928F929F92AF92BF92CF92D8
:1020C000DF92EF92FF920F931F93CF93DF93CDB7E1
:1020D000DEB7A4970FB6F894DEBF0FBECDBF198E42
:1020E0001A8E1B8E1C8E1D8E1E8E1F8E18A2198A94
:1020F0001A8A1B8A1C8A1D8A1E8A1F8A188E1986B4
:102100001A861B861C861D861E861F86188A1982C3
:102110001A821B821C821D821E821F8218869E01CB
:102120002F5F3F4FAE01475F5F4FBE016F5E7F4F36
:10213000CE0149960E948406298D3A8D4B8D5C8D87
:102140006D8D7E8D8F8D98A127563840410951099C
:10215000610971098109910959016A017B01E82F1F
:10216000192F02E00E94AB130E2F0E94E213722E71
:10217000832E942EB52FF62FE72F682E192FA0E06F
:102180000E9409145CF4A3E00E94EB13722E832ECC
:10219000942EB52FF62FE72F682E192F272D382DC7
:1021A000492D5B2F6F2F7E2F862D912F02E00E94ED
:1021B000C413322E432E542E652E69A37AA38BA30B
:1021C0009CA3298F3A8F4B8F5C8F6D8F7E8F8BA155
:1021D0008F8F98A329893A894B895C896D897E897B
:1021E0008F89988D27563840410951096109710935
:1021F00081099109222E732E4A01B62FA72FF82F9D
:10220000E92F06E00E94AB13A22CB72C6401EB2E41
:10221000FA2E0F2F1E2F0E94F71301E00E94AB131E
:102220000F2F0E94F71302E00E94AB13722E832E31
:10223000942EB52FF62FE72F182F292EA0E00E94FD
:1022400009145CF4AFE00E94EB13722E832E942EDF
:10225000B52FF62FE72F182F292E272D382D492D92
:102260005B2F6F2F7E2F812F922D04E00E94C413CD
:10227000298B3A8B4B8B5C8B6D8B7E8B8F8B988FE6
:10228000232D342D452D562D69A17AA18BA19CA11A
:10229000A0E00E94091444F4198E1A8E1B8E1C8E25
:1022A0001D8E1E8E1F8E18A2698D7A8D87E098E094
:1022B0000E94A5119093110A8093100A69897A8966
:1022C0008EEF95E00E94A5119093130A8093120A55
:1022D00086EE95E00E94A80391E0811190E0892F9D
:1022E000A4960FB6F894DEBF0FBECDBFDF91CF919D
:1022F0001F910F91FF90EF90DF90CF90BF90AF9024
:102300009F908F907F906F905F904F903F902F9015
:102310000895DC01BE5F1C92FC01EB5FFD4F108253
:1023200011821282138234971082118212821382D8
:10233000FC0111921192EA17FB07D9F70895FC01ED
:10234000EB5FFD4F8081918108954F925F926F9274
:102350007F928F929F92AF92BF92CF92DF92FF9225
:102360000F931F93CF93DF938C015B016C018EEF72
:10237000D81AF601F080E801CF0DD11DCF0DD11D87
:10238000319648805980052C000C660877088081BA
:102390009181A281B381AC01BD014419550966093F
:1023A0007709C5010B2C000CAA0BBB0B3A014B01A2
:1023B000680E791E8A1E9B1EC401B3016082718261
:1023C0008282938220E031E040E050E00E942212BD
:1023D000F801EB5FFD4F2083318342835383B98241
:1023E000A882F394F601F082C901DF91CF911F9189
:1023F0000F91FF90DF90CF90BF90AF909F908F9004
:102400007F906F905F904F9008950FB6F894A895C5
:1024100080916000886180936000109260000FBE20
:1024200078940E945D090E94D1090E94E5060E94ED
:102430006B0C0E9455108111FCCF0E94D6090E949E
:10244000CA0CF7CF052E97FB1EF400940E94391298
:1024500057FD07D00E94151407FC03D04EF40C94CE
:10246000391250954095309521953F4F4F4F5F4F12
:10247000089590958095709561957F4F8F4F9F4FF0
:102480000895DF93CF931F930F939A9DF02D219F73
:10249000F00D8B9DF00D8A9DE02DF10D039FF00D49
:1024A000029FE00DF11D4E9DE00DF11D5E9DF00DB2
:1024B0004F9DF00D7F936F93BF92AF925F934F93B9
:1024C000D5010E9437148B01AC01D7010E9437144B
:1024D000EB01E80FF91FD6010E9491122F913F9155
:1024E000D6010E943714C60FD71FE81FF91FAF91FE
:1024F000BF910E9491122F913F910E943714C60FF5
:10250000D71FE81FF91FD6010E943714E60FF71FE7
:102510009801BE01CF0111240F911F91CF91DF913E
:1025200008950E943714460F571FC81FD91F08F47B
:102530003196089597FB57FF0C94AA129F938F939F
:102540000E94AA126E1B7F0BAF91BF918A0B9B0B4F
:102550000895E894DF93CF93FC01DB010E943714C8
:102560007F936F93E9019A01AC01BF93AF933F93BF
:102570002F93DF010E94371426F46C1B7D0B820B16
:10258000930B9E01EB01FC010E949112AF91BF9150
:102590002F913F910E949112BE01CF01F9012F911D
:1025A0003F91CF91DF910895689401C0E894F92F8D
:1025B000F12B12F00C940813A0E0B0E0E2EEF2E18F
:1025C0000C947A13092E059422F40E9464131123AB
:1025D00092F4F0E80F26FFEFE094F0940095109548
:1025E000B094C094D094A194BF0ACF0ADF0AEF0A36
:1025F000FF0A0F0B1F0B0E94131307FC0E946413AA
:10260000CDB7DEB7ECE00C949613689401C0E89463
:102610008F929F92CF93DF930E941313DF91CF91FC
:102620009F908F90089588249924F401E401B0E4E8
:102630009F93AA279A158B049C04ED05FE05CF05F0
:10264000D007A10798F4AD2FDC2FCF2FFE2FE92D57
:10265000982C892E982F872F762F652F542F432F54
:10266000322F2227B85031F7BF9127C01B2EBF91C0
:10267000BB27220F331F441F551F661F771F881F5C
:10268000991F881C991CEE1FFF1FCC1FDD1FAA1F5E
:10269000BB1F8A149B04EC05FD05CE05DF05A007D2
:1026A000B10748F08A189B08EC09FD09CE09DF093B
:1026B000A00BB10B21601A94E1F62EF49401AF0146
:1026C000BE01CD01000C08956095709580959095A0
:1026D00030954095509521953F4F4F4F5F4F6F4F2D
:1026E0007F4F8F4F9F4F08952F923F924F925F924F
:1026F0006F927F928F929F92AF92BF92CF92DF9212
:10270000EF92FF920F931F93CF93DF93CDB7DEB776
:10271000CA1BDB0B0FB6F894DEBF0FBECDBF09940A
:102720002A88398848885F846E847D848C849B8461
:10273000AA84B984C884DF80EE80FD800C811B816F
:10274000AA81B981CE0FD11D0FB6F894DEBF0FBE9E
:10275000CDBFED0108950F93083090F0982F872F8B
:10276000762F652F542F432F322F22270850F4CF76
:10277000220F331F441F551F661F771F881F991F85
:102780000A95B2F70F91089597FB10F81694000878
:102790000F93083098F00850232F342F452F562FD1
:1027A000672F782F892F902DF4CF059497958795D3
:1027B0007795679557954795379527950A95AAF781
:1027C0000F9108952A0D3B1D4C1D5D1D6E1D7F1D33
:1027D000801F911F08950024A7FD00942A0F301D2B
:1027E000401D501D601D701D801D901D08952A19EB
:1027F0003B094C095D096E097F09800B910B089517
:102800002A153B054C055D056E057F058007910780
:1028100008950024A7FD00942A17300540055005AF
:1028200060057005800590050895A1E21A2EAA1B87
:10283000BB1BFD010DC0AA1FBB1FEE1FFF1FA21770
:10284000B307E407F50720F0A21BB30BE40BF50B6D
:10285000661F771F881F991F1A9469F760957095F6
:10286000809590959B01AC01BD01CF010895A29F79
:10287000B001B39FC001A39F700D811D1124911D54
:10288000B29F700D811D1124911D0895FB01DC0183
:0E28900001900D920020E1F70895F894FFCF1B
:10289E004552524F52205034303330580045525228
:1028AE004F5220503430333134004552524F522063
:1028BE00503430333232004552524F522050343061
:1028CE00333330004552524F522050343033333868
:1028DE00004552524F522050343033315800455239
:1028EE00524F5220503430333558004552524F52C9
:1028FE002050343033363000494E495449414C490A
:10290E005A494E470053595354454D204F4B0000E2
:00000001FF
