:100000000C9446000C9465000C9465000C946500FB
:100010000C9465000C9465000C9465000C946500CC
:100020000C9465000C9465000C9465000C946500BC
:100030000C9465000C9465000C9465000C94C80346
:100040000C9465000C9465000C9465000C944E01B2
:100050000C9446050C9409060C9465000C946500FC
:100060000C9465000C9465000C9465000C9465007C
:100070000C94D1060C94FB060C9465000C9465005E
:100080000C9465000C941A050C94650011241FBE95
:10009000CFEFD0E4DEBFCDBF13E0A0E0B1E0E0EFF2
:1000A000F8E500E00BBF02C007900D92AA31B1073E
:1000B000D9F726E1AAE1B3E001C01D92A231B2074F
:1000C000E1F70E9494280C94762C0C940000569A28
:1000D0005E9884B1806B84B926982C9A85B18F750F
:1000E00085B910921A0310922F0383ED8CBD1DBCAD
:1000F00008955E9A08955E98089580911A0381117B
:10010000FECF10921B0380912F0381FF0DC09091B1
:10011000300390931C0391E090931D0392E0909321
:100120001A03EEE1F3E002C0ECE1F3E082FF0BC062
:1001300090913103908392E09183329690911A03CB
:100140009E5F90931A0383FF0EC09091320320911B
:1001500033032083918393E09283339690911A0323
:100160009D5F90931A0384FF0EC0909134032091F9
:1001700035032083918394E09283339690911A0300
:100180009D5F90931A0385FF0BC090913603908377
:1001900095E09183329690911A039E5F90931A0393
:1001A00086FF0BC090913703908396E0918332963F
:1001B00090911A039E5F90931A0387FF0AC0809163
:1001C0003803808387E0818380911A038E5F809358
:1001D0001A0310922F032C9881E28A95F1F7000000
:1001E000E0911A03E11106C081E28A95F1F700005F
:1001F0002C9A0895F0E0E55EFC4F80818EBD8091E1
:100200001A03815080931A030895029718F41092EC
:10021000300303C081E08093300380912F0382601C
:1002200080932F030895EFE2F3E08283808184605E
:1002300080830895EFE2F3E0948383838081886074
:1002400080830895EFE2F3E0968385838081806167
:1002500080830895EFE2F3E08F5F8783808180627F
:10026000808308959FEF980F9F3080F49FEF960F43
:100270009F3060F420E1829FC0011124862B80937F
:10028000370380912F03806480932F030895EFE25A
:10029000F3E0818780818068808308951F920F92A8
:1002A0000FB60F9211240BB60F928F93EF93FF931B
:1002B000E0911A03E11106C081E28A95F1F700008E
:1002C0002C9A0AC0F0E0E55EFC4F80818EBD8091E3
:1002D0001A03815080931A03FF91EF918F910F9031
:1002E0000BBE0F900FBE0F901F9018950F931F938A
:1002F000CF93DF9300D0CDB7DEB79C01CB01BA011D
:100300001A821982AC01460F571FF901DC01A417AC
:10031000B50761F0F894A895F999FECFE1BDF2BD5B
:10032000F89A789410B51D933196F1CF260F371FA8
:10033000F894A895F999FECF21BD32BDF89A78942A
:1003400010B52F5F3F4FF894A895F999FECF21BDC6
:1003500032BDF89A789400B59E012E5F3F4FAE01F2
:100360004F5F5F4F0E9438028981081307C081E008
:100370009A81191301C080E0819501C08FEF0F9021
:100380000F90DF91CF911F910F910895EF92FF92FF
:100390000F931F93CF93DF9300D0CDB7DEB78C01BF
:1003A000CB017A011A821982FB01640F751F980133
:1003B000E617F707D9F04191F894A895F894A89515
:1003C000F999FECFA22F21BD532F32BDF89A789410
:1003D000B0B5B41739F0F999FECFA1BD52BD40BDFB
:1003E000FA9AF99A78942F5F3F4FE2CF9E012E5FE1
:1003F0003F4FAE014F5F5F4F6E2D0E9438022A8142
:10040000C701800F911FF894A895F894A895F999C1
:10041000FECF81BD92BDF89A789430B5321739F08D
:10042000F999FECF81BD92BD20BDFA9AF99A7894D0
:1004300029810196F894A895F894A895F999FECF8A
:1004400081BD92BDF89A789430B5321739F0F99998
:10045000FECF81BD92BD20BDFA9AF99A78940F9093
:100460000F90DF91CF911F910F91FF90EF90089522
:10047000CF93DF93DA01E9012FEF28832C939C01BE
:100480006150B0F0F90181919F019C91E82FE9271B
:100490004E2F50E0CA0180509E4FFC018081988110
:1004A00098279C93FA01E050FF4F80818883E8CF22
:1004B000DF91CF910895F894E9E3F3E0108211827F
:1004C000128213821482158216821782109285007E
:1004D00010928400EFE6F0E08081816080831092CA
:1004E000800081E080938100789408952F923F925C
:1004F0004F925F926F927F928F929F92AF92BF9234
:10050000CF92DF92EF92FF920F931F93CF93DF93DF
:10051000CDB7DEB727970FB6F894DEBF0FBECDBFBD
:100520009E838D837901E42FD52ECB012091840009
:1005300030918500A9E3B3E011963C932E932C9063
:1005400011963C90119712964C90129713965C90CE
:1005500013971496FC91149715962C9115972A834E
:1005600016962C9116972B8317962C912C83980115
:10057000A7016E2F7D2D02E00E94442A39014A0115
:100580006F83E72FB82FA92F0E94442A59016A01CF
:100590007B018C019301A4016F817E2F8B2F9A2FF9
:1005A0000E947B2A51016201EF2EFA800B811C818F
:1005B0000E947B2AED81FE81208331834283538315
:1005C000648375838683978327960FB6F894DEBF7E
:1005D0000FBECDBFDF91CF911F910F91FF90EF9094
:1005E000DF90CF90BF90AF909F908F907F906F9053
:1005F0005F904F903F902F9008957F928F929F929F
:10060000AF92BF92CF92DF92EF92FF920F931F9320
:10061000CF93DF93FC0180918400909185009093AB
:100620003A0380933903708081809280D381C481A2
:10063000B581A681F781A0903903B0903A03C090AC
:100640003B03D0903C03E0903D03F0903E030091CB
:100650003F0310914003272D382D492D5D2F6C2F1E
:100660007B2F8A2F9F2F0E94902AE1E0A72CB82C85
:10067000C92CDD2EEC2EFB2E0A2F1F2F0E94992A4B
:1006800008F4E0E08E2FDF91CF911F910F91FF9042
:10069000EF90DF90CF90BF90AF909F908F907F9022
:1006A00008952F923F924F925F926F927F928F9216
:1006B0009F92AF92BF92CF92DF92EF92FF920F93F1
:1006C0001F93CF93DF9300D000D01F92CDB7DEB73A
:1006D000FC01809184009091850090933A0380936F
:1006E0003903208031804280538064807580A681E8
:1006F000A983E781A0903903B0903A03C0903B03EF
:10070000D0903C03E0903D03F0903E0300913F0306
:10071000109140039101A201B3018A2F9E2F0E94E4
:10072000902A5B838C839D8351016201730109814F
:100730001E2F0E94992A60F4E4E1AE2EB12CC12C48
:10074000D12CE12CF12C00E010E00E94A02908C07F
:1007500020E030E040E050E060E070E080E090E0D9
:100760000F900F900F900F900F90DF91CF911F91EE
:100770000F91FF90EF90DF90CF90BF90AF909F9040
:100780008F907F906F905F904F903F902F90089543
:100790001F920F920FB60F9211240BB60F922F9348
:1007A0003F934F935F936F937F938F939F93EF93B9
:1007B000FF93E9E3F3E02081318142815381648139
:1007C0007581868197814F5F5F4F6F4F7F4F8F4F4E
:1007D0009F4F208331834283538364837583868351
:1007E0009783FF91EF919F918F917F916F915F918F
:1007F0004F913F912F910F900BBE0F900FBE0F9016
:100800001F9018958F929F92AF92BF92CF92DF92D6
:10081000EF92FF921F93CF93DF934A015B01C22FA8
:1008200010924C0610924D0610924E0610924505FD
:100830001092440510924705109246051092490502
:10084000109248058093430381E090E09093420327
:100850008093410360EA75E286E290E0A50194018D
:100860000E94B82869017A01C501B4010E946B2B6E
:100870004B015C019B01AC0166E571E283E89CE4FD
:100880000E94BD2A0E94342B122FD32FA501940160
:100890006EEC78E08CEE9CE40E94BD2A0E94342B22
:1008A000209A289ABB27AF2D9E2D8D2D8093C500B1
:1008B000C092C400C13019F020F48EE003C086E37A
:1008C00001C086E28093C20082E08093C00088E984
:1008D0008093C100812F9D2F909399008093980061
:1008E00030939B0020939A001092900010929100F8
:1008F000809171008460809371008091910082608A
:1009000080939100DF91CF911F91FF90EF90DF9046
:10091000CF90BF90AF909F908F900895A895EFEFE4
:10092000F0E0262F30E040914E06DF01A41BB10914
:100930002A173B07C4F7282FFC018E2F821B86172E
:1009400068F4A0914D06B0E08191A45BBA4F8C93FE
:1009500080914D068F5F80934D06EFCF80914E06BC
:10096000680F60934E068091C10085FD17C080918D
:100970004103909142030297D1F788E090E0909371
:1009800042038093410328988091C0008064809343
:10099000C0008091C10080628093C1000895809161
:1009A0004805909149050895A895262F30E040917B
:1009B00048055091490542175307C8F3482FFC01D9
:1009C0008E2F841B861798F4A0914405B09145059D
:1009D000AC5BBC4F8C91819380914405909145050F
:1009E000019691709093450580934405E9CF8091DD
:1009F000480590914905821B930B9093490580937C
:100A00004805089510924E0680914D0680934C063D
:100A10000895109249051092480510924B051092C6
:100A20004A0580914605909147059093450580932E
:100A3000440508951F920F920FB60F9211240BB622
:100A40000F928F939F93EF93FF93EAE4F5E08081F9
:100A5000918190934905809348051182108282E02C
:100A600090E09093420380934103E1E9F0E08081BC
:100A70008D7F8083C19AFF91EF919F918F910F900D
:100A80000BBE0F900FBE0F901F9018951F920F92E4
:100A90000FB60F9211240BB60F922F933F938F93A3
:100AA0009F93EF93FF931092950010929400809182
:100AB0009100826080939100809141039091420364
:100AC000019731F08091410390914203089751F4CE
:100AD000E0914605F09147058091C600EC5BFC4F24
:100AE00080838AC0C19915C08091C00084FD11C067
:100AF0008091C00082FD0DC080914805909149050C
:100B000020914A0530914B05820F931F813092400E
:100B100020F1E0914605F09147058091C600EC5B1D
:100B2000FC4F8083809146059091470520914A05AE
:100B300030914B05821B930B9170909347058093E6
:100B4000460510924B0510924A0581E090E0909383
:100B5000420380934103C19A4FC0E0914605F09152
:100B600047058091C600EC5BFC4F80838091410378
:100B700090914203029769F5E0914605F09147058F
:100B8000EC5BFC4F208180914303022E000C330B61
:100B900090E028173907B1F48091460590914705F8
:100BA00001969170909347058093460580914A0580
:100BB00090914B05019690934B0580934A0584E0F4
:100BC00090E002C081E090E0909342038093410363
:100BD00013C08091460590914705019691709093BE
:100BE00047058093460580914A0590914B050196F3
:100BF00090934B0580934A05FF91EF919F918F91C0
:100C00003F912F910F900BBE0F900FBE0F901F9032
:100C100018951F920F920FB60F9211240BB60F92D8
:100C20008F939F93EF93FF9380914E06882399F0C3
:100C3000E0914C06F0E0E45BFA4F80818093C600BF
:100C400080914C068F5F80934C0680914E068150B8
:100C500080934E0616C08091C1008F7D8093C100A5
:100C6000289AC19A10929500109294008091910058
:100C700082608093910081E090E0909342038093A2
:100C80004103FF91EF919F918F910F900BBE0F90B9
:100C90000FBE0F901F901895109252081092530893
:100CA0001092540810924F0710925007109251075B
:100CB00082E08093CD0088E08093CC00E8ECF0E007
:100CC000808182608083E9ECF0E0808188698083A4
:100CD000EAECF0E08081866080830895A895EFEFCC
:100CE000F0E0262F30E040915408DF01A41BB10949
:100CF0002A173B07C4F7282FFC018E2F821B86176B
:100D000068F4A0915308B0E08191AE5AB84F8C932B
:100D1000809153088F5F80935308EFCF80915408E0
:100D2000680F609354088091C90085FD0AC08091C6
:100D3000C80080648093C8008091C900806280935D
:100D4000C9000895809151070895A89520915107F1
:100D50002617E0F3282FFC018E2F821B861768F4DC
:100D6000A0914F07B0E0A15BB94F8C918193809126
:100D70004F078F5F80934F07EFCF80915107861BFE
:100D800080935107089510925408109252081092BF
:100D9000530808951092510710924F071092500770
:100DA00008951F920F920FB60F9211240BB60F9257
:100DB0008F93EF93FF93809151078F3F91F0E091D4
:100DC0005007F0E08091CE00E15BF94F8083809185
:100DD00050078F5F80935007809151078F5F8093FA
:100DE0005107FF91EF918F910F900BBE0F900FBEA7
:100DF0000F901F9018951F920F920FB60F9211240B
:100E00000BB60F928F93EF93FF9380915408882332
:100E100099F0E0915208F0E0EE5AF84F808180930B
:100E2000CE00809152088F5F8093520880915408C1
:100E300081508093540805C08091C9008F7D8093B4
:100E4000C900FF91EF918F910F900BBE0F900FBED5
:100E50000F901F90189587B18F7087B988B18F70E8
:100E600088B98AB1806A8AB95D985F9A0895CF93EC
:100E7000DF93EB01DA01B901FC01118210821982C2
:100E8000188211961C921E92F901118210825F98AD
:100E9000F3E0FA95F1F700005D9823E02A95F1F769
:100EA00000005D9AE3E0EA95F1F700005D98F3E059
:100EB000FA95F1F700005D9A23E02A95F1F700001A
:100EC0004DE05D98E3E0EA95F1F700005D9AFC01E2
:100ED00020813181220F331F31832083349B03C053
:100EE00021603183208328813981220F331F398388
:100EF0002883359B03C02160398328832D913C9141
:100F00001197220F331F11963C932E93369B04C0EA
:100F1000216011963C932E93FB0120813181220F99
:100F2000331F31832083379B03C0216031832083AB
:100F3000415039F65F9AFC01208131813F70318345
:100F40002083888199819F70998388838D919C915A
:100F500011979F708D939C93FB01808191819F706D
:100F600091838083DF91CF910895E0EAFDE0428193
:100F7000538164817581268180810C940204AF9233
:100F8000BF92CF92DF92EF92FF920F931F93CF9376
:100F9000DF93CDB7DEB7DA950FB6F894DEBF0FBE9C
:100FA000CDBF0E94CF04882309F40CC262E0CE01B9
:100FB00001960E94D4041A81143009F478C01CF4FC
:100FC000133041F0E1C1163009F4F3C0103109F4D7
:100FD00035C1DAC10E94CF04863008F444C10E94B2
:100FE000CF04682FCE0103960E94D4049E01265F91
:100FF0003F4FAE01475F5F4F66E0CE0101960E9412
:1010000038029F8189859813DDC198858A85981358
:10101000D9C18B81809356088C8180935508C090EC
:101020005508D0905608C601805C9346C090A80D24
:10103000D090A90DC80ED91E8D81809356088E813F
:1010400080935508A0905508B09056080A2D000FBF
:101050000B8313E0E12CF12CEA14FB0409F493C098
:1010600065E578E0C7018C0D9D1D0E94700B8130F5
:1010700029F48091A00D898383E876C1E1E0F0E056
:10108000EC0FFD1FE10FF11D80915608808381E078
:10109000810FE1E0F0E0EC0FFD1FE80FF11D1E5F96
:1010A0008091550880838FEFE81AF80AD5CF0E9407
:1010B000CF04863008F486C10E94CF04682FCE0189
:1010C00003960E94D4049E01265F3F4FAE01475F06
:1010D0005F4F66E0CE0101960E9438029F818985AC
:1010E000981370C198858A8598136CC18B81809301
:1010F00056088C8180935508C0905508D0905608AA
:10110000C601805D9A48C090A80DD090A90DC80E68
:10111000D91E8D81809356088E8180935508A090AA
:101120005508B09056080A2D000F0B8313E0E12CF0
:10113000F12CEA14FB0439F165E578E0C7018C0D68
:101140009D1D0E94700B813029F48091A00D898330
:1011500084E80AC1E1E0F0E0EC0FFD1FE10FF11DB2
:1011600080915608808381E0810FE1E0F0E0EC0F90
:10117000FD1FE80FF11D1E5F8091550880839FEFD2
:10118000E91AF90AD6CF412F50E09A012F5F3F4F5D
:1011900081E090E08C0F9D1F280F391F480F591FC9
:1011A00063E0600FCE0101960E94380265E0600F97
:1011B00005C10E94CF04863008F404C10E94CF0408
:1011C000682FCE0103960E94D4049E01265F3F4FF4
:1011D000AE01475F5F4F66E0CE0101960E94380284
:1011E0009F8189859813EEC098858A859813EAC0F7
:1011F0008B81809356088C81809355088091550887
:1012000090915608805C93462091A80D3091A90DCD
:101210004D81409356084E81409355086091550882
:1012200070915608820F931F0E949B0F813009F026
:10123000A9C08091A00D898386E896C00E94CF0442
:10124000853088F065E0CE0103960E94D4040F81BA
:10125000002E000C110B0F5F1F4F0E94CF0490E077
:101260000817190744F00E94CF04682FCE01019699
:101270000E94D404A7C00E94CF04682FCE01089614
:101280000E94D4046F81695F9E013395AE01415085
:101290005F4FCE0101960E9438028F81082E000C0C
:1012A000990BE8E0F0E0EC0FFD1FE80FF91F30812B
:1012B000C150DF4F2881CF5FD040321383C0FE0181
:1012C000E80FF91F9185C050DF4F8881C050D14091
:1012D000981378C08B81809356088C818093550831
:1012E000E0905508F0905608C701805C9346E09066
:1012F000A80DF090A90DE80EF91E8D818093560877
:101300008E8180935508C0905508D090560800E013
:1013100010E002C00F5F1F4F802F880F895F0C15F0
:101320001D0529F190E0E1E0F0E0EC0FFD1FE80F72
:10133000F91F208120935608E2E0F0E0EC0FFD1F3A
:10134000E80FF91F808180935508609155087091CE
:101350005608C8018E0D9F1D0E949B0F8130D1F64B
:101360008091A00D898380E98A8382E01AC09E0162
:10137000285F3F4FAE01495F5F4F66E0CE010196A7
:101380000E94380268E01AC00E94CF04682FCE0184
:1013900001960E94D4048091A00D898310681A835D
:1013A00081E08B839E012B5F3F4FAE014C5F5F4F0F
:1013B00063E0CE0101960E94380265E0CE010196FD
:1013C0000E948E04D3950FB6F894DEBF0FBECDBF3A
:1013D000DF91CF911F910F91FF90EF90DF90CF9011
:1013E000BF90AF90089542E758E060EA7DE080E06A
:1013F00090E00E94C601FFCF42E758E060EA7DE03E
:1014000080E090E00C94760110928D0D10928C0D7E
:1014100010928F0D10928E0D1092910D1092900DD2
:101420001092930D1092920D1092950D1092940DB2
:101430001092970D1092960D1092990D1092980D92
:1014400010929B0D10929A0D10929D0D10929C0D72
:1014500010929F0D10929E0D1092770D1092760DA6
:101460001092780D1092790D10927A0D10927B0DDA
:1014700010927F0D10927E0D1092810D1092800DB2
:101480001092830D1092820D1092840D1092850D92
:101490001092860D1092870D1092A10D1092A00D42
:1014A0001092A20D1092A30D1092A40D1092A50DF2
:1014B0001092A70D1092A60D1092AB0D1092AA0DCE
:1014C0001092AD0D1092AC0D1092AF0D1092AE0DAA
:1014D0001092B10D1092B00D1092B30D1092B20D8A
:1014E0001092B50D1092B40D1092B70D1092B60D6A
:1014F0001092B90D1092B80D1092BB0D1092BA0D4A
:101500001092BD0D1092BC0D1092BF0D1092BE0D29
:101510001092C10D1092C00D1092C20D1092C30D09
:101520001092C40D1092C50D1092C60D1092C70DE9
:101530001092C80D1092C90D1092CA0D1092CB0DC9
:101540001092CC0D1092CD0D1092CE0D1092CF0DA9
:101550001092D00D1092D10D1092D20D1092D30D89
:101560001092D40D1092D50D1092D60D1092D70D69
:101570001092D80D1092D90D1092DA0D1092DB0D49
:101580001092DC0D1092DD0D1092DE0D1092DF0D29
:101590001092E00D1092E10D1092E20D1092E30D09
:1015A0001092E40D1092E50D1092E60D1092E70DE9
:1015B0001092E80D1092E90D1092EA0D1092EB0DC9
:1015C0001092EC0D1092ED0D1092EE0D1092EF0DA9
:1015D0001092F00D1092F10D1092F20D1092F30D89
:1015E0001092F40D1092F50D1092F60D1092F70D69
:1015F0001092F80D1092F90D1092FB0D1092FA0D49
:101600001092FD0D1092FC0D1092FF0D1092FE0D28
:101610001092010E1092000E1092030E1092020E04
:101620001092050E1092040E1092070E1092060EE4
:101630001092090E1092080E10920B0E10920A0EC4
:1016400010920D0E10920C0E10920F0E10920E0EA4
:101650001092110E1092100E80E090E190938B0D7D
:1016600080938A0D0E94FC09E0918A0DF0918B0D08
:101670008F3F11F4F0682FC02091C20D3091C30D3F
:101680004091C40D5091C50D6091C60D7091C70D6C
:101690008091C80D9091C90D203432444F405105BE
:1016A0006105710581059105A1F098F080E48093B2
:1016B000C20D82E48093C30D8FE08093C40D10921D
:1016C000C50D1092C60D1092C70D1092C80D109244
:1016D000C90DFF7EF062F0938B0DE0938A0D0895A3
:1016E0000F93FB0188332EE9920709F496C208F0A4
:1016F000FAC08F3A2CE9920709F41AC208F072C0B6
:10170000811526E7920709F43FC288F58B3F25E74C
:10171000920709F425C288F4893F25E7920709F466
:1017200011C208F018C2883F25E7920709F0E9C303
:101730008091760D9091770DF7C38D3F45E7940723
:1017400009F418C208F411C28E3F45E7940709F462
:1017500016C28F3F25E7920709F0D3C38091840D0D
:101760009091850DA091860DB091870D1CC2863A8F
:101770004CE9940709F4C8C1F8F48A3246E79407A3
:1017800009F407C250F4813046E7940709F0B9C361
:101790008091880D9091890DC7C3843A2CE99207F6
:1017A00009F4ADC1853A4CE9940709F0AAC38091C8
:1017B0008E0D90918F0DB8C3883A2CE9920709F4E9
:1017C000ADC108F4A6C1893A2CE9920709F4ABC16E
:1017D0008E3A4CE9940709F094C38091980D90914A
:1017E000990DA2C3823D2DE9920709F4F3C108F0D7
:1017F0003FC08E362DE9920709F4D8C118F5863D11
:101800002CE9920709F499C150F4883B2CE992071E
:1018100009F077C380919C0D90919D0D85C38C3606
:101820004DE9940709F4BAC18D362DE9920709F004
:1018300068C38091A20D9091A30DA091A40DB091C9
:10184000A50DB1C180374DE9940709F4B9C108F479
:10185000B2C1803D4DE9940709F4B7C1813D2DE93E
:10186000920709F04EC38091AC0D9091AD0D5CC311
:10187000873D4DE9940709F4C1C1B0F4843D4DE9B9
:10188000940709F4B1C108F4AAC1853D4DE9940754
:1018900009F4AFC1863D2DE9920709F032C380916A
:1018A000B60D9091B70D40C385334EE9940709F406
:1018B000AAC150F484334EE9940709F022C3809101
:1018C000BA0D9091BB0D30C386332EE9920709F40F
:1018D0009FC187334EE9940709F013C38091C00D6F
:1018E0009091C10D21C38C342EE9920709F475C281
:1018F00008F08FC082342EE9920709F4FEC108F087
:101900004AC08D332EE9920709F4BFC110F58A331E
:101910002EE9920709F4A3C108F490C18B332EE994
:10192000920709F4ADC18C334EE9940709F0E9C27E
:101930002091CA0D3091CB0D4091CC0D5091CD0D21
:101940006091CE0D7091CF0D8091D00D9091D10D01
:101950007CC28F332EE9920709F4B9C108F4A6C1FD
:1019600080342EE9920709F4B7C181344EE9940717
:1019700009F0C7C22091D20D3091D30D4091D40D02
:101980005091D50D6091D60D7091D70D8091D80DE5
:101990009091D90D6CC287342EE9920709F4E5C104
:1019A00010F584342EE9920709F4BDC108F4B6C1DC
:1019B00085342EE9920709F4C7C186344EE99407AD
:1019C00009F09FC22091DA0D3091DB0D4091DC0DC2
:1019D0005091DD0D6091DE0D7091DF0D8091E00D75
:1019E0009091E10D56C289342EE9920709F4D3C1D2
:1019F00008F4C0C18A342EE9920709F4DDC18B34A2
:101A00004EE9940709F07DC28091E20D9091E30DBB
:101A10008BC286352EE9920709F44BC2F0F5813569
:101A20002EE9920709F413C210F58E342EE99207BD
:101A300009F4F5C108F4E2C18F342EE9920709F4E4
:101A4000FFC180354EE9940709F05BC22091F20D89
:101A50003091F30D4091F40D5091F50D6091F60D1C
:101A60007091F70D8091F80D9091F90DEEC18335CD
:101A70002EE9920709F413C208F4FBC184352EE95C
:101A8000920709F411C285354EE9940709F039C26D
:101A90008091FC0D9091FD0D47C28B352EE9920788
:101AA00009F41BC2B0F488352EE9920709F40BC281
:101AB00008F404C289352EE9920709F409C28A356F
:101AC0004EE9940709F01DC28091060E9091070E11
:101AD0002BC28D352EE9920709F409C208F402C21F
:101AE0008E352EE9920709F407C28F354EE9940727
:101AF00009F007C28091100E9091110E15C28091CD
:101B00008C0D90918D0D10C28091900D9091910D42
:101B10000BC28091920D9091930D06C28091940D0D
:101B20009091950D01C28091960D9091970DFCC1F9
:101B300080919A0D90919B0DF7C180919E0D90918F
:101B40009F0DF2C18091780D9091790DA0917A0D41
:101B5000B0917B0D28C08091780D9091790DE4C1F2
:101B600080917C0D90917D0DDFC180917E0D9091D3
:101B70007F0DDAC18091800D9091810DD5C180914A
:101B8000820D9091830DD0C18091840D9091850D2F
:101B9000CBC180918A0D90918B0DC6C18091A00D13
:101BA0009091A10DC1C1B183A083C0C18091A20D4C
:101BB0009091A30DB9C18091A60D9091A70DB4C1CC
:101BC0008091A80D9091A90DAFC18091AA0D90911F
:101BD000AB0DAAC18091AE0D9091AF0DA5C18091C2
:101BE000B00D9091B10DA0C18091B20D9091B30D47
:101BF0009BC18091B40D9091B50D96C18091B80DA7
:101C00009091B90D91C18091BC0D9091BD0D8CC189
:101C10008091BE0D9091BF0D87C12091C20D309172
:101C2000C30D4091C40D5091C50D6091C60D7091CA
:101C3000C70D8091C80D9091C90D07C12091C20DAB
:101C40003091C30D4091C40D5091C50D6091C60DEA
:101C50007091C70D8091C80D9091C90D08C1209158
:101C6000C20D3091C30D4091C40D5091C50D6091CE
:101C7000C60D7091C70D8091C80D9091C90D09C115
:101C80008091C20D9091C30D4FC12091CA0D30912A
:101C9000CB0D4091CC0D5091CD0D6091CE0D70913A
:101CA000CF0D8091D00D9091D10DE1C02091CA0D42
:101CB0003091CB0D4091CC0D5091CD0D6091CE0D5A
:101CC0007091CF0D8091D00D9091D10DE2C0809197
:101CD000CA0D9091CB0D28C12091D20D3091D30D1A
:101CE0004091D40D5091D50D6091D60D7091D70DC6
:101CF0008091D80D9091D90DA8C02091D20D30912E
:101D0000D30D4091D40D5091D50D6091D60D7091A9
:101D1000D70D8091D80D9091D90DBBC08091D20D77
:101D20009091D30D01C12091DA0D3091DB0D4091DE
:101D3000DC0D5091DD0D6091DE0D7091DF0D809115
:101D4000E00D9091E10D81C02091DA0D3091DB0D15
:101D50004091DC0D5091DD0D6091DE0D7091DF0D35
:101D60008091E00D9091E10D82C08091DA0D90910B
:101D7000DB0DDAC02091E20D3091E30D4091E40DCE
:101D80005091E50D6091E60D7091E70D8091E80DA1
:101D90009091E90D5AC02091E20D3091E30D4091F0
:101DA000E40D5091E50D6091E60D7091E70D809185
:101DB000E80D9091E90D5BC02091E20D3091E30DAB
:101DC0004091E40D5091E50D6091E60D7091E70DA5
:101DD0008091E80D9091E90D5CC02091EA0D309161
:101DE000EB0D4091EC0D5091ED0D6091EE0D709169
:101DF000EF0D8091F00D9091F10D27C02091EA0D2B
:101E00003091EB0D4091EC0D5091ED0D6091EE0D88
:101E10007091EF0D8091F00D9091F10D28C02091FF
:101E2000EA0D3091EB0D4091EC0D5091ED0D60916C
:101E3000EE0D7091EF0D8091F00D9091F10D29C094
:101E40008091EA0D9091EB0D6FC000E323C02091CB
:101E5000F20D3091F30D4091F40D5091F50D60911C
:101E6000F60D7091F70D8091F80D9091F90D00E24B
:101E700011C02091F20D3091F30D4091F40D50916D
:101E8000F50D6091F60D7091F70D8091F80D909120
:101E9000F90D00E10E945F2A2083318347C08091C1
:101EA000F20D9091F30D40C08091FA0D9091FB0DD1
:101EB0003BC08091FE0D9091FF0D36C08091000EC9
:101EC0009091010E31C08091020E9091030E2CC0B2
:101ED0008091040E9091050E27C08091080E90917C
:101EE000090E22C080910A0E90910B0E1DC08091A8
:101EF0000C0E90910D0E18C080910E0E90910F0E49
:101F000013C09C012852304A2115384088F4A0E0C3
:101F1000B0E08852904AA109B1098056924FDC0185
:101F2000AE58BF4F8C9190E09183808380E001C0D8
:101F300081E00F9108952F923F924F925F926F929E
:101F40007F928F929F92AF92BF92CF92DF92EF9249
:101F5000FF920F931F93CF93DF93CDB7DEB7A49774
:101F60000FB6F894DEBF0FBECDBF8E330EE99007DB
:101F700009F447C508F0A3C0813D2DE9920709F493
:101F800001C408F052C08F3A4CE9940709F4BDC16E
:101F900010F5873AACE99A0709F467C170F4853AFD
:101FA000ECE99E0709F42FC108F044C1843A0CE91A
:101FB000900709F413C10C944118893A1CE9910760
:101FC00009F46DC108F45EC18E3A3CE9930709F447
:101FD00075C10C9441188D364DE9940709F464C31A
:101FE00088F4863DACE99A0709F43DC38C36BDE917
:101FF0009B0709F447C3883BECE99E0711F00C945A
:10200000411897C18F36FDE99F0709F48AC308F488
:1020100067C380371DE9910709F493C3803D2DE91B
:10202000920709F4A3C30C94411885333EE9930742
:1020300009F4FFC300F5853D5DE9950709F4C9C3BF
:1020400060F42091980D3091990D833DBDE99B0777
:1020500009F4ADC308F4A2C3B3C3873DFDE99F07EC
:1020600009F4CFC308F4C1C384331EE9910709F40E
:10207000D4C30C94411889332EE9920709F418C48B
:1020800060F42091980D3091990D87334EE99407B3
:1020900009F4E4C308F4D9C3EAC38B33AEE99A0761
:1020A00009F45CC408F426C48C33EEE99E0709F4F5
:1020B00062C48D33FEE99F0709F481C4E2C78F34FF
:1020C0000EE9900709F4CFC608F044C086342EE923
:1020D000920709F48FC5D0F42091980D3091990D95
:1020E00082344EE9940709F40AC540F48034AEE91D
:1020F0009A0709F4C4C408F4B8C4E2C48434EEE90D
:102100009E0709F437C508F42BC555C58A340EE976
:10211000900709F4EDC560F42091980D3091990D68
:1021200088344EE9940709F4A3C508F497C5C1C5DE
:102130008C34AEE99A0709F41CC608F40DC68D3438
:10214000EEE99E0709F439C68E34FEE99F0709F4CB
:1021500056C697C787350EE9900709F427C7D0F40C
:102160002091980D3091990D83354EE9940709F42B
:10217000F8C640F48135AEE99A0709F4A2C608F41E
:102180007FC6BEC68535EEE99E0709F4FDC608F494
:10219000F2C603C78B350EE9900709F42EC760F429
:1021A0002091980D3091990D89354EE9940709F4E5
:1021B00012C708F407C718C78D35AEE99A0709F4A6
:1021C00034C708F426C78E35EEE99E0709F43DC7EB
:1021D0008F35FEE99F0709F444C753C78091980DD6
:1021E0009091990D892B41F46130710529F4709318
:1021F0008D0D60938C0D10C08FEF9FEF90938D0D20
:1022000080938C0D09C06536710544F084E690E03A
:1022100090938F0D80938E0D80E047C76C390FEF40
:1022200070071CF48CE99FEFF3CF70938F0D6093D0
:102230008E0DF2CF7093910D6093900D8091960D5D
:102240009091970D019729F48091BC0D9091BD0D4F
:1022500004C08091BA0D9091BB0D86179707E0F6E8
:102260009093910D8093900DD7CF6130710529F433
:102270007093930D6093920DCFCF1092930D1092A7
:10228000920DCACF6130710529F47093950D60935A
:10229000940DC2CF1092950D1092940DBDCF613068
:1022A000710539F481E090E09093970D8093960D3D
:1022B000B3CF1092970D1092960DAECF8091980DDE
:1022C0009091990D009771F461307105C9F48FEF09
:1022D0009FEF90938D0D80938C0D7093990D60936B
:1022E000980D9ACF019761F46130710549F08091A2
:1022F0009A0D90919B0D019719F40E94F3098CCFD0
:102300001092990D1092980D87CF8091980D909111
:10231000990D019709F080CF6130710529F4709310
:102320009B0D60939A0D78CF10929B0D10929A0D91
:1023300073CF8091980D9091990D019709F06CCF12
:102340006130710509F068CF6091FA0D7091FB0D55
:1023500080E090E00E946B2B2DEC3CEE43EF54E4C8
:102360000E94092C20E030E040E05AE30E94092C52
:102370000E94342B19014B875C876D877E878F877E
:10238000988B6091AA0D7091AB0D80E090E00E9457
:102390006B2B20E030E045EB54E40E94092C20E058
:1023A00030E040E85AE30E94092C0E94342B590186
:1023B0006A017B01E82F192F04E00E94442A0E2FA6
:1023C0000E94902A49013A01B62FA72FF82FE92F32
:1023D00004E00E94442A59016A017B018C019401A6
:1023E000A3016B2F7A2F8F2F9E2F0E947B2A5101E2
:1023F000CB84DC84ED84FE840F8518890E94A0299B
:10240000298B3A8B4B8B5B8F6C8F7D8F8E8F9F8F41
:102410008091AE0D9091AF0D45E0969587954A95C8
:10242000E1F78C0120E030E040E050E0BA01898320
:102430001A832B833C834D835E836F83788722E1ED
:102440003EE03A872987612C712C812C912C19A2AE
:1024500018A2412C512CA980BA80CB80DC80ED8061
:10246000FE800F8118859301A40169A178A1C201A2
:102470000E94A029E22F2F3F31054105510561053A
:1024800071058105910511F008F0EFEFA985BA8576
:10249000ED93BA87A9879301A40169A178A1C2012C
:1024A000A988BA88CB88DB8CEC8CFD8C0E8D1F8DB7
:1024B0000E947B2A39014A0169A378A32C01A25109
:1024C000B64149F66091AC0D7091AD0D80E090E0A1
:1024D0000E946B2B20E030EC4DED54E40E94092C5F
:1024E00020E030E040E85AE30E94092C0E94342B9F
:1024F00059016A017B01E82F192F04E00E94442A48
:102500000E2F0E94902A49013A01B62FA72FF82FCB
:10251000E92F04E00E94442A59016A017B018C01E1
:102520009401A3016B2F7A2F8F2F9E2F0E947B2A5D
:102530005101CB84DC84ED84FE840F8518890E94D0
:10254000A0292B873C874D875E876F87788B898B87
:102550009A8B8091B00D9091B10D1C0135E03694AD
:1025600027943A95E1F7F101EE5EF14F208130E0DA
:1025700040E050E060E070E080E090E0AB84BC843C
:10258000CD84DE84EF84F88809891A890E94902A14
:102590002B8F3C8F4D8F5E8F6F8F78A389A39AA36B
:1025A000612C712C812C912C19821986412C512C73
:1025B0001CA21BA2810120E030E040E050E0BA0103
:1025C0002B8A1C8B2D8B3E8B4F8B588F698F7A8F6C
:1025D000AB88BC88C12CD12CE12CF12C00E010E0A0
:1025E0009301A40169817985C2010E94A029AB846D
:1025F000BC84CD84DE84EF84F88809891A890E941E
:102600007B2AEBA1FCA1EE5EF14FA22F2F3F3105FB
:1026100041055105610571058105910511F008F02D
:10262000AFEFA0832BA13CA12F5F3F4F3CA32BA377
:102630009301A40169817985C201AB8CBC8CCD8CDE
:10264000DE8CEF8CF8A009A11AA10E947B2A390127
:102650004A01698379872C014BA15CA124163506B8
:1026600008F0B6CFD9CD8091980D9091990D019732
:1026700021F46130710509F4FFCF10929F0D109283
:102680009E0DCACD8091980D9091990D019709F0FA
:10269000C3CDCB010197873F910508F0BDCD709365
:1026A000A10D6093A00DB8CD8091980D9091990DDA
:1026B000019709F0B1CDCB01A0E0B0E0BC015527F6
:1026C00044278091A20D9091A30DA091A40DB091EB
:1026D000A50DAA27BB27842B952BA62BB72B18C09B
:1026E0008091980D9091990D019709F095CD8B01EE
:1026F00020E030E08091A20D9091A30DA091A40D57
:10270000B091A50D88279927802B912BA22BB32B55
:102710008093A20D9093A30DA093A40DB093A50D4B
:102720007BCD8091980D9091990D019709F074CD12
:102730006330710508F070CD7093A70D6093A60DFE
:102740006BCD8091980D9091990D019709F064CD12
:102750006F3F5FEF75070CF45FCD623071050CF0D1
:102760005BCD7093A90D6093A80D56CD8091980D07
:102770009091990D019709F04FCD7093AB0D609337
:10278000AA0D4ACD8091980D9091990D019709F06D
:1027900043CD7093AD0D6093AC0D3ECD213031052E
:1027A00009F03ACD7093AF0D6093AE0D35CD213069
:1027B000310509F031CD7093B10D6093B00D2CCD82
:1027C0002130310509F028CD7093B30D6093B20D1F
:1027D00023CD8091980D9091990D019709F01CCD12
:1027E0007093B50D6093B40D17CD8091980D9091B5
:1027F000990D019709F010CD7093B70D6093B60D48
:102800000BCD8091980D9091990D019709F004CD11
:102810007093B90D6093B80DFFCC8091980D909195
:10282000990D019709F0F8CC7093BB0D6093BA0D28
:10283000F3CC8091980D9091990D019709F0ECCC13
:102840007093BD0D6093BC0DE7CC2130310509F0CC
:10285000E3CC7093BF0D6093BE0DDECC213031050B
:1028600009F0DACC7093C10D6093C00DD5CC213046
:10287000310509F0D1CC9B0140E050E060E070E010
:1028800080E090E000E30E94442A0091C20D109184
:10289000C30DB091C40DA091C50DF091C60DE0918E
:1028A000C70D202B312B4B2B5A2B6F2B7E2B45C06A
:1028B0008091980D9091990D019709F0ADCC9B01F5
:1028C00040E050E060E070E080E090E000E20E94D4
:1028D000442A0091C20D1091C30DB091C40DA09176
:1028E000C50DF091C80DE091C90D202B312B4B2B5C
:1028F0005A2B21C08091980D9091990D019709F064
:102900008BCC9B0140E050E060E070E080E090E024
:1029100000E10E94442A0091C20D1091C30DB091B4
:10292000C60DA091C70DF091C80DE091C90D202BE7
:10293000312B6B2B7A2B8F2B9E2B2093C20D309338
:10294000C30D4093C40D5093C50D6093C60D709395
:10295000C70D8093C80D9093C90D5ECC8091980DE2
:102960009091990D019709F057CC4B016093C20DDE
:102970009092C30D51CC8091980D9091990D019733
:1029800009F04ACC9B0140E050E060E070E080E05C
:1029900090E000E30E94442A0091CA0D1091CB0DF3
:1029A000B091CC0DA091CD0DF091CE0DE091CF0D59
:1029B000202B312B4B2B5A2B6F2B7E2B45C080911C
:1029C000980D9091990D019709F026CC9B0140E05C
:1029D00050E060E070E080E090E000E20E94442A75
:1029E0000091CA0D1091CB0DB091CC0DA091CD0DE1
:1029F000F091D00DE091D10D202B312B4B2B5A2B88
:102A000021C08091980D9091990D019709F004CC07
:102A10009B0140E050E060E070E080E090E000E189
:102A20000E94442A0091CA0D1091CB0DB091CE0D99
:102A3000A091CF0DF091D00DE091D10D202B312B35
:102A40006B2B7A2B8F2B9E2B2093CA0D3093CB0DA3
:102A50004093CC0D5093CD0D6093CE0D7093CF0D60
:102A60008093D00D9093D10DD7CB2130310509F053
:102A7000D3CB4B016093CA0D9092CB0DCDCB2130BF
:102A8000310509F0C9CB9B0140E050E060E070E007
:102A900080E090E000E30E94442A0091D20D109162
:102AA000D30DB091D40DA091D50DF091D60DE0913C
:102AB000D70D202B312B4B2B5A2B6F2B7E2B3FC04E
:102AC0002130310509F0A8CB9B0140E050E060E0E7
:102AD00070E080E090E000E20E94442A0091D20D74
:102AE0001091D30DB091D40DA091D50DF091D80DCA
:102AF000E091D90D202B312B4B2B5A2B1EC02130AE
:102B0000310509F089CB9B0140E050E060E070E0C6
:102B100080E090E000E10E94442A0091D20D1091E3
:102B2000D30DB091D60DA091D70DF091D80DE091B5
:102B3000D90D202B312B6B2B7A2B8F2B9E2B209397
:102B4000D20D3093D30D4093D40D5093D50D609397
:102B5000D60D7093D70D8093D80D9093D90D5CCB83
:102B60002130310509F058CB4B016093D20D909282
:102B7000D30D52CB2130310509F04ECB9B0140E003
:102B800050E060E070E080E090E000E30E94442AC2
:102B90000091DA0D1091DB0DB091DC0DA091DD0DEF
:102BA000F091DE0DE091DF0D202B312B4B2B5A2BBA
:102BB0006F2B7E2B42C02130310509F02DCB9B01BC
:102BC00040E050E060E070E080E090E000E20E94D1
:102BD000442A0091DA0D1091DB0DB091DC0DA0912B
:102BE000DD0DF091E00DE091E10D202B312B4B2B11
:102BF0005A2B21C08091980D9091990D019709F061
:102C00000BCB9B0140E050E060E070E080E090E0A2
:102C100000E10E94442A0091DA0D1091DB0DB09181
:102C2000DE0DA091DF0DF091E00DE091E10D202B84
:102C3000312B6B2B7A2B8F2B9E2B2093DA0D30931D
:102C4000DB0D4093DC0D5093DD0D6093DE0D709332
:102C5000DF0D8093E00D9093E10DDECA2130310548
:102C600009F0DACA4B016093DA0D9092DB0DD4CAF9
:102C70002130310509F0D0CA9B0140E050E060E00E
:102C800070E080E090E000E30E94442A0091E20DB1
:102C90001091E30DB091E40DA091E50DF091E60DDA
:102CA000E091E70D202B312B4B2B5A2B6F2B7E2BDA
:102CB00042C02130310509F0AFCA9B0140E050E02D
:102CC00060E070E080E090E000E20E94442A009121
:102CD000E20D1091E30DB091E40DA091E50DF0919E
:102CE000E80DE091E90D202B312B4B2B5A2B21C005
:102CF0008091980D9091990D019709F08DCA9B01D3
:102D000040E050E060E070E080E090E000E10E9490
:102D1000442A0091E20D1091E30DB091E60DA091CF
:102D2000E70DF091E80DE091E90D202B312B6B2B95
:102D30007A2B8F2B9E2B2093E20D3093E30D409343
:102D4000E40D5093E50D6093E60D7093E70D8093CD
:102D5000E80D9093E90D60CA8091980D9091990DBE
:102D6000019709F059CA4B016093E20D9092E30D6F
:102D700053CA8091980D9091990D019709F04CCA12
:102D80009B0140E050E060E070E080E090E000E314
:102D90000E94442A0091EA0D1091EB0DB091EC0DC8
:102DA000A091ED0DF091EE0DE091EF0D202B312B68
:102DB0004B2B5A2B6F2B7E2B45C08091980D9091F9
:102DC000990D019709F028CA9B0140E050E060E0AE
:102DD00070E080E090E000E20E94442A0091EA0D59
:102DE0001091EB0DB091EC0DA091ED0DF091F00D67
:102DF000E091F10D202B312B4B2B5A2B21C08091D0
:102E0000980D9091990D019709F006CA9B0140E039
:102E100050E060E070E080E090E000E10E94442A31
:102E20000091EA0D1091EB0DB091EE0DA091EF0D18
:102E3000F091F00DE091F10D202B312B6B2B7A2BC3
:102E40008F2B9E2B2093EA0D3093EB0D4093EC0DCE
:102E50005093ED0D6093EE0D7093EF0D8093F00D98
:102E60009093F10DD9C98091980D9091990D01978A
:102E700009F0D2C94B016093EA0D9092EB0DCCC9D9
:102E80002130310509F0C8C99B0140E050E060E005
:102E900070E080E090E000E30E94442A0091F20D8F
:102EA0001091F30DB091F40DA091F50DF091F60D88
:102EB000E091F70D202B312B4B2B5A2B6F2B7E2BB8
:102EC0003FC02130310509F0A7C99B0140E050E027
:102ED00060E070E080E090E000E20E94442A00910F
:102EE000F20D1091F30DB091F40DA091F50DF0914C
:102EF000F80DE091F90D202B312B4B2B5A2B1EC0D6
:102F00002130310509F088C99B0140E050E060E0C4
:102F100070E080E090E000E10E94442A0091F20D10
:102F20001091F30DB091F60DA091F70DF091F80D01
:102F3000E091F90D202B312B6B2B7A2B8F2B9E2BB5
:102F40002093F20D3093F30D4093F40D5093F50D53
:102F50006093F60D7093F70D8093F80D9093F90D33
:102F60005BC92130310509F057C94B016093F20D5F
:102F70009092F30D51C92130310509F04DC970937C
:102F8000FB0D6093FA0D48C92130310509F044C9A1
:102F90007093FD0D6093FC0D3FC92130310509F0A0
:102FA0003BC97093FF0D6093FE0D36C98091980D5B
:102FB0009091990D019709F02FC97093010E6093BC
:102FC000000E2AC92130310509F026C97093030E7D
:102FD0006093020E21C92130310509F01DC970939B
:102FE000050E6093040E18C92130310509F014C98B
:102FF0007093070E6093060E0FC98091980D909103
:10300000990D019709F008C97093090E6093080E95
:1030100003C98091980D9091990D019709F0FCC812
:1030200070930B0E60930A0EF7C88091980D9091E3
:10303000990D019709F0F0C86530710508F0ECC8EA
:1030400070930D0E60930C0EE7C88091980D9091CF
:10305000990D019709F0E0C870930F0E60930E0E62
:10306000DBC88091980D9091990D019709F0D4C813
:103070006430710508F0D0C87093110E6093100E83
:10308000CBC89C012852304A2115384068F4A0E092
:10309000B0E08852904AA109B1098056924FFC01D4
:1030A000EE58FF4F6083B8C881E0A4960FB6F8943D
:1030B000DEBF0FBECDBFDF91CF911F910F91FF906B
:1030C000EF90DF90CF90BF90AF909F908F907F90C8
:1030D0006F905F904F903F902F9008950E944C0604
:1030E0001092570808952F923F924F925F926F92DD
:1030F0007F928F929F92AF92BF92CF92DF92EF9288
:10310000FF920F931F93CF93DF93CDB7DEB76597F1
:103110000FB6F894DEBF0FBECDBF0E94A206882373
:1031200009F4C2C21A8219820E94A206882309F4F5
:10313000BBC261E0CE0103960E94A5069B81923539
:1031400021F49093580881E00DC080915708E82F32
:10315000F0E0E95AF74F91839A3019F48A3028F455
:1031600014C08F5F80935708DFCF20915808223515
:1031700061F420915908253441F420915A082734EC
:1031800021F420915B082A3321F069E180E093E08B
:10319000A9C140915C08042E000C550B4053510905
:1031A00020E137E2429FB001439F700D529F700DA6
:1031B000112440915D08042E000C550B4053510919
:1031C000E8EEF3E04E9F90014F9F300D5E9F300D73
:1031D0001124260F371F40916008240F311D47FD31
:1031E0003A9540915E08042E000C550B405351094E
:1031F000E4E6E49FB001E59F700D1124A901460F9C
:10320000571F20915F08022E000C330B2053310909
:10321000929FB001939F700D11243A01660E771EA4
:10322000230120E3421A5108815080935708E82F68
:10323000F0E0E95AF74F91819F3309F056C1BE0182
:103240006F5F7F4FC2010E94700B882349F14114C8
:10325000510479F40CE810E0F80184918B830F5F3E
:103260001F4F8823D1F061E0CE0103960E946E06C5
:10327000F3CFF8E24F16F8EA5F0679F402E11EE0B8
:10328000F80181918F018B8361E0CE0103960E944A
:103290006E06F6E102311F0799F71092570804C233
:1032A00029EF421625E7520651F04FEF441645E745
:1032B000540629F08DE648168DE95806A1F53A81A5
:1032C0002981932F990F990B492F592F692F792F06
:1032D000892F00E10E94442A7B018C01BE016F5FAF
:1032E0007F4FC3018F972A8B3D8B4B8B5C8B0E944A
:1032F000700BFA81A981EF2FEE0FEE0B2A89222E97
:103300002A2A3D89332E3F2A4B89442E4E2A5C8936
:10331000552E5E2A6E2C6E2A7F2C7E2A802E8E2AB7
:10332000912E9E2A83C093012B7F29803A80C3016E
:103330008B7E88369E4949F020373E4931F020E5A2
:1033400042162EE9520609F06CC0910140E050E0AF
:1033500060E070E080E090E000E30E94442A822E6A
:10336000A32ED42EE52EB62EC72EF82E192FBE0171
:103370006F5F7F4FC3018F970E94700B49815A8105
:103380009A0140E050E060E070E080E090E000E210
:103390000E94442A822A9A2C932AD42AE52AB62A01
:1033A000BC82C72ACD82F82A192BBE016F5F7F4FDE
:1033B000C3018E970E94700B49815A819A0140E0A7
:1033C00050E060E070E080E090E000E10E94442A7C
:1033D000A22E4E8358876987B72EC82E092FBE01AB
:1033E0006F5F7F4FC3018D973D8B0E94700B89816A
:1033F0009A81AC01282D282B892D852B222E2A2855
:103400003D89382E332A4E804D2858845E286C80A2
:103410004985642A7D807B288F2C8C28912E902AC8
:1034200005C0412C512C612C712C43018AE0809302
:1034300077089101A201B301C401A0E00E94A22A71
:103440004CF40E94FD2919012A013B014C018DE237
:103450008D8302C090E29D83BEE1FFEFFB0FFC83F2
:103460009101A201B301C401A9E0EB2FF0E00E9499
:10347000A22A29F124F1CF01895A974F9F838E8385
:103480008AE0A82EB12CC12CD12CE12CF12C00E02B
:1034900010E09101A201B301C4010E946D29205DD9
:1034A000EE81FF8121839101A201B301C4010E9439
:1034B0006F2919012A013B014C01BC81CECF2C811F
:1034C00020935708E95AF74F80E3820D8183822FBA
:1034D00090E0FC01E95AF74F4D81418361E26B1B9B
:1034E000885A974F0E946E06D8CEE1E0E9871A8687
:1034F0001B861C861D861E861F86188A812C912C91
:103500001C821D821E821886212C312CE82FF0E0AF
:10351000E95AF74FE181E03209F46CC09FEF980F50
:10352000998BED3289F48093570894014C815D8129
:103530006E817885C1010E94FD2949014C835D831C
:103540006E8378871C0158C00E2E000CFF0BF0977D
:103550009F2F990F990BA984BA84CB84DC84ED84C6
:10356000FE840F8518899F01492F592F692F792FC4
:10357000892F0E94DA285401CC80DD80EE80F88407
:1035800081010E947B2A49014C835D836E83788789
:103590001C0129853A854B855C856D857E858F85E7
:1035A000988901E00E94442A29873A874B875C87E3
:1035B000B62FA72FF82FE92F7A2F8F2F9E2F02E0FB
:1035C0000E94442A59016A017B018C0129853A85B0
:1035D0004B855C856B2F7A2F8F2F9E2F0E947B2A25
:1035E00029873A874B875C876D877E878F87988B83
:1035F00089898CCF80935708FDE64F16FDE95F0659
:1036000091F494014C815D816E817885C10100E166
:103610000E945D2AB9018DE69DE90E949B0FB401CD
:10362000C3018F973EC0C3018B7F93012B7E283649
:103630003E4941F080379E4929F0F0E54F16FEE9FA
:103640005F0669F594014C815D816E817885C101C9
:1036500000E30E945D2AB901C2010E949B0F940100
:103660004C815D816E817885C10100E20E945D2AF6
:10367000B901C3018F970E949B0F94014C815D811A
:103680006E817885C10100E10E945D2AB901C30104
:103690008E970E949B0FB401C3018D9702C0B401A5
:1036A000C2010E949B0FF9CD65960FB6F894DEBF5C
:1036B0000FBECDBFDF91CF911F910F91FF90EF9083
:1036C000DF90CF90BF90AF909F908F907F906F9042
:1036D0005F904F903F902F9008950F931F93CF933B
:1036E000DF93E8E7F8E010821182128213821482DD
:1036F000158216821782108611861286138614860A
:10370000158616861786E6E7FDE084899589937FFE
:10371000958B848B0E945B02C0EADDE00AA11BA1AD
:103720002CA13DA14EA15FA168A579A588E898E0EC
:103730000E9476020AA91BA92CA93DA94EA95FA93E
:1037400068AD79AD80E998E00E947602E2EEFDE096
:103750000081118122813381448155816681778185
:1037600080EA98E00E947602E2EFFDE0008111819C
:1037700022813381448155816681778188EA98E08E
:103780000E94760201E010E020E030E040E050E0EE
:1037900060E070E088E998E00E94760280EB98E0B3
:1037A0000E940F2582EC9AE00E94ED2783E19BE0C6
:1037B0000E940F2585E29DE00E94ED270E942B07C5
:1037C0000E9467000E947B00CCE0DEE08881998146
:1037D0000E942A018091100E9091110E0E944701C3
:1037E000688189816F708F700E94320180E00E9431
:1037F000130180E090E00E941A01DF91CF911F91A8
:103800000F910C947D002F923F924F925F926F9296
:103810007F928F929F92AF92BF92CF92DF92EF9260
:10382000FF920F931F93CF93DF93CDB7DEB7A1978E
:103830000FB6F894DEBF0FBECDBF209180082C8B51
:10384000309181083D8B409182084E8B50918308C6
:103850005F8B60918408688F70918508798F809163
:1038600086088A8F909187089B8F80EB98E00E9452
:103870002F25BC0182EC9AE00E9412289093770DCC
:103880008093760D83E19BE00E942F25BC0185E2A9
:103890009DE00E9412282C01990F6608770840923B
:1038A000780D5092790D60927A0D70927B0DE091B7
:1038B000760DF091770DFB8BEA8BA3019201550FEA
:1038C000220B322FA90129833A834B835C83920117
:1038D000A3016981762F862F962F02E00E94442A49
:1038E00052016301E980FE2C0E2D1E2D0E94902AAC
:1038F00059016A017B01E82F192F04E00E94442A34
:103900000E2F0E94902A02E00E94442A5201630175
:10391000E980FE2C0E2D1E2D0E947B2A03E00E94C2
:10392000442A7901142FB52FF62FE72F6C01A0E060
:103930000E94A22A74F42150384F4F4F5F4F6F4FAF
:103940007F4F8F4F9F4F7901142FB52FF62FE72F01
:103950006C019701412F5B2F6F2F7E2FC6010BE06B
:103960000E945D2A39014A011B012C016A897B8969
:10397000AB0160E070E080E090E0DC0149835A83B5
:103980006B837C838D839E83AF83B8879A01AB0161
:1039900060E070E080E090E002E00E94442AA980AC
:1039A000BA80CB80DC80E12CF12C00E010E00E949A
:1039B000902A59016A017B01E82F192F04E00E9427
:1039C000442A0E2F0E94902A02E00E94442AA980D5
:1039D000BA80CB80DC80E12CF12C00E010E00E946A
:1039E0007B2A03E00E94442A0CE00E945D2AE091B9
:1039F0007E0DF0917F0DA5E0F695E795AA95E1F78C
:103A0000EE5EF14FA080B12CC12CD12C00E00E94C1
:103A1000DA2808E00E945D2A2093820D3093830DFE
:103A20006092840D7092850D8092860D9092870D24
:103A300088E998E00E94FD0220918C0D30918D0D57
:103A40002115310521F4882309F47EC06DC0213091
:103A5000310509F063C010928D0D10928C0D00910C
:103A6000CA0D1091CB0D2091CC0D3091CD0D409110
:103A7000CE0D5091CF0D6091D00D7091D10D88E990
:103A800098E00E94760280918A0D90918B0D93FDB3
:103A90005BC09F7D986490938B0D80938A0D1092EC
:103AA00078081092790810927A0810927B08109288
:103AB0007C0810927D0810927E0810927F08109268
:103AC0008008109281081092820810928308109248
:103AD00084081092850810928608109287088091B9
:103AE000920D9091930D019719F483E090E002C03C
:103AF00081E090E00E94050180E090E00E941A01C0
:103B000080E00E9413010E947D0087E893E1019705
:103B1000F1F700C000000E94790016C08FEF9FEF00
:103B200090938D0D80938C0D80918A0D90918B0DCB
:103B3000977B906290938B0D80938A0D10927F0DEE
:103B400010927E0D0E947B0080918A0D90918B0DCA
:103B50009C7F90938B0D80938A0D8091760D909130
:103B6000770D2091FE0D3091FF0D82179307E0F441
:103B70002091FC0D3091FD0D28173907A8F4009114
:103B8000F20D1091F30D2091F40D3091F50D40914F
:103B9000F60D5091F70D6091F80D7091F90D88EACE
:103BA00098E00E94760212C088EA98E00E94FD0226
:103BB00020918A0D30918B0D811102C0326002C0BC
:103BC0002860306830938B0D20938A0D80918A0D88
:103BD00090918B0D92FD3AC04091840D5091850DCE
:103BE0006091860D7091870D8091B20D9091B30D0B
:103BF000A0E0B0E0481759076A077B073CF58091C1
:103C0000B40D9091B50DA0E0B0E0B095A095909561
:103C100081959F4FAF4FBF4F84179507A607B707F2
:103C2000ACF40091E20D1091E30D2091E40D309180
:103C3000E50D4091E60D5091E70D6091E80D709112
:103C4000E90D80EA98E00E94760212C080EA98E0CE
:103C50000E94FD0220918A0D30918B0D811102C0CE
:103C6000316002C02260306830938B0D20938A0D42
:103C700080E998E00E94FD02882331F180918A0D4D
:103C800090918B0D92FD20C02091940D3091950D57
:103C900021303105C9F4946090938B0D80938A0D87
:103CA0000091D20D1091D30D2091D40D3091D50DEE
:103CB0004091D60D5091D70D6091D80D7091D90DCE
:103CC00080E998E00E94760280918A0D90918B0D98
:103CD00093FF6BC1A091900DB091910DBB8BAA8BFE
:103CE00020917E0D30917F0D80918E0D90918F0DE2
:103CF000A217B30718F418161906ACF1009799F13A
:103D00009C01092E000C440B550B1816190694F44F
:103D10006091B20D7091B30D80E090E00E94332964
:103D2000F4E6AF2EB12CC12CD12CE12CF12C00E00B
:103D300010E016C06091B40D7091B50D80E090E078
:103D40000E943329ECE9AE2EBB24BA94CC24CA9449
:103D5000DD24DA94EE24EA94FF24FA940FEF1FEFA7
:103D60000E946F2908C020E030E040E050E060E0B1
:103D700070E080E090E053016401710182010E94D3
:103D8000902A298339874A875B876C877D878E874E
:103D90009F87209378083093790840937A0850934E
:103DA0007B0860937C0870937D0880937E089093D5
:103DB0007F08A0908008B0908108C0908208D090C1
:103DC0008308E0908408F09085080091860810919F
:103DD00087080E947B2A922E39A348A3452E562E8F
:103DE000672E782E892E2093800830938108409387
:103DF00082085093830860938408709385088093A9
:103E00008608909387083091BF0D2091BE0D932FA7
:103E1000990F990BA980B984CA84DB84EC84FD8452
:103E20000E851F85492F592F692F792F892F0E94C1
:103E3000DA281901488B598B6C8F7D8F8E8F9F8F5D
:103E40003091C10D2091C00D932F990F990BA92C82
:103E5000B9A0C8A0D42CE52CF62C072D182D492F7D
:103E6000592F692F792F892F0E94DA2859016A0169
:103E70007B018C019101488959896C8D7D8D8E8DD6
:103E80009F8D0E947B2A7901142FD52E062FB72FE4
:103E9000F82FE92FA0E00E94A22A2CF5298139856C
:103EA0004A855B856C857D858E859F850E94A22ACB
:103EB0000CF063C0BC89B0938008ED89E093810861
:103EC000FE89F09382082F8920938308388D3093E0
:103ED0008408498D409385085A8D509386086B8DD0
:103EE000609387084AC09701412F5D2D602F7B2F7B
:103EF0008F2F9E2F00E10E945D2AF9014F8F5C8F6A
:103F0000B62FA72F8D8F9E8F8A899B891C019F01B9
:103F10006B2F7A2F8D8D9E8D5101C12CD12CE12CD0
:103F2000F12C00E010E00E94992A51F14CF1298116
:103F300039854A855B856C857D858E859F85A0E06A
:103F40000E94A22AF1F0ECF09C8990938008AD8940
:103F5000A0938108BE89B0938208EF89E09383081B
:103F6000F88DF0938408298D209385083A8D30933D
:103F700086084B8D4093870804C0212C312C01C04A
:103F80001F0130927F0D20927E0DC1010E941A0107
:103F9000F10185E0F695E7958A95E1F7EE5EF14F40
:103FA00080810E9413010E947D000091C20D10913A
:103FB000C30D2091C40D3091C50D4091C60D509197
:103FC000C70D6091C80D7091C90D88E898E00E94F6
:103FD0007602A1960FB6F894DEBF0FBECDBFDF917B
:103FE000CF911F910F91FF90EF90DF90CF90BF90F6
:103FF000AF909F908F907F906F905F904F903F9089
:104000002F9008955F926F927F928F929F92AF92BE
:10401000BF92CF92DF92EF92FF920F931F93CF93B5
:10402000DF93CDB7DEB7A0970FB6F894DEBF0FBE13
:10403000CDBF198E1A8E1B8E1C8E1D8E1E8E1F8E4E
:1040400018A2198A1A8A1B8A1C8A1D8A1E8A1F8A2C
:10405000188E19861A861B861C861D861E861F864C
:10406000188A19821A821B821C821D821E821F825C
:1040700018869E012F5E3F4FAE014F5F5F4FBE011E
:10408000675F7F4FCE0149960E943707298D3A8D91
:104090004B8D5C8D6D8D7E8D8F8D98A12B50394011
:1040A00041095109610971098109910939014A01DF
:1040B000B62FA72FF82FE92F02E00E94442A5301C0
:1040C0006401EB2EFA2E0F2F1E2F0E94902A590109
:1040D0006A017B01582E192F03E00E94442A052D06
:1040E0000E94902A01E00E94442A53016401EB2EB1
:1040F000FA2E0F2F1E2F0E94902AF22E032F142F1C
:10410000B52FF62FE72FD82EE92EA0E00E94A22A85
:104110005CF4AFE10E94842AF22E032F142FB52FF6
:10412000F62FE72FD82EE92E2F2D302F412F5B2F82
:104130006F2F7E2F8D2D9E2D05E00E945D2A298FE9
:104140003A8F4B8F5C8F6D8F7E8F8F8F98A3B901C5
:1041500080EB98E00E94352569897A8983E19BE0AC
:104160000E94352588E898E00E94FD0291E08111C7
:1041700090E0892FA0960FB6F894DEBF0FBECDBF9A
:10418000DF91CF911F910F91FF90EF90DF90CF9033
:10419000BF90AF909F908F907F906F905F900895A9
:1041A000DC01BE5F11961C921E92FC01EE5FFD4F7A
:1041B0001082118212821382148215821682178253
:1041C000FC0111921192EA17FB07D9F708950F939A
:1041D000FC01EE5FFD4F208131814281538164817A
:1041E00075818681978104E00E945F2AC9010F9141
:1041F00008952F923F924F925F926F927F928F928B
:104200009F92AF92BF92CF92DF92EF92FF920F9365
:104210001F93CF93DF93CDB7DEB728970FB6F894EF
:10422000DEBF0FBECDBFFC013B011C012EEF321AD9
:10423000D1014D905C904201880C991C8E0E9F1EFE
:10424000D4010D90BC91A02D9D0140E050E060E0B4
:1042500070E0CB01A9833A834B835C836D837E83BB
:104260008F839887930140E050E060E070E080E049
:1042700090E0A980BA80C12CD12CE12CF12C00E077
:1042800010E00E94902AEE5FFD4FA080B180C280B6
:10429000D380E480F580068117810E947B2A2083E9
:1042A0003183428353836483758386839783D401E8
:1042B0006D927C92D2011196AE7FB170F101B18303
:1042C000A08304E00E945F2AC90128960FB6F894E3
:1042D000DEBF0FBECDBFDF91CF911F910F91FF9039
:1042E000EF90DF90CF90BF90AF909F908F907F9096
:1042F0006F905F904F903F902F900895DC01A058F1
:10430000BF4F1C92FC01EF57FF4F108211821282A7
:1043100013821482158216821782FC011192119267
:10432000EA17FB07D9F708950F93FC01EF57FF4FEA
:104330002081318142815381648175818681978199
:1043400003E00E945F2AC9010F9108952F923F92C6
:104350004F925F926F927F928F929F92AF92BF9295
:10436000CF92DF92EF92FF920F931F93CF93DF9341
:10437000CDB7DEB729970FB6F894DEBF0FBECDBF1D
:104380003B014C0100E8800E911CD401BC91B9871F
:104390002C014B0E511C4B0E511CFC01EF57FF4FD3
:1043A000930140E050E060E070E080E090E0A080A9
:1043B000B180C280D380E480F580068117810E949D
:1043C0007B2AD2012D903C9011975101C12CD12C08
:1043D000E12CF12C00E010E00E94902A2083318330
:1043E0004283538364837583868397836D927C9223
:1043F000A985AF5FAF73F401A08303E00E945F2A39
:10440000C90129960FB6F894DEBF0FBECDBFDF916C
:10441000CF911F910F91FF90EF90DF90CF90BF90C1
:10442000AF909F908F907F906F905F904F903F9054
:104430002F900895FC01108611861286138614862B
:10444000158616861786108A1182108213821282B0
:10445000158214821782168208950F93FC0121851C
:10446000328543855485658576858785908901E009
:104470000E945F2AC9010F9108952F923F924F9297
:104480005F926F927F928F929F92AF92BF92CF92E4
:10449000DF92EF92FF920F931F93CF93DF9300D0A1
:1044A00000D01F92CDB7DEB7FC017A836983A08567
:1044B000AD83DC010D81A00FB11DA00FB11D9B01CB
:1044C00040E050E060E070E080E090E0A184B284E1
:1044D000C384D484E584F684078510890E947B2AEE
:1044E0000D911C9111975801C12CD12CE12CF12C6C
:1044F00000E010E00E94902A21873287438754878A
:10450000658776878787908B09811A810D931C9325
:10451000AD81AF5FA370A08701E00E945F2AC9014F
:104520000F900F900F900F900F90DF91CF911F91F0
:104530000F91FF90EF90DF90CF90BF90AF909F9042
:104540008F907F906F905F904F903F902F90089545
:10455000DC01B85F11961C921E92FC01EE5FF74FD2
:10456000108211821282138214821582168217829F
:10457000FC0111921192EA17FB07D9F708950F93E6
:10458000FC01EE5FF74F20813181428153816481CC
:1045900075818681978105E00E945D2AC9010F918E
:1045A00008952F923F925F926F927F928F929F9287
:1045B000AF92BF92CF92DF92EF92FF920F931F9331
:1045C000CF93DF93562E772EEC01D85F2880398069
:1045D0004101880C991C880E991EFC01EE5FF74F73
:1045E000D4011196BC901197AC901B2D110F110B9B
:1045F00020813181428153816481758186819781D7
:10460000C12ED12EE12EF12E012F0E94902A652C71
:10461000172D110F110B5301C12ED12EE12EF12EAA
:10462000012F0E947B2A208331834283538364833A
:104630007583868397835C9211967C92D101119643
:10464000B370B983A88305E00E945D2AC901DF9198
:10465000CF911F910F91FF90EF90DF90CF90BF907F
:10466000AF909F908F907F906F905F903F902F9032
:104670000895FC0110A211A212A213A214A215A265
:1046800016A217A210A6809611921192E817F907A8
:10469000D9F708950F93FC0121A132A143A154A1A0
:1046A00065A176A187A190A502E00E945F2AC901B9
:1046B0000F9108952F923F924F925F926F927F9247
:1046C0008F929F92AF92BF92CF92DF92EF92FF9222
:1046D0000F931F93CF93DF9300D000D01F92CDB7DD
:1046E000DEB7FC017A836983A0A1AD83DC010D8173
:1046F000A00FB11DA00FB11D9B0140E050E060E094
:1047000070E080E090E0A1A0B2A0C3A0D4A0E5A09A
:10471000F6A007A110A50E947B2A0D911C9111976C
:104720005801C12CD12CE12CF12C00E010E00E94AA
:10473000902A21A332A343A354A365A376A387A3FE
:1047400090A709811A810D931C93AD81AF5FAF7063
:10475000A0A302E00E945F2AC9010F900F900F9062
:104760000F900F90DF91CF911F910F91FF90EF90DD
:10477000DF90CF90BF90AF909F908F907F906F9081
:104780005F904F903F902F900895FC01F395108219
:104790003996108211821282138214821582168237
:1047A0001782389710821182128213821482158226
:1047B00016821782FC0180E0119211928F5F80387F
:1047C000D9F70895FC01E75FFE4F8081918108953C
:1047D0004F925F926F927F928F929F92AF92BF9211
:1047E000CF92DF92EF92FF920F931F93CF93DF93BD
:1047F0003C012B014C019394F401B081E301CB0FF8
:10480000D11DCB0FD11D3196B980A8801B2D110F62
:10481000110B2081318142815381648175818681B0
:104820009781C12ED12EE12EF12E012F0E94902AC8
:10483000A42C152D110F110BB52CC12ED12EE12E4C
:10484000F12E012F0E947B2A2083318342835383E0
:10485000648375838683978379018A01F62FE72F16
:104860006C01A0E00E94A22A44F4AFE70E94842ACF
:1048700079018A01F62FE72F6C019701A8016F2FAC
:104880007E2FC60107E00E945D2AF301E75FFE4F1D
:104890002083318342835383648375838683978324
:1048A00048825982BF5FBF77F401B083C901DF91AD
:1048B000CF911F910F91FF90EF90DF90CF90BF901D
:1048C000AF909F908F907F906F905F904F900895E2
:1048D000DC01A058BF4F1C92FC01E757FF4F10822C
:1048E00011821282138214821582168217823897DF
:1048F000108211821282138214821582168217820C
:10490000FC0111921192EA17FB07D9F70895FC01F7
:10491000E757FF4F8081918108954F925F926F9288
:104920007F928F929F92AF92BF92CF92DF92EF923F
:10493000FF920F931F93CF93DF933C012B014C0108
:1049400080E8880E911CF401B081E301CB0FD11DEA
:10495000CB0FD11D3196B980A8801B2D110F110BE3
:104960002081318142815381648175818681978163
:10497000C12ED12EE12EF12E012F0E94902AA42CBF
:10498000152D110F110BB52CC12ED12EE12EF12EAC
:10499000012F0E947B2A20833183428353836483C7
:1049A00075838683978379018A01F62FE72F6C013F
:1049B000A0E00E94A22A44F4AFE30E94842A790175
:1049C0008A01F62FE72F6C019701A8016F2F7E2F28
:1049D000C60106E00E945D2AF301E757FF4F2083DE
:1049E00031834283538364837583868397834882AC
:1049F0005982BF5FBF73F401B083C901DF91CF91CA
:104A00001F910F91FF90EF90DF90CF90BF90AF90EC
:104A10009F908F907F906F905F904F900895DC01F2
:104A2000BE5F11961C921E92FC01E65FFD4F108244
:104A3000118212821382148215821682178238978D
:104A400010821182128213821482158216821782BA
:104A5000FC0111921192EA17FB07D9F70895FC01A6
:104A6000E65FFD4F8081918108952F923F924F9292
:104A70005F926F927F928F929F92AF92BF92CF92EE
:104A8000DF92EF92FF920F931F93CF93DF93FC017E
:104A90002B013C018EEF781AD3012D903C90119799
:104AA0004101880C991C8E0E9F1E1296E401B9805C
:104AB000A8801B2D110F110B2C9111963C91119771
:104AC00012964C91129713965C91139714966C91D1
:104AD000149715967C91159716968C9116971796A4
:104AE0009C911797C12ED12EE12EF12E012F0E94FD
:104AF000902AA42C152D110F110BB52CC12ED12EDF
:104B0000E12EF12E012F0E947B2A2C9311963C93CB
:104B1000119712964C93129713965C9313971496D1
:104B20006C93149715967C93159716968C931697FD
:104B300017969C93D22EE32EF42E052F162FB72F07
:104B4000B82EC92EA0E00E94A22A84F421503F4F23
:104B50004F4F5F4F6F4F7F4F8F4F9F4FD22EE32EA0
:104B6000F42E052F162FB72FB82EC92E2D2D3E2D22
:104B70004F2D502F612F7B2F8B2D9C2D08E00E94F5
:104B80005D2AE65FFD4F2083318342835383648334
:104B9000758386839783F40140825182E1012196D7
:104BA000DD27D301CD93DC93C901DF91CF911F9114
:104BB0000F91FF90EF90DF90CF90BF90AF909F90BC
:104BC0008F907F906F905F904F903F902F900895BF
:104BD000DC01BC5F11961C921E92FC01E65FFB4F4C
:104BE0001082118212821382148215821682178219
:104BF00038971082118212821382148215821682D3
:104C00001782FC0111921192EA17FB07D9F7089558
:104C1000FC01E65FFB4F8081918108952F923F92C6
:104C20004F925F926F927F928F929F92AF92BF92BC
:104C3000CF92DF92EF92FF920F931F93CF93DF9368
:104C4000FC012B013C018CEF781AD3012D903C9094
:104C500011974101880C991C8E0E9F1E1296E4013B
:104C6000B980A8801B2D110F110B2C9111963C912E
:104C7000119712964C91129713965C911397149674
:104C80006C91149715967C91159716968C911697A2
:104C900017969C911797C12ED12EE12EF12E012F40
:104CA0000E94902AA42C152D110F110BB52CC12E8A
:104CB000D12EE12EF12E012F0E947B2A2C931196EA
:104CC0003C93119712964C93129713965C931397FB
:104CD00014966C93149715967C93159716968C934F
:104CE000169717969C93D22EE32EF42E052F162F8F
:104CF000B72FB82EC92EA0E00E94A22A84F421501A
:104D00003E4F4F4F5F4F6F4F7F4F8F4F9F4FD22E72
:104D1000E32EF42E052F162FB72FB82EC92E2D2DCA
:104D20003E2D4F2D502F612F7B2F8B2D9C2D09E079
:104D30000E945D2AE65FFB4F2083318342835383C9
:104D40006483758386839783F40140825182E101F5
:104D50002196D170D301CD93DC93C901DF91CF911E
:104D60001F910F91FF90EF90DF90CF90BF90AF9089
:104D70009F908F907F906F905F904F903F902F907B
:104D80000895FC01108A118E128E138E148E158ECA
:104D9000168E178E10A2118A128A138A148A158A07
:104DA000168A178A108E409611921192E817F90709
:104DB000D9F70895FC01818D928D08956F927F92AD
:104DC0008F929F92AF92BF92CF92DF92EF92FF921B
:104DD0000F931F93CF93DF93FC013B01D0894C01CC
:104DE0008D0E911C8D0E911CD4011196BC901197C3
:104DF000AC901B2D110F110B2189328943895489E5
:104E0000658976898789908DC12ED12EE12EF12E6C
:104E1000012F0E94902AA62C172D110F110BB72CD1
:104E2000C12ED12EE12EF12E012F0E947B2A218B43
:104E3000328B438B548B658B768B878B908F79016C
:104E40008A01C62FB72F6C01A0E00E94A22A44F469
:104E5000A7E00E94842A79018A01C62FB72F6C012E
:104E60009701A8016C2F7B2FC60103E00E945D2AE9
:104E7000218F328F438F548F658F768F878F90A3CA
:104E8000D4016C9211967C92DF5FD770D08BC901F0
:104E9000DF91CF911F910F91FF90EF90DF90CF9016
:104EA000BF90AF909F908F907F906F900895FC017E
:104EB00010A211A612A613A614A615A616A617A62A
:104EC00010AA11A212A213A214A215A216A217A22E
:104ED00010A6809611921192E817F907D9F7089554
:104EE000FC0181A592A508956F927F928F929F9267
:104EF000AF92BF92CF92DF92EF92FF920F931F93E8
:104F0000CF93DF93FC013B01D0A14C018D0E911C8E
:104F10008D0E911CD4011196BC901197AC901B2D55
:104F2000110F110B21A132A143A154A165A176A1BA
:104F300087A190A5C12ED12EE12EF12E012F0E9426
:104F4000902AA62C172D110F110BB72CC12ED12E84
:104F5000E12EF12E012F0E947B2A21A332A343A32D
:104F600054A365A376A387A390A779018A01C62FCE
:104F7000B72F6C01A0E00E94A22A44F4AFE00E9487
:104F8000842A79018A01C62FB72F6C019701A801E5
:104F90006C2F7B2FC60104E00E945D2A21A732A757
:104FA00043A754A765A776A787A790ABD4016C92B7
:104FB00011967C92DF5FDF70D0A3C901DF91CF91A2
:104FC0001F910F91FF90EF90DF90CF90BF90AF9027
:104FD0009F908F907F906F900895DC01A05CBF4FF1
:104FE0001C92FC01E75BFF4F108211821282138238
:104FF00014821582168217823897108211821282CB
:1050000013821482158216821782FC01119211926A
:10501000EA17FB07D9F70895FC01E75BFF4F808192
:10502000918108954F925F926F927F928F929F929B
:10503000AF92BF92CF92DF92EF92FF920F931F93A6
:10504000CF93DF933C012B014C0180E4880E911C2F
:10505000F401B081E301CB0FD11DCB0FD11D3196EF
:10506000B980A8801B2D110F110B20813181428145
:1050700053816481758186819781C12ED12EE12E65
:10508000F12E012F0E94902AA42C152D110F110B27
:10509000B52CC12ED12EE12EF12E012F0E947B2A9C
:1050A000208331834283538364837583868397830C
:1050B00079018A01F62FE72F6C01A0E00E94A22A55
:1050C00044F4AFE10E94842A79018A01F62FE72F88
:1050D0006C019701A8016F2F7E2FC60105E00E9489
:1050E0005D2AF301E75BFF4F2083318342835383C3
:1050F000648375838683978348825982BF5FBF71BB
:10510000F401B083C901DF91CF911F910F91FF90FE
:10511000EF90DF90CF90BF90AF909F908F907F9057
:105120006F905F904F9008959EE088E10FB6F894DD
:10513000A895809360000FBE90936000A895789426
:105140000E94040AA8950E946E18A8950E94B507AF
:10515000A8950E946D1BA8950E94BF070E94731816
:105160000E94031CA8950E9402208111FBCFF4CF5E
:10517000A1E21A2EAA1BBB1BFD010DC0AA1FBB1F5B
:10518000EE1FFF1FA217B307E407F50720F0A21BCD
:10519000B30BE40BF50B661F771F881F991F1A943A
:1051A00069F760957095809590959B01AC01BD0164
:1051B000CF010895DF93CF931F930F939A9DF02D06
:1051C000219FF00D8B9DF00D8A9DE02DF10D039F29
:1051D000F00D029FE00DF11D4E9DE00DF11D5E9D55
:1051E000F00D4F9DF00D7F936F93BF92AF925F9341
:1051F0004F93D5010E94AE2A8B01AC01D7010E94CA
:10520000AE2AEB01E80FF91FD6010E942A292F913F
:105210003F91D6010E94AE2AC60FD71FE81FF91F83
:10522000AF91BF910E942A292F913F910E94AE2AEF
:10523000C60FD71FE81FF91FD6010E94AE2AE60F3E
:10524000F71F9801BE01CF0111240F911F91CF913B
:10525000DF9108950E94AE2A460F571FC81FD91F1D
:1052600008F43196089597FB57FF0C9443299F93B8
:105270008F930E9443296E1B7F0BAF91BF918A0BC6
:105280009B0B0895E894DF93CF93FC01DB010E9410
:10529000AE2A7F936F93E9019A01AC01BF93AF935C
:1052A0003F932F93DF010E94AE2A26F46C1B7D0BE7
:1052B000820B930B9E01EB01FC010E942A29AF9106
:1052C000BF912F913F910E942A29BE01CF01F90180
:1052D0002F913F91CF91DF910895689401C0E89498
:1052E000F92FF12B12F00C94A129A0E0B0E0EBE72C
:1052F000F9E20C94132A092E059422F40E94FD2948
:10530000112392F4F0E80F26FFEFE094F09400955B
:105310001095B094C094D094A194BF0ACF0ADF0A2C
:10532000EF0AFF0A0F0B1F0B0E94AC2907FC0E941B
:10533000FD29CDB7DEB7ECE00C942F2A689401C0AC
:10534000E8948F929F92CF93DF930E94AC29DF91D4
:10535000CF919F908F90089588249924F401E401BF
:10536000B0E49F93AA279A158B049C04ED05FE05D3
:10537000CF05D007A10798F4AD2FDC2FCF2FFE2F3C
:10538000E92D982C892E982F872F762F652F542F53
:10539000432F322F2227B85031F7BF9127C01B2E41
:1053A000BF91BB27220F331F441F551F661F771F56
:1053B000881F991F881C991CEE1FFF1FCC1FDD1F23
:1053C000AA1FBB1F8A149B04EC05FD05CE05DF0553
:1053D000A007B10748F08A189B08EC09FD09CE091F
:1053E000DF09A00BB10B21601A94E1F62EF49401B1
:1053F000AF01BE01CD01000C0895609570958095B8
:10540000909530954095509521953F4F4F4F5F4F68
:105410006F4F7F4F8F4F9F4F08952F923F924F9224
:105420005F926F927F928F929F92AF92BF92CF9234
:10543000DF92EF92FF920F931F93CF93DF93CDB73D
:10544000DEB7CA1BDB0B0FB6F894DEBF0FBECDBFB5
:1054500009942A88398848885F846E847D848C8486
:105460009B84AA84B984C884DF80EE80FD800C818F
:105470001B81AA81B981CE0FD11D0FB6F894DEBF72
:105480000FBECDBFED0108950F93083090F0982F17
:10549000872F762F652F542F432F322F2227085026
:1054A000F4CF220F331F441F551F661F771F881F1D
:1054B000991F0A95B2F70F91089597FB10F816946B
:1054C00000080F93083098F00850232F342F452FF1
:1054D000562F672F782F892F902DF4CF059497950D
:1054E00087957795679557954795379527950A95A9
:1054F000AAF70F9108952A0D3B1D4C1D5D1D6E1DD1
:105500007F1D801F911F08950024A7FD00942A0F7E
:10551000301D401D501D601D701D801D901D089583
:105520002A193B094C095D096E097F09800B910B13
:1055300008952A153B054C055D056E057F0580071E
:10554000910708950024A7FD00942A17300540050F
:10555000500560057005800590050895A29FB00173
:10556000B39FC001A39F700D811D1124911DB29F97
:10557000700D811D1124911D08950E94D12A0C9453
:10558000CF2B0E94C82B58F00E94C12B40F029F469
:105590005F3F29F00C94A82B51110C94032C0C9410
:1055A000AE2B0E94E02B68F39923B1F3552391F3BE
:1055B000951B550BBB27AA2762177307840738F082
:1055C0009F5F5F4F220F331F441FAA1FA9F335D0DF
:1055D0000E2E3AF0E0E832D091505040E695001C93
:1055E000CAF72BD0FE2F29D0660F771F881FBB1F4D
:1055F000261737074807AB07B0E809F0BB0B802D2B
:10560000BF01FF2793585F4F3AF09E3F510578F056
:105610000C94A82B0C94032C5F3FE4F3983ED4F336
:10562000869577956795B795F7959F5FC9F7880F2A
:10563000911D9695879597F90895E1E0660F771F7C
:10564000881FBB1F621773078407BA0720F0621B0D
:10565000730B840BBA0BEE1F88F7E0950895BEE339
:1056600004D008F490E80895BFE322273327A90166
:105670000E94E82B60F19F5748F1B91740F1BFE352
:10568000B91B9927B8503AF4660F771F881F991FE6
:10569000B395D2F316C0B8504AF0232F342F452FBC
:1056A000562F672F782F8827B850BAF7B85F49F080
:1056B0008695779567955795479537952795BA9528
:1056C000B9F716F40E94B12B88940895889460E08D
:1056D00070E0CB010895E89409C097FB3EF49095E3
:1056E0008095709561957F4F8F4F9F4F9923A9F0BB
:1056F000F92F96E9BB279395F6958795779567954A
:10570000B795F111F8CFFAF4BB0F11F460FF1BC08D
:105710006F5F7F4F8F4F9F4F16C0882311F096E920
:1057200011C0772321F09EE8872F762F05C06623CE
:1057300071F096E8862F70E060E02AF09A95660F87
:10574000771F881FDAF7880F9695879597F9089540
:1057500097F99F6780E870E060E008959FEF80EC24
:1057600008959095809570956095509540953095E9
:1057700021953F4F4F4F5F4F6F4F7F4F8F4F9F4F41
:10578000089500240A9416161706180609060895A7
:1057900000240A9412161306140605060895092E0D
:1057A0000394000C11F4882352F0BB0F40F4BF2B7C
:1057B00011F460FF04C06F5F7F4F8F4F9F4F0895BC
:1057C00057FD9058440F551F59F05F3F71F04795B2
:1057D000880F97FB991F61F09F3F79F08795089597
:1057E000121613061406551FF2CF4695F1DF08C0B6
:1057F000161617061806991FF1CF869571056105D3
:1058000008940895E894BB2766277727CB0197F97A
:1058100008950E941C2C0C94CF2B0E94C12B38F0B1
:105820000E94C82B20F0952311F00C94A82B0C9407
:10583000AE2B11240C94032C0E94E02B70F3959F47
:10584000C1F3950F50E0551F629FF001729FBB2777
:10585000F00DB11D639FAA27F00DB11DAA1F649F13
:105860006627B00DA11D661F829F2227B00DA11DC6
:10587000621F739FB00DA11D621F839FA00D611D4C
:10588000221F749F3327A00D611D231F849F600D6D
:10589000211D822F762F6A2F11249F5750409AF096
:1058A000F1F088234AF0EE0FFF1FBB1F661F771F22
:1058B000881F91505040A9F79E3F510580F00C94ED
:1058C000A82B0C94032C5F3FE4F3983ED4F3869509
:1058D00077956795B795F795E7959F5FC1F7FE2B8D
:1058E000880F911D9695879597F90895F894FFCFA5
:1058F00000C0C101C30302C2C60607C705C5C40470
:10590000CC0C0DCD0FCFCE0E0ACACB0BC90908C8DF
:10591000D81819D91BDBDA1A1EDEDF1FDD1D1CDCCF
:1059200014D4D515D71716D6D21213D311D1D0103F
:10593000F03031F133F3F23236F6F737F53534F42F
:105940003CFCFD3DFF3F3EFEFA3A3BFB39F9F8389F
:1059500028E8E929EB2B2AEAEE2E2FEF2DEDEC2C8F
:10596000E42425E527E7E62622E2E323E12120E0FF
:10597000A06061A163A3A26266A6A767A56564A4EF
:105980006CACAD6DAF6F6EAEAA6A6BAB69A9A8685F
:1059900078B8B979BB7B7ABABE7E7FBF7DBDBC7C4F
:1059A000B47475B577B7B67672B2B373B17170B0BF
:1059B00050909151935352929656579755959454AF
:1059C0009C5C5D9D5F9F9E5E5A9A9B5B995958981F
:1059D000884849894B8B8A4A4E8E8F4F8D4D4C8C0F
:1059E000448485458747468682424383418180407F
:1059F00000C1814001C0804101C0804100C181409F
:105A000001C0804100C1814000C1814001C080418E
:105A100001C0804100C1814000C1814001C080417E
:105A200000C1814001C0804101C0804100C181406E
:105A300001C0804100C1814000C1814001C080415E
:105A400000C1814001C0804101C0804100C181404E
:105A500000C1814001C0804101C0804100C181403E
:105A600001C0804100C1814000C1814001C080412E
:105A700001C0804100C1814000C1814001C080411E
:105A800000C1814001C0804101C0804100C181400E
:105A900000C1814001C0804101C0804100C18140FE
:105AA00001C0804100C1814000C1814001C08041EE
:105AB00000C1814001C0804101C0804100C18140DE
:105AC00001C0804100C1814000C1814001C08041CE
:105AD00001C0804100C1814000C1814001C08041BE
