:100000000C9446000C9458000C9458000C94580022
:100010000C9458000C9458000C9458000C94580000
:100020000C9458000C9458000C9458000C945800F0
:100030000C9458000C9458000C9458000C945800E0
:100040000C9458000C9458000C9458000C944101E6
:100050000C94E1010C940B020C9458000C94580081
:100060000C9458000C9458000C9458000C945800B0
:100070000C94B3020C94DD020C9458000C945800BC
:100080000C9458000C9458000C94580011241FBE76
:10009000CFEFD0E4DEBFCDBF2DE0A0E0B1E001C0E6
:1000A0001D92A936B207E1F70E94F7050C94CB0721
:1000B0000C940000569A5E9884B1806B84B926989F
:1000C0002C9A85B18F7585B9109200011092150197
:1000D00083ED8CBD1DBC08955E9A08955E980895C9
:1000E000809100018111FECF1092010180911501D4
:1000F00081FF0DC0909116019093020191E09093C1
:10010000030192E090930001E4E0F1E002C0E2E03C
:10011000F1E082FF0BC090911701908392E09183F0
:100120003296909100019E5F9093000183FF0EC074
:1001300090911801209119012083918393E092837B
:100140003396909100019D5F9093000184FF0EC053
:1001500090911A0120911B012083918394E0928356
:100160003396909100019D5F9093000185FF0BC035
:1001700090911C01908395E09183329690910001BB
:100180009E5F9093000186FF0BC090911D019083AC
:1001900096E091833296909100019E5F90930001CA
:1001A00087FF0AC080911E01808387E08183809150
:1001B00000018E5F80930001109215012C9881E25E
:1001C0008A95F1F70000E0910001E11106C081E29B
:1001D0008A95F1F700002C9A0895F0E0EF5FFE4F4A
:1001E00080818EBD8091000181508093000108952F
:1001F000029718F41092160103C081E08093160153
:10020000809115018260809315010895E5E1F1E088
:1002100082838081846080830895E5E1F1E09483A6
:1002200083838081886080830895E5E1F1E096838F
:1002300085838081806180830895E5E1F1E08F5FAF
:10024000878380818062808308959FEF980F9F301D
:1002500080F49FEF960F9F3060F420E1829FC001F1
:100260001124862B80931D01809115018064809359
:1002700015010895E5E1F1E0818780818068808340
:1002800008951F920F920FB60F9211240BB60F9282
:100290008F93EF93FF93E0910001E11106C081E29B
:1002A0008A95F1F700002C9A0AC0F0E0EF5FFE4F4C
:1002B00080818EBD80910001815080930001FF916B
:1002C000EF918F910F900BBE0F900FBE0F901F906C
:1002D0001895109222031092230310922403109277
:1002E0001F02109220021092210282E08093C5002A
:1002F00088E08093C400E0ECF0E08081826080833D
:10030000E1ECF0E0808188698083E2ECF0E08081BC
:10031000866080830895EFEFF0E0262F30E0409173
:100320002403DF01A41BB1092A173B07C4F7282FB8
:10033000FC018E2F821B861768F4A0912303B0E086
:100340008191AE5DBD4F8C93809123038F5F80932D
:100350002303EFCF80912403680F609324038091DF
:10036000C10085FD0AC08091C00080648093C000F8
:100370008091C10080628093C10008952091210284
:100380002617E0F3282FFC018E2F821B861768F4B6
:10039000A0911F02B0E0A15EBE4F8C91819380912D
:1003A0001F028F5F80931F02EFCF80912102861B77
:1003B000809321020895109224030895109221023F
:1003C00008951F920F920FB60F9211240BB60F9241
:1003D0008F93EF93FF93809121028F3F91F0E091F3
:1003E0002002F0E08091C600E15EFE4F80838091A4
:1003F00020028F5F80932002809121028F5F809383
:100400002102FF91EF918F910F900BBE0F900FBEC5
:100410000F901F9018951F920F920FB60F921124F4
:100420000BB60F928F93EF93FF9380912403882351
:1004300099F0E0912203F0E0EE5DFD4F8081809322
:10044000C600809122038F5F809322038091240352
:1004500081508093240305C08091C1008F7D8093DB
:10046000C100FF91EF918F910F900BBE0F900FBEC7
:100470000F901F9018951092280510922905109240
:100480002A0510922504109226041092270482E077
:100490008093CD0088E08093CC00E8ECF0E0808190
:1004A00082608083E9ECF0E0808188698083EAECF7
:1004B000F0E08081866080830895EFEFF0E0262FE2
:1004C00030E040912A05DF01A41BB1092A173B0740
:1004D000C4F7282FFC018E2F821B861768F4A09189
:1004E0002905B0E08191A85DBB4F8C9380912905CF
:1004F0008F5F80932905EFCF80912A05680F609365
:100500002A058091C90085FD0AC08091C8008064D9
:100510008093C8008091C90080628093C9000895CB
:10052000209127042617E0F3282FFC018E2F821B31
:10053000861768F4A0912504B0E0AB5DBC4F8C91A8
:100540008193809125048F5F80932504EFCF809164
:100550002704861B80932704089510922A05089586
:100560001092270408951F920F920FB60F92112434
:100570000BB60F928F93EF93FF93809127048F3FD9
:1005800091F0E0912604F0E08091CE00EB5DFC4F0D
:100590008083809126048F5F8093260480912704B6
:1005A0008F5F80932704FF91EF918F910F900BBE87
:1005B0000F900FBE0F901F9018951F920F920FB6BD
:1005C0000F9211240BB60F928F93EF93FF938091AC
:1005D0002A05882399F0E0912805F0E0E85DFB4FBB
:1005E00080818093CE00809128058F5F80932805BD
:1005F00080912A05815080932A0505C08091C90009
:100600008F7D8093C900FF91EF918F910F900BBE6A
:100610000F900FBE0F901F90189587B18F7087B9FC
:1006200088B18F7088B98AB1806A8AB95D985F9AFB
:100630000895AF92BF92CF92DF92FF920F931F93D4
:10064000CF93DF935C01EBB1EF75EBB983E08A9553
:10065000F1F700005D9AA3E0AA95F1F700005D981C
:10066000B3E0BA95F1F700005D9AE3E0EA95F1F79F
:100670000000ADE0FA2EC12CD12CA0E0B0E0C0E02B
:10068000D0E000E010E05D98F3E0FA95F1F70000AB
:100690005D9A000F111FCC0FDD1FAA0FBB1FCC0CE2
:1006A000DD1C349901603599C1603699A160379B92
:1006B00002C06894C0F8FA94F110E5CF5F9A1F70F9
:1006C000F50111830083DF70FB01D183C083BF700C
:1006D000FA01B183A083F601FF70D901ED93FC9379
:1006E000DF91CF911F910F91FF90DF90CF90BF903E
:1006F000AF900895ECE3F5E011821082138212822C
:10070000158214821782168211861086138612862D
:10071000E9E5FDE0118210821382128215821482B3
:100720001782168211861086138612861586148605
:10073000178616860895EBE2F5E010821182128288
:1007400013821482158216821782108611861286F1
:1007500013861486158616861786108A0E940D0346
:100760000C945A002F923F924F925F926F927F9219
:100770008F929F92AF92BF92CF92DF92EF92FF92B1
:100780000F931F93CF93DF93CDB7DEB76F970FB65D
:10079000F894DEBF0FBECDBF60905C0D50905B0D36
:1007A000462C440C4408009133050A8B1091340503
:1007B0001B8B209135052C8B309136053D8B40915C
:1007C00037054E8B509138055F8B60913905688FE6
:1007D00070913A05798F8091420590914305009779
:1007E00061F4809148059091490520913C05309134
:1007F0003D0582179307B0F411C0019799F4209139
:100800003C0530913D05809148059091490582173E
:10081000930740F480914A0590914B0590933D05D4
:1008200080933C0580913E0590913F05853691056A
:100830001CF084E690E005C08C399F4F34F48CE9BD
:100840009FEF90933F0580933E0520903E053090AA
:100850003F05121413042CF480915005909151051A
:1008600004C080915205909153058C0120E030E046
:1008700040E050E0BA0189831A832B833C834D8387
:100880005E836F8378879C014B815C8160E070E0C0
:1008900080E090E002E00E945E07A980B12ECB804C
:1008A000DC80E12CF12C00E010E00E949E07722E0B
:1008B000832E942E5987B62FA72FF82FE92F05E006
:1008C0000E945E0759016A017B018C01272D382D9A
:1008D000492D59856B2F7A2F8F2F9E2F0E949507B8
:1008E000A980BA80CB80DC80E12CF12C00E010E004
:1008F0000E949507132D110F110B5101C12ED12EFE
:10090000E12EF12E012F0E948906A52CB62CC42CB5
:10091000D42CE42CF42C042D142D0E949E07298342
:1009200039874A875B876C877D878E879F8720936F
:100930002B0530932C0540932D0550932E05609385
:100940002F057093300580933105192F9093320550
:100950002A893B894C895D896E897F89888D998D2B
:10096000A980B984CA84DB84EC84FD840E850E944E
:100970009507722E832E942E5F8F6E8F472E582EE2
:10098000692E2093330530933405409335055093F9
:100990003605609337057093380580933905909339
:1009A0003A053091560520915505932F990F990BD3
:1009B000492F592F692F792F892F0E942E0619014F
:1009C000488B598B6A8F7B8F8C8F9D8F3091580508
:1009D00020915705932F990F990BA72CB82CC92C50
:1009E000DF8CEE8CF42C052D162D492F592F692FF5
:1009F000792F892F0E942E0659016A017B018C01F3
:100A00009101488959896A8D7B8D8C8D9D8D0E94BD
:100A10009507F22E032F142FD52EE62EB72FF82F81
:100A2000E92FA0E00E94B00709F02CF52981398553
:100A30004A855B856C857D858E859F850E94B00784
:100A40000CF06BC02A89209333053B893093340521
:100A50004C89409335055D89509336056E896093C6
:100A600037057F8970933805888D80933905E98D26
:100A7000E0933A0552C02F2D302F412F5D2D6E2D62
:100A80007B2F8F2F9E2F08E00E947707F9014D8F53
:100A90005A8FB62FA72F8B8F9C8F80913C059091FA
:100AA0003D051C01412C512C612C712C43019F01EF
:100AB0006B2F7A2F8B8D9C8D5101C12CD12CE12C69
:100AC000F12C00E010E00E94A70781F17CF1298160
:100AD00039854A855B856C857D858E859F85A0E0FF
:100AE0000E94B00751F14CF1FA89F09333050B895C
:100AF000009334051C89109335052D892093360504
:100B00003E89309337054F8940933805588D50936F
:100B10003905698D60933A0510C0212C312C412C88
:100B2000512C612C712C812C912C07C01F014D8CF4
:100B30005A8C6B2E7A2E8B8C9C8C3092620D20926C
:100B4000610DC1010E940D019101A201B301C40117
:100B500006E00E947707C901880F991FFC01E85B36
:100B6000FA4F81890E9406016F960FB6F894DEBF96
:100B70000FBECDBFDF91CF911F910F91FF90EF90EE
:100B8000DF90CF90BF90AF909F908F907F906F90AD
:100B90005F904F903F902F900C947000CF93DF9315
:100BA000CDB7DEB728970FB6F894DEBF0FBECDBF26
:100BB00018861F821E821D821C821B821A82198245
:100BC0009E012F5F3F4FAE014D5F5F4FBE016B5FD8
:100BD0007F4FCE0107960E94190381E028960FB639
:100BE000F894DEBF0FBECDBFDF91CF910895CF93B4
:100BF000DF9300D000D000D0CDB7DEB70FB6F894A9
:100C0000A8958091600088618093600010926000D8
:100C10000FBE78940E943B020E940D032FEF83EDDC
:100C200090E3215080409040E1F700C000009E0119
:100C30002D5F3F4FA901B901CE0105960E9419030E
:100C40008B819C812D813E81821B930B99838A83AA
:100C500062E0CE0101960E945D02E9CFDF93CF935F
:100C60001F930F939A9DF02D219FF00D8B9DF00DFA
:100C70008A9DE02DF10D039FF00D029FE00DF11D07
:100C80004E9DE00DF11D5E9DF00D4F9DF00D7F938B
:100C90006F93BF92AF925F934F93D5010E94BC07B1
:100CA0008B01AC01D7010E94BC07EB01E80FF91FD3
:100CB000D6010E947E062F913F91D6010E94BC076B
:100CC000C60FD71FE81FF91FAF91BF910E947E0684
:100CD0002F913F910E94BC07C60FD71FE81FF91F35
:100CE000D6010E94BC07E60FF71F9801BE01CF0195
:100CF00011240F911F91CF91DF9108950E94BC079D
:100D0000460F571FC81FD91F08F4319608956894DD
:100D100001C0E894F92FF12B12F00C94BB06A0E06F
:100D2000B0E0E5E9F6E00C942D07092E059422F4D5
:100D30000E941707112392F4F0E80F26FFEFE094CA
:100D4000F09400951095B094C094D094A194BF0AEB
:100D5000CF0ADF0AEF0AFF0A0F0B1F0B0E94C6061D
:100D600007FC0E941707CDB7DEB7ECE00C944907EB
:100D7000689401C0E8948F929F92CF93DF930E9472
:100D8000C606DF91CF919F908F9008958824992473
:100D9000F401E401B0E49F93AA279A158B049C0404
:100DA000ED05FE05CF05D007A10798F4AD2FDC2F88
:100DB000CF2FFE2FE92D982C892E982F872F762F55
:100DC000652F542F432F322F2227B85031F7BF9170
:100DD00027C01B2EBF91BB27220F331F441F551F57
:100DE000661F771F881F991F881C991CEE1FFF1F05
:100DF000CC1FDD1FAA1FBB1F8A149B04EC05FD0539
:100E0000CE05DF05A007B10748F08A189B08EC095A
:100E1000FD09CE09DF09A00BB10B21601A94E1F6A0
:100E20002EF49401AF01BE01CD01000C0895609530
:100E300070958095909530954095509521953F4FB0
:100E40004F4F5F4F6F4F7F4F8F4F9F4F08952F92A0
:100E50003F924F925F926F927F928F929F92AF924A
:100E6000BF92CF92DF92EF92FF920F931F93CF9397
:100E7000DF93CDB7DEB7CA1BDB0B0FB6F894DEBF2E
:100E80000FBECDBF09942A88398848885F846E8454
:100E90007D848C849B84AA84B984C884DF80EE809E
:100EA000FD800C811B81AA81B981CE0FD11D0FB6A7
:100EB000F894DEBF0FBECDBFED0108950F9308304B
:100EC00090F0982F872F762F652F542F432F322F96
:100ED00022270850F4CF220F331F441F551F661FCF
:100EE000771F881F991F0A95B2F70F91089597FBF6
:100EF00010F8169400080F93083098F00850232F2C
:100F0000342F452F562F672F782F892F902DF4CF10
:100F10000594979587957795679557954795379554
:100F200027950A95AAF70F9108952A0D3B1D4C1D90
:100F30005D1D6E1D7F1D801F911F08952A193B099D
:100F40004C095D096E097F09800B910B08952A15E4
:100F50003B054C055D056E057F05800791070895EB
:100F60000024A7FD00942A173005400550056005B0
:100F70007005800590050895A29FB001B39FC00140
:100F8000A39F700D811D1124911DB29F700D811DB5
:0A0F90001124911D0895F894FFCF7D
:00000001FF
