:100000000C9446000C9450000C9450000C9450003A
:100010000C9450000C9450000C9450000C94500020
:100020000C9450000C9450000C9450000C94500010
:100030000C9450000C9450000C9450000C94500000
:100040000C9450000C9450000C9450000C945000F0
:100050000C9450000C9450000C9450000C945000E0
:100060000C9450000C9450000C9450000C945000D0
:100070000C9450000C9450000C9450000C945000C0
:100080000C9450000C9450000C94500011241FBE8E
:10009000CFEFD0E4DEBFCDBF0E9452000C942D0103
:1000A0000C9400000FB6F894A895809160008861C8
:1000B00080936000109260000FBE7894569A84B1CD
:1000C000806B84B9269885B18F7585B92C9A83E5A4
:1000D0008CBD1DBC2FEF6AE187EB21506040804052
:1000E000E1F700C000005E9A9FEFEAE1F7EB915064
:1000F000E040F040E1F700C000002C9887EA91E66C
:100100000197F1F700C0000082E08EBD0DB407FE3C
:10011000FDCF80E58EBD0DB407FEFDCF83E08EBD23
:100120000DB407FEFDCF1EBC0DB407FEFDCF1EBCF7
:100130000DB407FEFDCF85E08EBD0DB407FEFDCFEB
:1001400083E08EBD0DB407FEFDCF2C9AE7EAF1E601
:100150003197F1F700C0000081E090E025E052E027
:1001600033E02C98E3ECF9E03197F1F700C00000A0
:100170000DB407FEFDCF2EBD0DB407FEFDCF5EBD55
:100180000DB407FEFDCF2C9AE3ECF9E03197F1F7BF
:1001900000C0000041E02C98E3ECF9E03197F1F762
:1001A00000C000000DB407FEFDCF3EBD0DB407FE3C
:1001B000FDCF8EBD0DB407FEFDCF9EBD0DB407FE75
:1001C000FDCF2C9AE3ECF9E03197F1F700C0000085
:1001D000840F911D47FD9A958F3FFFEF9F0711F404
:1001E0004FEFD9CF0097B9F62C98E3ECF9E03197AF
:1001F000F1F700C000000DB407FEFDCF2EBD0DB419
:1002000007FEFDCF2EBD0DB407FEFDCF2C9AE3EC0B
:10021000F9E03197F1F700C000002C98E3ECF9E029
:100220003197F1F700C000000DB407FEFDCF3EBDD1
:100230000DB407FEFDCF8EBD0DB407FEFDCF9EBDF4
:100240000DB407FEFDCF2C9AE3ECF9E03197F1F7FE
:0E02500000C00000019609F784CFF894FFCF9C
:00000001FF
