:100000000C9446000C9450000C9450000C9450003A
:100010000C9450000C9450000C9450000C94500020
:100020000C9450000C9450000C9450000C94500010
:100030000C9450000C9450000C9450000C94500000
:100040000C9450000C9450000C9450000C945000F0
:100050000C9450000C9450000C9450000C945000E0
:100060000C9450000C9450000C9450000C945000D0
:100070000C9450000C9450000C9450000C945000C0
:100080000C9450000C9450000C94500011241FBE8E
:10009000CFEFD0E4DEBFCDBF0E9452000C94C3006E
:1000A0000C9400000FB6F894A895809160008861C8
:1000B00080936000109260000FBE789484B1806BD2
:1000C00084B9269885B18F7585B92C9A83E58CBD46
:1000D0001DBC2FEF81E19AE7215080409040E1F76D
:1000E00000C000002C98E7EAF1E63197F1F700C074
:1000F000000082E08EBD0DB407FEFDCF80E58EBD11
:100100000DB407FEFDCF83E08EBD0DB407FEFDCF1D
:100110001EBC0DB407FEFDCF1EBC0DB407FEFDCF07
:1001200085E08EBD0DB407FEFDCF83E08EBD0DB41E
:1001300007FEFDCF2C9A87EA91E60197F1F700C000
:10014000000080E090E023E02C98E7EAF1E63197A8
:10015000F1F700C000000DB407FEFDCF2EBD0DB4B9
:1001600007FEFDCF8EBD0DB407FEFDCF9EBD0DB4C5
:1001700007FEFDCF2C9AE7EAF1E63197F1F700C0D0
:0A01800000000196E1CFF894FFCFD4
:00000001FF
