:100000000C9483000C94A2000C94A2000C94A20007
:100010000C94A2000C94A2000C94A2000C94A200D8
:100020000C94A2000C94A2000C94A2000C94A200C8
:100030000C94A2000C94A2000C94A2000C94CE0488
:100040000C94A2000C94A2000C94A2000C948B01BE
:100050000C9486050C94B0050C94A2000C94A2009C
:100060000C94A2000C94A2000C94A2000C94A20088
:100070000C945B060C9485060C94A2000C94A200D0
:100080000C94A2000C94A2000C94A200310E360E27
:100090003B0E400E450E4A0E4F0E540E590ED10E19
:1000A0005E0E630E680E6D0E720ED10ED10ED10E65
:1000B000D10ED10ED10ED10E850ED10ED10ED10E94
:1000C000D10ED10ED10ED10E980ED10ED10ED10E71
:1000D000D10ED10ED10ED10EAB0ED10ED10ED10E4E
:1000E000D10ED10ED10ED10ED10ED10ED10ED10E18
:1000F000BE0EC30EC80ED10ED10ED10ED10ED10E32
:10010000D10ED10ECD0E11241FBECFEFD0E4DEBF35
:10011000CDBF11E0A0E0B1E0E4EDFDE200E00BBFF7
:1001200002C007900D92A438B107D9F722E1A4E8E4
:10013000B1E001C01D92A23AB207E1F70E948C140F
:100140000C94E8160C940000569A5E9884B1806B6B
:1001500084B926982C9A85B18F7585B9109284013F
:100160001092990183ED8CBD1DBC08955E9A08958F
:100170005E980895809184018111FECF10928501CF
:100180008091990181FF0DC090919A019093860111
:1001900091E09093870192E090938401E8E8F1E088
:1001A00002C0E6E8F1E082FF0BC090919B019083D2
:1001B00092E091833296909184019E5F90938401A6
:1001C00083FF0EC090919C0120919D01208391831B
:1001D00093E092833396909184019D5F9093840184
:1001E00084FF0EC090919E0120919F0120839183F6
:1001F00094E092833396909184019D5F9093840163
:1002000085FF0BC09091A001908395E09183329679
:10021000909184019E5F9093840186FF0BC0909122
:10022000A101908396E091833296909184019E5F24
:100230009093840187FF0AC08091A201808387E0A8
:100240008183809184018E5F809384011092990153
:100250002C9881E28A95F1F70000E0918401E11188
:1002600006C081E28A95F1F700002C9A0895F0E02B
:10027000EB57FE4F80818EBD809184018150809329
:1002800084010895029718F410929A0103C081E046
:1002900080939A01809199018260809399010895D9
:1002A000E9E9F1E082838081846080830895E9E94F
:1002B000F1E0948383838081886080830895E9E9F5
:1002C000F1E0968385838081806180830895E9E9E8
:1002D000F1E08F5F878380818062808308959FEF44
:1002E000980F9F3080F49FEF960F9F3060F420E1CD
:1002F000829FC0011124862B8093A10180919901D6
:100300008064809399010895E9E9F1E08187808113
:100310008068808308951F920F920FB60F92112468
:100320000BB60F928F93EF93FF93E0918401E1114D
:1003300006C081E28A95F1F700002C9A0AC0F0E02D
:10034000EB57FE4F80818EBD809184018150809358
:100350008401FF91EF918F910F900BBE0F900FBE14
:100360000F901F9018952F923F924F925F926F922D
:100370007F928F929F92AF92BF92CF92DF92EF9235
:10038000FF920F931F93CF93DF93FB0128E0829F8F
:10039000E00111244E0188EF981AF8946E0198E05C
:1003A000C90ED11C7E01A0E030E040E050E060E0EA
:1003B00070E080E090E02A2F08E00E944616432E6D
:1003C000542E652E762EB72F382E292EF999FECF72
:1003D000E1BCF2BCF89A80B5A22FA82B342D452D94
:1003E000562D672D7B2F832D922D2FEFE21AF20AC7
:1003F000EC14FD0401F7C85FD74FA12C30E040E0BA
:1004000050E060E070E080E090E02A2D08E00E947B
:100410004616B32E6A017B018C01F999FECF81BC8F
:1004200092BCF89A80B5A22EA82A3B2DA601B7014E
:10043000C8012FEF821A920A8C169D0631F7789424
:100440002A2F342D452D562D672D7B2F832D922D50
:100450000E949B1651F01082118212821382148224
:100460001582168217828FEF09C0A08341825282C3
:1004700063827482B5833682278280E0DF91CF91D8
:100480001F910F91FF90EF90DF90CF90BF90AF90B2
:100490009F908F907F906F905F904F903F902F90A4
:1004A00008952F923F924F925F926F927F928F9218
:1004B0009F92AF92BF92CF92DF92EF92FF920F93F3
:1004C0001F93CF93DF9300D000D01F92CDB7DEB73C
:1004D000A02F612E722E3D834C83B52F2B0128E077
:1004E000829FF0011124FB83EA831F0138EF331A46
:1004F000F8944F0188E0880E911CEA80FB8020E090
:10050000F0E0A12CB12CC12CD12C00E010E03F2F49
:10051000A501B601C80108E00E944616F999FECF70
:10052000E1BCF2BCF89A10B5212BF32F5A016B01F4
:100530008C01EFEFEE1AFE0AE814F90441F7AA2E37
:10054000B62CC72CDD80EC80FB2E82010E949B160E
:1005500079F4EA80FB80F8E0EF0EFF1EF10120E065
:10056000912CA12CB12CC12CD12C00E010E029C081
:100570002A2F362D472D5D816C817B2FC201F99981
:10058000FECF81BC92BC20BDFA9AF99A08E00E9485
:100590006116E1E08E1A9108EA81FB818E169F06B2
:1005A00071F7D7CFF999FECFE1BDF2BDF89A10B53A
:1005B000212B932E5A016B018C013196EE15FF050C
:1005C00041F0392DA501B601C80108E00E94461688
:1005D000E9CFAA2EB62CC72CDD80EC80FB2E820141
:1005E0000E949B16E1F0F999FECFE1BDF2BDA0BDDE
:1005F000FA9AF99A2A2F362D472D5D816C817B2F2F
:10060000C20108E00E946116A22F632E742E5D8342
:100610006C83B72F2C013197E215F30521F77894FD
:1006200080E00F900F900F900F900F90DF91CF917F
:100630001F910F91FF90EF90DF90CF90BF90AF9000
:100640009F908F907F906F905F904F903F902F90F2
:100650000895F8941092A3011092A4011092A5019C
:100660001092A6011092A7011092A8011092A90160
:100670001092AA011092850010928400EFE6F0E03B
:100680008081816080831092800081E0809381006E
:10069000789408952F923F924F925F926F927F923B
:1006A0008F929F92AF92BF92CF92DF92EF92FF9282
:1006B0000F931F93CF93DF93CDB7DEB727970FB676
:1006C000F894DEBF0FBECDBFFC01A22FF32EE42EA7
:1006D000D52ECB0120908500309084002091A3017D
:1006E0002091A4014090A5015090A601B091A701CE
:1006F000B983B091A801BA83B091A901BB83B0912D
:10070000AA01BC8398014A2F5F2D6E2D7D2D02E03A
:100710000E94461639014A016E837D83B82FA92FA6
:100720000E94461659016A017B018C019301A401C4
:100730006E817D818B2F9A2F0E947D1639014A018F
:10074000DB018E839F83222D30E040E050E060E0AB
:1007500070E080E090E008E00E944616B32EA32CE3
:10076000A22AC42CC42AD52CD52AE980E62AFA80EC
:10077000F72A0B81082B1C81192B9301A401BD01C1
:100780008E819F810E947D16208331834283538313
:10079000648375838683978327960FB6F894DEBFAC
:1007A0000FBECDBFDF91CF911F910F91FF90EF90C2
:1007B000DF90CF90BF90AF909F908F907F906F9081
:1007C0005F904F903F902F9008957F928F929F92CD
:1007D000AF92BF92CF92DF92EF92FF920F931F934F
:1007E000CF93DF93FC0120918500A090840070805E
:1007F00081809280D381C481B581A681E781809177
:10080000A3018091A401C090A501D090A601E09021
:10081000A701F090A801F091A9011091AA0130E080
:1008200040E050E060E070E080E090E008E00E948E
:100830004616B32EA22AC42AD52AE62AF72A0F2F53
:10084000082B192B272D382D492D5D2F6C2F7B2F31
:100850008A2F9E2F0E949216F1E0A72CB82CC92C4B
:10086000DD2EEC2EFB2E0A2F1E2F0E949B1608F465
:10087000F0E08F2FDF91CF911F910F91FF90EF90BC
:10088000DF90CF90BF90AF909F908F907F90089512
:100890002F923F924F925F926F927F928F929F9290
:1008A000AF92BF92CF92DF92EF92FF920F931F937E
:1008B000CF93DF9300D000D01F92CDB7DEB7FC01FD
:1008C00020918500A0908400208031804280538058
:1008D00064807580A681A983F7818091A3018091AE
:1008E000A401C090A501D090A601E090A701F090CE
:1008F000A801E091A9011091AA0130E040E050E088
:1009000060E070E080E090E008E00E944616B32EC0
:10091000A22AC42AD52AE62AF72A0E2F082B192B39
:100920009101A201B3018A2F9F2F0E9492165B832F
:100930008C839D8351016201730109811F2F0E94E5
:100940009B1660F4E4E1AE2EB12CC12CD12CE12C2D
:10095000F12C00E010E00E94A21508C020E030E079
:1009600040E050E060E070E080E090E00F900F9099
:100970000F900F900F90DF91CF911F910F91FF90EB
:10098000EF90DF90CF90BF90AF909F908F907F902F
:100990006F905F904F903F902F9008951F920F920D
:1009A0000FB60F9211242F933F934F935F936F9342
:1009B0007F938F939F932091A3013091A401409145
:1009C000A5015091A6016091A7017091A8018091A5
:1009D000A9019091AA014F5F5F4F6F4F7F4F8F4FDB
:1009E0009F4F2093A3013093A4014093A5015093FE
:1009F000A6016093A7017093A8018093A901909329
:100A0000AA019F918F917F916F915F914F913F913B
:100A10002F910F900FBE0F901F9018951092AE035C
:100A20001092AF031092B0031092AB021092AC027E
:100A30001092AD0282E08093C50088E08093C400EC
:100A4000E0ECF0E0808182608083E1ECF0E0808186
:100A500088698083E2ECF0E080818660808308957D
:100A6000EFEFF0E0262F30E04091B003DF01A41B50
:100A7000B1092A173B07C4F7282FFC018E2F821BD0
:100A8000861768F4A091AF03B0E08191A255BD4FE5
:100A90008C938091AF038F5F8093AF03EFCF8091F2
:100AA000B003680F6093B0038091C10085FD0AC058
:100AB0008091C00080648093C0008091C1008062FA
:100AC0008093C10008952091AD022617E0F3282FEE
:100AD000FC018E2F821B861768F4A091AB02B0E058
:100AE000A555BE4F8C9181938091AB028F5F80930F
:100AF000AB02EFCF8091AD02861B8093AD020895CB
:100B00001092B00308951092AD0208951F920F92B3
:100B10000FB60F9211240BB60F928F93EF93FF93A2
:100B20008091AD028F3F91F0E091AC02F0E08091B6
:100B3000C600E555FE4F80838091AC028F5F8093A5
:100B4000AC028091AD028F5F8093AD02FF91EF9177
:100B50008F910F900BBE0F900FBE0F901F901895A6
:100B60001F920F920FB60F9211240BB60F928F9314
:100B7000EF93FF938091B003882399F0E091AE0347
:100B8000F0E0E255FD4F80818093C6008091AE0376
:100B90008F5F8093AE038091B00381508093B00348
:100BA00005C08091C1008F7D8093C100FF91EF91BE
:100BB0008F910F900BBE0F900FBE0F901F90189546
:100BC0001092B4051092B5051092B6051092B104BA
:100BD0001092B2041092B30482E08093CD0088E0BA
:100BE0008093CC00E8ECF0E0808182608083E9ECC7
:100BF000F0E0808188698083EAECF0E080818660A3
:100C000080830895EFEFF0E0262F30E04091B605A5
:100C1000DF01A41BB1092A173B07C4F7282FFC01E9
:100C20008E2F821B861768F4A091B505B0E08191E4
:100C3000AC54BB4F8C938091B5058F5F8093B50505
:100C4000EFCF8091B605680F6093B6058091C9001B
:100C500085FD0AC08091C80080648093C80080919F
:100C6000C90080628093C90008958091B3040895FB
:100C70002091B3042617E0F3282FFC018E2F821B4E
:100C8000861768F4A091B104B0E0AF54BC4F8C91CA
:100C900081938091B1048F5F8093B104EFCF8091F5
:100CA000B304861B8093B30408951092B60508958B
:100CB0001092B30408951F920F920FB60F92112451
:100CC0000BB60F928F93EF93FF938091B3048F3FF6
:100CD00091F0E091B204F0E08091CE00EF54FC4F2F
:100CE00080838091B2048F5F8093B2048091B304BB
:100CF0008F5F8093B304FF91EF918F910F900BBEA4
:100D00000F900FBE0F901F9018951F920F920FB665
:100D10000F9211240BB60F928F93EF93FF93809154
:100D2000B605882399F0E091B405F0E0EC54FB4F50
:100D300080818093CE008091B4058F5F8093B4054D
:100D40008091B60581508093B60505C08091C90099
:100D50008F7D8093C900FF91EF918F910F900BBE13
:100D60000F900FBE0F901F90189587B18F7087B9A5
:100D700088B18F7088B98AB1806A8AB95D985F9AA4
:100D80000895AF92BF92CF92DF92FF920F931F937D
:100D9000CF93DF935C01EBB1EF75EBB983E08A95FC
:100DA000F1F700005D9AA3E0AA95F1F700005D98C5
:100DB000B3E0BA95F1F700005D9AE3E0EA95F1F748
:100DC0000000ADE0FA2EC12CD12CA0E0B0E0C0E0D4
:100DD000D0E000E010E05D98F3E0FA95F1F7000054
:100DE0005D9A000F111FCC0FDD1FAA0FBB1FCC0C8B
:100DF000DD1C349901603599C1603699A160379B3B
:100E000002C06894C0F8FA94F110E5CF5F9A1F70A1
:100E1000F50111830083DF70FB01D183C083BF70B4
:100E2000FA01B183A083F601FF70D901ED93FC9321
:100E3000DF91CF911F910F91FF90DF90CF90BF90E6
:100E4000AF900895089580916012909161128C0185
:100E500020E030E040E050E060E070E080E00E94A0
:100E6000510280916212909163128C0120E030E077
:100E700040E050E060E070E081E00E94510280912B
:100E80006412909165128C0120E030E040E050E067
:100E900060E070E082E00E945102809166129091C1
:100EA00067128C0120E030E040E050E060E070E04C
:100EB00083E00E94510280916812909169128C0126
:100EC00020E030E040E050E060E070E084E00E942C
:100ED000510280916A1290916B128C0120E030E0F7
:100EE00040E050E060E070E085E00E9451028091B7
:100EF0006C1290916D128C0120E030E040E050E0E7
:100F000060E070E086E00E94510280916E12909144
:100F10006F128C0120E030E040E050E060E070E0D3
:100F200087E00E94510280917012909171128C01A1
:100F300020E030E040E050E060E070E088E00E94B7
:100F4000510280917212909173128C0120E030E076
:100F500040E050E060E070E089E00E945102809142
:100F60007412909175128C0120E030E040E050E066
:100F700060E070E08AE00E945102109177120091C7
:100F80007612712F770F770B272F372F472F572F79
:100F9000672F8BE00E945102109179120091781214
:100FA000712F770F770B272F372F472F572F672F4B
:100FB0008CE00E94510200917A1210917B122091D4
:100FC0007C1230917D1240917E1250917F1260917F
:100FD0008012709181128DE00E9451020091821264
:100FE00010918312209184123091851240918612C3
:100FF0005091871260918812709189128EE00E9440
:10100000510200918A1210918B1220918C12309112
:101010008D1240918E1250918F12609190127091AA
:1010200091128FE00E94510200919212109193123E
:1010300020919412309195124091961250919712EE
:10104000609198127091991280E10E9451028091F2
:101050009A1290919B128C0120E030E040E050E029
:1010600060E070E081E10E94510280919C129091B9
:101070009D128C0120E030E040E050E060E070E044
:1010800082E10E94510280919E1290919F128C01E8
:1010900020E030E040E050E060E070E083E10E945A
:1010A00051028091A0129091A1128C0120E030E0B9
:1010B00040E050E060E070E084E10E945102FFCF28
:1010C000BF92CF92DF92EF92FF920F931F93CF9335
:1010D000DF93CDB7DEB7C055D1090FB6F894DEBFA8
:1010E0000FBECDBFCE0101967C016C0110E0B82E81
:1010F0000F2DB601812F0E94B30187FF03C060E06E
:1011000071E0EAC01F5F98E0C90ED11C193089F761
:1011100089819A81909361128093601289859A8562
:10112000909363128093621289899A8990936512D1
:1011300080936412898D9A8D9093671280936612C2
:1011400089A19AA1909369128093681289A59AA5A2
:1011500090936B1280936A1289A99AA990936D1249
:1011600080936C1289AD9AAD90936F1280936E123A
:1011700023968EAD9FAD239790937112809370123A
:10118000670110E0B60189E0810F0E94B30187FF7B
:1011900019C0143019F46FE071E0CAC0153029F499
:1011A0006EE171E081E292E1C5C0163019F46DE2A2
:1011B00071E0BEC0173019F46CE371E0B9C06BE4A4
:1011C00071E08AC01F5F88E0C80ED11C1830D1F6CC
:1011D00089819A81909373128093721289859A857E
:1011E000909375128093741289899A8990937712DB
:1011F00080937612898D9A8D9093791280937812CC
:1012000089A180937A128AA180937B128BA180930B
:101210007C128CA180937D128DA180937E128EA171
:1012200080937F128FA18093801288A58093811272
:1012300089A5809382128AA5809383128BA58093BF
:1012400084128CA5809385128DA5809386128EA51D
:10125000809387128FA58093881288A98093891222
:1012600089A980938A128AA980938B128BA9809373
:101270008C128CA980938D128DA980938E128EA9C9
:1012800080938F128FA98093901288AD80939112D2
:1012900089AD809392128AAD809393128BAD809327
:1012A00094128CAD809395128DAD809396128EAD75
:1012B000809397128FAD8093981221968FAD2197CE
:1012C0008093991210E0B70181E1810F0E94B30170
:1012D00087FF0DC06AE571E080E292E10E94E116AD
:1012E0008DE080932012105D10932B122FC01F5F92
:1012F00098E0E90EF11C133031F789819A819093BF
:101300009B1280939A1289859A8590939D1280935F
:101310009C1289899A8990939F1280939E126B2DBB
:10132000702F84E10E94B30187FF0AC069E671E073
:1013300080E292E10E94E1168DE08093201206C0C7
:1013400089819A819093A1128093A012C05BDF4F94
:101350000FB6F894DEBF0FBECDBFDF91CF911F91C6
:101360000F91FF90EF90DF90CF90BF900895E2E54E
:10137000F2E1118210821382128215821482178286
:101380001682118610861386128615861486E4E16D
:10139000FAE011821082138212821582148217825F
:1013A00016821186108613861286E0E6F2E111821B
:1013B000108213821282158214821782168211867D
:1013C0001086138612861586148617861686118A4D
:1013D000108A138A128A158A148A12A213A214A2DE
:1013E00015A216A217A210A611A612A613A614A63D
:1013F00015A616A617A610AA11AA12AA13AA14AA0D
:1014000015AA16AA17AA10AE11AE128E138E148E3C
:10141000158E168E178E10A211A2178A168A118E9B
:10142000108E13AE12AE15AE14AE10929F12109223
:101430009E121092A1121092A01268E771E080E251
:1014400092E10E94E1168AE0809320120C946008D9
:101450000E94E0051092B70508952F923F924F9297
:101460005F926F927F928F929F92AF92BF92CF9234
:10147000DF92EF92FF920F931F93CF93DF93CDB73D
:10148000DEB72D970FB6F894DEBF0FBECDBF0E941A
:101490003506882309F487C40E943506882309F499
:1014A00082C461E0CE0101960E943806998192358E
:1014B00021F49093B80581E00DC08091B705E82F25
:1014C000F0E0E954FA4F91839A3019F48A3028F405
:1014D00068C48F5F8093B705DFCF2091B8052235B0
:1014E00009F05FC42091B905253409F05AC4209150
:1014F000BA05273409F055C42091BB052A3309F0F9
:1015000050C42091C005022E000C330B205331092A
:101510004091BC05042E000C550B4053510960E16D
:1015200077E2469F4001479F900C569F900C1124F4
:10153000820E931E2091BD05022E000C330B20530A
:10154000310968EE73E0269FA001279F500D369F5A
:10155000500D1124840E951E2091BE05022E000C04
:10156000330B2053310964E6629FA001639F500D45
:101570001124840E951E2091BF05022E000C330B02
:1015800020533109929FF001939FF00D11248E0E8C
:101590009F1E81508093B705E82FF0E0E954FA4F81
:1015A00091819F3309F028C222E0821626E7920635
:1015B00029F46091201281E292E11BC28EEF88161D
:1015C00085E79806C1F46AEF80E29AE00E9402067D
:1015D0006AEF84E19CE00E9402066AEF88E09EE0E8
:1015E0000E9402066AEF8CEF9FE00E94020668E10B
:1015F00088EE9AE0FEC19FE689169DE9990609F4F6
:1016000038C108F06BC0F5EA8F16FCE99F0609F4B3
:10161000F0C068F58BEF881685E7980609F410C1CD
:1016200098F4E9EF8E16E5E79E0609F4FFC008F08E
:1016300002C128EF821625E7920609F0B2C3809115
:10164000150A2090140AE8C08DEF881685E79806E1
:1016500009F400C108F4F9C0E4EA8E16ECE99E062C
:1016600009F09FC38091531220905212D5C0F9EA1D
:101670008F16FCE99F0609F4CBC068F487EA881648
:101680008CE9980609F4BAC008F0BDC02090561243
:10169000309057124DC1ECE68E16EDE99E0609F426
:1016A000DEC058F42AEA82162CE9920609F079C3C2
:1016B00020905E1230905F123BC18DE688168DE956
:1016C000980609F4D1C09EE689169DE9990609F0AD
:1016D00068C320906412309065122AC1E9E78E1623
:1016E000EDE99E0609F4E3C0B8F523E782162DE97B
:1016F000920609F4CDC068F491E789169DE9990630
:1017000009F4BCC008F0BFC0209068123090691284
:101710000FC1F6E78F16FDE99F0609F4BEC058F425
:1017200084E788168DE9980609F03BC32090701273
:1017300030907112FDC097E789169DE9990609F46A
:10174000B1C0E8E78E16EDE99E0609F02AC3809144
:1017500077122090761260C0F2E98F16FDE99F069D
:1017600009F4CCC018F582E888168DE9980609F4CA
:10177000A3C09AE889169DE9990609F4AEC0EAE784
:101780008E16EDE99E0609F00CC320907A12309077
:101790007B1240907C1250907D1260907E1270906F
:1017A0007F128090801290908112C7C0FFE98F163F
:1017B000FDE99F0609F4B3C058F48EE988168DE957
:1017C000980609F0EEC220909A1230909B12B0C099
:1017D00090EA89169DE9990609F4A6C0E8EA8E16F2
:1017E000EDE99E0609F0DDC22090A0123090A11212
:1017F0009FC020905412309055129AC020905812D9
:101800003090591295C020905A1230905B1290C0BF
:1018100080915D1220905C12382E880F880B482E24
:10182000582E682E782E882E982E87C08091170A01
:101830002090160AF1CF8091190A2090180AECCF57
:1018400080911B0A20901A0AE7CF20901C0A309042
:101850001D0A6EC080911F0A20901E0ADDCF2090C5
:1018600060123090611264C0209062123090631256
:101870005FC020906612309067125AC020906A12A2
:1018800030906B1255C020906C1230906D1250C089
:1018900020906E1230906F124BC0209072123090D8
:1018A000731246C0209074123090751241C080911E
:1018B000791220907812B0CF20908212309083124B
:1018C000409084125090851260908612709087121A
:1018D000809088129090891230C020908A123090A7
:1018E0008B1240908C1250908D1260908E127090DE
:1018F0008F1280909012909091121FC0209092129F
:1019000030909312409094125090951260909612DD
:101910007090971280909812909099120EC020901B
:101920009C1230909D1204C020909E1230909F1205
:10193000412C512C612C712C43018AE08093D705F6
:101940009101A201B301C401A0E00E94A4164CF4CD
:101950000E94FF1519012A013B014C01FDE2FB83A6
:1019600002C020E22B83BEE1FFEFFB0FFA8391015F
:10197000A201B301C401A9E0EB2FF0E00E94A4167C
:1019800029F124F1CF0189549A4F9D838C838AE0F9
:10199000A82EB12CC12CD12CE12CF12C00E010E0B0
:1019A0009101A201B301C4010E946F15205DEC8179
:1019B000FD8121839101A201B301C4010E9471152F
:1019C00019012A013B014C01BA81CECF2A81209313
:1019D000B705E954FA4F80E3820D8183822F90E0AE
:1019E000FC01E954FA4F2B81218361E26B1B88547F
:1019F0009A4F0E940206D5C1E1E0EC831E821F824D
:101A0000188619861A861B861C86612C712C1A82F0
:101A10001B82212C312C412C512CE82FF0E0E95471
:101A2000FA4FE181E03209F468C09FEF980F9D877B
:101A3000ED3279F48093B70593014A815B81B1015E
:101A4000C2010E94FF1539014A835B831B012C01EF
:101A500056C00E2E000CFF0BF0979F2F990F990B7D
:101A6000AC80BE80CF80D884E984FA840B851C8545
:101A70009F01492F592F692F792F892F0E94DC143C
:101A80005301CA80DB80710182010E947D163901F9
:101A90004A835B831B012C012C813E814F81588539
:101AA00069857A858B859C8501E00E9446162C838A
:101AB0003E834F835887B62FA72FF82FE92F7A2F11
:101AC0008F2F9E2F02E00E94461659016A017B016A
:101AD0008C012C813E814F8158856B2F7A2F8F2F5F
:101AE0009E2F0E947D162C833E834F8358876987E3
:101AF0007A878B879C878D8590CF8093B705E091FF
:101B00005812F091591227EA82162CE9920621F513
:101B1000309789F493014A815B81B101C201A1E050
:101B20000E94A41609F054C081E090E090935912ED
:101B30008093581236C1E130F10509F049C0930194
:101B40004A815B81B101C201A0E00E94A41609F0A4
:101B50003FC00E94230725C186EA88168CE99806B3
:101B600049F178F424EA82162CE99206F1F085EA2C
:101B700088168CE9980661F560925412709255129D
:101B800027C099EA89169CE99906C9F02AEA8216C3
:101B90002CE99206C9F088EA88168CE99806C1F407
:101BA00060925A1270925B1213C06092521270923D
:101BB00053120EC0609256127092571209C0609272
:101BC0005C1270925D1204C060925E1270925F129D
:101BD0008091561290915712029720F0109257124E
:101BE00010925612809154129091551220915A12CF
:101BF00030915B12019729F48091741290917512C3
:101C000008C0109255121092541280917212909145
:101C100073128217930720F490935B1280935A12E9
:101C200080915C1290915D12853691051CF084E6DE
:101C300090E005C08C399F4F34F48CE99FEF90936E
:101C40005D1280935C12319709F0ABC0F401EC5641
:101C5000FD49ED33F10508F0A4C0EA5BFF4F0C9499
:101C6000D31460926012709261129BC060926212F3
:101C70007092631296C0609264127092651291C065
:101C800060926612709267128CC0609268127092B5
:101C9000691287C060926A1270926B1282C0609261
:101CA0006C1270926D127DC060926E1270926F1203
:101CB00078C0609270127092711273C0609272124A
:101CC000709273126EC0609274127092751269C035
:101CD000609276127092771264C06092781270925D
:101CE00079125FC060927A1270927B128A8180931F
:101CF0007C129B8190937D1220927E1230927F12F3
:101D000040928012509281124CC060928212709266
:101D10008312EA81E0938412FB81F0938512209272
:101D2000861230928712409288125092891239C0DE
:101D300060928A1270928B122A8120938C128B816E
:101D400080938D1220928E1230928F1240929012B8
:101D50005092911226C060929212709293129A81C0
:101D600090939412EB81E093951220929612309208
:101D70009712409298125092991213C060929A1240
:101D800070929B120EC060929C1270929D1209C0BC
:101D900060929E1270929F1204C06092A012709284
:101DA000A1121092B7052D960FB6F894DEBF0FBEA4
:101DB000CDBFDF91CF911F910F91FF90EF90DF90FA
:101DC000CF90BF90AF909F908F907F906F905F90DB
:101DD0004F903F902F9008950F931F93CF93DF93D1
:101DE000E8EDF5E0108211821282138214821582CE
:101DF000168217821086118612861386148615861F
:101E000016861786108A118A8BE098E00E941014BB
:101E100082E096E00E9410140E942903C0E6D2E1FD
:101E20000A8D1B8D2C8D3D8D4E8D5F8D68A179A106
:101E30008AEE95E00E944A030AA51BA52CA53DA5A4
:101E40004EA55FA568A979A982EF95E00E944A0393
:101E500001E010E020E030E040E050E060E070E0C1
:101E60008AEF95E00E944A030E94B5060E94A400F2
:101E70000E94B80083E090E00E94670180E00E9429
:101E8000500180E090E00E945701DF91CF911F91B7
:101E90000F910C94BA002F923F924F925F926F92E3
:101EA0007F928F929F92AF92BF92CF92DF92EF92EA
:101EB000FF920F931F93CF93DF93CDB7DEB76B974E
:101EC0000FB6F894DEBF0FBECDBF4090160A5090FB
:101ED000170A8090140A9090150A8091E1058E8768
:101EE0009091E2059F87A091E305A88BB091E4054E
:101EF000B98BE091E505EA8BF091E605FB8B8091CB
:101F0000E7058C8B9091E8059D8B052C000C6608ED
:101F10007708D301C201BB0F880B982FDC0189839E
:101F20009A83AB83BC839201A3016981762F862FAC
:101F3000962F02E00E94461652016301E980FE2CB2
:101F40000E2D1E2D0E94921659016A017B01E82F69
:101F5000192F04E00E9446160E2F0E94921602E0EE
:101F60000E94461652016301E980FE2C0E2D1E2DA3
:101F70000E947D1603E00E944616122FD32E042FD6
:101F8000B52FF62FE72F7C01A0E00E94A4167CF469
:101F90002150384F4F4F5F4F6F4F7F4F8F4F9F4FA5
:101FA000122FD32E042FB52FF62FE72F7C01212FD0
:101FB0003D2D402F5B2F6F2F7E2FC7010BE00E941E
:101FC0005F162B873C874D835E836F837887898775
:101FD0009A872401990C66087708D301C201BB0FC8
:101FE000880B982FDC0189839A83AB83BC83920191
:101FF000A3016981762F862F962F02E00E94461654
:1020000052016301E980FE2C0E2D1E2D0E949216B6
:1020100059016A017B01E82F192F04E00E9446163E
:102020000E2F0E94921602E00E9446165201630192
:10203000E980FE2C0E2D1E2D0E947D1603E00E94CD
:1020400046167901142FB52FF62FE72F6C01A0E06B
:102050000E94A41674F42150384F4F4F5F4F6F4FBA
:102060007F4F8F4F9F4F7901142FB52FF62FE72FFA
:102070006C019701412F5B2F6F2F7E2FC6010BE064
:102080000E945F16E0911C0AF0911D0AA6E0F695E9
:10209000E795AA95E1F7EE0FFF1FE05EF54F01907F
:1020A000F081E02D5F01C12CD12CE12CF12C00E05E
:1020B00010E00E94DC1408E00E945F162093180ACA
:1020C0003093190A9B858C8590931A0A80931B0A7A
:1020D0008AEF95E00E94E50320915212309153124D
:1020E0002115310521F4882309F471C068C021301D
:1020F000310509F05EC010925312109252120091F5
:102100008212109183122091841230918512409195
:1021100086125091871260918812709189128AEF0D
:1021200095E00E944A038091D805811150C081E05A
:102130008093D8051092D9051092DA051092DB052C
:102140001092DC051092DD051092DE051092DF057D
:102150001092E0051092E1051092E2051092E3055D
:102160001092E4051092E5051092E6051092E7053D
:102170001092E80580915E1290915F12019719F418
:1021800083E090E002C081E090E00E94420180E0A4
:1021900090E00E94570180E00E9450010E94BA0026
:1021A000A7E8B3E11197F1F700C000000E94B60064
:1021B0000EC08FEF9FEF90935312809352121092A4
:1021C000D80510921D0A10921C0A0E94B80082EFD6
:1021D00095E00E94E5038823D1F18091E9058130E3
:1021E000B9F41092E905109257121092561200910C
:1021F0009212109193122091941230919512409165
:1022000096125091971260919812709199121BC07A
:1022100081111DC080915612909157120197B9F407
:1022200081E08093E90500918A1210918B12209130
:102230008C1230918D1240918E1250918F126091BC
:1022400090127091911282EF95E00E944A03809162
:10225000D805882309F483C18091E90520915C1297
:1022600030915D12813041F5121613062CF4609105
:102270006E1270916F1227C021153105F1F1609136
:1022800070127091711280E090E0032E000C440BEC
:10229000550B0E943515FCE9AF2EBB24BA94CC2413
:1022A000CA94DD24DA94EE24EA94FF24FA940FEF22
:1022B0001FEF0E94711529C012161306B4F4609125
:1022C0006A1270916B1280E090E0032E000C440BB8
:1022D000550B0E943515E4E6AE2EB12CC12CD12C45
:1022E000E12CF12C00E010E0E4CF2115310529F0BC
:1022F00060916C1270916D12C6CF20E030E040E02A
:1023000050E060E070E080E090E0AB84BC84CD8081
:10231000DE80EF80F88409851A850E949216298351
:102320003D834E835F83688779878A879B87209365
:10233000D9053093DA05E42F4093DB05F52F509350
:10234000DC05862F6093DD05972F7093DE05AA8547
:10235000A093DF05BB85B093E005AF01BC01CD01C3
:10236000A090E105B090E205C090E305D090E405AF
:10237000E090E505F090E6050091E7051091E8058D
:102380000E947D16722E832E942E5B8F6A8F472EAD
:10239000582E692E2093E1053093E2054093E30522
:1023A0005093E4056093E5057093E6058093E70597
:1023B0009093E8053091771220917612932F990F20
:1023C000990BA980BD80CE80DF80E884F9848D01DF
:1023D000492F592F692F792F892F0E94DC14190159
:1023E0004C875D876E8B7F8B888F998F30917912A8
:1023F00020917812932F990F990BA72CB82CC92CE8
:10240000DB8CEA8CF42C052D162D492F592F692FC2
:10241000792F892F0E94DC1459016A017B018C01FC
:1024200091014C855D856E897F89888D998D0E948B
:102430007D167901142FD52E062FB72FF82FE92FEF
:10244000A0E00E94A4162CF529813D814E815F8178
:10245000688579858A859B850E94A4160CF065C0E5
:102460008E858093E1059F859093E205A889A093CE
:10247000E305B989B093E405EA89E093E505FB89B2
:10248000F093E6058C898093E7059D899093E80594
:102490004CC09701412F5D2D602F7B2F8F2F9E2FDA
:1024A00000E10E945F16F901498F5E8BB62FA72FBE
:1024B0008F8B988F80915A1290915B121C019F0113
:1024C0006B2F7A2F8F89988D5101C12CD12CE12C43
:1024D000F12C00E010E00E949B1651F14CF1298193
:1024E0003D814E815F81688579858A859B85A0E0E5
:1024F0000E94A416F1F0ECF0AE85A093E105BF8533
:10250000B093E205E889E093E305F989F093E405E7
:102510008A898093E5059B899093E605AC89A09311
:10252000E705BD89B093E80504C0212C312C01C01A
:102530001F0130921D0A20921C0AC1010E945701FE
:10254000F10186E0F695E7958A95E1F7EE0FFF1F1A
:10255000E05EF54F80810E9450010E94BA00009118
:102560007A1210917B1220917C1230917D12409151
:102570007E1250917F1260918012709181128AEECA
:1025800095E00E944A036B960FB6F894DEBF0FBE2B
:10259000CDBFDF91CF911F910F91FF90EF90DF9012
:1025A000CF90BF90AF909F908F907F906F905F90F3
:1025B0004F903F902F9008952F923F924F925F92AD
:1025C0006F927F928F929F92AF92BF92CF92DF9243
:1025D000EF92FF920F931F93CF93DF93CDB7DEB7A8
:1025E000A4970FB6F894DEBF0FBECDBF198E1A8E1A
:1025F0001B8E1C8E1D8E1E8E1F8E18A2198A1A8A83
:102600001B8A1C8A1D8A1E8A1F8A188E19861A86A2
:102610001B861C861D861E861F86188A19821A82B2
:102620001B821C821D821E821F8218869E012F5FC4
:102630003F4FAE01475F5F4FBE016F5E7F4FCE01E0
:1026400049960E94C106298D3A8D4B8D5C8D6D8D0A
:102650007E8D8F8D98A12756384041095109610917
:1026600071098109910959016A017B01E82F192F2C
:1026700002E00E9446160E2F0E947D16722E832EB7
:10268000942EB52FF62FE72F682E192FA0E00E9469
:10269000A4165CF4A3E00E948616722E832E942E5C
:1026A000B52FF62FE72F682E192F272D382D492DFE
:1026B0005B2F6F2F7E2F862D912F02E00E945F16D9
:1026C000322E432E542E652E69A37AA38BA39CA38E
:1026D000298F3A8F4B8F5C8F6D8F7E8F8BA18F8F61
:1026E00098A329893A894B895C896D897E898F896C
:1026F000988D2756384041095109610971098109AE
:102700009109222E732E4A01B62FA72FF82FE92FF9
:1027100006E00E944616A22CB72C6401EB2EFA2E7E
:102720000F2F1E2F0E94921601E00E9446160F2FB7
:102730000E94921602E00E944616722E832E942E5C
:10274000B52FF62FE72F182F292EA0E00E94A416F0
:102750005CF4AFE00E948616722E832E942EB52F65
:10276000F62FE72F182F292E272D382D492D5B2FD7
:102770006F2F7E2F812F922D04E00E945F16298BF0
:102780003A8B4B8B5C8B6D8B7E8B8F8B988F232D35
:10279000342D452D562D69A17AA18BA19CA1A0E0D5
:1027A0000E94A41644F4198E1A8E1B8E1C8E1D8E48
:1027B0001E8E1F8E18A2698D7A8D8BE098E00E9484
:1027C0002C149093150A8093140A69897A8982E0FF
:1027D00096E00E942C149093170A8093160A8AEEB2
:1027E00095E00E94E50391E0811190E0892FA49685
:1027F0000FB6F894DEBF0FBECDBFDF91CF911F9112
:102800000F91FF90EF90DF90CF90BF90AF909F908F
:102810008F907F906F905F904F903F902F90089592
:10282000DC01BE5F1C92FC01EB5FFD4F1082118248
:102830001282138234971082118212821382FC0159
:1028400011921192EA17FB07D9F70895FC01EB5F8B
:10285000FD4F8081918108954F925F926F927F9298
:102860008F929F92AF92BF92CF92DF92FF920F937F
:102870001F93CF93DF938C015B016C018EEFD81A0D
:10288000F601F080E801CF0DD11DCF0DD11D31969D
:1028900048805980052C000C66087708808191815A
:1028A000A281B381AC01BD014419550966097709BC
:1028B000C5010B2C000CAA0BBB0B3A014B01680E97
:1028C000791E8A1E9B1EC401B301608271828282BE
:1028D000938220E031E040E050E00E94B414F8011F
:1028E000EB5FFD4F2083318342835383B982A882FB
:1028F000F394F601F082C901DF91CF911F910F91FE
:10290000FF90DF90CF90BF90AF909F908F907F907F
:102910006F905F904F9008950FB6F894A8958091AE
:102920006000886180936000109260000FBE789410
:102930000E94B7090E94280A0E9422070E94EC0EFA
:102940009EE088E10FB6F894A895809360000FBED2
:10295000909360000E94DC128111FCCF0E942D0A2E
:102960000E944B0FA895F6CF052E97FB1EF40094FE
:102970000E94CB1457FD07D00E94B01607FC03D06D
:102980004EF40C94CB1450954095309521953F4FC3
:102990004F4F5F4F089590958095709561957F4F4B
:1029A0008F4F9F4F0895EE0FFF1F0024001C0BBE9A
:1029B0000790F691E02D0994DF93CF931F930F9327
:1029C0009A9DF02D219FF00D8B9DF00D8A9DE02D9D
:1029D000F10D039FF00D029FE00DF11D4E9DE00DE6
:1029E000F11D5E9DF00D4F9DF00D7F936F93BF9293
:1029F000AF925F934F93D5010E94D2168B01AC0129
:102A0000D7010E94D216EB01E80FF91FD6010E94F0
:102A10002C152F913F91D6010E94D216C60FD71FB9
:102A2000E81FF91FAF91BF910E942C152F913F9184
:102A30000E94D216C60FD71FE81FF91FD6010E94A9
:102A4000D216E60FF71F9801BE01CF0111240F9196
:102A50001F91CF91DF9108950E94D216460F571F04
:102A6000C81FD91F08F43196089597FB57FF0C949F
:102A700045159F938F930E9445156E1B7F0BAF9159
:102A8000BF918A0B9B0B0895E894DF93CF93FC01D1
:102A9000DB010E94D2167F936F93E9019A01AC018A
:102AA000BF93AF933F932F93DF010E94D21626F47A
:102AB0006C1B7D0B820B930B9E01EB01FC010E94B2
:102AC0002C15AF91BF912F913F910E942C15BE0103
:102AD000CF01F9012F913F91CF91DF910895689433
:102AE00001C0E894F92FF12B12F00C94A315A0E08B
:102AF000B0E0EDE7F5E10C941516092E059422F4EB
:102B00000E94FF15112392F4F0E80F26FFEFE094E6
:102B1000F09400951095B094C094D094A194BF0AFD
:102B2000CF0ADF0AEF0AFF0A0F0B1F0B0E94AE1538
:102B300007FC0E94FF15CDB7DEB7ECE00C94311610
:102B4000689401C0E8948F929F92CF93DF930E9484
:102B5000AE15DF91CF919F908F900895882499248E
:102B6000F401E401B0E49F93AA279A158B049C0416
:102B7000ED05FE05CF05D007A10798F4AD2FDC2F9A
:102B8000CF2FFE2FE92D982C892E982F872F762F67
:102B9000652F542F432F322F2227B85031F7BF9182
:102BA00027C01B2EBF91BB27220F331F441F551F69
:102BB000661F771F881F991F881C991CEE1FFF1F17
:102BC000CC1FDD1FAA1FBB1F8A149B04EC05FD054B
:102BD000CE05DF05A007B10748F08A189B08EC096D
:102BE000FD09CE09DF09A00BB10B21601A94E1F6B3
:102BF0002EF49401AF01BE01CD01000C0895609543
:102C000070958095909530954095509521953F4FC2
:102C10004F4F5F4F6F4F7F4F8F4F9F4F08952F92B2
:102C20003F924F925F926F927F928F929F92AF925C
:102C3000BF92CF92DF92EF92FF920F931F93CF93A9
:102C4000DF93CDB7DEB7CA1BDB0B0FB6F894DEBF40
:102C50000FBECDBF09942A88398848885F846E8466
:102C60007D848C849B84AA84B984C884DF80EE80B0
:102C7000FD800C811B81AA81B981CE0FD11D0FB6B9
:102C8000F894DEBF0FBECDBFED0108950F9308305D
:102C900090F0982F872F762F652F542F432F322FA8
:102CA00022270850F4CF220F331F441F551F661FE1
:102CB000771F881F991F0A95B2F70F91089597FB08
:102CC00010F8169400080F93083098F00850232F3E
:102CD000342F452F562F672F782F892F902DF4CF23
:102CE0000594979587957795679557954795379567
:102CF00027950A95AAF70F9108952A0D3B1D4C1DA3
:102D00005D1D6E1D7F1D801F911F08950024A7FD6E
:102D100000942A0F301D401D501D601D701D801D28
:102D2000901D08952A193B094C095D096E097F0918
:102D3000800B910B08952A153B054C055D056E052A
:102D40007F058007910708950024A7FD00942A17A6
:102D50003005400550056005700580059005089513
:102D6000A1E21A2EAA1BBB1BFD010DC0AA1FBB1F8F
:102D7000EE1FFF1FA217B307E407F50720F0A21B01
:102D8000B30BE40BF50B661F771F881F991F1A946E
:102D900069F760957095809590959B01AC01BD0198
:102DA000CF010895A29FB001B39FC001A39F700DF2
:102DB000811D1124911DB29F700D811D1124911D43
:102DC0000895FB01DC0101900D920020E1F70895C8
:042DD000F894FFCFA5
:102DD400204552524F52205034303330580A00208C
:102DE4004552524F52205034303331340A0020457A
:102DF40052524F52205034303332320A002045525E
:102E0400524F52205034303333300A00204552524E
:102E14004F52205034303333380A00204552524F39
:102E240052205034303331580A00204552524F5208
:102E3400205034303335580A00204552524F522026
:102E44005034303336300A002053595354454D2002
:042E54004F4B0A00D6
:00000001FF
