:100000000C9446000C9465000C9465000C946500FB
:100010000C9465000C9465000C9465000C946500CC
:100020000C9465000C9465000C9465000C946500BC
:100030000C9465000C9465000C9465000C94DF032F
:100040000C9465000C9465000C9465000C944E01B2
:100050000C9462050C9425060C9465000C946500C4
:100060000C9465000C9465000C9465000C9465007C
:100070000C94ED060C9417070C9465000C94650025
:100080000C9465000C9436050C94650011241FBE79
:10009000CFEFD0E4DEBFCDBF13E0A0E0B1E0E4EAF3
:1000A000FBE400E00BBF02C007900D92AA31B1073C
:1000B000D9F729E1AAE1B3E001C01D92A636B20743
:1000C000E1F70E94EF210C94D0250C940000569A81
:1000D0005E9884B1806B84B926982C9A85B18F750F
:1000E00085B910921A0310922F0383ED8CBD1DBCAD
:1000F00008955E9A08955E98089580911A0381117B
:10010000FECF10921B0380912F0381FF0DC09091B1
:10011000300390931C0391E090931D0392E0909321
:100120001A03EEE1F3E002C0ECE1F3E082FF0BC062
:1001300090913103908392E09183329690911A03CB
:100140009E5F90931A0383FF0EC09091320320911B
:1001500033032083918393E09283339690911A0323
:100160009D5F90931A0384FF0EC0909134032091F9
:1001700035032083918394E09283339690911A0300
:100180009D5F90931A0385FF0BC090913603908377
:1001900095E09183329690911A039E5F90931A0393
:1001A00086FF0BC090913703908396E0918332963F
:1001B00090911A039E5F90931A0387FF0AC0809163
:1001C0003803808387E0818380911A038E5F809358
:1001D0001A0310922F032C9881E28A95F1F7000000
:1001E000E0911A03E11106C081E28A95F1F700005F
:1001F0002C9A0895F0E0E55EFC4F80818EBD8091E1
:100200001A03815080931A030895029718F41092EC
:10021000300303C081E08093300380912F0382601C
:1002200080932F030895EFE2F3E08283808184605E
:1002300080830895EFE2F3E0948383838081886074
:1002400080830895EFE2F3E0968385838081806167
:1002500080830895EFE2F3E08F5F8783808180627F
:10026000808308959FEF980F9F3080F49FEF960F43
:100270009F3060F420E1829FC0011124862B80937F
:10028000370380912F03806480932F030895EFE25A
:10029000F3E0818780818068808308951F920F92A8
:1002A0000FB60F9211240BB60F928F93EF93FF931B
:1002B000E0911A03E11106C081E28A95F1F700008E
:1002C0002C9A0AC0F0E0E55EFC4F80818EBD8091E3
:1002D0001A03815080931A03FF91EF918F910F9031
:1002E0000BBE0F900FBE0F901F9018958627682F9A
:1002F00062956827062E669566956025062E66959A
:1003000060256770082E892F669507946795902D54
:10031000862706946795902586270895AF92BF9209
:10032000CF92DF92EF92FF920F931F93CF93DF93C1
:10033000EC018B016A015B01A40EB51E7C0180E01B
:1003400090E00A151B0591F0F894A895F999FECF55
:10035000E1BCF2BCF89A789460B5F80161938F0122
:100360000E947601FFEFEF1AFF0AEBCFA6014C0FB8
:100370005D1FF894A895F999FECF41BD52BDF89A3A
:10038000789420B530E0322F22274F5F5F4FF894EA
:10039000A895F999FECF41BD52BDF89A789440B521
:1003A000242B41E02817390709F440E0842F819578
:1003B000DF91CF911F910F91FF90EF90DF90CF9041
:1003C000BF90AF900895AF92BF92CF92DF92EF921D
:1003D000FF920F931F93CF93DF93EC017B016A0190
:1003E0005B01A40EB51E8C0180E090E0EA14FB04D2
:1003F00009F1F7012081F894A895F894A895F99946
:10040000FECF402F01BD312F12BDF89A789450B520
:10041000521739F0F999FECF41BD32BD20BDFA9A8D
:10042000F99A7894F70161917F010E9476010F5F3C
:100430001F4FDCCFA6014C0F5D1FF894A895F894D0
:10044000A895F999FECF41BD52BDF89A789420B590
:10045000291739F0F999FECF41BD52BD90BDFA9AE6
:10046000F99A78944F5F5F4FF894A895F894A895FF
:10047000F999FECF41BD52BDF89A789490B598177E
:1004800039F0F999FECF41BD52BD80BDFA9AF99A73
:100490007894DF91CF911F910F91FF90EF90DF90B3
:1004A000CF90BF90AF900895F894109239031092B6
:1004B0003A0310923B0310923C0310923D031092BA
:1004C0003E0310923F031092400310928500109259
:1004D0008400EFE6F0E080818160808310928000EC
:1004E00081E080938100789408952F923F924F92FB
:1004F0005F926F927F928F929F92AF92BF92CF92B4
:10050000DF92EF92FF920F931F93CF93DF9300D070
:1005100000D000D0CDB7DEB7FC0179016A01CB0174
:100520002091390320913A03A0913B03A983B09114
:100530003C03BA83A0913D03AB83B0913E03BC83DF
:10054000A0913F03AD83B0914003BE83A09184008E
:10055000B09185009801A701B60102E00E949E2398
:1005600029013A014B011C010E949E2359016A0195
:100570007B018C019201A301B401C1010E94D5232A
:100580005D01C980DA80EB80FC800D811E810E94B4
:10059000D523208331834283538364837583868389
:1005A000978326960FB6F894DEBF0FBECDBFDF91BE
:1005B000CF911F910F91FF90EF90DF90CF90BF9060
:1005C000AF909F908F907F906F905F904F903F90F3
:1005D0002F9008952F923F924F925F926F927F9249
:1005E0008F929F92AF92BF92CF92DF92EF92FF9243
:1005F0000F931F93CF93DF93CDB7DEB727970FB637
:10060000F894DEBF0FBECDBFFC01A081B181828115
:100610008F8383818C8384818D8385818E83868182
:100620008B83E7818091390380913A03C0903B032B
:10063000D0903C03E0903D03F0903E0300913F03D7
:100640001091400380918400909185001C019D01D0
:100650004F815C816D817E818B819E2F51010E9433
:10066000EA23772473945D01CF80DC80ED80FE80E7
:100670000B811E2F0E94F32308F4712C872D2796DF
:100680000FB6F894DEBF0FBECDBFDF91CF911F91A3
:100690000F91FF90EF90DF90CF90BF90AF909F9021
:1006A0008F907F906F905F904F903F902F90089524
:1006B0002F923F924F925F926F927F928F929F9272
:1006C000AF92BF92CF92DF92EF92FF920F931F9360
:1006D000CF93DF93CDB7DEB72C970FB6F894DEBF7C
:1006E0000FBECDBFFC0120803180428053806480EA
:1006F0007580A681A987E7818091390380913A03AB
:10070000C0903B03D0903C03E0903D03F0903E034B
:1007100000913F0310914003A0918400B0918500A7
:100720009D0140E050E060E070E0CB01A9833A8396
:100730004B835C836D837E838F8398879101A201B5
:10074000B30189859E2FA980BA800E94EA2359832C
:100750008B879C8751016201730109851E2F0E94BE
:10076000F32360F4E4E1AE2EB12CC12CD12CE12CAA
:10077000F12C00E010E00E94FA2208C020E030E0F6
:1007800040E050E060E070E080E090E02C960FB632
:10079000F894DEBF0FBECDBFDF91CF911F910F91B7
:1007A000FF90EF90DF90CF90BF90AF909F908F9091
:1007B0007F906F905F904F903F902F9008951F9281
:1007C0000F920FB60F9211242F933F934F935F9385
:1007D0006F937F938F939F932091390330913A03C6
:1007E00040913B0350913C0360913D0370913E0367
:1007F00080913F03909140034F5F5F4F6F4F7F4F5A
:100800008F4F9F4F2093390330933A0340933B031C
:1008100050933C0360933D0370933E0380933F03EA
:10082000909340039F918F917F916F915F914F9132
:100830003F912F910F900FBE0F901F9018958F92A0
:100840009F92AF92BF92CF92DF92EF92FF921F934F
:10085000CF93DF934A015B01C22F10924C06109296
:100860004D0610924E0610924505109244051092C6
:10087000470510924605109249051092480580934D
:10088000430381E090E0909342038093410360EA48
:1008900075E286E290E0A50194010E9412226901AE
:1008A0007A01C501B4010E94C5244B015C019B0182
:1008B000AC0166E571E283E89CE40E9417240E9483
:1008C0008E24122FD32FA50194016EEC78E08CEECC
:1008D0009CE40E9417240E948E24209A289ABB2709
:1008E000AF2D9E2D8D2D8093C500C092C400C130C8
:1008F00019F020F48EE003C086E301C086E2809305
:10090000C20082E08093C00088E98093C100812FFB
:100910009D2F909399008093980030939B00209393
:100920009A00109290001092910080917100846062
:100930008093710080919100826080939100DF919B
:10094000CF911F91FF90EF90DF90CF90BF90AF902D
:100950009F908F900895A895EFEFF0E0262F30E05C
:1009600040914E06DF01A41BB1092A173B07C4F7CB
:10097000282FFC018E2F821B861768F4A0914D064C
:10098000B0E08191A45BBA4F8C9380914D068F5F4C
:1009900080934D06EFCF80914E06680F60934E0610
:1009A0008091C10085FD17C0809141039091420361
:1009B0000297D1F788E090E090934203809341033F
:1009C00028988091C00080648093C0008091C1000D
:1009D00080628093C10008958091480590914905F7
:1009E0000895A895262F30E040914805509149057B
:1009F00042175307C8F3482FFC018E2F841B86171C
:100A000090F4A0914405B0914505AC5BBC4F8C912E
:100A100081938091440590914505019690934505F9
:100A200080934405EACF8091480590914905821B47
:100A3000930B9093490580934805089510924E06B4
:100A400010924C0610924D0608951092490510928E
:100A5000480510924B0510924A05109245051092D8
:100A60004405109247051092460508951F920F9273
:100A70000FB60F9211240BB60F928F939F93EF93A3
:100A8000FF93EAE4F5E0808191819093490580939A
:100A900048051182108282E090E090934203809397
:100AA0004103E1E9F0E080818D7F8083C19AFF916D
:100AB000EF919F918F910F900BBE0F900FBE0F90F3
:100AC0001F9018951F920F920FB60F9211240BB61C
:100AD0000F922F933F938F939F93EF93FF931092D7
:100AE0009500109294008091910082608093910013
:100AF0008091410390914203019731F0809141032D
:100B000090914203089751F4E0914605F091470512
:100B10008091C600EC5BFC4F80838AC0C19915C0F0
:100B20008091C00084FD11C08091C00082FD0DC085
:100B3000809148059091490520914A0530914B05D7
:100B4000820F931F8130924020F1E0914605F09191
:100B500047058091C600EC5BFC4F80838091460581
:100B60009091470520914A0530914B05821B930BCC
:100B70009170909347058093460510924B05109213
:100B80004A0581E090E09093420380934103C19A2B
:100B90004FC0E0914605F09147058091C600EC5B9F
:100BA000FC4F80838091410390914203029769F545
:100BB000E0914605F0914705EC5BFC4F2081809168
:100BC0004303022E000C330B90E028173907B1F4D1
:100BD0008091460590914705019691709093470545
:100BE0008093460580914A0590914B05019690931C
:100BF0004B0580934A0584E090E002C081E090E0DC
:100C0000909342038093410313C0809146059091D5
:100C10004705019691709093470580934605809112
:100C20004A0590914B05019690934B0580934A0598
:100C3000FF91EF919F918F913F912F910F900BBE5C
:100C40000F900FBE0F901F9018951F920F920FB626
:100C50000F9211240BB60F928F939F93EF93FF93F4
:100C600080914E06882399F0E0914C06F0E0E45B19
:100C7000FA4F80818093C60080914C068F5F8093ED
:100C80004C0680914E06815080934E0616C080918E
:100C9000C1008F7D8093C100289AC19A109295005F
:100CA000109294008091910082608093910081E085
:100CB00090E09093420380934103FF91EF919F91C5
:100CC0008F910F900BBE0F900FBE0F901F90189535
:100CD00010925208109253081092540810924F0725
:100CE000109250071092510782E08093CD0088E067
:100CF0008093CC00E8ECF0E0808182608083E9ECB6
:100D0000F0E0808188698083EAECF0E08081866091
:100D100080830895A895EFEFF0E0262F30E0409112
:100D20005408DF01A41BB1092A173B07C4F7282F79
:100D3000FC018E2F821B861768F4A0915308B0E047
:100D40008191AE5AB84F8C93809153088F5F8093F6
:100D50005308EFCF80915408680F60935408809136
:100D6000C90085FD0AC08091C80080648093C800D6
:100D70008091C90080628093C900089580915107D5
:100D80000895A895209151072617E0F3282FFC011C
:100D90008E2F821B861768F4A0914F07B0E0A15BED
:100DA000B94F8C91819380914F078F5F80934F074C
:100DB000EFCF80915107861B8093510708951092C1
:100DC0005408109252081092530808951092510737
:100DD00010924F071092500708951F920F920FB66E
:100DE0000F9211240BB60F928F93EF93FF93809184
:100DF00051078F3F91F0E0915007F0E08091CE00D5
:100E0000E15BF94F8083809150078F5F809350079B
:100E1000809151078F5F80935107FF91EF918F91E0
:100E20000F900BBE0F900FBE0F901F9018951F9242
:100E30000F920FB60F9211240BB60F928F93EF9370
:100E4000FF9380915408882399F0E0915208F0E0D4
:100E5000EE5AF84F80818093CE00809152088F5FC8
:100E6000809352088091540881508093540805C0A3
:100E70008091C9008F7D8093C900FF91EF918F9180
:100E80000F900BBE0F900FBE0F901F90189587B15B
:100E90008F7087B988B18F7088B98AB1806A8AB932
:100EA0005D985F9A0895AF92BF92CF92DF92FF92C2
:100EB0000F931F93CF93DF935C01EBB1EF75EBB909
:100EC00083E08A95F1F700005D9AA3E0AA95F1F717
:100ED00000005D98B3E0BA95F1F700005D9AE3E099
:100EE000EA95F1F70000ADE0FA2EC12CD12CA0E07C
:100EF000B0E0C0E0D0E000E010E05D98F3E0FA95EB
:100F0000F1F700005D9A000F111FCC0FDD1FAA0F33
:100F1000BB1FCC0CDD1C349901603599C16036993A
:100F2000A160379B02C06894C0F8FA94F110E5CF35
:100F30005F9A1F70F50111830083DF70FB01D1837D
:100F4000C083BF70FA01B183A083F601FF70D9019D
:100F5000ED93FC93DF91CF911F910F91FF90DF9064
:100F6000CF90BF90AF900895EAEFF0E142815381B6
:100F700064817581268180810C941F04AF92BF9299
:100F8000CF92DF92EF92FF920F931F93CF93DF9355
:100F9000CDB7DEB7DA950FB6F894DEBF0FBECDBF82
:100FA0000E94EC04882309F4F1C162E0CE010196AD
:100FB0000E94F1048A81843009F46DC01CF48330EE
:100FC00041F0C9C1863009F4DDC0803109F415C192
:100FD000C2C10E94EC04863008F453C166E0CE0121
:100FE00003960E94F1049E01265F3F4FAE01475FCA
:100FF0005F4F66E0CE0101960E94D7099F818985E7
:1010000098133FC198858A8598133BC18B81809343
:1010100056088C8180935508A0905508B0905608CA
:101020008D81809356088E8180935508C090550815
:10103000D09056080C2D000F0B8313E0E12CF12CFF
:10104000EC14FD0409F488C065E578E0C7018A0D59
:101050009B1D0E945F0B813029F48091FA108983D7
:1010600083E858C1E1E0F0E0EC0FFD1FE10FF11D56
:1010700080915608808381E0810FE1E0F0E0EC0F81
:10108000FD1FE80FF11D1E5F8091550880838FEFD3
:10109000E81AF80AD5CF0E94EC04863008F4F1C0B3
:1010A00066E0CE0103960E94F1049E01265F3F4F49
:1010B000AE01475F5F4F66E0CE0101960E94D709FF
:1010C0009F8189859813DDC098858A859813D9C03A
:1010D0008B81809356088C8180935508A090550889
:1010E000B09056088D81809356088E818093550864
:1010F000C0905508D09056080C2D000F0B8313E0BC
:10110000E12CF12CEC14FD0439F165E578E0C70120
:101110008A0D9B1D0E945F0B813029F48091FA108B
:10112000898384E8F7C0E1E0F0E0EC0FFD1FE10FF8
:10113000F11D80915608808381E0810FE1E0F0E0AD
:10114000EC0FFD1FE80FF11D1E5F80915508808395
:101150009FEFE91AF90AD6CF412F50E09A012F5F8D
:101160003F4F81E090E08C0F9D1F280F391F480FE3
:10117000591F63E0600FCE0101960E94D70965E018
:10118000600FE4C00E94EC04863008F47AC066E088
:10119000CE0103960E94F1049E01265F3F4FAE01EF
:1011A000475F5F4F66E0CE0101960E94D7099F819D
:1011B0008985981366C098858A85981362C08B814B
:1011C000809356088C8180935508809155089091A2
:1011D00056082D81209356082E8120935508609142
:1011E0005508709156080E944F0F813009F0ADC02C
:1011F0008091FA10898386E88DC00E94EC048530C6
:1012000008F43FC065E0CE0103960E94F1040F810F
:10121000002E000C110B0F5F1F4F0E94EC0490E09A
:101220000817190774F56F816E5FCE0108960E944A
:10123000F1046F81695F9E013395AE0141505F4FAC
:10124000CE0101960E94D7098F81082E000C990BC0
:10125000E8E0F0E0EC0FFD1FE80FF91F3081C1500E
:10126000DF4F2881CF5FD04032130BC0FE01E80F63
:10127000F91F9185C050DF4F8881C050D140981729
:1012800041F00E94EC04682FCE0101960E94F10407
:101290007DC08B81809356088C8180935508C090C7
:1012A0005508D09056088D81809356088E81809382
:1012B0005508E0905508F090560800E010E002C094
:1012C0000F5F1F4F802F880F895F0E151F0591F14B
:1012D00090E0E1E0F0E0EC0FFD1FE80FF91F208146
:1012E00020935608E2E0F0E0EC0FFD1FE80FF91F35
:1012F0008081809355086091550870915608C80107
:101300008C0D9D1D0E944F0F8130D1F68091FA10F7
:10131000898380E98A8382E08B839E012B5F3F4F24
:10132000AE014C5F5F4F63E0CE0101960E94D7098A
:1013300065E00CC09E01285F3F4FAE01495F5F4FE3
:1013400066E0CE0101960E94D70968E0CE010196C1
:101350000E94AB041BC09091FA10998380688A8325
:1013600081E08B839E012B5F3F4FAE014C5F5F4F4F
:1013700063E0CE0101960E94D70965E0CE01019697
:101380000E94AB040E94EC048111FCCFD3950FB6F0
:10139000F894DEBF0FBECDBFDF91CF911F910F91AB
:1013A000FF90EF90DF90CF90BF90AF900895CF93D4
:1013B000DF93DA01E9012FEF28832C939C01615020
:1013C000B0F0F90181919F019C91E82FE9274E2F00
:1013D00050E0CA0180509E4FFC018081988198277F
:1013E0009C93FA01E050FF4F80818883E8CFDF9122
:1013F000CF9108954CE658E06AEF70E180E090E00C
:101400000E94E301FFCF4CE658E06AEF70E180E014
:1014100090E00C948E011092E7101092E61010925A
:10142000E9101092E8101092EB101092EA1010924E
:10143000ED101092EC101092EF101092EE1010922E
:10144000F1101092F0101092F3101092F21010920E
:10145000F5101092F4101092F7101092F6101092EE
:10146000F9101092F8101092D5101092D41010921A
:10147000D6101092D7101092D8101092D910109246
:10148000DB101092DA101092DD101092DC10109226
:10149000DF101092DE101092E0101092E110109206
:1014A000E2101092E3101092FB101092FA101092BA
:1014B000FC101092FD101092FE101092FF1010926E
:1014C000011110920011109203111092021110924A
:1014D000051110920411109207111092061110922A
:1014E00009111092081110920B1110920A1110920A
:1014F0000D1110920C1110920F1110920E111092EA
:1015000011111092101110921311109212111092C9
:1015100015111092141110921711109216111092A9
:1015200019111092181110921B1110921A11109289
:101530001D1110921C1110921F1110921E11109269
:101540002111109220111092231110922211109249
:101550002511109224111092261110922711109229
:1015600028111092291110922A1110922B11109209
:101570002C1110922D1110922E1110922F111092E9
:1015800030111092311110923211109233111092C9
:1015900034111092351110923611109237111092A9
:1015A00038111092391110923A1110923B11109289
:1015B0003C1110923D1110923E1110923F11109269
:1015C0004011109241111092421110924311109249
:1015D0004411109245111092461110924711109229
:1015E00048111092491110924A1110924B11109209
:1015F0004C1110924D1110924E1110924F111092E9
:1016000050111092511110925211109253111092C8
:1016100054111092551110925611109257111092A8
:1016200058111092591110925A1110925B11109288
:101630005C1110925D1180E091E09093E510809331
:10164000E4100E94030AE091E410F091E5108F3F4E
:1016500011F4F0682FC0209126113091271140918C
:1016600028115091291160912A1170912B118091AC
:101670002C1190912D11203432444F4051056105B9
:10168000710581059105A1F098F080E48093261101
:1016900082E4809327118FE0809328111092291102
:1016A00010922A1110922B1110922C1110922D11C0
:1016B000FE7FF260F093E510E093E41008950F933D
:1016C000FB018E332EE9920709F46CC208F0D8C0F2
:1016D000883B2CE9920709F4F0C108F063C08A3214
:1016E00026E7920709F414C280F58D3F25E792079B
:1016F00009F4F6C1A0F4893F25E7920709F4E2C195
:101700008A3F45E7940709F4E6C1883F25E7920739
:1017100009F0ABC38091D4109091D510B9C38F3F1D
:1017200045E7940709F4E6C108F4DFC1811546E7EF
:10173000940709F4E4C1813026E7920709F095C3C4
:101740008091E0109091E110A3C3873A4CE994078F
:1017500009F49FC188F4853A4CE9940709F48FC1D4
:1017600008F092C1843A4CE9940709F07EC3809155
:10177000E6109091E7108CC3893A2CE9920709F49E
:1017800092C108F48BC18E3A2CE9920709F490C1FA
:101790008F3A4CE9940709F068C38091F410909156
:1017A000F51076C384332EE9920709F4D3C1B0F55E
:1017B0008E362DE9920709F4BEC188F48C362DE9E6
:1017C000920709F4AAC108F0ADC1863D2CE9920741
:1017D00009F04BC38091F8109091F91059C3803DE6
:1017E0004DE9940709F4ACC150F48F364DE99407E4
:1017F00009F03BC3809100119091011149C3813DD3
:101800002DE9920709F4A1C1823D4DE9940709F041
:101810002CC380910611909107113AC389332EE9A8
:10182000920709F4ABC1B0F486332EE9920709F4AC
:101830009BC108F494C187332EE9920709F499C13A
:1018400088334EE9940709F010C3809110119091EC
:1018500011111EC38B332EE9920709F499C108F4C4
:1018600092C18C332EE9920709F497C18D334EE96A
:10187000940709F0FAC280911A1190911B1108C3C4
:10188000893A2EE9920709F434C208F073C0803A0D
:101890002EE9920709F4CDC168F58B392EE992073C
:1018A00009F48FC188F489392EE9920709F47FC1C0
:1018B00008F082C188392EE9920709F0D6C28091DA
:1018C0001E1190911F11E4C28D394EE9940709F45D
:1018D0008EC108F47BC18E394EE9940709F498C192
:1018E0008F392EE9920709F0C0C28091261190919C
:1018F0002711CEC2843A4EE9940709F4C2C1C0F45C
:10190000823A4EE9940709F4A6C108F0B5C12091C6
:101910002E1130912F114091301150913111609161
:10192000321170913311809134119091351177C239
:10193000863A4EE9940709F4C6C108F4B3C1873A60
:101940004EE9940709F4D0C1883A2EE9920709F0CC
:101950008CC220913E1130913F1140914011509125
:101960004111609142117091431180914411909105
:1019700045116FC1823B4EE9940709F419C208F082
:1019800040C08D3A4EE9940709F4DAC1C0F48B3AAD
:101990004EE9940709F4BEC108F0C1C120913E117F
:1019A00030913F114091401150914111609142118D
:1019B00070914311809144119091451132C28F3A38
:1019C0004EE9940709F4DEC108F4CBC1803B4EE92F
:1019D000940709F4DCC1813B2EE9920709F045C266
:1019E00020914E1130914F11409150115091511151
:1019F0006091521170915311809154119091551131
:101A00000EC2873B4EE9940709F411C210F5843BDE
:101A10004EE9940709F4E2C108F4DBC1853B4EE9C5
:101A2000940709F4ECC1863B2EE9920709F01DC228
:101A300020915611309157114091581150915911E0
:101A400060915A1170915B1180915C1190915D11C0
:101A5000E8C1893B4EE9940709F4F7C108F4ECC1E9
:101A60008A3B4EE9940709F4F5C18B3B2EE99207B6
:101A700009F0FBC1809162119091631109C28091BC
:101A8000E8109091E91004C28091EA109091EB1057
:101A9000FFC18091EC109091ED10FAC18091EE1091
:101AA0009091EF10F5C18091F0109091F110F0C17C
:101AB0008091F2109091F310EBC18091F61090910B
:101AC000F710E6C18091D6109091D710A091D81050
:101AD000B091D910C7C18091D6109091D710D8C1BC
:101AE0008091DA109091DB10D3C18091DC1090913D
:101AF000DD10CEC18091DE109091DF10C9C18091C0
:101B0000E0109091E110A091E210B091E310AAC111
:101B10008091E4109091E510BBC18091FA109091F2
:101B2000FB10B6C18091FC109091FD10A091FE10A9
:101B3000B091FF1097C18091FC109091FD10A8C149
:101B40008091021190910311A3C180910411909191
:101B500005119EC1809108119091091199C1809140
:101B60000A1190910B1194C180910C1190910D115B
:101B70008FC180910E1190910F118AC18091121125
:101B80009091131185C1809114119091151180C10C
:101B900080911611909117117BC18091181190912D
:101BA000191176C180911C1190911D1171C1809104
:101BB0002011909121116CC18091221190912311DB
:101BC00067C1809124119091251162C12091261145
:101BD00030912711409128115091291160912A11BB
:101BE00070912B1180912C1190912D1132C0209168
:101BF000261130912711409128115091291160919F
:101C00002A1170912B1180912C1190912D1107C1E7
:101C100020912611309127114091281150912911BE
:101C200060912A1170912B1180912C1190912D119E
:101C3000F8C020912E1130912F1140913011509108
:101C40003111609132117091331180913411909162
:101C5000351100E3E7C020912E1130912F114091F2
:101C60003011509131116091321170913311809186
:101C7000341190913511D5C080912E1190912F1172
:101C800007C1209136113091371140913811509190
:101C9000391160913A1170913B1180913C119091F2
:101CA0003D11D7CF20913611309137114091381125
:101CB0005091391160913A1170913B1180913C1112
:101CC00090913D11ACC02091361130913711409167
:101CD00038115091391160913A1170913B118091F6
:101CE0003C1190913D119DC080913611909137111A
:101CF000CFC020913E1130913F1140914011509141
:101D00004111609142117091431180914411909161
:101D1000451185C080913E1190913F11B9C020912D
:101D200046113091471140914811509149116091ED
:101D30004A1170914B1180914C1190914D1189CFA6
:101D4000209146113091471140914811509149110D
:101D500060914A1170914B1180914C1190914D11ED
:101D60005EC0209146113091471140914811509129
:101D7000491160914A1170914B1180914C119091D1
:101D80004D114FC0809146119091471181C0209113
:101D90004E1130914F11409150115091511160915D
:101DA000521170915311809154119091551151CF4E
:101DB00020914E1130914F1140915011509151117D
:101DC000609152117091531180915411909155115D
:101DD00028C080914E1190914F115AC020915611F8
:101DE00030915711409158115091591160915A11E9
:101DF00070915B1180915C1190915D112ACF2091BF
:101E000056113091571140915811509159116091CC
:101E10005A1170915B1180915C1190915D1100E2FB
:101E200001C000E10E94B9232083318333C0809137
:101E30005611909157112CC080915E1190915F11B5
:101E4000A0916011B09161110DC080915E119091CF
:101E50005F111EC08091621190916311A091641175
:101E6000B0916511B183A08315C09C012852304AFE
:101E70002115384088F4A0E0B0E08852904AA109CA
:101E8000B10986509F4EDC01A459BF4F8C9190E060
:101E90009183808380E001C081E00F9108952F92AB
:101EA0003F924F925F926F927F928F929F92AF92EA
:101EB000BF92CF92DF92EF92FF920F931F93CF9337
:101EC000DF93CDB7DEB7A4970FB6F894DEBF0FBE91
:101ED000CDBF8B390EE9900709F48CC408F099C086
:101EE000813D2DE9920709F4D3C308F04DC08F3A24
:101EF0004CE9940709F4A4C110F5873AACE99A07B4
:101F000009F44EC170F4853AECE99E0709F416C154
:101F100008F02BC1843A0CE9900709F4FAC00C943C
:101F2000DE17893A1CE9910709F454C108F445C148
:101F30008E3A3CE9930709F45CC10C94DE178D36A8
:101F40004DE9940709F44BC388F4863DACE99A0740
:101F500009F424C38C36BDE99B0709F42EC3883BE2
:101F6000ECE99E0711F00C94DE177EC18F36FDE977
:101F70009F0709F46DC308F44AC3803D1DE991072A
:101F800009F476C30C94DE178A332EE9920709F41C
:101F9000DAC300F586334EE9940709F4ADC370F453
:101FA0008433AEE99A0709F48FC308F099C3823DE0
:101FB000EDE99E0709F478C30C94DE172091F21026
:101FC0003091F3108833FEE99F0709F4AAC308F49F
:101FD0009FC3B0C38E331EE9910709F4DBC360F4DD
:101FE0002091F2103091F3108C334EE9940709F4EC
:101FF000BFC308F4B4C3C5C38939AEE99A0709F46D
:10200000E1C308F0EBC38839EEE99E0709F4CEC3BB
:10201000D5C78B3AFEE99F0709F4DAC5B0F54091C0
:10202000F2105091F310833A1EE9910709F4DAC4D3
:10203000B0F48F393EE9930709F459C440F48D395F
:10204000BEE99B0709F403C408F4E0C31FC4813A46
:10205000FEE99F0709F476C408F453C492C4873A92
:102060001EE9910709F439C540F4853A3EE9930722
:1020700009F4E3C408F4C0C4FFC4893ABEE99B076D
:1020800009F456C508F433C572C5833BFEE99F07C2
:1020900009F497C6D0F44091F2105091F3108F3AA2
:1020A0001EE9910709F412C640F48D3A3EE9930700
:1020B00009F4BCC508F499C5D8C5813BBEE99B07A6
:1020C00009F42FC608F40CC64BC6873BFEE99F07F0
:1020D00009F4F5C660F42091F2103091F310853BBD
:1020E0001EE9910709F49BC608F478C6B7C6893B78
:1020F0005EE9950709F408C708F4EEC68A3BBEE915
:102100009B0709F422C78B3BEEE99E0709F435C70C
:1021100055C78091F2109091F310892B41F46130F2
:10212000710529F47093E7106093E61010C08FEFEB
:102130009FEF9093E7108093E61009C06536710514
:1021400044F084E690E09093E9108093E81080E0FA
:1021500049C76C39FFEF7F071CF48CE99FEFF3CF81
:102160007093E9106093E810F2CF7093EB106093D6
:10217000EA108091F0109091F110019729F480916C
:1021800020119091211104C080911E1190911F1176
:1021900086179707E0F69093EB108093EA10D7CF5D
:1021A0006130710529F47093ED106093EC10CFCF7E
:1021B0001092ED101092EC10CACF6130710529F425
:1021C0007093EF106093EE10C2CF1092EF10109248
:1021D000EE10BDCF6130710539F481E090E090934D
:1021E000F1108093F010B3CF1092F1101092F01014
:1021F000AECF8091F2109091F310009771F461309E
:102200007105C9F48FEF9FEF9093E7108093E6106C
:102210007093F3106093F2109ACF019761F46130DC
:10222000710549F08091F4109091F510019719F41F
:102230000E94FA098CCF1092F3101092F21087CFFF
:102240008091F2109091F310019709F080CF6130E6
:10225000710529F47093F5106093F41078CF109203
:10226000F5101092F41073CF8091F2109091F3104A
:10227000019709F06CCF6130710509F068CF60916A
:1022800008117091091180E090E00E94C5242DECA6
:102290003CEE43EF54E40E94632520E030E040E050
:1022A0005AE30E9463250E948E2419014B875C87A4
:1022B0006D877E878F87988B60910E1170910F11BB
:1022C00080E090E00E94C52420E030E045EB54E43B
:1022D0000E94632520E030E040E85AE30E94632535
:1022E0000E948E2459016A017B01E82F192F04E016
:1022F0000E949E230E2F0E94EA2349013A01B62F25
:10230000A72FF82FE92F04E00E949E2359016A01AC
:102310007B018C019401A3016B2F7A2F8F2F9E2FAD
:102320000E94D5235101CB84DC84ED84FE840F858B
:1023300018890E94FA22298B3A8B4B8B5B8F6C8F0A
:102340007D8F8E8F9F8F809112119091131165E078
:10235000969587956A95E1F78C0120E030E040E0A2
:1023600050E0BA0189831A832B833C834D835E83BB
:102370006F83788726E631E13A872987612C712CB3
:10238000812C912C19A218A2412C512CA980BA8021
:10239000CB80DC80ED80FE800F8118859301A40145
:1023A00069A178A1C2010E94FA22E22F2F3F3105D4
:1023B00041055105610571058105910511F008F090
:1023C000EFEFA985BA85ED93BA87A9879301A40198
:1023D00069A178A1C201A988BA88CB88DB8CEC8C72
:1023E000FD8C0E8D1F8D0E94D52339014A0169A3F2
:1023F00078A32C01A656B94149F66091101170914D
:10240000111180E090E00E94C52420E030EC4DEDF9
:1024100054E40E94632520E030E040E85AE30E9443
:1024200063250E948E2459016A017B01E82F192F30
:1024300004E00E949E230E2F0E94EA2349013A01E4
:10244000B62FA72FF82FE92F04E00E949E235901F1
:102450006A017B018C019401A3016B2F7A2F8F2FCE
:102460009E2F0E94D5235101CB84DC84ED84FE8411
:102470000F8518890E94FA222B873C874D875E873B
:102480006F87788B898B9A8B80911411909115119D
:102490001C0155E0369427945A95E1F7F101EA5969
:1024A000FE4E208130E040E050E060E070E080E0EF
:1024B00090E0AB84BC84CD84DE84EF84F888098905
:1024C0001A890E94EA232B8F3C8F4D8F5E8F6F8F6E
:1024D00078A389A39AA3612C712C812C912C198249
:1024E0001986412C512C1CA21BA2810120E030E056
:1024F00040E050E0BA012B8A1C8B2D8B3E8B4F8B1A
:10250000588F698F7A8FAB88BC88C12CD12CE12C75
:10251000F12C00E010E09301A40169817985C201EA
:102520000E94FA22AB84BC84CD84DE84EF84F888D8
:1025300009891A890E94D523EBA1FCA1EA59FE4E14
:10254000A22F2F3F31054105510561057105810518
:10255000910511F008F0AFEFA0832BA13CA12F5FF4
:102560003F4F3CA32BA39301A40169817985C2014C
:10257000AB8CBC8CCD8CDE8CEF8CF8A009A11AA1A1
:102580000E94D52339014A01698379872C014BA127
:102590005CA12416350608F0B6CFD9CD8091F21093
:1025A0009091F310019721F46130710509F4FFCF88
:1025B0001092F9101092F810CACD8091F2109091FB
:1025C000F310019709F0C3CDCB010197873F910527
:1025D00008F0BDCD7093FB106093FA10B8CD8091D8
:1025E000F2109091F310019709F0B1CDCB01A0E06A
:1025F000B0E0DC01992788274091FC105091FD1034
:102600006091FE107091FF106627772714C08091AB
:10261000F2109091F310019709F099CDCB01A0E051
:10262000B0E04091FC105091FD106091FE1070914F
:10263000FF1044275527842B952BA62BB72B80936F
:10264000FC109093FD10A093FE10B093FF107FCD6F
:102650008091F2109091F310019709F078CD6330DA
:10266000710508F074CD70930111609300116FCD66
:102670008091F2109091F310019709F068CD6530C8
:10268000710508F064CD70930311609302115FCD62
:102690008091F2109091F310019709F058CD70934A
:1026A00005116093041153CD8091F2109091F310B5
:1026B000019709F04CCD6430710508F048CD709356
:1026C00007116093061143CD8091F2109091F310A1
:1026D000019709F03CCD709309116093081137CD33
:1026E0008091F2109091F310019709F030CD709322
:1026F0000B1160930A112BCD8091F2109091F31081
:10270000019709F024CD70930D1160930C111FCD2A
:102710002130310509F01BCD70930F1160930E111C
:1027200016CD2130310509F012CD7093111160934F
:1027300010110DCD2130310509F009CD7093131121
:102740006093121104CD8091F2109091F3100197D3
:1027500009F0FDCC7093151160931411F8CC213061
:10276000310509F0F4CC7093171160931611EFCC7A
:102770002130310509F0EBCC7093191160931811D9
:10278000E6CC2130310509F0E2CC70931B11609347
:102790001A11DDCC8091F2109091F310019709F09D
:1027A000D6CC70931D1160931C11D1CC8091F21086
:1027B0009091F310019709F0CACC70931F116093A8
:1027C0001E11C5CC8091F2109091F310019709F081
:1027D000BECC7093211160932011B9CC8091F2107E
:1027E0009091F310019709F0B2CC7093231160938C
:1027F0002211ADCC8091F2109091F310019709F065
:10280000A6CC7093251160932411A1CC41305105C1
:1028100009F09DCC9B0140E050E060E070E080E07A
:1028200090E000E30E949E23009126111091271151
:10283000B0912811A0912911F0912A11E0912B114A
:10284000202B312B4B2B5A2B6F2B7E2B3FC0413033
:10285000510509F07CCC9B0140E050E060E070E065
:1028600080E090E000E20E949E23009126111091EA
:102870002711B0912811A0912911F0912C11E0910C
:102880002D11202B312B4B2B5A2B1EC041305105C3
:1028900009F05DCC9B0140E050E060E070E080E03A
:1028A00090E000E10E949E230091261110912711D3
:1028B000B0912A11A0912B11F0912C11E0912D11C2
:1028C000202B312B6B2B7A2B8F2B9E2B20932611B9
:1028D00030932711409328115093291160932A11A6
:1028E00070932B1180932C1190932D1130CC41308B
:1028F000510509F02CCC4B016093261190922711C1
:1029000026CC4130510509F022CC9B0140E050E03B
:1029100060E070E080E090E000E30E949E23009180
:102920002E1110912F11B0913011A0913111F09111
:102930003211E0913311202B312B4B2B5A2B6F2B63
:102940007E2B3FC04130510509F001CC9B0140E096
:1029500050E060E070E080E090E000E20E949E23A2
:1029600000912E1110912F11B0913011A0913111C1
:10297000F0913411E0913511202B312B4B2B5A2B38
:102980001EC04130510509F0E2CB9B0140E050E010
:1029900060E070E080E090E000E10E949E23009102
:1029A0002E1110912F11B0913211A0913311F0918D
:1029B0003411E0913511202B312B6B2B7A2B8F2B7F
:1029C0009E2B20932E1130932F1140933011509352
:1029D00031116093321170933311809334119093BD
:1029E0003511B5CB4130510509F0B1CB4B016093A6
:1029F0002E1190922F11ABCB4130510509F0A7CB8E
:102A00009B0140E050E060E070E080E090E000E397
:102A10000E949E230091361110913711B091381108
:102A2000A0913911F0913A11E0913B11202B312BFB
:102A30004B2B5A2B6F2B7E2B3FC04130510509F099
:102A400086CB9B0140E050E060E070E080E090E0E9
:102A500000E20E949E230091361110913711B0912F
:102A60003811A0913911F0913C11E0913D11202BCA
:102A7000312B4B2B5A2B1EC04130510509F067CB2F
:102A80009B0140E050E060E070E080E090E000E119
:102A90000E949E230091361110913711B0913A1186
:102AA000A0913B11F0913C11E0913D11202B312B75
:102AB0006B2B7A2B8F2B9E2B209336113093371153
:102AC000409338115093391160933A1170933B1130
:102AD00080933C1190933D113ACB4130510509F060
:102AE00036CB4B01609336119092371130CB413089
:102AF000510509F02CCB9B0140E050E060E070E014
:102B000080E090E000E30E949E2300913E1110912E
:102B10003F11B0914011A0914111F0914211E0910B
:102B20004311202B312B4B2B5A2B6F2B7E2B3FC06D
:102B30004130510509F00BCB9B0140E050E060E0D3
:102B400070E080E090E000E20E949E2300913E1140
:102B500010913F11B0914011A0914111F091441199
:102B6000E0914511202B312B4B2B5A2B1EC04130AD
:102B7000510509F0ECCA9B0140E050E060E070E0D4
:102B800080E090E000E10E949E2300913E111091B0
:102B90003F11B0914211A0914311F0914411E09185
:102BA0004511202B312B6B2B7A2B8F2B9E2B2093B7
:102BB0003E1130933F114093401150934111609367
:102BC0004211709343118093441190934511BFCAF1
:102BD0008091F2109091F310019709F0B8CA4B015F
:102BE00060933E1190923F11B2CA4130510509F0F5
:102BF000AECA9B0140E050E060E070E080E090E011
:102C000000E30E949E230091461110914711B0915C
:102C10004811A0914911F0914A11E0914B11202BDC
:102C2000312B4B2B5A2B6F2B7E2B3FC04130510544
:102C300009F08DCA9B0140E050E060E070E080E068
:102C400090E000E20E949E230091461110914711EE
:102C5000B0914811A0914911F0914C11E0914D11A2
:102C6000202B312B4B2B5A2B1EC04130510509F024
:102C70006ECA9B0140E050E060E070E080E090E0D0
:102C800000E10E949E230091461110914711B091DE
:102C90004A11A0914B11F0914C11E0914D11202B54
:102CA000312B6B2B7A2B8F2B9E2B2093461130933D
:102CB0004711409348115093491160934A11709302
:102CC0004B1180934C1190934D1141CA41305105E5
:102CD00009F03DCA4B01609346119092471137CAE3
:102CE0004130510509F033CA9B0140E050E060E0FB
:102CF00070E080E090E000E30E949E2300914E117E
:102D000010914F11B0915011A0915111F0915211A9
:102D1000E0915311202B312B4B2B5A2B6F2B7E2BF9
:102D20003FC04130510509F012CA9B0140E050E01C
:102D300060E070E080E090E000E20E949E2300915D
:102D40004E1110914F11B0915011A0915111F0916D
:102D50005411E0915511202B312B4B2B5A2B1EC0B7
:102D60004130510509F0F3C99B0140E050E060E0BB
:102D700070E080E090E000E10E949E2300914E11FF
:102D800010914F11B0915211A0915311F091541123
:102D9000E0915511202B312B6B2B7A2B8F2B9E2BF7
:102DA00020934E1130934F11409350115093511175
:102DB0006093521170935311809354119093551155
:102DC000C6C98091F2109091F310019709F0BFC924
:102DD0004B0160934E1190924F11B9C921303105CA
:102DE00009F0B5C99B0140E050E060E070E080E090
:102DF00090E000E30E949E2300915611109157111C
:102E0000B0915811A0915911F0915A11E0915B11B4
:102E1000202B312B4B2B5A2B6F2B7E2B3FC021307D
:102E2000310509F094C99B0140E050E060E070E09A
:102E300080E090E000E20E949E23009156111091E4
:102E40005711B0915811A0915911F0915C11E09176
:102E50005D11202B312B4B2B5A2B1EC021303105FD
:102E600009F075C99B0140E050E060E070E080E04F
:102E700090E000E10E949E2300915611109157119D
:102E8000B0915A11A0915B11F0915C11E0915D112C
:102E9000202B312B6B2B7A2B8F2B9E2B20935611B3
:102EA00030935711409358115093591160935A1110
:102EB00070935B1180935C1190935D1148C9809170
:102EC000F2109091F310019709F041C94B01609302
:102ED0005611909257113BC98091F2109091F310C6
:102EE000019709F034C9CB01A0E0B0E0DC019927DB
:102EF000882740915E1150915F116091601170912F
:102F000061116627772714C08091F2109091F31019
:102F1000019709F01CC9CB01A0E0B0E040915E111F
:102F200050915F1160916011709161114427552794
:102F3000842B952BA62BB72B80935E1190935F115A
:102F4000A0936011B093611102C98091F210909129
:102F5000F310019709F0FBC8CB01A0E0B0E0BC0181
:102F6000552744278091621190916311A0916411BB
:102F7000B0916511AA27BB2714C08091F2109091DF
:102F8000F310019709F0E3C8AB0160E070E08091B5
:102F9000621190916311A0916411B091651188271D
:102FA0009927842B952BA62BB72B80936211909396
:102FB0006311A0936411B0936511C9C89C01285294
:102FC000304A2115384068F4A0E0B0E08852904AB9
:102FD000A109B10986509F4EFC01E459FF4F60835F
:102FE000B6C881E0A4960FB6F894DEBF0FBECDBF81
:102FF000DF91CF911F910F91FF90EF90DF90CF90D5
:10300000BF90AF909F908F907F906F905F904F9008
:103010003F902F9008950E946806109257080895D7
:103020002F923F924F925F926F927F928F929F92D8
:10303000AF92BF92CF92DF92EF92FF920F931F93C6
:10304000CF93DF93CDB7DEB765970FB6F894DEBFA9
:103050000FBECDBF0E94BE06882309F4D2C21A82D9
:1030600019820E94BE06882309F4CBC261E0CE011A
:1030700003960E94C1069B81923521F490935808D3
:1030800081E00DC080915708E82FF0E0E95AF74F32
:1030900091839A3019F48A3028F414C08F5F80939A
:1030A0005708DFCF20915808223561F42091590844
:1030B000253441F420915A08273421F420915B08EB
:1030C0002A3321F069E180E093E0B1C140915C08CE
:1030D000042E000C550B4053510920E137E2429F6A
:1030E000B001439F700D529F700D112440915D08F7
:1030F000042E000C550B40535109E8EEF3E04E9FAF
:1031000090014F9F300D5E9F300D1124260F371F09
:1031100040916008240F311D47FD3A9540915E08AB
:10312000042E000C550B40535109E4E6E49FB00116
:10313000E59F700D1124A901460F571F20915F08CC
:10314000022E000C330B20533109929FB001939F44
:10315000700D11243A01660E771E230120E3421AF6
:103160005108815080935708E82FF0E0E95AF74F53
:1031700091819F3309F05EC1BE016F5F7F4FC20135
:103180000E945F0B882349F14114510479F40CE843
:1031900010E0F80184918B830F5F1F4F8823D1F0DB
:1031A00061E0CE0103960E948A06F3CFF8E24F1643
:1031B000F8EA5F0679F406E611E1F80181918F01E2
:1031C0008B8361E0CE0103960E948A06F9E1063600
:1031D0001F0799F71092570814C229EF421625E7E6
:1031E000520671F0411486E7580651F09DE64916E3
:1031F0009DE9590629F0C3018D7F883E9E49A1F5BE
:103200003A812981932F990F990B492F592F692FB3
:10321000792F892F00E10E949E237B018C01BE0142
:103220006F5F7F4FC3018F972A8B3D8B4B8B5C8BDE
:103230000E945F0BFA81A981EF2FEE0FEE0B2A8916
:10324000222E2A2A3D89332E3F2A4B89442E4E2A8C
:103250005C89552E5E2A6E2C6E2A7F2C7E2A802E4B
:103260008E2A912E9E2A87C029803A80C3018F7EA4
:103270008C3C9E4979F0C3018B7F803D2EE99207FB
:1032800049F0E8EA4E16EEE95E0621F0803E9E49DE
:1032900009F06CC0910140E050E060E070E080E037
:1032A00090E000E30E949E23822EA32ED42EE52ED2
:1032B000B62EC72EF82E192FBE016F5F7F4FC301A8
:1032C0008F970E945F0B49815A819A0140E050E03C
:1032D00060E070E080E090E000E20E949E23822A9D
:1032E0009A2C932AD42AE52AB62ABC82C72ACD82F0
:1032F000F82A192BBE016F5F7F4FC3018E970E9482
:103300005F0B49815A819A0140E050E060E070E033
:1033100080E090E000E10E949E23A22E4E83588719
:103320006987B72EC82E092FBE016F5F7F4FC3017B
:103330008D973D8B0E945F0B89819A81AC01282D6E
:10334000282B892D852B222E2A283D89382E332A99
:103350004E804D2858845E286C802985622A7D80A5
:103360007B288F2C8C28912E902A05C0412C512C23
:10337000612C712C43018AE0809377089101A201AE
:10338000B301C401A0E00E94FC234CF40E94572327
:1033900019012A013B014C018DE28D8302C090E2AC
:1033A0009D83BEE1FFEFFB0FFC839101A201B301FE
:1033B000C401A9E0EB2FF0E00E94FC2329F124F1E5
:1033C000CF01895A974F9F838E838AE0A82EB12C14
:1033D000C12CD12CE12CF12C00E010E09101A201D4
:1033E000B301C4010E94C722205DEE81FF812183C9
:1033F0009101A201B301C4010E94C92219012A014D
:103400003B014C01BC81CECF2C8120935708E95A57
:10341000F74F80E3820D8183822F90E0FC01E95A0F
:10342000F74F2D81218361E26B1B885A974F0E94D1
:103430008A06D0CEE1E0E9871A861B861C861D86A7
:103440001E861F86188A812C912C1C821D821E824A
:103450001886212C312CE82FF0E0E95AF74FE18152
:10346000E03209F46CC09FEF980F998BED3289F42C
:103470008093570894014C815D816E817885C101EC
:103480000E94572349014C835D836E8378871C011A
:1034900058C00E2E000CFF0BF0979F2F990F990B21
:1034A000A984BA84CB84DC84ED84FE840F851889DA
:1034B0009F01492F592F692F792F892F0E9434227C
:1034C0005401CC80DD80EE80F88481010E94D523F8
:1034D00049014C835D836E8378871C0129853A8579
:1034E0004B855C856D857E858F85988901E00E947E
:1034F0009E2329873A874B875C87B62FA72FF82F03
:10350000E92F7A2F8F2F9E2F02E00E949E235901D0
:103510006A017B018C0129853A854B855C856B2F7F
:103520007A2F8F2F9E2F0E94D52329873A874B878A
:103530005C876D877E878F87988B89898CCF8093F6
:103540005708FDE64F16FDE95F0629F0C3018D7FA0
:10355000883E9E4989F494014C815D816E81788515
:10356000C10100E10E94B723B901C2010E944F0FBF
:10357000B401C3018F9742C0C3018F7E8C3C9E492A
:1035800071F0C3018B7F803DFEE99F0741F028EA7F
:1035900042162EE9520619F0803E9E4969F59401C3
:1035A0004C815D816E817885C10100E30E94B72363
:1035B000B901C2010E944F0F94014C815D816E815F
:1035C0007885C10100E20E94B723B901C3018F973A
:1035D0000E944F0F94014C815D816E817885C101FD
:1035E00000E10E94B723B901C3018E970E944F0FDB
:1035F000B401C3018D9702C0B401C2010E944F0FF4
:10360000E9CD65960FB6F894DEBF0FBECDBFDF9152
:10361000CF911F910F91FF90EF90DF90CF90BF90CF
:10362000AF909F908F907F906F905F904F903F9062
:103630002F9008950F931F93CF93DF93E8E7F8E05F
:1036400010821182128213821482158216821782CE
:10365000108611861286138614861586168617869E
:10366000E4EDF0E1808991899F7C918B808B82ECE5
:103670009CE00E94042180EB98E00E9404210E94BB
:103680005402CAEFD0E10CA51DA52EA53FA548A95F
:1036900059A96AA97BA988E898E00E947502E6E327
:1036A000F1E100811181228133814481558166815C
:1036B000778180E998E00E947502E6E4F1E10081FB
:1036C000118122813381448155816681778180EA2D
:1036D00098E00E947502E6E5F1E100811181228106
:1036E0003381448155816681778188EA98E00E9420
:1036F000750201E010E020E030E040E050E060E0E2
:1037000070E088E998E00E9475020E9447070E94D5
:1037100067000E947B00888599850E942A018C851C
:103720009D850E944701688589856F708F700E9412
:10373000320180E00E94130180E090E00E941A01B3
:10374000DF91CF911F910F910C947D002F923F92AA
:103750004F925F926F927F928F929F92AF92BF92A1
:10376000CF92DF92EF92FF920F931F93CF93DF934D
:10377000CDB7DEB7A1970FB6F894DEBF0FBECDBFB1
:103780004090D6105090D7106090D8107090D910FB
:10379000E091D410F091D510FB8BEA8BF09180086A
:1037A000FC8B209181082D8B309182083E8B4091BB
:1037B00083084F8B50918408588F60918508698FDA
:1037C000709186087A8F809187088B8FA301920170
:1037D000550F220B322FA90129833A834B835C8337
:1037E0009201A3016981762F862F962F02E00E9415
:1037F0009E2352016301E980FE2C0E2D1E2D0E9496
:10380000EA2359016A017B01E82F192F04E00E9485
:103810009E230E2F0E94EA2302E00E949E23520163
:103820006301E980FE2C0E2D1E2D0E94D52303E09E
:103830000E949E237901142FB52FF62FE72F6C01DC
:10384000A0E00E94FC2374F42150384F4F4F5F4F8B
:103850006F4F7F4F8F4F9F4F7901142FB52FF62F4A
:10386000E72F6C019701412F5B2F6F2F7E2FC60131
:103870000BE00E94B72349011A012B013C016A8920
:103880007B89AB0160E070E080E090E0DC0149837F
:103890005A836B837C838D839E83AF83B8879A0121
:1038A000AB0160E070E080E090E002E00E949E23C7
:1038B000A980BA80CB80DC80E12CF12C00E010E004
:1038C0000E94EA2359016A017B01E82F192F04E0C5
:1038D0000E949E230E2F0E94EA2302E00E949E2354
:1038E000A980BA80CB80DC80E12CF12C00E010E0D4
:1038F0000E94D52303E00E949E230CE00E94B72380
:10390000E091DA10F091DB10A5E0F695E795AA9525
:10391000E1F7EA59FE4EA080B12CC12CD12C00E079
:103920000E94342208E00E94B7232093DE103093D7
:10393000DF10C401092E000CAA0BBB0B8093E01012
:103940009093E110A093E210B093E31088E998E01F
:103950000E94EA022091E6103091E710211531050E
:1039600021F4882309F47EC06DC02130310509F0AF
:1039700063C01092E7101092E61000912E11109182
:103980002F1120913011309131114091321150910D
:103990003311609134117091351188E998E00E94DB
:1039A00075028091E4109091E51095FD5BC09D7FBC
:1039B00094629093E5108093E4101092780810922E
:1039C000790810927A0810927B0810927C08109265
:1039D0007D0810927E0810927F0810928008109245
:1039E0008108109282081092830810928408109225
:1039F000850810928608109287088091EC109091AB
:103A0000ED10019719F483E090E002C081E090E0AE
:103A10000E94050180E090E00E941A0180E00E946F
:103A200013010E947D0087E893E10197F1F700C040
:103A300000000E94790016C08FEF9FEF9093E7106F
:103A40008093E6108091E4109091E5109B7D926048
:103A50009093E5108093E4101092DB101092DA102E
:103A60000E947B008091E4109091E5108F7C9F7BF9
:103A70009093E5108093E4108091D4109091D5102C
:103A800020910C1130910D1182179307E0F42091D1
:103A90000A1130910B1128173907A8F4009156111B
:103AA00010915711209158113091591140915A118C
:103AB00050915B1160915C1170915D1188EA98E002
:103AC0000E94750214C088EA98E00E94EA022091E0
:103AD000E4103091E510811103C02061306403C00F
:103AE0003F7D216030683093E5102093E410809191
:103AF000E4109091E51094FD3AC04091E01050918F
:103B0000E1106091E2107091E31080911611909194
:103B10001711A0E0B0E0481759076A077B073CF58A
:103B20008091181190911911A0E0B0E0B095A09586
:103B3000909581959F4FAF4FBF4F84179507A6076C
:103B4000B707ACF40091461110914711209148112C
:103B50003091491140914A1150914B1160914C1193
:103B600070914D1180EA98E00E94750214C080EABD
:103B700098E00E94EA022091E4103091E510811152
:103B800003C02062306403C03F7D22603068309300
:103B9000E5102093E41080E998E00E94EA0288236F
:103BA00031F18091E4109091E51094FD20C02091B6
:103BB000EE103091EF1021303105C9F490619093EF
:103BC000E5108093E4100091361110913711209187
:103BD00038113091391140913A1150913B11609157
:103BE0003C1170913D1180E998E00E94750280912E
:103BF000E4109091E51095FF6BC1A091EA10B0918F
:103C0000EB10BB8BAA8B2091DA103091DB108091E6
:103C1000E8109091E910A217B30718F418161906C6
:103C2000ACF1009799F19C01092E000C440B550B47
:103C30001816190694F4609116117091171180E00E
:103C400090E00E948D22F4E6AF2EB12CC12CD12C35
:103C5000E12CF12C00E010E016C060911811709179
:103C6000191180E090E00E948D22ECE9AE2EBB2479
:103C7000BA94CC24CA94DD24DA94EE24EA94FF2486
:103C8000FA940FEF1FEF0E94C92208C020E030E035
:103C900040E050E060E070E080E090E054016101BD
:103CA000720183010E94EA23298339874A875B874F
:103CB0006C877D878E879F8720937808309379085B
:103CC00040937A0850937B0860937C0870937D083A
:103CD00080937E0890937F08A0908008B090810820
:103CE000C0908208D0908308E0908408F090850806
:103CF00000918608109187080E94D523922E39A33F
:103D000048A3452E562E672E782E892E20938008A4
:103D1000309381084093820850938308609384080D
:103D200070938508809386089093870830912311BB
:103D300020912211932F990F990BA980B984CA84DD
:103D4000DB84EC84FD840E851F85492F592F692F54
:103D5000792F892F0E9434221901488B598B6C8F3F
:103D60007D8F8E8F9F8F3091251120912411932F5D
:103D7000990F990BA92CB9A0C8A0D42CE52CF62C2E
:103D8000072D182D492F592F692F792F892F0E9420
:103D9000342259016A017B018C01910148895989BA
:103DA0006C8D7D8D8E8D9F8D0E94D5237901142F72
:103DB000D52E062FB72FF82FE92FA0E00E94FC2365
:103DC0002CF5298139854A855B856C857D858E85B5
:103DD0009F850E94FC230CF063C0BC89B0938008CF
:103DE000ED89E0938108FE89F09382082F89209362
:103DF0008308388D30938408498D409385085A8D07
:103E0000509386086B8D609387084AC09701412FB5
:103E10005D2D602F7B2F8F2F9E2F00E10E94B723F7
:103E2000F9014F8F5C8FB62FA72F8D8F9E8F8A89B8
:103E30009B891C019F016B2F7A2F8D8D9E8D5101C7
:103E4000C12CD12CE12CF12C00E010E00E94F323D6
:103E500051F14CF1298139854A855B856C857D85D9
:103E60008E859F85A0E00E94FC23F1F0ECF09C89F8
:103E700090938008AD89A0938108BE89B093820891
:103E8000EF89E0938308F88DF0938408298D2093BF
:103E900085083A8D309386084B8D4093870804C07F
:103EA000212C312C01C01F013092DB102092DA103E
:103EB000C1010E941A01F10185E0F695E7958A9506
:103EC000E1F7EA59FE4E80810E9413010E947D00B5
:103ED000009126111091271120912811309129115C
:103EE00040912A1150912B1160912C1170912D113C
:103EF00088E898E00E947502A1960FB6F894DEBF9C
:103F00000FBECDBFDF91CF911F910F91FF90EF902A
:103F1000DF90CF90BF90AF909F908F907F906F90E9
:103F20005F904F903F902F9008952F923F924F9225
:103F30005F926F927F928F929F92AF92BF92CF9239
:103F4000DF92EF92FF920F931F93CF93DF93CDB742
:103F5000DEB7A8970FB6F894DEBF0FBECDBF198E9F
:103F60001A8E1B8E1C8E1D8E1E8E1F8E18A2198AF5
:103F70001A8A1B8A1C8A1D8A1E8A1F8A188E198615
:103F80001A861B861C861D861E861F86188A198225
:103F90001A821B821C821D821E821F8218869E012D
:103FA0002F5F3F4FAE01475F5F4FBE016F5E7F4F98
:103FB000CE0149960E945307298D3A8D4B8D5C8D19
:103FC0006D8D7E8D8F8D98A12756384041095109FE
:103FD000610971098109910959016A017B01E82F81
:103FE000192F02E00E949E230E2F0E94D523F22E4D
:103FF000032F142FB52FF62FE72F982EE92EA0E0D0
:104000000E94FC235CF4A3E00E94DE23F22E032F27
:10401000142FB52FF62FE72F982EE92E2F2D302FA6
:10402000412F5B2F6F2F7E2F892D9E2D02E00E9446
:10403000B72340905E1150905F11609060117090B6
:10404000611183017201110FEE08FE2C8701E9A2B4
:10405000FAA20BA31CA352016301E9A0FE2C0E2DB2
:104060001E2D0E94D523322E432E542E59A36DA30C
:104070007EA38FA398A7298F3A8F4B8F5C8F6D8F6C
:104080007E8F8F8F98A329893A894B895C896D89A6
:104090007E898F89988D27563840410951096109D9
:1040A000710981099109222E732E4A01B62FA72F7B
:1040B000F82FE92F06E00E949E23A22CB72C640162
:1040C000EB2EFA2E0F2F1E2F0E94EA2301E00E94F2
:1040D0009E230F2F0E94EA2302E00E949E23F22ECD
:1040E000032F142FB52FF62FE72F982EE92EA0E0DF
:1040F0000E94FC235CF4AFE00E94DE23F22E032F2B
:10410000142FB52FF62FE72F982EE92E2F2D302FB5
:10411000412F5B2F6F2F7E2F892D9E2D04E00E9453
:10412000B723E0906211F090631100916411109137
:10413000651137014801990C6608762C4301570137
:104140006801E62CF62C062D162D0E94D523298B0E
:104150003A8B4B8B5C8B6D8B7E8B8F8B988F232D4B
:10416000342D452D59A16DA17EA18FA198A5A0E068
:104170000E94FC2344F4198E1A8E1B8E1C8E1D8EF9
:104180001E8E1F8E18A2498D5A8D6B8D7C8D82ECF0
:104190009CE00E942C219093D5108093D4104989E3
:1041A0005A896B897C8980EB98E00E942C21092E2A
:1041B000000CAA0BBB0B8093D6109093D710A09342
:1041C000D810B093D91088E898E00E94EA0291E0F4
:1041D000811190E0892FA8960FB6F894DEBF0FBE2C
:1041E000CDBFDF91CF911F910F91FF90EF90DF90A6
:1041F000CF90BF90AF909F908F907F906F905F9087
:104200004F903F902F900895DC01BC5F11961C9257
:104210001E92FC01E65FFB4F108211821282138214
:1042200014821582168217823897108211821282A8
:1042300013821482158216821782FC011192119248
:1042400011921192EA17FB07C9F70895FC01E65F86
:10425000FB4F8081918108952F923F924F925F9200
:104260006F927F928F929F92AF92BF92CF92DF9286
:10427000EF92FF920F931F93CF93DF93CDB7DEB7EB
:104280002A970FB6F894DEBF0FBECDBF98878F83F5
:104290002A013B019C5F9E838D83FC01208031803D
:1042A0004101880C991C880C991CEF81F8858E0EB1
:1042B0009F1EEE5FFB4FD401ED90FD900D911C9180
:1042C000D801C701BB0F880B982FDC0189839A8323
:1042D000AB83BC83208131814281538164817581AC
:1042E0008681978157016801E980FE2C0E2D1E2DD5
:1042F0000E94EA2383017201110FEE08FE2C870150
:10430000E982FA820B831C8352016301E980FE2C4F
:104310000E2D1E2D0E94D52320833183428353838B
:104320006483758386839783F22E032F142FB52F12
:10433000F62FE72FD82EE92EA0E00E94FC2384F46C
:1043400021503F4F4F4F5F4F6F4F7F4F8F4F9F4FCA
:10435000F22E032F142FB52FF62FE72FD82EE92E8C
:104360002F2D302F412F5B2F6F2F7E2F8D2D9E2DC8
:1043700008E00E94B723EF81F885E65FFB4F2083BA
:104380003183428353836483758386839783D40107
:104390004D925D926D927C921397BFEF2B1A3B0A60
:1043A0003324ED81FE8131822082C9012A960FB625
:1043B000F894DEBF0FBECDBFDF91CF911F910F915B
:1043C000FF90EF90DF90CF90BF90AF909F908F9035
:1043D0007F906F905F904F903F902F9008959EE058
:1043E00088E10FB6F894A895809360000FBE909373
:1043F0006000A89578940E940B0AA8950E940B185B
:10440000A8950E94B407A8950E941A1BA8950E941F
:10441000951F8111FBCF0E94BE070E9410180E94B9
:10442000A61BF5CFA1E21A2EAA1BBB1BFD010DC0D6
:10443000AA1FBB1FEE1FFF1FA217B307E407F50754
:1044400020F0A21BB30BE40BF50B661F771F881F30
:10445000991F1A9469F760957095809590959B01C6
:10446000AC01BD01CF010895DF93CF931F930F934C
:104470009A9DF02D219FF00D8B9DF00D8A9DE02DD2
:10448000F10D039FF00D029FE00DF11D4E9DE00D1B
:10449000F11D5E9DF00D4F9DF00D7F936F93BF92C8
:1044A000AF925F934F93D5010E9408248B01AC011A
:1044B000D7010E940824EB01E80FF91FD6010E94E2
:1044C00084222F913F91D6010E940824C60FD71F46
:1044D000E81FF91FAF91BF910E9484222F913F9155
:1044E0000E940824C60FD71FE81FF91FD6010E949B
:1044F0000824E60FF71F9801BE01CF0111240F9188
:104500001F91CF91DF9108950E940824460F571FF5
:10451000C81FD91F08F43196089597FB57FF0C94D4
:104520009D229F938F930E949D226E1B7F0BAF91C4
:10453000BF918A0B9B0B0895E894DF93CF93FC0106
:10454000DB010E9408247F936F93E9019A01AC017B
:10455000BF93AF933F932F93DF010E94082426F46B
:104560006C1B7D0B820B930B9E01EB01FC010E94E7
:104570008422AF91BF912F913F910E948422BE016E
:10458000CF01F9012F913F91CF91DF910895689468
:1045900001C0E894F92FF12B12F00C94FB22A0E05B
:1045A000B0E0E5EDF2E20C946D23092E059422F4BF
:1045B0000E945723112392F4F0E80F26FFEFE094B6
:1045C000F09400951095B094C094D094A194BF0A33
:1045D000CF0ADF0AEF0AFF0A0F0B1F0B0E94062308
:1045E00007FC0E945723CDB7DEB7ECE00C9489237B
:1045F000689401C0E8948F929F92CF93DF930E94BA
:104600000623DF91CF919F908F900895882499245D
:10461000F401E401B0E49F93AA279A158B049C044B
:10462000ED05FE05CF05D007A10798F4AD2FDC2FCF
:10463000CF2FFE2FE92D982C892E982F872F762F9C
:10464000652F542F432F322F2227B85031F7BF91B7
:1046500027C01B2EBF91BB27220F331F441F551F9E
:10466000661F771F881F991F881C991CEE1FFF1F4C
:10467000CC1FDD1FAA1FBB1F8A149B04EC05FD0580
:10468000CE05DF05A007B10748F08A189B08EC09A2
:10469000FD09CE09DF09A00BB10B21601A94E1F6E8
:1046A0002EF49401AF01BE01CD01000C0895609578
:1046B00070958095909530954095509521953F4FF8
:1046C0004F4F5F4F6F4F7F4F8F4F9F4F08952F92E8
:1046D0003F924F925F926F927F928F929F92AF9292
:1046E000BF92CF92DF92EF92FF920F931F93CF93DF
:1046F000DF93CDB7DEB7CA1BDB0B0FB6F894DEBF76
:104700000FBECDBF09942A88398848885F846E849B
:104710007D848C849B84AA84B984C884DF80EE80E5
:10472000FD800C811B81AA81B981CE0FD11D0FB6EE
:10473000F894DEBF0FBECDBFED0108950F93083092
:1047400090F0982F872F762F652F542F432F322FDD
:1047500022270850F4CF220F331F441F551F661F16
:10476000771F881F991F0A95B2F70F91089597FB3D
:1047700010F8169400080F93083098F00850232F73
:10478000342F452F562F672F782F892F902DF4CF58
:10479000059497958795779567955795479537959C
:1047A00027950A95AAF70F9108952A0D3B1D4C1DD8
:1047B0005D1D6E1D7F1D801F911F08950024A7FDA4
:1047C00000942A0F301D401D501D601D701D801D5E
:1047D000901D08952A193B094C095D096E097F094E
:1047E000800B910B08952A153B054C055D056E0560
:1047F0007F058007910708950024A7FD00942A17DC
:104800003005400550056005700580059005089548
:10481000A29FB001B39FC001A39F700D811D112401
:10482000911DB29F700D811D1124911D08950E944C
:104830002B240C9429250E94222558F00E941B2528
:1048400040F029F45F3F29F00C94022551110C949B
:104850005D250C9408250E943A2568F39923B1F34D
:10486000552391F3951B550BBB27AA276217730796
:10487000840738F09F5F5F4F220F331F441FAA1F2A
:10488000A9F335D00E2E3AF0E0E832D091505040E6
:10489000E695001CCAF72BD0FE2F29D0660F771F94
:1048A000881FBB1F261737074807AB07B0E809F07A
:1048B000BB0B802DBF01FF2793585F4F3AF09E3FFF
:1048C000510578F00C9402250C945D255F3FE4F3CC
:1048D000983ED4F3869577956795B795F7959F5F42
:1048E000C9F7880F911D9695879597F90895E1E08E
:1048F000660F771F881FBB1F621773078407BA07ED
:1049000020F0621B730B840BBA0BEE1F88F7E09547
:104910000895BEE304D008F490E80895BFE3222789
:104920003327A9010E94422560F19F5748F1B9172A
:1049300040F1BFE3B91B9927B8503AF4660F771FCF
:10494000881F991FB395D2F316C0B8504AF0232F91
:10495000342F452F562F672F782F8827B850BAF756
:10496000B85F49F086957795679557954795379540
:104970002795BA95B9F716F40E940B2588940895E7
:10498000889460E070E0CB010895E89409C097FB3B
:104990003EF490958095709561957F4F8F4F9F4F16
:1049A0009923A9F0F92F96E9BB279395F69587955A
:1049B00077956795B795F111F8CFFAF4BB0F11F41D
:1049C00060FF1BC06F5F7F4F8F4F9F4F16C08823C4
:1049D00011F096E911C0772321F09EE8872F762FFA
:1049E00005C0662371F096E8862F70E060E02AF03B
:1049F0009A95660F771F881FDAF7880F9695879527
:104A000097F9089597F99F6780E870E060E008954E
:104A10009FEF80EC089590958095709560955095E6
:104A20004095309521953F4F4F4F5F4F6F4F7F4FD0
:104A30008F4F9F4F089500240A94161617061806E4
:104A40000906089500240A94121613061406050692
:104A50000895092E0394000C11F4882352F0BB0F23
:104A600040F4BF2B11F460FF04C06F5F7F4F8F4F86
:104A70009F4F089557FD9058440F551F59F05F3FC1
:104A800071F04795880F97FB991F61F09F3F79F070
:104A900087950895121613061406551FF2CF4695F2
:104AA000F1DF08C0161617061806991FF1CF869574
:104AB0007105610508940895E894BB276627772758
:104AC000CB0197F908950E9476250C9429250E9420
:104AD0001B2538F00E94222520F0952311F00C941C
:104AE00002250C94082511240C945D250E943A257A
:104AF00070F3959FC1F3950F50E0551F629FF00131
:104B0000729FBB27F00DB11D639FAA27F00DB11D49
:104B1000AA1F649F6627B00DA11D661F829F2227D2
:104B2000B00DA11D621F739FB00DA11D621F839F59
:104B3000A00D611D221F749F3327A00D611D231F2F
:104B4000849F600D211D822F762F6A2F11249F577D
:104B500050409AF0F1F088234AF0EE0FFF1FBB1F80
:104B6000661F771F881F91505040A9F79E3F51053F
:104B700080F00C9402250C945D255F3FE4F3983E91
:104B8000D4F3869577956795B795F795E7959F5FE9
:104B9000C1F7FE2B880F911D9695879597F908957B
:044BA000F894FFCFB7
:104BA40000C0C101C30302C2C60607C705C5C404C9
:104BB400CC0C0DCD0FCFCE0E0ACACB0BC90908C839
:104BC400D81819D91BDBDA1A1EDEDF1FDD1D1CDC29
:104BD40014D4D515D71716D6D21213D311D1D01099
:104BE400F03031F133F3F23236F6F737F53534F489
:104BF4003CFCFD3DFF3F3EFEFA3A3BFB39F9F838F9
:104C040028E8E929EB2B2AEAEE2E2FEF2DEDEC2CE8
:104C1400E42425E527E7E62622E2E323E12120E058
:104C2400A06061A163A3A26266A6A767A56564A448
:104C34006CACAD6DAF6F6EAEAA6A6BAB69A9A868B8
:104C440078B8B979BB7B7ABABE7E7FBF7DBDBC7CA8
:104C5400B47475B577B7B67672B2B373B17170B018
:104C64005090915193535292965657975595945408
:104C74009C5C5D9D5F9F9E5E5A9A9B5B9959589878
:104C8400884849894B8B8A4A4E8E8F4F8D4D4C8C68
:104C940044848545874746868242438341818040D8
:104CA40000C1814001C0804101C0804100C18140F8
:104CB40001C0804100C1814000C1814001C08041E8
:104CC40001C0804100C1814000C1814001C08041D8
:104CD40000C1814001C0804101C0804100C18140C8
:104CE40001C0804100C1814000C1814001C08041B8
:104CF40000C1814001C0804101C0804100C18140A8
:104D040000C1814001C0804101C0804100C1814097
:104D140001C0804100C1814000C1814001C0804187
:104D240001C0804100C1814000C1814001C0804177
:104D340000C1814001C0804101C0804100C1814067
:104D440000C1814001C0804101C0804100C1814057
:104D540001C0804100C1814000C1814001C0804147
:104D640000C1814001C0804101C0804100C1814037
:104D740001C0804100C1814000C1814001C0804127
:104D840001C0804100C1814000C1814001C0804117
:104D940000C1814001C0804101C0804100C1814007
:104DA40053656E64205245473A30303030303F20EE
:0A4DB400666F722068656C700A00DB
:00000001FF
