:100000000C9446000C9465000C9465000C946500FB
:100010000C9465000C9465000C9465000C946500CC
:100020000C9465000C9465000C9465000C946500BC
:100030000C9465000C9465000C9465000C94DF032F
:100040000C9465000C9465000C9465000C944E01B2
:100050000C9475050C9438060C9465000C9465009E
:100060000C9465000C9465000C9465000C9465007C
:100070000C9400070C942A070C9465000C946500FE
:100080000C9465000C9449050C94650011241FBE66
:10009000CFEFD0E4DEBFCDBF11E0A0E0B1E0EAE1F8
:1000A000F9E400E00BBF02C007900D92AA31B1073E
:1000B000D9F727E1AAE1B1E001C01D92A436B20749
:1000C000E1F70E9411210C948B240C940000569AA5
:1000D0005E9884B1806B84B926982C9A85B18F750F
:1000E00085B910921A0110922F0183ED8CBD1DBCB1
:1000F00008955E9A08955E98089580911A0181117D
:10010000FECF10921B0180912F0181FF0DC09091B5
:10011000300190931C0191E090931D0192E0909327
:100120001A01EEE1F1E002C0ECE1F1E082FF0BC068
:1001300090913101908392E09183329690911A01CF
:100140009E5F90931A0183FF0EC09091320120911F
:1001500033012083918393E09283339690911A0127
:100160009D5F90931A0184FF0EC0909134012091FD
:1001700035012083918394E09283339690911A0104
:100180009D5F90931A0185FF0BC09091360190837B
:1001900095E09183329690911A019E5F90931A0197
:1001A00086FF0BC090913701908396E09183329641
:1001B00090911A019E5F90931A0187FF0AC0809167
:1001C0003801808387E0818380911A018E5F80935C
:1001D0001A0110922F012C9881E28A95F1F7000004
:1001E000E0911A01E11106C081E28A95F1F7000061
:1001F0002C9A0895F0E0E55EFE4F80818EBD8091DF
:100200001A01815080931A010895029718F41092F0
:10021000300103C081E08093300180912F01826022
:1002200080932F010895EFE2F1E082838081846062
:1002300080830895EFE2F1E0948383838081886076
:1002400080830895EFE2F1E0968385838081806169
:1002500080830895EFE2F1E08F5F87838081806281
:10026000808308959FEF980F9F3080F49FEF960F43
:100270009F3060F420E1829FC0011124862B80937F
:10028000370180912F01806480932F010895EFE260
:10029000F1E0818780818068808308951F920F92AA
:1002A0000FB60F9211240BB60F928F93EF93FF931B
:1002B000E0911A01E11106C081E28A95F1F7000090
:1002C0002C9A0AC0F0E0E55EFE4F80818EBD8091E1
:1002D0001A01815080931A01FF91EF918F910F9035
:1002E0000BBE0F900FBE0F901F9018958627682F9A
:1002F00062956827062E669566956025062E66959A
:1003000060256770082E892F669507946795902D54
:10031000862706946795902586270895AF92BF9209
:10032000CF92DF92EF92FF920F931F93CF93DF93C1
:10033000EC018B016A015B01A40EB51E7C0180E01B
:1003400090E00A151B0591F0F894A895F999FECF55
:10035000E1BCF2BCF89A789460B5F80161938F0122
:100360000E947601FFEFEF1AFF0AEBCFA6014C0FB8
:100370005D1FF894A895F999FECF41BD52BDF89A3A
:10038000789420B530E0322F22274F5F5F4FF894EA
:10039000A895F999FECF41BD52BDF89A789440B521
:1003A000242B41E02817390709F440E0842F819578
:1003B000DF91CF911F910F91FF90EF90DF90CF9041
:1003C000BF90AF900895AF92BF92CF92DF92EF921D
:1003D000FF920F931F93CF93DF93EC017B016A0190
:1003E0005B01A40EB51E8C0180E090E0EA14FB04D2
:1003F00009F1F7012081F894A895F894A895F99946
:10040000FECF402F01BD312F12BDF89A789450B520
:10041000521739F0F999FECF41BD32BD20BDFA9A8D
:10042000F99A7894F70161917F010E9476010F5F3C
:100430001F4FDCCFA6014C0F5D1FF894A895F894D0
:10044000A895F999FECF41BD52BDF89A789420B590
:10045000291739F0F999FECF41BD52BD90BDFA9AE6
:10046000F99A78944F5F5F4FF894A895F894A895FF
:10047000F999FECF41BD52BDF89A789490B598177E
:1004800039F0F999FECF41BD52BD80BDFA9AF99A73
:100490007894DF91CF911F910F91FF90EF90DF90B3
:1004A000CF90BF90AF900895F894109239011092B8
:1004B0003A0110923B0110923C0110923D011092C2
:1004C0003E0110923F01109240011092850010925F
:1004D0008400EFE6F0E080818160808310928000EC
:1004E00081E080938100789408952F923F924F92FB
:1004F0005F926F927F928F929F92AF92BF92CF92B4
:10050000DF92EF92FF920F931F93CF93DF9300D070
:1005100000D000D0CDB7DEB7FC0179016A01CB0174
:100520002091390120913A01A0913B01A983B0911A
:100530003C01BA83A0913D01AB83B0913E01BC83E5
:10054000A0913F01AD83B0914001BE83A091840092
:10055000B09185009801A701B60102E00E94CB226C
:1005600029013A014B011C010E94CB2259016A0169
:100570007B018C019201A301B401C1010E940223FD
:100580005D01C980DA80EB80FC800D811E810E94B4
:10059000022320833183428353836483758386835C
:1005A000978326960FB6F894DEBF0FBECDBFDF91BE
:1005B000CF911F910F91FF90EF90DF90CF90BF9060
:1005C000AF909F908F907F906F905F904F903F90F3
:1005D0002F9008952F923F924F925F926F927F9249
:1005E0008F929F92AF92BF92CF92DF92EF92FF9243
:1005F0000F931F93CF93DF93CDB7DEB727970FB637
:10060000F894DEBF0FBECDBFFC01A081B181828115
:100610008F8383818C8384818D8385818E83868182
:100620008B83E7818091390180913A01C0903B0131
:10063000D0903C01E0903D01F0903E0100913F01DF
:100640001091400180918400909185001C019D01D2
:100650004F815C816D817E818B819E2F51010E9433
:100660001723772473945D01CF80DC80ED80FE80BA
:100670000B811E2F0E94202308F4712C872D2796B2
:100680000FB6F894DEBF0FBECDBFDF91CF911F91A3
:100690000F91FF90EF90DF90CF90BF90AF909F9021
:1006A0008F907F906F905F904F903F902F90089524
:1006B0002F923F924F925F926F927F928F929F9272
:1006C000AF92BF92CF92DF92EF92FF920F931F9360
:1006D000CF93DF93CDB7DEB72C970FB6F894DEBF7C
:1006E0000FBECDBFFC0120803180428053806480EA
:1006F0007580A681A987E7818091390180913A01AF
:10070000C0903B01D0903C01E0903D01F0903E0153
:1007100000913F0110914001A0918400B0918500AB
:100720009D0140E050E060E070E0CB01A9833A8396
:100730004B835C836D837E838F8398879101A201B5
:10074000B30189859E2FA980BA800E9417235983FF
:100750008B879C8751016201730109851E2F0E94BE
:10076000202360F4E4E1AE2EB12CC12CD12CE12C7D
:10077000F12C00E010E00E94272208C020E030E0C9
:1007800040E050E060E070E080E090E02C960FB632
:10079000F894DEBF0FBECDBFDF91CF911F910F91B7
:1007A000FF90EF90DF90CF90BF90AF909F908F9091
:1007B0007F906F905F904F903F902F9008951F9281
:1007C0000F920FB60F9211242F933F934F935F9385
:1007D0006F937F938F939F932091390130913A01CA
:1007E00040913B0150913C0160913D0170913E016F
:1007F00080913F01909140014F5F5F4F6F4F7F4F5E
:100800008F4F9F4F2093390130933A0140933B0122
:1008100050933C0160933D0170933E0180933F01F2
:10082000909340019F918F917F916F915F914F9134
:100830003F912F910F900FBE0F901F9018954F92E0
:100840005F926F927F928F929F92AF92BF92CF9260
:10085000DF92EF92FF92CF936A017B01C22F109239
:100860004C0410924D0410924E04109245031092C5
:1008700044031092470310924603109249031092CA
:1008800048038093430181E090E09093420180937C
:10089000410160EA75E286E290E0A70196010E94BC
:1008A000342149015A0181E0881A9108A108B10850
:1008B00060E07DE281E391E0A70196010E9434218E
:1008C00029013A01A5E0B0E00E9456216B017C01AC
:1008D00025E0C21AD108E108F108F694E794D7940C
:1008E000C794A9E0B0E0A30192010E945621DC0167
:1008F000CB010997A109B109B695A7959795879559
:10090000209A289A77276B2D5A2D492D4093C500A0
:100910008092C400C13019F020F42EE003C026E319
:1009200001C026E22093C20022E02093C00028E903
:100930002093C100D0929900C092980090939B00A0
:1009400080939A0010929000109291008091710013
:100950008460809371008091910081608093910008
:10096000CF91FF90EF90DF90CF90BF90AF909F908E
:100970008F907F906F905F904F900895A895EFEFC4
:10098000F0E0262F30E040914E04DF01A41BB109B6
:100990002A173B07C4F7282FFC018E2F821B8617CE
:1009A00068F4A0914D04B0E08191A45BBC4F8C939E
:1009B00080914D048F5F80934D04EFCF80914E0462
:1009C000680F60934E048091C10085FD17C080912F
:1009D0004101909142010297D1F788E090E0909315
:1009E00042018093410128988091C00080648093E7
:1009F000C0008091C10080628093C1000895809101
:100A00004803909149030895A895262F30E040911E
:100A100048035091490342175307C8F3482FFC017C
:100A20008E2F841B861790F4A0914403B091450348
:100A3000AC5BBE4F8C9181938091440390914503B0
:100A400001969093450380934403EACF8091480335
:100A500090914903821B930B909349038093480321
:100A6000089510924E0410924C0410924D04089573
:100A7000109249031092480310924B0310924A03BC
:100A800010924503109244031092470310924603BC
:100A900008951F920F920FB60F9211240BB60F926A
:100AA0008F939F93EF93FF93EAE4F3E0808191812A
:100AB00090934903809348031182108282E090E072
:100AC0009093420180934101E1E9F0E080818E7FC3
:100AD0008083C19AFF91EF919F918F910F900BBEF0
:100AE0000F900FBE0F901F9018951F920F920FB688
:100AF0000F9211240BB60F922F933F938F939F93D6
:100B0000EF93FF93109295001092940080919100C2
:100B10008160809391008091410190914201019701
:100B200031F08091410190914201089751F4E09198
:100B30004603F09147038091C600EC5BFE4F808333
:100B40008AC0C19915C08091C00084FD11C08091F8
:100B5000C00082FD0DC0809148039091490320910F
:100B60004A0330914B03820F931F81309240D8F09B
:100B7000809146039091470320914A0330914B03A3
:100B8000821B930B917090934703809346031092BE
:100B90004B0310924A0381E090E0909342018093CE
:100BA0004101C19A58C0E0914603F09147038091FA
:100BB000C600EC5BFE4F8083809141019091420121
:100BC0000297B1F5E0914603F0914703EC5BFE4FCD
:100BD0008081882381F0E0914603F0914703EC5B2C
:100BE000FE4F208180914301022E000C330B90E0D8
:100BF00028173907B1F48091460390914703019675
:100C00009170909347038093460380914A0390919B
:100C10004B03019690934B0380934A0384E090E04A
:100C200002C081E090E0909342018093410113C0A3
:100C300080914603909147030196917090934703EA
:100C40008093460380914A0390914B0301969093C1
:100C50004B0380934A03FF91EF919F918F913F91B6
:100C60002F910F900BBE0F900FBE0F901F901895F5
:100C70001F920F920FB60F9211240BB60F928F9303
:100C80009F93EF93FF9380914E04882399F0E09116
:100C90004C04F0E0E45BFC4F80818093C6008091BF
:100CA0004C048F5F80934C0480914E04815080935C
:100CB0004E0416C08091C1008F7D8093C100289A98
:100CC000C19A1092950010929400809191008160D9
:100CD0008093910081E090E09093420180934101E4
:100CE000FF91EF919F918F910F900BBE0F900FBED0
:100CF0000F901F9018951092520610925306109262
:100D0000540610924F05109250051092510582E042
:100D10008093CD0088E08093CC00E8ECF0E0808107
:100D200082608083E9ECF0E0808188698083EAEC6E
:100D3000F0E08081866080830895A895EFEFF0E071
:100D4000262F30E040915406DF01A41BB1092A1779
:100D50003B07C4F7282FFC018E2F821B861768F4EF
:100D6000A0915306B0E08191AE5ABA4F8C93809116
:100D700053068F5F80935306EFCF80915406680F20
:100D8000609354068091C90085FD0AC08091C80017
:100D900080648093C8008091C90080628093C900FC
:100DA0000895809151050895A89520915105261721
:100DB000E0F3282FFC018E2F821B861768F4A09188
:100DC0004F05B0E0A15BBB4F8C91819380914F05A3
:100DD0008F5F80934F05EFCF80915105861B8093E5
:100DE000510508951092540610925206109253061F
:100DF00008951092510510924F05109250050895D4
:100E00001F920F920FB60F9211240BB60F928F9371
:100E1000EF93FF93809151058F3F91F0E091500542
:100E2000F0E08091CE00E15BFB4F80838091500524
:100E30008F5F80935005809151058F5F809351059E
:100E4000FF91EF918F910F900BBE0F900FBE0F90FF
:100E50001F9018951F920F920FB60F9211240BB688
:100E60000F928F93EF93FF9380915406882399F00C
:100E7000E0915206F0E0EE5AFA4F80818093CE0066
:100E8000809152068F5F8093520680915406815064
:100E90008093540605C08091C9008F7D8093C9005E
:100EA000FF91EF918F910F900BBE0F900FBE0F909F
:100EB0001F90189587B18F7087B988B18F7088B9E6
:100EC0008AB1806A8AB95D985F9A0895AF92BF929D
:100ED000CF92DF92FF920F931F93CF93DF935C012A
:100EE000EBB1EF75EBB983E08A95F1F700005D9AFD
:100EF000A3E0AA95F1F700005D98B3E0BA95F1F789
:100F000000005D9AE3E0EA95F1F70000ADE0FA2E0B
:100F1000C12CD12CA0E0B0E0C0E0D0E000E010E0B7
:100F20005D98F3E0FA95F1F700005D9A000F111F4C
:100F3000CC0FDD1FAA0FBB1FCC0CDD1C3499016048
:100F40003599C1603699A160379B02C06894C0F89A
:100F5000FA94F110E5CF5F9A1F70F50111830083B9
:100F6000DF70FB01D183C083BF70FA01B183A0831E
:100F7000F601FF70D901ED93FC93DF91CF911F91A2
:100F80000F91FF90DF90CF90BF90AF900895E8EF62
:100F9000FEE04281538164817581268180810C94B9
:100FA0001F040C94FF044CE658E068EF7EE080E0FC
:100FB00090E00E94E301FFCF4CE658E068EF7EE04E
:100FC00080E090E00C948E011092E50E1092E40EF9
:100FD0001092E70E1092E60E1092E90E1092E80EB3
:100FE0001092EB0E1092EA0E1092ED0E1092EC0E93
:100FF0001092EF0E1092EE0E1092F10E1092F00E73
:101000001092F30E1092F20E1092F50E1092F40E52
:101010001092F70E1092F60E1092D30E1092D20E7E
:101020001092D40E1092D50E1092D60E1092D70EAA
:101030001092D90E1092D80E1092DB0E1092DA0E8A
:101040001092DD0E1092DC0E1092DE0E1092DF0E6A
:101050001092E00E1092E10E1092F90E1092F80E1E
:101060001092FA0E1092FB0E1092FC0E1092FD0ED2
:101070001092FF0E1092FE0E1092010F1092000FB0
:101080001092030F1092020F1092050F1092040F8E
:101090001092070F1092060F1092090F1092080F6E
:1010A00010920B0F10920A0F10920D0F10920C0F4E
:1010B00010920F0F10920E0F1092110F1092100F2E
:1010C0001092130F1092120F1092150F1092140F0E
:1010D0001092170F1092160F1092190F1092180FEE
:1010E00010921B0F10921A0F10921D0F10921C0FCE
:1010F00010921F0F10921E0F1092210F1092200FAE
:101100001092230F1092220F1092240F1092250F8D
:101110001092260F1092270F1092280F1092290F6D
:1011200010922A0F10922B0F10922C0F10922D0F4D
:1011300010922E0F10922F0F1092300F1092310F2D
:101140001092320F1092330F1092340F1092350F0D
:101150001092360F1092370F1092380F1092390FED
:1011600010923A0F10923B0F10923C0F10923D0FCD
:1011700010923E0F10923F0F1092400F1092410FAD
:101180001092420F1092430F1092440F1092450F8D
:101190001092460F1092470F1092480F1092490F6D
:1011A00010924A0F10924B0F10924C0F10924D0F4D
:1011B00010924E0F10924F0F1092500F1092510F2D
:1011C0001092520F1092530F1092540F1092550F0D
:1011D0001092560F1092570F1092580F1092590FED
:1011E00010925A0F10925B0F80E091E09093E30E03
:1011F0008093E20E0E94DC07E091E20EF091E30E94
:101200008F3F11F4F0682FC02091240F3091250FEB
:101210004091260F5091270F6091280F7091290F50
:1012200080912A0F90912B0F203432444F4051056A
:101230006105710581059105A1F098F080E4809326
:10124000240F82E48093250F8FE08093260F109265
:10125000270F1092280F1092290F10922A0F109228
:101260002B0FFE7FF260F093E30EE093E20E089501
:101270000F93FB018E332EE9920709F46CC208F03C
:10128000D8C0883B2CE9920709F4F0C108F063C08C
:101290008A3226E7920709F414C280F58D3F25E7CC
:1012A000920709F4F6C1A0F4893F25E7920709F4F3
:1012B000E2C18A3F45E7940709F4E6C1883F25E784
:1012C000920709F0ABC38091D20E9091D30EB9C3AF
:1012D0008F3F45E7940709F4E6C108F4DFC18115A3
:1012E00046E7940709F4E4C1813026E7920709F044
:1012F00095C38091DE0E9091DF0EA3C3873A4CE92F
:10130000940709F49FC188F4853A4CE9940709F4DD
:101310008FC108F092C1843A4CE9940709F07EC36A
:101320008091E40E9091E50E8CC3893A2CE99207E6
:1013300009F492C108F48BC18E3A2CE9920709F4A2
:1013400090C18F3A4CE9940709F068C38091F20E7E
:101350009091F30E76C384332EE9920709F4D3C13A
:10136000B0F58E362DE9920709F4BEC188F48C36AB
:101370002DE9920709F4AAC108F0ADC1863D2CE918
:10138000920709F04BC38091F60E9091F70E59C366
:10139000803D4DE9940709F4ACC150F48F364DE916
:1013A000940709F03BC38091FE0E9091FF0E49C354
:1013B000813D2DE9920709F4A1C1823D4DE99407D1
:1013C00009F02CC38091040F9091050F3AC3893323
:1013D0002EE9920709F4ABC1B0F486332EE99207E7
:1013E00009F49BC108F494C187332EE9920709F4EC
:1013F00099C188334EE9940709F010C380910E0F0C
:1014000090910F0F1EC38B332EE9920709F499C1F7
:1014100008F492C18C332EE9920709F497C18D33F9
:101420004EE9940709F0FAC28091180F9091190FB4
:1014300008C3893A2EE9920709F434C208F073C050
:10144000803A2EE9920709F4CDC168F58B392EE96F
:10145000920709F48FC188F489392EE9920709F4BB
:101460007FC108F082C188392EE9920709F0D6C2FF
:1014700080911C0F90911D0FE4C28D394EE99407A5
:1014800009F48EC108F47BC18E394EE9940709F442
:1014900098C18F392EE9920709F0C0C28091240FBC
:1014A0009091250FCEC2843A4EE9940709F4C2C147
:1014B000C0F4823A4EE9940709F4A6C108F0B5C118
:1014C00020912C0F30912D0F40912E0F50912F0F06
:1014D0006091300F7091310F8091320F9091330FE6
:1014E00077C2863A4EE9940709F4C6C108F4B3C13D
:1014F000873A4EE9940709F4D0C1883A2EE9920759
:1015000009F08CC220913C0F30913D0F40913E0F6D
:1015100050913F0F6091400F7091410F8091420FA9
:101520009091430F6FC1823B4EE9940709F419C2B1
:1015300008F040C08D3A4EE9940709F4DAC1C0F4CE
:101540008B3A4EE9940709F4BEC108F0C1C120915D
:101550003C0F30913D0F40913E0F50913F0F6091F5
:10156000400F7091410F8091420F9091430F32C212
:101570008F3A4EE9940709F4DEC108F4CBC1803BF1
:101580004EE9940709F4DCC1813B2EE9920709F08A
:1015900045C220914C0F30914D0F40914E0F50910C
:1015A0004F0F6091500F7091510F8091520F909199
:1015B000530F0EC2873B4EE9940709F411C210F590
:1015C000843B4EE9940709F4E2C108F4DBC1853B92
:1015D0004EE9940709F4ECC1863B2EE9920709F025
:1015E0001DC22091540F3091550F4091560F5091CC
:1015F000570F6091580F7091590F80915A0F909129
:101600005B0FE8C1893B4EE9940709F4F7C108F480
:10161000ECC18A3B4EE9940709F4F5C18B3B2EE9F6
:10162000920709F0FBC18091600F9091610F09C290
:101630008091E60E9091E70E04C28091E80E9091A1
:10164000E90EFFC18091EA0E9091EB0EFAC18091F4
:10165000EC0E9091ED0EF5C18091EE0E9091EF0E93
:10166000F0C18091F00E9091F10EEBC18091F40EDB
:101670009091F50EE6C18091D40E9091D50EA09177
:10168000D60EB091D70EC7C18091D40E9091D50ED1
:10169000D8C18091D80E9091D90ED3C18091DA0E25
:1016A0009091DB0ECEC18091DC0E9091DD0EC9C110
:1016B0008091DE0E9091DF0EA091E00EB091E10ED0
:1016C000AAC18091E20E9091E30EBBC18091F80E09
:1016D0009091F90EB6C18091FA0E9091FB0EA091F7
:1016E000FC0EB091FD0E97C18091FA0E9091FB0E09
:1016F000A8C18091000F9091010FA3C18091020FAA
:101700009091030F9EC18091060F9091070F99C190
:101710008091080F9091090F94C180910A0F9091C8
:101720000B0F8FC180910C0F90910D0F8AC180918A
:10173000100F9091110F85C18091120F9091130F8E
:1017400080C18091140F9091150F7BC18091160F6D
:101750009091170F76C180911A0F90911B0F71C154
:1017600080911E0F90911F0F6CC18091200F90915E
:10177000210F67C18091220F9091230F62C12091A8
:10178000240F3091250F4091260F5091270F609123
:10179000280F7091290F80912A0F90912B0F32C042
:1017A0002091240F3091250F4091260F5091270F43
:1017B0006091280F7091290F80912A0F90912B0F23
:1017C00007C12091240F3091250F4091260F509191
:1017D000270F6091280F7091290F80912A0F909107
:1017E0002B0FF8C020912C0F30912D0F40912E0F10
:1017F00050912F0F6091300F7091310F8091320F07
:101800009091330F00E3E7C020912C0F30912D0F02
:1018100040912E0F50912F0F6091300F7091310F2A
:101820008091320F9091330FD5C080912C0F909101
:101830002D0F07C12091340F3091350F4091360F95
:101840005091370F6091380F7091390F80913A0F96
:1018500090913B0FD7CF2091340F3091350F4091AD
:10186000360F5091370F6091380F7091390F80917A
:101870003A0F90913B0FACC02091340F3091350F4F
:101880004091360F5091370F6091380F7091390F9A
:1018900080913A0F90913B0F9DC08091340F9091B1
:1018A000350FCFC020913C0F30913D0F40913E0F3E
:1018B00050913F0F6091400F7091410F8091420F06
:1018C0009091430F85C080913C0F90913D0FB9C01E
:1018D0002091440F3091450F4091460F5091470F92
:1018E0006091480F7091490F80914A0F90914B0F72
:1018F00089CF2091440F3091450F4091460F509170
:10190000470F6091480F7091490F80914A0F909155
:101910004B0F5EC02091440F3091450F4091460F10
:101920005091470F6091480F7091490F80914A0F75
:1019300090914B0F4FC08091440F9091450F81C003
:1019400020914C0F30914D0F40914E0F50914F0F01
:101950006091500F7091510F8091520F9091530FE1
:1019600051CF20914C0F30914D0F40914E0F50911F
:101970004F0F6091500F7091510F8091520F9091C5
:10198000530F28C080914C0F90914D0F5AC0209159
:10199000540F3091550F4091560F5091570F609151
:1019A000580F7091590F80915A0F90915B0F2ACF69
:1019B0002091540F3091550F4091560F5091570F71
:1019C0006091580F7091590F80915A0F90915B0F51
:1019D00000E201C000E10E94E6222083318333C08F
:1019E0008091540F9091550F2CC080915C0F909175
:1019F0005D0FA0915E0FB0915F0F0DC080915C0FE5
:101A000090915D0F1EC08091600F9091610FA09129
:101A1000620FB091630FB183A08315C09C0128525F
:101A2000304A2115384088F4A0E0B0E08852904A4E
:101A3000A109B1098850914FDC01A459BF4F8C9185
:101A400090E09183808380E001C081E00F91089550
:101A50002F923F924F925F926F927F928F929F92BE
:101A6000AF92BF92CF92DF92EF92FF920F931F93AC
:101A7000CF93DF93CDB7DEB7A4970FB6F894DEBF50
:101A80000FBECDBF8B390EE9900709F4D2C408F020
:101A90009AC0813D2DE9920709F419C408F04DC0A0
:101AA0008F3A4CE9940709F4DEC110F5873AACE9A6
:101AB0009A0709F46AC170F4853AECE99E0709F4C3
:101AC0001FC108F03AC1843A0CE9900709F401C13A
:101AD0000C940217893A1CE9910709F474C108F4BF
:101AE00063C18E3A3CE9930709F47EC10C94021756
:101AF0008D364DE9940709F485C388F4863DACE939
:101B00009A0709F45EC38C36BDE99B0709F468C3E4
:101B1000883BECE99E0711F00C940217B8C18F3690
:101B2000FDE99F0709F4B3C308F490C3803D1DE9A4
:101B3000910709F4BCC30C9402178A332EE992076B
:101B400009F420C400F586334EE9940709F4F3C381
:101B500070F48433AEE99A0709F4D5C308F0DFC303
:101B6000823DEDE99E0709F4BEC30C940217209153
:101B7000F00E3091F10E8833FEE99F0709F4F0C3AF
:101B800008F4E5C3F6C38E331EE9910709F421C4B6
:101B900060F42091F00E3091F10E8C334EE99407F1
:101BA00009F405C408F4FAC30BC48939AEE99A07ED
:101BB00009F427C408F031C48839EEE99E0709F416
:101BC00014C40C9402178B3AFEE99F0709F4A7C6C8
:101BD000B0F54091F00E5091F10E833A1EE9910755
:101BE00009F463C5B0F48F393EE9930709F4C0C422
:101BF00040F48D39BEE99B0709F458C408F425C4A4
:101C000086C4813AFEE99F0709F4EDC408F4BAC41A
:101C10001BC5873A1EE9910709F4E4C540F4853AEB
:101C20003EE9930709F47CC508F449C5AAC5893A79
:101C3000BEE99B0709F411C608F4DEC53FC6833B25
:101C4000FEE99F0709F4A8C7D0F44091F00E509127
:101C5000F10E8F3A1EE9910709F401C740F48D3A5D
:101C60003EE9930709F499C608F466C6C7C6813BE6
:101C7000BEE99B0709F42EC708F4FBC65CC7873B87
:101C8000FEE99F0711F40C946C1660F42091F00E9D
:101C90003091F10E853B1EE9910709F4BBC708F4AA
:101CA00088C7E9C7893B5EE9950711F40C949D1636
:101CB00010F40C9479168A3BBEE99B0711F40C943E
:101CC000BE168B3BEEE99E0711F40C94E2160C94C1
:101CD00002178091F00E9091F10E892B49F461303A
:101CE000710531F47093E50E6093E40E0C941417B3
:101CF0008FEF9FEF9093E50E8093E40E0C941417F2
:101D00006536710544F084E690E09093E70E809389
:101D1000E60E0C9414176C39FFEF7F0744F48CE93E
:101D20009FEF9093E70E8093E60E0C941417709338
:101D3000E70E6093E60E0C9414177093E90E60930F
:101D4000E80E8091EE0E9091EF0E019779F480915C
:101D50001E0F90911F0F8617970710F00C94141701
:101D60009093E90E8093E80E0C94141780911C0F49
:101D700090911D0F8617970710F00C9414179093ED
:101D8000E90E8093E80E0C9414176130710531F45C
:101D90007093EB0E6093EA0E0C9414171092EB0EF6
:101DA0001092EA0E0C9414176130710531F470939F
:101DB000ED0E6093EC0E0C9414171092ED0E109231
:101DC000EC0E0C9414176130710541F481E090E041
:101DD0009093EF0E8093EE0E0C9414171092EF0E6A
:101DE0001092EE0E0C9414178091F00E9091F10E5B
:101DF000009779F46130710589F58FEF9FEF90932B
:101E0000E50E8093E40E7093F10E6093F00E0C9447
:101E10001417019719F56130710501F18091F20EE7
:101E20009091F30E0197D1F4A4960FB6F894DEBF0B
:101E30000FBECDBFDF91CF911F910F91FF90EF901B
:101E4000DF90CF90BF90AF909F908F907F906F90DA
:101E50005F904F903F902F900C94D3071092F10E0B
:101E60001092F00EE1C78091F00E9091F10E019763
:101E700009F0DAC76130710529F47093F30E6093AD
:101E8000F20ED2C71092F30E1092F20ECDC78091CF
:101E9000F00E9091F10E019709F0C6C761307105FF
:101EA00009F0C2C76091060F7091070F80E090E0C3
:101EB0000E9480232DEC3CEE43EF54E40E94EF237C
:101EC00020E030E040E05AE30E94EF230E944923E3
:101ED00019014B875C876D877E878F87988B609110
:101EE0000C0F70910D0F80E090E00E94802320E0A5
:101EF00030E045EB54E40E94EF2320E030E040E87E
:101F00005AE30E94EF230E94492359016A017B0191
:101F1000E82F192F04E00E94CB220E2F0E941723D6
:101F200049013A01B62FA72FF82FE92F04E00E94AC
:101F3000CB2259016A017B018C019401A3016B2F13
:101F40007A2F8F2F9E2F0E9402235101CB84DC8495
:101F5000ED84FE840F8518890E942722298B3A8BF5
:101F60004B8B5B8F6C8F7D8F8E8F9F8F8091100F2F
:101F70009091110F65E0969587956A95E1F78C0130
:101F800020E030E040E050E0BA0189831A832B83DF
:101F90003C834D835E836F83788724E63FE03A87F6
:101FA0002987612C712C812C912C19A218A2412C0B
:101FB000512CA980BA80CB80DC80ED80FE800F811F
:101FC00018859301A40169A178A1C2010E9427226A
:101FD000E22F2F3F3105410551056105710581054E
:101FE000910511F008F0EFEFA985BA85ED93BA8756
:101FF000A9879301A40169A178A1C201A988BA881F
:10200000CB88DB8CEC8CFD8C0E8D1F8D0E94022307
:1020100039014A0169A378A32C01A456B74149F6B6
:1020200060910E0F70910F0F80E090E00E9480236E
:1020300020E030EC4DED54E40E94EF2320E030E04E
:1020400040E85AE30E94EF230E94492359016A01A4
:102050007B01E82F192F04E00E94CB220E2F0E9453
:10206000172349013A01B62FA72FF82FE92F04E0D3
:102070000E94CB2259016A017B018C019401A301CA
:102080006B2F7A2F8F2F9E2F0E9402235101CB841A
:10209000DC84ED84FE840F8518890E9427222B871B
:1020A0003C874D875E876F87788B898B9A8B809171
:1020B000120F9091130F1C0155E0369427945A95F6
:1020C000E1F7F101EC59F04F208130E040E050E0C1
:1020D00060E070E080E090E0AB84BC84CD84DE847E
:1020E000EF84F88809891A890E9417232B8F3C8F67
:1020F0004D8F5E8F6F8F78A389A39AA3612C712C6B
:10210000812C912C19821986412C512C1CA21BA2C6
:10211000810120E030E040E050E0BA012B8A1C8BC6
:102120002D8B3E8B4F8B588F698F7A8FAB88BC88F5
:10213000C12CD12CE12CF12C00E010E09301A40182
:1021400069817985C2010E942722AB84BC84CD8439
:10215000DE84EF84F88809891A890E940223EBA1A2
:10216000FCA1EC59F04FA22F2F3F3105410551053D
:10217000610571058105910511F008F0AFEFA083AD
:102180002BA13CA12F5F3F4F3CA32BA39301A401A4
:1021900069817985C201AB8CBC8CCD8CDE8CEF8CD7
:1021A000F8A009A11AA10E94022339014A016983FA
:1021B00079872C014BA15CA12416350608F0B6CF17
:1021C00033C68091F00E9091F10E019721F46130A9
:1021D000710509F4FFCF1092F70E1092F60E24C687
:1021E0008091F00E9091F10E019709F01DC6CB0180
:1021F0000197873F910508F017C67093F90E609319
:10220000F80E12C68091F00E9091F10E019709F030
:102210000BC6CB01A0E0B0E0DC01992788274091F4
:10222000FA0E5091FB0E6091FC0E7091FD0E662728
:102230007727842B952BA62BB72B8093FA0E9093A0
:10224000FB0EA093FC0EB093FD0EEEC58091F00E38
:102250009091F10E019709F0E7C5CB01A0E0B0E045
:102260004091FA0E5091FB0E6091FC0E7091FD0EA4
:1022700044275527842B952BA62BB72B8093FA0E3A
:102280009093FB0EA093FC0EB093FD0ECDC58091F4
:10229000F00E9091F10E019709F0C6C563307105FB
:1022A00008F0C2C57093FF0E6093FE0EBDC580910D
:1022B000F00E9091F10E019709F0B6C565307105E9
:1022C00008F0B2C57093010F6093000FADC5809107
:1022D000F00E9091F10E019709F0A6C57093030FCF
:1022E0006093020FA1C58091F00E9091F10E0197BD
:1022F00009F09AC56430710508F096C57093050F12
:102300006093040F91C58091F00E9091F10E0197AA
:1023100009F08AC57093070F6093060F85C58091F9
:10232000F00E9091F10E019709F07EC57093090FA0
:102330006093080F79C58091F00E9091F10E01978E
:1023400009F072C570930B0F60930A0F6DC52130B1
:10235000310509F069C570930D0F60930C0F64C5CA
:102360002130310509F060C570930F0F60930E0F97
:102370005BC52130310509F057C57093110F60938B
:10238000100F52C58091F00E9091F10E019709F057
:102390004BC57093130F6093120F46C52130310562
:1023A00009F042C57093150F6093140F3DC521309D
:1023B000310509F039C57093170F6093160F34C5B6
:1023C0002130310509F030C57093190F6093180F53
:1023D0002BC58091F00E9091F10E019709F024C564
:1023E00070931B0F60931A0F1FC58091F00E909190
:1023F000F10E019709F018C570931D0F60931C0F23
:1024000013C58091F00E9091F10E019709F00CC563
:1024100070931F0F60931E0F07C58091F00E90916F
:10242000F10E019709F000C57093210F6093200F02
:10243000FBC48091F00E9091F10E019709F0F4C465
:102440007093230F6093220FEFC44130510509F0C0
:10245000EBC49B0140E050E060E070E080E090E081
:1024600000E30E94CB220091240F1091250FB09120
:10247000260FA091270FF091280FE091290F202B14
:10248000312B4B2B5A2B6F2B7E2B2093240F309309
:10249000250F4093260F5093270F6093280F7093BA
:1024A000290F80932A0F90932B0FBEC44130510502
:1024B00009F0BAC49B0140E050E060E070E080E0C9
:1024C00090E000E20E94CB220091240F1091250F92
:1024D000B091260FA091270FF0912A0FE0912B0FBA
:1024E000202B312B4B2B5A2B8F2B9E2B2093240FE1
:1024F0003093250F4093260F5093270F6093280F9A
:102500007093290F80932A0F90932B0F8DC4413025
:10251000510509F089C49B0140E050E060E070E0A3
:1025200080E090E000E10E94CB220091240F109106
:10253000250FB091280FA091290FF0912A0FE0915B
:102540002B0F202B312B6B2B7A2B8F2B9E2B209339
:10255000240F3093250F4093260F5093270F60933D
:10256000280F7093290F80932A0F90932B0F5CC430
:102570004130510509F058C44B016093240F9092EB
:10258000250F52C44130510509F04EC49B0140E073
:1025900050E060E070E080E090E000E30E94CB2239
:1025A00000912C0F10912D0FB0912E0FA0912F0F95
:1025B000F091300FE091310F202B312B4B2B5A2B08
:1025C0006F2B7E2B20932C0F30932D0F40932E0FCB
:1025D00050932F0F6093300F7093310F8093320F11
:1025E0009093330F21C44130510509F01DC49B0164
:1025F00040E050E060E070E080E090E000E20E94A7
:10260000CB2200912C0F10912D0FB0912E0FA09185
:102610002F0FF091320FE091330F202B312B4B2BEA
:102620005A2B8F2B9E2B20932C0F30932D0F4093E2
:102630002E0F50932F0F6093300F7093310F8093B4
:10264000320F9093330FF0C34130510509F0ECC3C2
:102650009B0140E050E060E070E080E090E000E14D
:102660000E94CB2200912C0F10912D0FB091300FB2
:10267000A091310FF091320FE091330F202B312BCD
:102680006B2B7A2B8F2B9E2B20932C0F30932D0F9F
:1026900040932E0F50932F0F6093300F7093310F94
:1026A0008093320F9093330FBFC34130510509F02F
:1026B000BBC34B0160932C0F90922D0FB5C34130DB
:1026C000510509F0B1C39B0140E050E060E070E0CB
:1026D00080E090E000E30E94CB220091340F109143
:1026E000350FB091360FA091370FF091380FE09170
:1026F000390F202B312B4B2B5A2B6F2B7E2B2093FA
:10270000340F3093350F4093360F5093370F60934B
:10271000380F7093390F80933A0F90933B0F84C317
:102720004130510509F080C39B0140E050E060E07A
:1027300070E080E090E000E20E94CB220091340F34
:102740001091350FB091360FA091370FF0913A0FDD
:10275000E0913B0F202B312B4B2B5A2B8F2B9E2B99
:102760002093340F3093350F4093360F5093370F2B
:102770006093380F7093390F80933A0F90933B0F0B
:1027800053C34130510509F04FC39B0140E050E075
:1027900060E070E080E090E000E10E94CB220091D8
:1027A000340F1091350FB091380FA091390FF0917F
:1027B0003A0FE0913B0F202B312B6B2B7A2B8F2B79
:1027C0009E2B2093340F3093350F4093360F509348
:1027D000370F6093380F7093390F80933A0F9093AF
:1027E0003B0F22C34130510509F01EC34B016093DA
:1027F000340F9092350F18C34130510509F014C3BE
:102800009B0140E050E060E070E080E090E000E399
:102810000E94CB2200913C0F10913D0FB0913E0FD2
:10282000A0913F0FF091400FE091410F202B312BF1
:102830004B2B5A2B6F2B7E2B20933C0F30933D0F4D
:1028400040933E0F50933F0F6093400F7093410FA2
:102850008093420F9093430FE7C24130510509F036
:10286000E3C29B0140E050E060E070E080E090E077
:1028700000E20E94CB2200913C0F10913D0FB091DD
:102880003E0FA0913F0FF091420FE091430F202B9C
:10289000312B4B2B5A2B8F2B9E2B20933C0F30939D
:1028A0003D0F40933E0F50933F0F6093400F709346
:1028B000410F8093420F9093430FB6C241305105B0
:1028C00009F0B2C29B0140E050E060E070E080E0BF
:1028D00090E000E10E94CB2200913C0F10913D0F4F
:1028E000B091400FA091410FF091420FE091430F42
:1028F000202B312B6B2B7A2B8F2B9E2B20933C0F75
:1029000030933D0F40933E0F50933F0F6093400F25
:102910007093410F8093420F9093430F85C2809133
:10292000F00E9091F10E019709F07EC24B01609379
:102930003C0F90923D0F78C24130510509F074C2AE
:102940009B0140E050E060E070E080E090E000E358
:102950000E94CB220091440F1091450FB091460F79
:10296000A091470FF091480FE091490F202B312B98
:102970004B2B5A2B6F2B7E2B2093440F3093450FFC
:102980004093460F5093470F6093480F7093490F41
:1029900080934A0F90934B0F47C24130510509F085
:1029A00043C29B0140E050E060E070E080E090E0D6
:1029B00000E20E94CB220091440F1091450FB0918C
:1029C000460FA091470FF0914A0FE0914B0F202B3B
:1029D000312B4B2B5A2B8F2B9E2B2093440F309354
:1029E000450F4093460F5093470F6093480F7093E5
:1029F000490F80934A0F90934B0F16C241305105F7
:102A000009F012C29B0140E050E060E070E080E01D
:102A100090E000E10E94CB220091440F1091450FFD
:102A2000B091480FA091490FF0914A0FE0914B0FE0
:102A3000202B312B6B2B7A2B8F2B9E2B2093440F2B
:102A40003093450F4093460F5093470F6093480FC4
:102A50007093490F80934A0F90934B0FE5C141301B
:102A6000510509F0E1C14B016093440F9092450F6D
:102A7000DBC14130510509F0D7C19B0140E050E076
:102A800060E070E080E090E000E30E94CB220091E3
:102A90004C0F10914D0FB0914E0FA0914F0FF09130
:102AA000500FE091510F202B312B4B2B5A2B6F2BBA
:102AB0007E2B20934C0F30934D0F40934E0F50932D
:102AC0004F0F6093500F7093510F8093520F90935C
:102AD000530FAAC14130510509F0A6C19B0140E046
:102AE00050E060E070E080E090E000E20E94CB22E5
:102AF00000914C0F10914D0FB0914E0FA0914F0FC0
:102B0000F091520FE091530F202B312B4B2B5A2B6E
:102B10008F2B9E2B20934C0F30934D0F40934E0FD5
:102B200050934F0F6093500F7093510F8093520F3B
:102B30009093530F79C14130510509F075C19B0144
:102B400040E050E060E070E080E090E000E10E9452
:102B5000CB2200914C0F10914D0FB091500FA091CE
:102B6000510FF091520FE091530F202B312B6B2B13
:102B70007A2B8F2B9E2B20934C0F30934D0F40932D
:102B80004E0F50934F0F6093500F7093510F8093DF
:102B9000520F9093530F48C18091F00E9091F10E17
:102BA000019709F041C14B0160934C0F90924D0F7A
:102BB0003BC12130310509F037C19B0140E050E0B5
:102BC00060E070E080E090E000E30E94CB220091A2
:102BD000540F1091550FB091560FA091570FF091CF
:102BE000580FE091590F202B312B4B2B5A2B6F2B69
:102BF0007E2B2093540F3093550F4093560F5093D4
:102C0000570F6093580F7093590F80935A0F9093FA
:102C10005B0F0AC12130310509F006C19B0140E07C
:102C200050E060E070E080E090E000E20E94CB22A3
:102C30000091540F1091550FB091560FA091570F5E
:102C4000F0915A0FE0915B0F202B312B4B2B5A2B1D
:102C50008F2B9E2B2093540F3093550F4093560F7C
:102C60005093570F6093580F7093590F80935A0FDA
:102C700090935B0FD9C02130310509F0D5C09B017D
:102C800040E050E060E070E080E090E000E10E9411
:102C9000CB220091540F1091550FB091580FA09175
:102CA000590FF0915A0FE0915B0F202B312B6B2BBA
:102CB0007A2B8F2B9E2B2093540F3093550F4093DC
:102CC000560F5093570F6093580F7093590F80937E
:102CD0005A0F90935B0FA8C08091F00E9091F10E67
:102CE000019709F0A1C04B016093540F9092550FCA
:102CF0009BC08091F00E9091F10E019709F094C065
:102D0000CB01A0E0B0E0DC019927882740915C0F5F
:102D100050915D0F60915E0F70915F0F662777276E
:102D2000842B952BA62BB72B80935C0F90935D0F74
:102D3000A0935E0FB0935F0F77C08091F00E9091DB
:102D4000F10E019709F070C0CB01A0E0B0E0409116
:102D50005C0F50915D0F60915E0F70915F0F442783
:102D60005527842B952BA62BB72B80935C0F909324
:102D70005D0FA0935E0FB0935F0F56C08091F00E71
:102D80009091F10E019709F04FC0CB01A0E0B0E0A7
:102D9000BC01552744278091600F9091610FA0914D
:102DA000620FB091630FAA27BB27842B952BA62B0C
:102DB000B72B8093600F9093610FA093620FB09335
:102DC000630F32C08091F00E9091F10E019761F582
:102DD000AB0160E070E08091600F9091610FA09175
:102DE000620FB091630F88279927842B952BA62B10
:102DF000B72B8093600F9093610FA093620FB093F5
:102E0000630F12C09C012852304A2115384060F4EB
:102E1000A0E0B0E08852904AA109B1098850914FD2
:102E2000FC01E459FF4F6083A4960FB6F894DEBF0F
:102E30000FBECDBFDF91CF911F910F91FF90EF900B
:102E4000DF90CF90BF90AF909F908F907F906F90CA
:102E50005F904F903F902F9008950E947B061092B4
:102E6000550608952F923F924F925F926F927F92F4
:102E70008F929F92AF92BF92CF92DF92EF92FF928A
:102E80000F931F93CF93DF93CDB7DEB765970FB640
:102E9000F894DEBF0FBECDBF1A8219820E94D10600
:102EA000882309F4D0C20E94D106882309F4CBC23A
:102EB00061E0CE0103960E94D4069B81923521F4F5
:102EC0009093560681E00DC080915506E82FF0E002
:102ED000EB5AF94F91839A3019F48A3028F414C0D0
:102EE0008F5F80935506DFCF20915606223561F41F
:102EF00020915706253441F420915806273421F4B7
:102F0000209159062A3321F069E180E091E0B1C1B6
:102F100040915A06042E000C550B4053510920E1F4
:102F200037E2429FB001439F700D529F700D1124F4
:102F300040915B06042E000C550B40535109E8EEFE
:102F4000F3E04E9F90014F9F300D5E9F300D112496
:102F5000260F371F40915E06240F311D47FD3A951D
:102F600040915C06042E000C550B40535109E4E6D9
:102F7000E49FB001E59F700D1124A901460F571F72
:102F800020915D06022E000C330B20533109929FD5
:102F9000B001939F700D11243A01660E771E230134
:102FA00020E3421A5108815080935506E82FF0E043
:102FB000EB5AF94F91819F3309F05EC1BE016F5FFB
:102FC0007F4FC2010E943809882349F141145104FE
:102FD00079F40CE810E0F80184918B830F5F1F4FA8
:102FE0008823D1F061E0CE0103960E949D06F3CFC5
:102FF000F8E24F16F8EA5F0679F404E61FE0F801FC
:1030000081918F018B8361E0CE0103960E949D0622
:10301000F7E104361F0799F71092550614C229EFFD
:10302000421625E7520671F0411486E7580651F022
:103030009DE649169DE9590629F0C3018D7F883E1A
:103040009E49A1F53A812981932F990F990B492F18
:10305000592F692F792F892F00E10E94CB227B0104
:103060008C01BE016F5F7F4FC3018F972A8B3D8B11
:103070004B8B5C8B0E943809FA81A981EF2FEE0FF0
:10308000EE0B2A89222E2A2A3D89332E3F2A4B898C
:10309000442E4E2A5C89552E5E2A6E2C6E2A7F2C79
:1030A0007E2A802E8E2A912E9E2A87C029803A80E1
:1030B000C3018F7E8C3C9E4979F0C3018B7F803D9C
:1030C0002EE9920749F0E8EA4E16EEE95E0621F095
:1030D000803E9E4909F06CC0910140E050E060E004
:1030E00070E080E090E000E30E94CB22822EA32ECD
:1030F000D42EE52EB62EC72EF82E192FBE016F5FE7
:103100007F4FC3018F970E94380949815A819A01E4
:1031100040E050E060E070E080E090E000E20E947B
:10312000CB22822A9A2C932AD42AE52AB62ABC8258
:10313000C72ACD82F82A192BBE016F5F7F4FC301CA
:103140008E970E94380949815A819A0140E050E0E7
:1031500060E070E080E090E000E10E94CB22A22ECF
:103160004E8358876987B72EC82E092FBE016F5F1F
:103170007F4FC3018D973D8B0E94380989819A81C9
:10318000AC01282D282B892D852B222E2A283D891C
:10319000382E332A4E804D2858845E286C8029852D
:1031A000622A7D807B288F2C8C28912E902A05C046
:1031B000412C512C612C712C43018AE080937506BF
:1031C0009101A201B301C401A0E00E9429234CF4A3
:1031D0000E94842219012A013B014C018DE28D835A
:1031E00002C090E29D83BEE1FFEFFB0FFC839101E3
:1031F000A201B301C401A9E0EB2FF0E00E94292352
:1032000029F124F1CF018B5A994F9F838E838AE055
:10321000A82EB12CC12CD12CE12CF12C00E010E017
:103220009101A201B301C4010E94F421205DEE814D
:10323000FF8121839101A201B301C4010E94F62103
:1032400019012A013B014C01BC81CECF2C81209376
:103250005506EB5AF94F80E3820D8183822F90E06F
:10326000FC01EB5AF94F2D81218361E26B1B8A5AD5
:10327000994F0E949D06D0CEE1E0E9871A861B8611
:103280001C861D861E861F86188A812C912C1C8206
:103290001D821E821886212C312CE82FF0E0EB5A7B
:1032A000F94FE181E03209F46CC09FEF980F998BE0
:1032B000ED3289F48093550694014C815D816E81D5
:1032C0007885C1010E94842249014C835D836E830D
:1032D00078871C0158C00E2E000CFF0BF0979F2F13
:1032E000990F990BA984BA84CB84DC84ED84FE8485
:1032F0000F8518899F01492F592F692F792F892F01
:103300000E9461215401CC80DD80EE80F88481012F
:103310000E94022349014C835D836E8378871C01E0
:1033200029853A854B855C856D857E858F85988955
:1033300001E00E94CB2229873A874B875C87B62F12
:10334000A72FF82FE92F7A2F8F2F9E2F02E00E94B0
:10335000CB2259016A017B018C0129853A854B8575
:103360005C856B2F7A2F8F2F9E2F0E940223298737
:103370003A874B875C876D877E878F87988B898993
:103380008CCF80935506FDE64F16FDE95F0629F0C8
:10339000C3018D7F883E9E4989F494014C815D81F3
:1033A0006E817885C10100E10E94E422B901C20169
:1033B0000E94280DB401C3018F9742C0C3018F7EC4
:1033C0008C3C9E4971F0C3018B7F803DFEE99F07D5
:1033D00041F028EA42162EE9520619F0803E9E4935
:1033E00069F594014C815D816E817885C10100E3AE
:1033F0000E94E422B901C2010E94280D94014C816F
:103400005D816E817885C10100E20E94E422B901EC
:10341000C3018F970E94280D94014C815D816E81BC
:103420007885C10100E10E94E422B901C3018E97B1
:103430000E94280DB401C3018D9702C0B401C201DE
:103440000E94280DE9CD65960FB6F894DEBF0FBE39
:10345000CDBFDF91CF911F910F91FF90EF90DF9043
:10346000CF90BF90AF909F908F907F906F905F9024
:103470004F903F902F9008950F931F93CF93DF931A
:10348000E6E7F6E01082118212821382148215821E
:103490001682178210861186128613861486158668
:1034A00016861786E2EDFEE0808991899F7C918BDC
:1034B000808B80EC9AE00E9426208EEA96E00E94A3
:1034C00026200E945402C8EFDEE00CA51DA52EA503
:1034D0003FA548A959A96AA97BA986E896E00E9458
:1034E0007502E4E3FFE00081118122813381448190
:1034F0005581668177818EE896E00E947502E4E44A
:10350000FFE00081118122813381448155816681F0
:1035100077818EE996E00E947502E4E5FFE0008184
:10352000118122813381448155816681778186EAC8
:1035300096E00E94750201E010E020E030E040E0FB
:1035400050E060E070E086E996E00E9475020E941B
:103550005A070E9467000E947B00888599850E9417
:103560002A018C859D850E944701688589856F7039
:103570008F700E94320180E00E94130180E090E091
:103580000E941A01DF91CF911F910F910C947D0041
:103590002F923F924F925F926F927F928F929F9263
:1035A000AF92BF92CF92DF92EF92FF920F931F9351
:1035B000CF93DF93CDB7DEB7A1970FB6F894DEBFF8
:1035C0000FBECDBF4090D40E5090D50E6090D60E59
:1035D0007090D70EE091D20EF091D30EFB8BEA8B58
:1035E000F0917E06FC8B20917F062D8B309180061A
:1035F0003E8B409181064F8B50918206588F60918F
:103600008306698F709184067A8F809185068B8FEF
:10361000A3019201550F220B322FA90129833A836E
:103620004B835C839201A3016981762F862F962FAD
:1036300002E00E94CB2252016301E980FE2C0E2D94
:103640001E2D0E94172359016A017B01E82F192FB3
:1036500004E00E94CB220E2F0E94172302E00E945A
:10366000CB2252016301E980FE2C0E2D1E2D0E94FB
:10367000022303E00E94CB227901142FB52FF62FED
:10368000E72F6C01A0E00E94292374F42150384FE9
:103690004F4F5F4F6F4F7F4F8F4F9F4F7901142FC9
:1036A000B52FF62FE72F6C019701412F5B2F6F2F5E
:1036B0007E2FC6010BE00E94E42249011A012B0172
:1036C0003C016A897B89AB0160E070E080E090E0BA
:1036D000DC0149835A836B837C838D839E83AF8314
:1036E000B8879A01AB0160E070E080E090E002E012
:1036F0000E94CB22A980BA80CB80DC80E12CF12C07
:1037000000E010E00E94172359016A017B01E82FB5
:10371000192F04E00E94CB220E2F0E94172302E0F3
:103720000E94CB22A980BA80CB80DC80E12CF12CD6
:1037300000E010E00E94022303E00E94CB220CE094
:103740000E94E422E091D80EF091D90EA5E0F69502
:10375000E795AA95E1F7EC59F04FA080B12CC12C68
:10376000D12C00E00E94612108E00E94E422209315
:10377000DC0E3093DD0EC401092E000CAA0BBB0B2E
:103780008093DE0E9093DF0EA093E00EB093E10ED7
:1037900086E996E00E94EA022091E40E3091E50E5F
:1037A0002115310521F4882309F47EC06DC0213034
:1037B000310509F063C01092E50E1092E40E0091FD
:1037C0002C0F10912D0F20912E0F30912F0F409123
:1037D000300F5091310F6091320F7091330F86E9A5
:1037E00096E00E9475028091E20E9091E30E95FDA5
:1037F0005BC09D7F94629093E30E8093E20E1092E3
:10380000760610927706109278061092790610923A
:103810007A0610927B0610927C0610927D0610921A
:103820007E0610927F0610928006109281061092FA
:10383000820610928306109284061092850680916B
:10384000EA0E9091EB0E019719F483E090E002C02C
:1038500081E090E00E94050180E090E00E941A0162
:1038600080E00E9413010E947D0087E893E10197A8
:10387000F1F700C000000E94790016C08FEF9FEFA3
:103880009093E50E8093E40E8091E20E9091E30E0A
:103890009B7D92609093E30E8093E20E1092D90E7E
:1038A0001092D80E0E947B008091E20E9091E30E60
:1038B0008F7C9F7B9093E30E8093E20E8091D20EDB
:1038C0009091D30E20910A0F30910B0F821793071E
:1038D000E0F42091080F3091090F28173907A8F458
:1038E0000091540F1091550F2091560F3091570FA2
:1038F0004091580F5091590F60915A0F70915B0F82
:1039000086EA96E00E94750214C086EA96E00E945C
:10391000EA022091E20E3091E30E811103C0206192
:10392000306403C03F7D216030683093E30E209304
:10393000E20E8091E20E9091E30E94FD3AC0409128
:10394000DE0E5091DF0E6091E00E7091E10E8091DD
:10395000140F9091150FA0E0B0E0481759076A07BF
:103960007B073CF58091160F9091170FA0E0B0E017
:10397000B095A095909581959F4FAF4FBF4F8417FD
:103980009507A607B707ACF40091440F1091450FB7
:103990002091460F3091470F4091480F5091490FA9
:1039A00060914A0F70914B0F8EE996E00E9475026C
:1039B00014C08EE996E00E94EA022091E20E309156
:1039C000E30E811103C02062306403C03F7D22609A
:1039D00030683093E30E2093E20E8EE896E00E946A
:1039E000EA02882331F18091E20E9091E30E94FD7A
:1039F00020C02091EC0E3091ED0E21303105C9F43C
:103A000090619093E30E8093E20E0091340F109139
:103A1000350F2091360F3091370F4091380F50916C
:103A2000390F60913A0F70913B0F8EE896E00E943B
:103A300075028091E20E9091E30E95FF6BC1A0910B
:103A4000E80EB091E90EBB8BAA8B2091D80E309175
:103A5000D90E8091E60E9091E70EA217B30718F4E5
:103A600018161906ACF1009799F19C01092E000C6B
:103A7000440B550B1816190694F46091140F7091AD
:103A8000150F80E090E00E94BA21F4E6AF2EB12C31
:103A9000C12CD12CE12CF12C00E010E016C060917B
:103AA000160F7091170F80E090E00E94BA21ECE9A8
:103AB000AE2EBB24BA94CC24CA94DD24DA94EE242E
:103AC000EA94FF24FA940FEF1FEF0E94F62108C03A
:103AD00020E030E040E050E060E070E080E090E026
:103AE00054016101720183010E94172329833987E0
:103AF0004A875B876C877D878E879F8720937606B2
:103B000030937706409378065093790660937A064F
:103B100070937B0680937C0690937D06A0907E0632
:103B2000B0907F06C0908006D0908106E09082061B
:103B3000F090830600918406109185060E9402236E
:103B4000922E39A348A3452E562E672E782E892E05
:103B500020937E0630937F06409380065093810623
:103B60006093820670938306809384069093850603
:103B70003091210F2091200F932F990F990BA9803D
:103B8000B984CA84DB84EC84FD840E851F85492FAB
:103B9000592F692F792F892F0E9461211901488B94
:103BA000598B6C8F7D8F8E8F9F8F3091230F20913B
:103BB000220F932F990F990BA92CB9A0C8A0D42C30
:103BC000E52CF62C072D182D492F592F692F792F09
:103BD000892F0E94612159016A017B018C019101A9
:103BE000488959896C8D7D8D8E8D9F8D0E94022311
:103BF0007901142FD52E062FB72FF82FE92FA0E02B
:103C00000E9429232CF5298139854A855B856C859D
:103C10007D858E859F850E9429230CF063C0BC8919
:103C2000B0937E06ED89E0937F06FE89F0938006CF
:103C30002F8920938106388D30938206498D4093D9
:103C400083065A8D509384066B8D609385064AC017
:103C50009701412F5D2D602F7B2F8F2F9E2F00E12D
:103C60000E94E422F9014F8F5C8FB62FA72F8D8F12
:103C70009E8F8A899B891C019F016B2F7A2F8D8DC6
:103C80009E8D5101C12CD12CE12CF12C00E010E0D3
:103C90000E94202351F14CF1298139854A855B85A9
:103CA0006C857D858E859F85A0E00E942923F1F09B
:103CB000ECF09C8990937E06AD89A0937F06BE8927
:103CC000B0938006EF89E0938106F88DF093820629
:103CD000298D209383063A8D309384064B8D409333
:103CE000850604C0212C312C01C01F013092D90E51
:103CF0002092D80EC1010E941A01F10185E0F695CB
:103D0000E7958A95E1F7EC59F04F80810E94130105
:103D10000E947D000091240F1091250F2091260F05
:103D20003091270F4091280F5091290F60912A0F51
:103D300070912B0F86E896E00E947502A1960FB64F
:103D4000F894DEBF0FBECDBFDF91CF911F910F91D1
:103D5000FF90EF90DF90CF90BF90AF909F908F90AB
:103D60007F906F905F904F903F902F9008952F928B
:103D70003F924F925F926F927F928F929F92AF92FB
:103D8000BF92CF92DF92EF92FF920F931F93CF9348
:103D9000DF93CDB7DEB7A8970FB6F894DEBF0FBE9E
:103DA000CDBF198E1A8E1B8E1C8E1D8E1E8E1F8EE1
:103DB00018A2198A1A8A1B8A1C8A1D8A1E8A1F8ABF
:103DC000188E19861A861B861C861D861E861F86DF
:103DD000188A19821A821B821C821D821E821F82EF
:103DE00018869E012F5F3F4FAE01475F5F4FBE01B8
:103DF0006F5E7F4FCE0149960E946607298D3A8DEE
:103E00004B8D5C8D6D8D7E8D8F8D98A127563840A2
:103E100041095109610971098109910959016A0131
:103E20007B01E82F192F02E00E94CB220E2F0E9467
:103E30000223F22E032F142FB52FF62FE72F982EE3
:103E4000E92EA0E00E9429235CF4A3E00E940B234A
:103E5000F22E032F142FB52FF62FE72F982EE92ED1
:103E60002F2D302F412F5B2F6F2F7E2F892D9E2DD1
:103E700002E00E94E42240905C0F50905D0F609041
:103E80005E0F70905F0F83017201110FEE08FE2C20
:103E90008701E9A2FAA20BA31CA352016301E9A0C6
:103EA000FE2C0E2D1E2D0E940223322E432E542E48
:103EB00059A36DA37EA38FA398A7298F3A8F4B8F09
:103EC0005C8F6D8F7E8F8F8F98A329893A894B895C
:103ED0005C896D897E898F89988D27563840410984
:103EE00051096109710981099109222E732E4A0134
:103EF000B62FA72FF82FE92F06E00E94CB22A22C85
:103F0000B72C6401EB2EFA2E0F2F1E2F0E941723C1
:103F100001E00E94CB220F2F0E94172302E00E9493
:103F2000CB22F22E032F142FB52FF62FE72F982E2A
:103F3000E92EA0E00E9429235CF4AFE00E940B234D
:103F4000F22E032F142FB52FF62FE72F982EE92EE0
:103F50002F2D302F412F5B2F6F2F7E2F892D9E2DE0
:103F600004E00E94E422E090600FF090610F009165
:103F7000620F1091630F37014801990C6608762C87
:103F8000430157016801E62CF62C062D162D0E94E0
:103F90000223298B3A8B4B8B5C8B6D8B7E8B8F8BAB
:103FA000988F232D342D452D59A16DA17EA18FA170
:103FB00098A5A0E00E94292344F4198E1A8E1B8E26
:103FC0001C8E1D8E1E8E1F8E18A2498D5A8D6B8DD4
:103FD0007C8D80EC9AE00E944E209093D30E8093CB
:103FE000D20E49895A896B897C898EEA96E00E94B3
:103FF0004E20092E000CAA0BBB0B8093D40E90937D
:10400000D50EA093D60EB093D70E86E896E00E9408
:10401000EA0291E0811190E0892FA8960FB6F894FA
:10402000DEBF0FBECDBFDF91CF911F910F91FF90EB
:10403000EF90DF90CF90BF90AF909F908F907F9048
:104040006F905F904F903F902F900895DC01BC5F80
:1040500011961C921E92FC01E65FFB4F10821182AA
:104060001282138214821582168217823897108268
:104070001182128213821482158216821782FC0129
:104080001192119211921192EA17FB07C9F7089544
:10409000FC01E65FFB4F8081918108952F923F9252
:1040A0004F925F926F927F928F929F92AF92BF9248
:1040B000CF92DF92EF92FF920F931F93CF93DF93F4
:1040C000CDB7DEB72A970FB6F894DEBF0FBECDBFCF
:1040D00098878F832A013B019C5F9E838D83FC011F
:1040E000208031804101880C991C880C991CEF813B
:1040F000F8858E0E9F1EEE5FFB4FD401ED90FD9074
:104100000D911C91D801C701BB0F880B982FDC01C2
:1041100089839A83AB83BC8320813181428153811F
:10412000648175818681978157016801E980FE2C41
:104130000E2D1E2D0E94172383017201110FEE0810
:10414000FE2C8701E982FA820B831C8352016301F2
:10415000E980FE2C0E2D1E2D0E9402232083318328
:10416000428353836483758386839783F22E032F60
:10417000142FB52FF62FE72FD82EE92EA0E00E949E
:10418000292384F421503F4F4F4F5F4F6F4F7F4F94
:104190008F4F9F4FF22E032F142FB52FF62FE72F9F
:1041A000D82EE92E2F2D302F412F5B2F6F2F7E2FF2
:1041B0008D2D9E2D08E00E94E422EF81F885E65FB8
:1041C000FB4F2083318342835383648375838683CB
:1041D0009783D4014D925D926D927C921397BFEFBD
:1041E0002B1A3B0A3324ED81FE8131822082C901E2
:1041F0002A960FB6F894DEBF0FBECDBFDF91CF91E8
:104200001F910F91FF90EF90DF90CF90BF90AF90F4
:104210009F908F907F906F905F904F903F902F90E6
:1042200008959EE088E10FB6F894A8958093600009
:104230000FBE90936000A89578940E94E407A8951B
:104240000E942D17A8950E94C707A8950E943C1AA6
:10425000A8950E94B71E8111FBCF0E94D1070E9432
:1042600032170E94C81AF5CFA1E21A2EAA1BBB1B57
:10427000FD010DC0AA1FBB1FEE1FFF1FA217B30732
:10428000E407F50720F0A21BB30BE40BF50B661F48
:10429000771F881F991F1A9469F76095709580950C
:1042A00090959B01AC01BD01CF0108950E9435237B
:1042B000A59F900DB49F900DA49F800D911D11247A
:1042C0000895DF93CF931F930F939A9DF02D219F15
:1042D000F00D8B9DF00D8A9DE02DF10D039FF00DEB
:1042E000029FE00DF11D4E9DE00DF11D5E9DF00D54
:1042F0004F9DF00D7F936F93BF92AF925F934F935B
:10430000D5010E9435238B01AC01D7010E943523D2
:10431000EB01E80FF91FD6010E94B1212F913F91C7
:10432000D6010E943523C60FD71FE81FF91FAF9192
:10433000BF910E94B1212F913F910E943523C60F5A
:10434000D71FE81FF91FD6010E943523E60FF71F7C
:104350009801BE01CF0111240F911F91CF91DF91E0
:1043600008950E943523460F571FC81FD91F08F410
:104370003196089597FB57FF0C94CA219F938F9312
:104380000E94CA216E1B7F0BAF91BF918A0B9B0BC2
:104390000895E894DF93CF93FC01DB010E9435235D
:1043A0007F936F93E9019A01AC01BF93AF933F9361
:1043B0002F93DF010E94352326F46C1B7D0B820BAB
:1043C000930B9E01EB01FC010E94B121AF91BF91C3
:1043D0002F913F910E94B121BE01CF01F9012F9190
:1043E0003F91CF91DF910895689401C0E894F92F2F
:1043F000F12B12F00C942822A0E0B0E0E2E0F2E20F
:104400000C949A22092E059422F40E9484221123EE
:1044100092F4F0E80F26FFEFE094F09400951095E9
:10442000B094C094D094A194BF0ACF0ADF0AEF0AD7
:10443000FF0A0F0B1F0B0E94332207FC0E948422ED
:10444000CDB7DEB7ECE00C94B622689401C0E894D6
:104450008F929F92CF93DF930E943322DF91CF916F
:104460009F908F90089588249924F401E401B0E48A
:104470009F93AA279A158B049C04ED05FE05CF0592
:10448000D007A10798F4AD2FDC2FCF2FFE2FE92DF9
:10449000982C892E982F872F762F652F542F432FF6
:1044A000322F2227B85031F7BF9127C01B2EBF9162
:1044B000BB27220F331F441F551F661F771F881FFE
:1044C000991F881C991CEE1FFF1FCC1FDD1FAA1F00
:1044D000BB1F8A149B04EC05FD05CE05DF05A00774
:1044E000B10748F08A189B08EC09FD09CE09DF09DD
:1044F000A00BB10B21601A94E1F62EF49401AF01E8
:10450000BE01CD01000C0895609570958095909541
:1045100030954095509521953F4F4F4F5F4F6F4FCE
:104520007F4F8F4F9F4F08952F923F924F925F92F0
:104530006F927F928F929F92AF92BF92CF92DF92B3
:10454000EF92FF920F931F93CF93DF93CDB7DEB718
:10455000CA1BDB0B0FB6F894DEBF0FBECDBF0994AC
:104560002A88398848885F846E847D848C849B8403
:10457000AA84B984C884DF80EE80FD800C811B8111
:10458000AA81B981CE0FD11D0FB6F894DEBF0FBE40
:10459000CDBFED0108950F93083090F0982F872F2D
:1045A000762F652F542F432F322F22270850F4CF18
:1045B000220F331F441F551F661F771F881F991F27
:1045C0000A95B2F70F91089597FB10F8169400081A
:1045D0000F93083098F00850232F342F452F562F73
:1045E000672F782F892F902DF4CF05949795879575
:1045F0007795679557954795379527950A95AAF723
:104600000F9108952A0D3B1D4C1D5D1D6E1D7F1DD4
:10461000801F911F08950024A7FD00942A0F301DCC
:10462000401D501D601D701D801D901D08952A198C
:104630003B094C095D096E097F09800B910B0895B8
:104640002A153B054C055D056E057F058007910722
:1046500008950024A7FD00942A1730054005500551
:1046600060057005800590050895A29FB001B39F75
:10467000C001A39F700D811D1124911DB29F700D6B
:10468000811D1124911D0895BEE304D008F490E823
:104690000895BFE322273327A9010E94D52360F1A3
:1046A0009F5748F1B91740F1BFE3B91B9927B8509C
:1046B0003AF4660F771F881F991FB395D2F316C07F
:1046C000B8504AF0232F342F452F562F672F782FBD
:1046D0008827B850BAF7B85F49F0869577956795FF
:1046E0005795479537952795BA95B9F716F40E94CF
:1046F000BD2388940895889460E070E0CB0108950C
:10470000E89409C097FB3EF490958095709561956B
:104710007F4F8F4F9F4F9923A9F0F92F96E9BB2721
:104720009395F695879577956795B795F111F8CF9D
:10473000FAF4BB0F11F460FF1BC06F5F7F4F8F4F08
:104740009F4F16C0882311F096E911C0772321F0FE
:104750009EE8872F762F05C0662371F096E8862F96
:1047600070E060E02AF09A95660F771F881FDAF7ED
:10477000880F9695879597F90895909580957095EF
:10478000609550954095309521953F4F4F4F5F4F25
:104790006F4F7F4F8F4F9F4F089557FD9058440F95
:1047A000551F59F05F3F71F04795880F97FB991F90
:1047B00061F09F3F79F0879508951216130614064D
:1047C000551FF2CF4695F1DF08C0161617061806DA
:1047D000991FF1CF869571056105089408950E948F
:1047E00002240C9473240E94652438F00E946C24E7
:1047F00020F0952311F00C945C240C946224112475
:104800000C9485240E94CD2370F3959FC1F3950FDE
:1048100050E0551F629FF001729FBB27F00DB11D44
:10482000639FAA27F00DB11DAA1F649F6627B00DD4
:10483000A11D661F829F2227B00DA11D621F739FBD
:10484000B00DA11D621F839FA00D611D221F749FCB
:104850003327A00D611D231F849F600D211D822F12
:10486000762F6A2F11249F5750409AF0F1F0882339
:104870004AF0EE0FFF1FBB1F661F771F881F915066
:104880005040A9F79E3F510580F00C945C240C9495
:1048900085245F3FE4F3983ED4F38695779567953A
:1048A000B795F795E7959F5FC1F7FE2B880F911D90
:1048B0009695879597F9089597F99F6780E870E036
:1048C00060E008959FEF80EC089500240A94161686
:1048D000170618060906089500240A9412161306EE
:1048E000140605060895092E0394000C11F488237C
:1048F00052F0BB0F40F4BF2B11F460FF04C06F5F98
:104900007F4F8F4F9F4F0895E894BB2766277727E7
:0A491000CB0197F90895F894FFCF4A
:10491A0053656E64205245473A30303030303F207C
:0A492A00666F722068656C700A0069
:00000001FF
