:100000000C9446000C9465000C9465000C946500FB
:100010000C9465000C9465000C9465000C946500CC
:100020000C9465000C9465000C9465000C946500BC
:100030000C9465000C9465000C9465000C94C80346
:100040000C9465000C9465000C9465000C944E01B2
:100050000C9446050C9409060C9465000C946500FC
:100060000C9465000C9465000C9465000C9465007C
:100070000C94E5060C940F070C9465000C94650035
:100080000C9465000C941A050C94650011241FBE95
:10009000CFEFD0E4DEBFCDBF13E0A0E0B1E0E2E5FA
:1000A000FCE400E00BBF02C007900D92AA31B1073B
:1000B000D9F721E1AAE1B3E001C01D92AE37B20742
:1000C000E1F70E9451220C9427260C940000569AC6
:1000D0005E9884B1806B84B926982C9A85B18F750F
:1000E00085B910921A0310922F0383ED8CBD1DBCAD
:1000F00008955E9A08955E98089580911A0381117B
:10010000FECF10921B0380912F0381FF0DC09091B1
:10011000300390931C0391E090931D0392E0909321
:100120001A03EEE1F3E002C0ECE1F3E082FF0BC062
:1001300090913103908392E09183329690911A03CB
:100140009E5F90931A0383FF0EC09091320320911B
:1001500033032083918393E09283339690911A0323
:100160009D5F90931A0384FF0EC0909134032091F9
:1001700035032083918394E09283339690911A0300
:100180009D5F90931A0385FF0BC090913603908377
:1001900095E09183329690911A039E5F90931A0393
:1001A00086FF0BC090913703908396E0918332963F
:1001B00090911A039E5F90931A0387FF0AC0809163
:1001C0003803808387E0818380911A038E5F809358
:1001D0001A0310922F032C9881E28A95F1F7000000
:1001E000E0911A03E11106C081E28A95F1F700005F
:1001F0002C9A0895F0E0E55EFC4F80818EBD8091E1
:100200001A03815080931A030895029718F41092EC
:10021000300303C081E08093300380912F0382601C
:1002200080932F030895EFE2F3E08283808184605E
:1002300080830895EFE2F3E0948383838081886074
:1002400080830895EFE2F3E0968385838081806167
:1002500080830895EFE2F3E08F5F8783808180627F
:10026000808308959FEF980F9F3080F49FEF960F43
:100270009F3060F420E1829FC0011124862B80937F
:10028000370380912F03806480932F030895EFE25A
:10029000F3E0818780818068808308951F920F92A8
:1002A0000FB60F9211240BB60F928F93EF93FF931B
:1002B000E0911A03E11106C081E28A95F1F700008E
:1002C0002C9A0AC0F0E0E55EFC4F80818EBD8091E3
:1002D0001A03815080931A03FF91EF918F910F9031
:1002E0000BBE0F900FBE0F901F9018950F931F938A
:1002F000CF93DF9300D0CDB7DEB79C01CB01BA011D
:100300001A821982AC01460F571FF901DC01A417AC
:10031000B50761F0F894A895F999FECFE1BDF2BD5B
:10032000F89A789410B51D933196F1CF260F371FA8
:10033000F894A895F999FECF21BD32BDF89A78942A
:1003400010B52F5F3F4FF894A895F999FECF21BDC6
:1003500032BDF89A789400B59E012E5F3F4FAE01F2
:100360004F5F5F4F0E9438028981081307C081E008
:100370009A81191301C080E0819501C08FEF0F9021
:100380000F90DF91CF911F910F910895EF92FF92FF
:100390000F931F93CF93DF9300D0CDB7DEB78C01BF
:1003A000CB017A011A821982FB01640F751F980133
:1003B000E617F707D9F04191F894A895F894A89515
:1003C000F999FECFA22F21BD532F32BDF89A789410
:1003D000B0B5B41739F0F999FECFA1BD52BD40BDFB
:1003E000FA9AF99A78942F5F3F4FE2CF9E012E5FE1
:1003F0003F4FAE014F5F5F4F6E2D0E9438022A8142
:10040000C701800F911FF894A895F894A895F999C1
:10041000FECF81BD92BDF89A789430B5321739F08D
:10042000F999FECF81BD92BD20BDFA9AF99A7894D0
:1004300029810196F894A895F894A895F999FECF8A
:1004400081BD92BDF89A789430B5321739F0F99998
:10045000FECF81BD92BD20BDFA9AF99A78940F9093
:100460000F90DF91CF911F910F91FF90EF90089522
:10047000CF93DF93DA01E9012FEF28832C939C01BE
:100480006150B0F0F90181919F019C91E82FE9271B
:100490004E2F50E0CA0180509E4FFC018081988110
:1004A00098279C93FA01E050FF4F80818883E8CF22
:1004B000DF91CF910895F894E9E3F3E0108211827F
:1004C000128213821482158216821782109285007E
:1004D00010928400EFE6F0E08081816080831092CA
:1004E000800081E080938100789408952F923F925C
:1004F0004F925F926F927F928F929F92AF92BF9234
:10050000CF92DF92EF92FF920F931F93CF93DF93DF
:10051000CDB7DEB727970FB6F894DEBF0FBECDBFBD
:100520009E838D837901E42FD52ECB012091840009
:1005300030918500A9E3B3E011963C932E932C9063
:1005400011963C90119712964C90129713965C90CE
:1005500013971496FC91149715962C9115972A834E
:1005600016962C9116972B8317962C912C83980115
:10057000A7016E2F7D2D02E00E94012439014A015E
:100580006F83E72FB82FA92F0E94012459016A0118
:100590007B018C019301A4016F817E2F8B2F9A2FF9
:1005A0000E94382451016201EF2EFA800B811C81D8
:1005B0000E943824ED81FE8120833183428353835E
:1005C000648375838683978327960FB6F894DEBF7E
:1005D0000FBECDBFDF91CF911F910F91FF90EF9094
:1005E000DF90CF90BF90AF909F908F907F906F9053
:1005F0005F904F903F902F9008957F928F929F929F
:10060000AF92BF92CF92DF92EF92FF920F931F9320
:10061000CF93DF93FC0180918400909185009093AB
:100620003A0380933903708081809280D381C481A2
:10063000B581A681F781A0903903B0903A03C090AC
:100640003B03D0903C03E0903D03F0903E030091CB
:100650003F0310914003272D382D492D5D2F6C2F1E
:100660007B2F8A2F9F2F0E944124E1E0A72CB82CDA
:10067000C92CDD2EEC2EFB2E0A2F1F2F0E944A24A0
:1006800008F4E0E08E2FDF91CF911F910F91FF9042
:10069000EF90DF90CF90BF90AF909F908F907F9022
:1006A00008952F923F924F925F926F927F928F9216
:1006B0009F92AF92BF92CF92DF92EF92FF920F93F1
:1006C0001F93CF93DF9300D000D01F92CDB7DEB73A
:1006D000FC01809184009091850090933A0380936F
:1006E0003903208031804280538064807580A681E8
:1006F000A983E781A0903903B0903A03C0903B03EF
:10070000D0903C03E0903D03F0903E0300913F0306
:10071000109140039101A201B3018A2F9E2F0E94E4
:1007200041245B838C839D835101620173010981A4
:100730001E2F0E944A2460F4E4E1AE2EB12CC12C9D
:10074000D12CE12CF12C00E010E00E945D2308C0C8
:1007500020E030E040E050E060E070E080E090E0D9
:100760000F900F900F900F900F90DF91CF911F91EE
:100770000F91FF90EF90DF90CF90BF90AF909F9040
:100780008F907F906F905F904F903F902F90089543
:100790001F920F920FB60F9211240BB60F922F9348
:1007A0003F934F935F936F937F938F939F93EF93B9
:1007B000FF93E9E3F3E02081318142815381648139
:1007C0007581868197814F5F5F4F6F4F7F4F8F4F4E
:1007D0009F4F208331834283538364837583868351
:1007E0009783FF91EF919F918F917F916F915F918F
:1007F0004F913F912F910F900BBE0F900FBE0F9016
:100800001F9018958F929F92AF92BF92CF92DF92D6
:10081000EF92FF921F93CF93DF934A015B01C22FA8
:1008200010924C0610924D0610924E0610924505FD
:100830001092440510924705109246051092490502
:10084000109248058093430381E090E09093420327
:100850008093410360EA75E286E290E0A50194018D
:100860000E94752269017A01C501B4010E941C250C
:100870004B015C019B01AC0166E571E283E89CE4FD
:100880000E946E240E94E524122FD32FA50194010B
:100890006EEC78E08CEE9CE40E946E240E94E524CD
:1008A000209A289ABB27AF2D9E2D8D2D8093C500B1
:1008B000C092C400C13019F020F48EE003C086E37A
:1008C00001C086E28093C20082E08093C00088E984
:1008D0008093C100812F9D2F909399008093980061
:1008E00030939B0020939A001092900010929100F8
:1008F000809171008460809371008091910082608A
:1009000080939100DF91CF911F91FF90EF90DF9046
:10091000CF90BF90AF909F908F900895A895EFEFE4
:10092000F0E0262F30E040914E06DF01A41BB10914
:100930002A173B07C4F7282FFC018E2F821B86172E
:1009400068F4A0914D06B0E08191A45BBA4F8C93FE
:1009500080914D068F5F80934D06EFCF80914E06BC
:10096000680F60934E068091C10085FD17C080918D
:100970004103909142030297D1F788E090E0909371
:1009800042038093410328988091C0008064809343
:10099000C0008091C10080628093C1000895809161
:1009A0004805909149050895A895262F30E040917B
:1009B00048055091490542175307C8F3482FFC01D9
:1009C0008E2F841B861798F4A0914405B09145059D
:1009D000AC5BBC4F8C91819380914405909145050F
:1009E000019691709093450580934405E9CF8091DD
:1009F000480590914905821B930B9093490580937C
:100A00004805089510924E0680914D0680934C063D
:100A10000895109249051092480510924B051092C6
:100A20004A0580914605909147059093450580932E
:100A3000440508951F920F920FB60F9211240BB622
:100A40000F928F939F93EF93FF93EAE4F5E08081F9
:100A5000918190934905809348051182108282E02C
:100A600090E09093420380934103E1E9F0E08081BC
:100A70008D7F8083C19AFF91EF919F918F910F900D
:100A80000BBE0F900FBE0F901F9018951F920F92E4
:100A90000FB60F9211240BB60F922F933F938F93A3
:100AA0009F93EF93FF931092950010929400809182
:100AB0009100826080939100809141039091420364
:100AC000019731F08091410390914203089751F4CE
:100AD000E0914605F09147058091C600EC5BFC4F24
:100AE00080838AC0C19915C08091C00084FD11C067
:100AF0008091C00082FD0DC080914805909149050C
:100B000020914A0530914B05820F931F813092400E
:100B100020F1E0914605F09147058091C600EC5B1D
:100B2000FC4F8083809146059091470520914A05AE
:100B300030914B05821B930B9170909347058093E6
:100B4000460510924B0510924A0581E090E0909383
:100B5000420380934103C19A4FC0E0914605F09152
:100B600047058091C600EC5BFC4F80838091410378
:100B700090914203029769F5E0914605F09147058F
:100B8000EC5BFC4F208180914303022E000C330B61
:100B900090E028173907B1F48091460590914705F8
:100BA00001969170909347058093460580914A0580
:100BB00090914B05019690934B0580934A0584E0F4
:100BC00090E002C081E090E0909342038093410363
:100BD00013C08091460590914705019691709093BE
:100BE00047058093460580914A0590914B050196F3
:100BF00090934B0580934A05FF91EF919F918F91C0
:100C00003F912F910F900BBE0F900FBE0F901F9032
:100C100018951F920F920FB60F9211240BB60F92D8
:100C20002F933F934F935F936F937F938F939F93F4
:100C3000AF93BF93EF93FF9380914E06882399F073
:100C4000E0914C06F0E0E45BFA4F80818093C600AF
:100C500080914C068F5F80934C0680914E068150A8
:100C600080934E061AC08091C1008F7D8093C10091
:100C7000289A0E9402050E940905C19A10929500C7
:100C8000109294008091910082608093910081E0A5
:100C900090E09093420380934103FF91EF91BF91C5
:100CA000AF919F918F917F916F915F914F913F9104
:100CB0002F910F900BBE0F900FBE0F901F901895A5
:100CC00010925208109253081092540810924F0735
:100CD000109250071092510782E08093CD0088E077
:100CE0008093CC00E8ECF0E0808182608083E9ECC6
:100CF000F0E0808188698083EAECF0E080818660A2
:100D000080830895A895EFEFF0E0262F30E0409122
:100D10005408DF01A41BB1092A173B07C4F7282F89
:100D2000FC018E2F821B861768F4A0915308B0E057
:100D30008191AE5AB84F8C93809153088F5F809306
:100D40005308EFCF80915408680F60935408809146
:100D5000C90085FD0AC08091C80080648093C800E6
:100D60008091C90080628093C900089580915107E5
:100D70000895A895209151072617E0F3282FFC012C
:100D80008E2F821B861768F4A0914F07B0E0A15BFD
:100D9000B94F8C91819380914F078F5F80934F075C
:100DA000EFCF80915107861B8093510708951092D1
:100DB0005408109252081092530808951092510747
:100DC00010924F071092500708951F920F920FB67E
:100DD0000F9211240BB60F928F93EF93FF93809194
:100DE00051078F3F91F0E0915007F0E08091CE00E5
:100DF000E15BF94F8083809150078F5F80935007AC
:100E0000809151078F5F80935107FF91EF918F91F0
:100E10000F900BBE0F900FBE0F901F9018951F9252
:100E20000F920FB60F9211240BB60F928F93EF9380
:100E3000FF9380915408882399F0E0915208F0E0E4
:100E4000EE5AF84F80818093CE00809152088F5FD8
:100E5000809352088091540881508093540805C0B3
:100E60008091C9008F7D8093C900FF91EF918F9190
:100E70000F900BBE0F900FBE0F901F90189587B16B
:100E80008F7087B988B18F7088B98AB1806A8AB942
:100E90005D985F9A0895CF93DF93EB01DA01B90172
:100EA000FC01118210821982188211961C921E92E6
:100EB000F901118210825D985F98F5E0FA95F1F7DB
:100EC0005D9A25E02A95F1F75D98E5E0EA95F1F75E
:100ED0005D9AF5E0FA95F1F75D9825E02A95F1F72E
:100EE0005D9A4CE0E5E0EA95F1F75D98F5E0FA955A
:100EF000F1F75D9AFC0120813181220F331F31838C
:100F00002083349B03C02160318320832881398171
:100F1000220F331F39832883359B03C02160398317
:100F200028832D913C911197220F331F11963C93EA
:100F30002E93369B04C0216011963C932E93FB01A7
:100F400020813181220F331F31832083379B03C0DF
:100F5000216031832083415029F6F5E0FA95F1F7BD
:100F60005D985F9A24E12A95F1F7FC012081318197
:100F70003F7031832083888199819F709983888312
:100F80008D919C9111979F708D939C93FB01808113
:100F900091819F7091838083DF91CF910895ECE0E0
:100FA000F9E04281538164817581268180810C94AE
:100FB0000204AF92BF92CF92DF92EF92FF920F9313
:100FC0001F93CF93DF93CDB7DEB7DA950FB6F894C2
:100FD000DEBF0FBECDBF0E94CF04882309F40CC230
:100FE00062E0CE0101960E94D4041A81143009F403
:100FF00078C01CF4133041F0E1C1163009F4F3C09D
:10100000103109F435C1DAC10E94CF04863008F4EA
:1010100044C10E94CF04682FCE0103960E94D404DD
:101020009E01265F3F4FAE01475F5F4F66E0CE01F6
:1010300001960E9438029F8189859813DDC19885A9
:101040008A859813D9C18B81809356088C818093AF
:101050005508C0905508D0905608C601805C93464C
:10106000C0901409D0901509C80ED91E8D818093A7
:1010700056088E8180935508A0905508B090560868
:101080000A2D000F0B8313E0E12CF12CEA14FB0472
:1010900009F493C065E578E0C7018C0D9D1D0E94A1
:1010A0008A0B813029F480910C09898383E876C109
:1010B000E1E0F0E0EC0FFD1FE10FF11D809156081B
:1010C000808381E0810FE1E0F0E0EC0FFD1FE80F8D
:1010D000F11D1E5F8091550880838FEFE81AF80A92
:1010E000D5CF0E94CF04863008F486C10E94CF0479
:1010F000682FCE0103960E94D4049E01265F3F4FC5
:10110000AE01475F5F4F66E0CE0101960E94380254
:101110009F818985981370C198858A8598136CC1C1
:101120008B81809356088C8180935508C090550818
:10113000D0905608C601805D9A48C0901409D0909E
:101140001509C80ED91E8D81809356088E81809313
:101150005508A0905508B09056080A2D000F0B8333
:1011600013E0E12CF12CEA14FB0439F165E578E099
:10117000C7018C0D9D1D0E948A0B813029F480913E
:101180000C09898384E80AC1E1E0F0E0EC0FFD1F5F
:10119000E10FF11D80915608808381E0810FE1E02D
:1011A000F0E0EC0FFD1FE80FF11D1E5F8091550868
:1011B00080839FEFE91AF90AD6CF412F50E09A01B8
:1011C0002F5F3F4F81E090E08C0F9D1F280F391F4C
:1011D000480F591F63E0600FCE0101960E9438024C
:1011E00065E0600F05C10E94CF04863008F404C199
:1011F0000E94CF04682FCE0103960E94D4049E0162
:10120000265F3F4FAE01475F5F4F66E0CE0101961C
:101210000E9438029F8189859813EEC098858A853F
:101220009813EAC08B81809356088C81809355086F
:101230008091550890915608805C9346209114093E
:10124000309115094D81409356084E8140935508C1
:101250006091550870915608820F931F0E94B50F38
:10126000813009F0A9C080910C09898386E896C075
:101270000E94CF04853088F065E0CE0103960E947D
:10128000D4040F81002E000C110B0F5F1F4F0E9422
:10129000CF0490E00817190744F00E94CF04682F8C
:1012A000CE0101960E94D404A7C00E94CF04682FEB
:1012B000CE0108960E94D4046F81695F9E01339528
:1012C000AE0141505F4FCE0101960E9438028F81DE
:1012D000082E000C990BE8E0F0E0EC0FFD1FE80F82
:1012E000F91F3081C150DF4F2881CF5FD0403213CA
:1012F00083C0FE01E80FF91F9185C050DF4F888140
:10130000C050D140981378C08B81809356088C814F
:1013100080935508E0905508F0905608C701805C0E
:101320009346E0901409F0901509E80EF91E8D819E
:10133000809356088E8180935508C0905508D090B0
:10134000560800E010E002C00F5F1F4F802F880F8B
:10135000895F0C151D0529F190E0E1E0F0E0EC0F4C
:10136000FD1FE80FF91F208120935608E2E0F0E00E
:10137000EC0FFD1FE80FF91F8081809355086091E5
:10138000550870915608C8018E0D9F1D0E94B50F1B
:101390008130D1F680910C09898380E98A8382E0CB
:1013A0001AC09E01285F3F4FAE01495F5F4F66E064
:1013B000CE0101960E94380268E01AC00E94CF0454
:1013C000682FCE0101960E94D40480910C09898374
:1013D00010681A8381E08B839E012B5F3F4FAE0123
:1013E0004C5F5F4F63E0CE0101960E94380265E0DA
:1013F000CE0101960E948E04D3950FB6F894DEBFFD
:101400000FBECDBFDF91CF911F910F91FF90EF9055
:10141000DF90CF90BF90AF90089542E758E06CE026
:1014200079E080E090E00E94C601FFCF42E758E0FB
:101430006CE079E080E090E00C9476011092F9087D
:101440001092F8081092FB081092FA081092FD080A
:101450001092FC081092FF081092FE0810920109E9
:1014600010920009109203091092020910920509C6
:1014700010920409109207091092060910920909A6
:101480001092080910920B0910920A091092E308B1
:101490001092E2081092E4081092E5081092E60813
:1014A0001092E7081092EB081092EA081092ED08EB
:1014B0001092EC081092EF081092EE081092F008CB
:1014C0001092F1081092F2081092F30810920D0990
:1014D00010920C0910920E0910920F091092100927
:1014E0001092110910921309109212091092170903
:1014F00010921609109219091092180910921B09DE
:1015000010921A0910921D0910921C0910921F09BD
:1015100010921E091092210910922009109223099D
:10152000109222091092250910922409109227097D
:1015300010922609109229091092280910922B095D
:1015400010922A0910922D0910922C0910922E093E
:1015500010922F091092300910923109109232091D
:1015600010923309109234091092350910923609FD
:1015700010923709109238091092390910923A09DD
:1015800010923B0910923C0910923D0910923E09BD
:1015900010923F091092400910924109109242099D
:1015A000109243091092440910924509109246097D
:1015B00010924709109248091092490910924A095D
:1015C00010924B0910924C0910924D0910924E093D
:1015D00010924F091092500910925109109252091D
:1015E00010925309109254091092550910925609FD
:1015F00010925709109258091092590910925A09DD
:1016000010925B0910925C0910925D0910925E09BC
:1016100010925F091092600910926109109262099C
:10162000109263091092640910926509109267097B
:1016300010926609109269091092680910926B095C
:1016400010926A0910926D0910926C0910926F093C
:1016500010926E091092710910927009109273091C
:1016600010927209109275091092740910927709FC
:1016700010927609109279091092780910927B09DC
:1016800010927A0910927D0910927C0980E090E115
:101690009093F7088093F6080E94160AE091F608E6
:1016A000F091F7088F3F11F4F0682FC020912E09B8
:1016B00030912F09409130095091310960913209E0
:1016C0007091330980913409909135092034324466
:1016D0004F4051056105710581059105A1F098F014
:1016E00080E480932E0982E480932F098FE0809319
:1016F0003009109231091092320910923309109278
:10170000340910923509FF7EF062F093F708E093F8
:10171000F60808950F93FB0188332EE9920709F428
:1017200096C208F0FAC08F3A2CE9920709F41AC25F
:1017300008F072C0811526E7920709F43FC288F5C8
:101740008B3F25E7920709F425C288F4893F25E7F6
:10175000920709F411C208F018C2883F25E79207E2
:1017600009F0E9C38091E2089091E308F7C38D3F47
:1017700045E7940709F418C208F411C28E3F45E703
:10178000940709F416C28F3F25E7920709F0D3C3E7
:101790008091F0089091F108A091F208B091F308BF
:1017A0001CC2863A4CE9940709F4C8C1F8F48A329D
:1017B00046E7940709F407C250F4813046E79407DE
:1017C00009F0B9C38091F4089091F508C7C3843A31
:1017D0002CE9920709F4ADC1853A4CE9940709F068
:1017E000AAC38091FA089091FB08B8C3883A2CE903
:1017F000920709F4ADC108F4A6C1893A2CE9920711
:1018000009F4ABC18E3A4CE9940709F094C3809176
:10181000040990910509A2C3823D2DE9920709F4BC
:10182000F3C108F03FC08E362DE9920709F4D8C104
:1018300018F5863D2CE9920709F499C150F4883BCC
:101840002CE9920709F077C3809108099091090962
:1018500085C38C364DE9940709F4BAC18D362DE95C
:10186000920709F068C380910E0990910F09A09129
:101870001009B0911109B1C180374DE9940709F4FD
:10188000B9C108F4B2C1803D4DE9940709F4B7C16C
:10189000813D2DE9920709F04EC38091180990917E
:1018A00019095CC3873D4DE9940709F4C1C1B0F43F
:1018B000843D4DE9940709F4B1C108F4AAC1853DFE
:1018C0004DE9940709F4AFC1863D2DE9920709F06F
:1018D00032C3809122099091230940C385334EE998
:1018E000940709F4AAC150F484334EE9940709F02F
:1018F00022C3809126099091270930C386332EE9AF
:10190000920709F49FC187334EE9940709F013C386
:1019100080912C0990912D0921C38C342EE99207D6
:1019200009F475C208F08FC082342EE9920709F4D9
:10193000FEC108F04AC08D332EE9920709F4BFC1F9
:1019400010F58A332EE9920709F4A3C108F490C177
:101950008B332EE9920709F4ADC18C334EE994071D
:1019600009F0E9C2209136093091370940913809D0
:101970005091390960913A0970913B0980913C0975
:1019800090913D097CC28F332EE9920709F4B9C1C9
:1019900008F4A6C180342EE9920709F4B7C1813456
:1019A0004EE9940709F0C7C220913E0930913F09E2
:1019B0004091400950914109609142097091430959
:1019C00080914409909145096CC287342EE99207B1
:1019D00009F4E5C110F584342EE9920709F4BDC17C
:1019E00008F4B6C185342EE9920709F4C7C18634DC
:1019F0004EE9940709F09FC22091460930914709AA
:101A0000409148095091490960914A0970914B09E8
:101A100080914C0990914D0956C289342EE9920764
:101A200009F4D3C108F4C0C18A342EE9920709F43D
:101A3000DDC18B344EE9940709F07DC280914E09D7
:101A400090914F098BC286352EE9920709F44BC25B
:101A5000F0F581352EE9920709F413C210F58E34A2
:101A60002EE9920709F4F5C108F4E2C18F342EE99A
:101A7000920709F4FFC180354EE9940709F05BC273
:101A800020915E0930915F09409160095091610990
:101A90006091620970916309809164099091650970
:101AA000EEC183352EE9920709F413C208F4FBC195
:101AB00084352EE9920709F411C285354EE9940761
:101AC00009F039C2809168099091690947C28B3544
:101AD0002EE9920709F41BC2B0F488352EE992076B
:101AE00009F40BC208F404C289352EE9920709F4FF
:101AF00009C28A354EE9940709F01DC28091720926
:101B0000909173092BC28D352EE9920709F409C211
:101B100008F402C28E352EE9920709F407C28F3508
:101B20004EE9940709F007C280917C0990917D09E4
:101B300015C28091F8089091F90810C28091FC08B4
:101B40009091FD080BC28091FE089091FF0806C29B
:101B5000809100099091010901C280910209909140
:101B60000309FCC18091060990910709F7C1809192
:101B70000A0990910B09F2C18091E4089091E5085F
:101B8000A091E608B091E70828C08091E408909100
:101B9000E508E4C18091E8089091E908DFC18091EF
:101BA000EA089091EB08DAC18091EC089091ED0879
:101BB000D5C18091EE089091EF08D0C18091F008D6
:101BC0009091F108CBC18091F6089091F708C6C1B9
:101BD00080910C0990910D09C1C1B183A083C0C14E
:101BE00080910E0990910F09B9C1809112099091CD
:101BF0001309B4C18091140990911509AFC1809166
:101C0000160990911709AAC180911A0990911B0990
:101C1000A5C180911C0990911D09A0C180911E0948
:101C200090911F099BC1809120099091210996C133
:101C3000809124099091250991C180912809909162
:101C400029098CC180912A0990912B0987C1209183
:101C50002E0930912F09409130095091310960913E
:101C6000320970913309809134099091350907C187
:101C700020912E0930912F0940913009509131095E
:101C8000609132097091330980913409909135093E
:101C900008C120912E0930912F09409130095091AF
:101CA0003109609132097091330980913409909122
:101CB000350909C180912E0990912F094FC12091BA
:101CC00036093091370940913809509139096091AE
:101CD0003A0970913B0980913C0990913D09E1C01E
:101CE00020913609309137094091380950913909CE
:101CF00060913A0970913B0980913C0990913D09AE
:101D0000E2C0809136099091370928C120913E099F
:101D100030913F0940914009509141096091420939
:101D2000709143098091440990914509A8C0209180
:101D30003E0930913F09409140095091410960911D
:101D40004209709143098091440990914509BBC0B3
:101D500080913E0990913F0901C12091460930913F
:101D60004709409148095091490960914A09709189
:101D70004B0980914C0990914D0981C020914609F1
:101D800030914709409148095091490960914A09A9
:101D900070914B0980914C0990914D0982C08091BE
:101DA000460990914709DAC020914E0930914F09B8
:101DB0004091500950915109609152097091530915
:101DC00080915409909155095AC020914E09309143
:101DD0004F094091500950915109609152097091F9
:101DE000530980915409909155095BC020914E0987
:101DF00030914F0940915009509151096091520919
:101E00007091530980915409909155095CC02091BB
:101E100056093091570940915809509159096091DC
:101E20005A0970915B0980915C0990915D0927C006
:101E300020915609309157094091580950915909FC
:101E400060915A0970915B0980915C0990915D09DC
:101E500028C0209156093091570940915809509156
:101E6000590960915A0970915B0980915C099091C0
:101E70005D0929C080915609909157096FC000E310
:101E800023C020915E0930915F0940916009509113
:101E90006109609162097091630980916409909170
:101EA000650900E211C020915E0930915F094091FF
:101EB0006009509161096091620970916309809194
:101EC00064099091650900E10E941C2420833183FC
:101ED00047C080915E0990915F0940C0809166097A
:101EE000909167093BC080916A0990916B0936C057
:101EF00080916C0990916D0931C080916E0990912B
:101F00006F092CC0809170099091710927C0809150
:101F100074099091750922C0809176099091770992
:101F20001DC0809178099091790918C080917A0933
:101F300090917B0913C09C012852304A21153840EA
:101F400088F4A0E0B0E08852904AA109B109845F0A
:101F5000964FDC01AE58BF4F8C9190E09183808307
:101F600080E001C081E00F9108952F923F924F923F
:101F70005F926F927F928F929F92AF92BF92CF9219
:101F8000DF92EF92FF920F931F93CF93DF93CDB722
:101F9000DEB7A4970FB6F894DEBF0FBECDBF8E3369
:101FA0000EE9900709F447C508F0A3C0813D2DE96B
:101FB000920709F401C408F052C08F3A4CE9940723
:101FC00009F4BDC110F5873AACE99A0709F467C175
:101FD00070F4853AECE99E0709F42FC108F044C17A
:101FE000843A0CE9900709F413C10C945B18893A00
:101FF0001CE9910709F46DC108F45EC18E3A3CE911
:10200000930709F475C10C945B188D364DE994075C
:1020100009F464C388F4863DACE99A0709F43DC32A
:102020008C36BDE99B0709F447C3883BECE99E0762
:1020300011F00C945B1897C18F36FDE99F0709F4E6
:102040008AC308F467C380371DE9910709F493C375
:10205000803D2DE9920709F4A3C30C945B188533E6
:102060003EE9930709F4FFC300F5853D5DE9950757
:1020700009F4C9C360F42091040930910509833D36
:10208000BDE99B0709F4ADC308F4A2C3B3C3873D00
:10209000FDE99F0709F4CFC308F4C1C384331EE9E7
:1020A000910709F4D4C30C945B1889332EE9920785
:1020B00009F418C460F420910409309105098733AC
:1020C0004EE9940709F4E4C308F4D9C3EAC38B3397
:1020D000AEE99A0709F45CC408F426C48C33EEE92F
:1020E0009E0709F462C48D33FEE99F0709F481C499
:1020F000E2C78F340EE9900709F4CFC608F044C058
:1021000086342EE9920709F48FC5D0F42091040992
:102110003091050982344EE9940709F40AC540F468
:102120008034AEE99A0709F4C4C408F4B8C4E2C420
:102130008434EEE99E0709F437C508F42BC555C56C
:102140008A340EE9900709F4EDC560F42091040982
:102150003091050988344EE9940709F4A3C508F4C1
:1021600097C5C1C58C34AEE99A0709F41CC608F4BA
:102170000DC68D34EEE99E0709F439C68E34FEE9AA
:102180009F0709F456C697C787350EE9900709F4EB
:1021900027C7D0F4209104093091050983354EE911
:1021A000940709F4F8C640F48135AEE99A0709F4BA
:1021B000A2C608F47FC6BEC68535EEE99E0709F4BF
:1021C000FDC608F4F2C603C78B350EE9900709F483
:1021D0002EC760F4209104093091050989354EE934
:1021E000940709F412C708F407C718C78D35AEE97C
:1021F0009A0709F434C708F426C78E35EEE99E071E
:1022000009F43DC78F35FEE99F0709F444C753C75A
:102210008091040990910509892B41F46130710581
:1022200029F47093F9086093F80810C08FEF9FEFBE
:102230009093F9088093F80809C06536710544F059
:1022400084E690E09093FB088093FA0880E047C70B
:102250006C390FEF70071CF48CE99FEFF3CF70938C
:10226000FB086093FA08F2CF7093FD086093FC08B6
:102270008091020990910309019729F4809128091E
:102280009091290904C08091260990912709861709
:102290009707E0F69093FD088093FC08D7CF613054
:1022A000710529F47093FF086093FE08CFCF109258
:1022B000FF081092FE08CACF6130710529F47093AF
:1022C000010960930009C2CF109201091092000920
:1022D000BDCF6130710539F481E090E0909303093E
:1022E00080930209B3CF1092030910920209AECF76
:1022F0008091040990910509009771F4613071058E
:10230000C9F48FEF9FEF9093F9088093F8087093CA
:102310000509609304099ACF019761F46130710552
:1023200049F08091060990910709019719F40E94DC
:102330000D0A8CCF109205091092040987CF809165
:10234000040990910509019709F080CF613071056A
:1023500029F4709307096093060978CF1092070952
:102360001092060973CF8091040990910509019795
:1023700009F06CCF6130710509F068CF6091660992
:102380007091670980E090E00E941C252DEC3CEEE6
:1023900043EF54E40E94BA2520E030E040E05AE3E5
:1023A0000E94BA250E94E52419014B875C876D873E
:1023B0007E878F87988B609116097091170980E04E
:1023C00090E00E941C2520E030E045EB54E40E94A0
:1023D000BA2520E030E040E85AE30E94BA250E9486
:1023E000E52459016A017B01E82F192F04E00E94BE
:1023F00001240E2F0E94412449013A01B62FA72F34
:10240000F82FE92F04E00E94012459016A017B01A1
:102410008C019401A3016B2F7A2F8F2F9E2F0E9486
:1024200038245101CB84DC84ED84FE840F85188927
:102430000E945D23298B3A8B4B8B5B8F6C8F7D8F3A
:102440008E8F9F8F80911A0990911B0945E0969578
:1024500087954A95E1F78C0120E030E040E050E0BC
:10246000BA0189831A832B833C834D835E836F83F8
:1024700078872EE739E03A872987612C712C812CE7
:10248000912C19A218A2412C512CA980BA80CB8082
:10249000DC80ED80FE800F8118859301A40169A185
:1024A00078A1C2010E945D23E22F2F3F3105410533
:1024B0005105610571058105910511F008F0EFEFF7
:1024C000A985BA85ED93BA87A9879301A40169A16B
:1024D00078A1C201A988BA88CB88DB8CEC8CFD8CF2
:1024E0000E8D1F8D0E94382439014A0169A378A3FB
:1024F0002C01AE57B14149F6609118097091190944
:1025000080E090E00E941C2520E030EC4DED54E48A
:102510000E94BA2520E030E040E85AE30E94BA2544
:102520000E94E52459016A017B01E82F192F04E07C
:102530000E9401240E2F0E94412449013A01B62F26
:10254000A72FF82FE92F04E00E94012459016A0106
:102550007B018C019401A3016B2F7A2F8F2F9E2F6B
:102560000E9438245101CB84DC84ED84FE840F85E5
:1025700018890E945D232B873C874D875E876F8774
:10258000788B898B9A8B80911C0990911D091C0175
:1025900035E0369427943A95E1F7F101E258F64F89
:1025A000208130E040E050E060E070E080E090E0CA
:1025B000AB84BC84CD84DE84EF84F88809891A89D1
:1025C0000E9441242B8F3C8F4D8F5E8F6F8F78A39D
:1025D00089A39AA3612C712C812C912C19821986C4
:1025E000412C512C1CA21BA2810120E030E040E0D4
:1025F00050E0BA012B8A1C8B2D8B3E8B4F8B588F52
:10260000698F7A8FAB88BC88C12CD12CE12CF12C3E
:1026100000E010E09301A40169817985C2010E9464
:102620005D23AB84BC84CD84DE84EF84F888098983
:102630001A890E943824EBA1FCA1E258F64FA22F80
:102640002F3F310541055105610571058105910552
:1026500011F008F0AFEFA0832BA13CA12F5F3F4FFB
:102660003CA32BA39301A40169817985C201AB8CA2
:10267000BC8CCD8CDE8CEF8CF8A009A11AA10E9435
:10268000382439014A01698379872C014BA15CA167
:102690002416350608F0B6CFD9CD80910409909163
:1026A0000509019721F46130710509F4FFCF1092FB
:1026B0000B0910920A09CACD80910409909105096D
:1026C000019709F0C3CDCB010197873F910508F031
:1026D000BDCD70930D0960930C09B8CD80910409AC
:1026E00090910509019709F0B1CDCB01A0E0B0E0D0
:1026F000BC015527442780910E0990910F09A091A4
:102700001009B0911109AA27BB27842B952BA62B62
:10271000B72B18C08091040990910509019709F021
:1027200095CD8B0120E030E080910E0990910F094A
:10273000A0911009B091110988279927802B912B1E
:10274000A22BB32B80930E0990930F09A09310092D
:10275000B09311097BCD80910409909105090197EF
:1027600009F074CD6330710508F070CD70931309D2
:10277000609312096BCD809104099091050901972E
:1027800009F064CD6F3F5FEF75070CF45FCD6230E9
:1027900071050CF05BCD709315096093140956CD4B
:1027A0008091040990910509019709F04FCD70932C
:1027B0001709609316094ACD809104099091050983
:1027C000019709F043CD70931909609318093ECD24
:1027D0002130310509F03ACD70931B0960931A0935
:1027E00035CD2130310509F031CD70931D0960934D
:1027F0001C092CCD2130310509F028CD70931F091B
:1028000060931E0923CD80910409909105090197D9
:1028100009F01CCD709321096093200917CD809198
:10282000040990910509019709F010CD70932309CF
:10283000609322090BCD80910409909105090197BD
:1028400009F004CD7093250960932409FFCC809191
:10285000040990910509019709F0F8CC70932709B4
:1028600060932609F3CC80910409909105090197A2
:1028700009F0ECCC7093290960932809E7CC21304A
:10288000310509F0E3CC70932B0960932A09DECC63
:102890002130310509F0DACC70932D0960932C09B1
:1028A000D5CC2130310509F0D1CC9B0140E050E07E
:1028B00060E070E080E090E000E30E94012400917D
:1028C0002E0910912F09B0913009A0913109F09192
:1028D0003209E0913309202B312B4B2B5A2B6F2BD4
:1028E0007E2B45C08091040990910509019709F05C
:1028F000ADCC9B0140E050E060E070E080E090E013
:1029000000E20E94012400912E0910912F09B0913C
:102910003009A0913109F0913409E0913509202B5B
:10292000312B4B2B5A2B21C0809104099091050922
:10293000019709F08BCC9B0140E050E060E070E033
:1029400080E090E000E10E94012400912E091091A6
:102950002F09B0913209A0913309F0913409E09127
:102960003509202B312B6B2B7A2B8F2B9E2B209311
:102970002E0930932F094093300950933109609309
:1029800032097093330980933409909335095ECCF2
:102990008091040990910509019709F057CC4B01EA
:1029A00060932E0990922F0951CC80910409909147
:1029B0000509019709F04ACC9B0140E050E060E036
:1029C00070E080E090E000E30E940124009136096D
:1029D00010913709B0913809A0913909F0913A095D
:1029E000E0913B09202B312B4B2B5A2B6F2B7E2B4D
:1029F00045C08091040990910509019709F026CC02
:102A00009B0140E050E060E070E080E090E000E298
:102A10000E9401240091360910913709B0913809BC
:102A2000A0913909F0913C09E0913D09202B312B0F
:102A30004B2B5A2B21C080910409909105090197D5
:102A400009F004CC9B0140E050E060E070E080E0E1
:102A500090E000E10E9401240091360910913709AD
:102A6000B0913A09A0913B09F0913C09E0913D09F0
:102A7000202B312B6B2B7A2B8F2B9E2B20933609FF
:102A800030933709409338095093390960933A09D4
:102A900070933B0980933C0990933D09D7CB21303B
:102AA000310509F0D3CB4B01609336099092370979
:102AB000CDCB2130310509F0C9CB9B0140E050E07E
:102AC00060E070E080E090E000E30E94012400916B
:102AD0003E0910913F09B0914009A0914109F09140
:102AE0004209E0914309202B312B4B2B5A2B6F2BA2
:102AF0007E2B3FC02130310509F0A8CB9B0140E07F
:102B000050E060E070E080E090E000E20E9401248C
:102B100000913E0910913F09B0914009A0914109EF
:102B2000F0914409E0914509202B312B4B2B5A2B76
:102B30001EC02130310509F089CB9B0140E050E0F7
:102B400060E070E080E090E000E10E9401240091EC
:102B50003E0910913F09B0914209A0914309F091BB
:102B60004409E0914509202B312B6B2B7A2B8F2BBD
:102B70009E2B20933E0930933F0940934009509388
:102B800041096093420970934309809344099093EB
:102B900045095CCB2130310509F058CB4B016093DE
:102BA0003E0990923F0952CB2130310509F04ECBBE
:102BB0009B0140E050E060E070E080E090E000E3E6
:102BC0000E9401240091460910914709B0914809DB
:102BD000A0914909F0914A09E0914B09202B312B32
:102BE0004B2B5A2B6F2B7E2B42C02130310509F025
:102BF0002DCB9B0140E050E060E070E080E090E091
:102C000000E20E9401240091460910914709B09109
:102C10004809A0914909F0914C09E0914D09202BF8
:102C2000312B4B2B5A2B21C080910409909105091F
:102C3000019709F00BCB9B0140E050E060E070E0B1
:102C400080E090E000E10E9401240091460910918B
:102C50004709B0914A09A0914B09F0914C09E091C4
:102C60004D09202B312B6B2B7A2B8F2B9E2B2093F6
:102C700046093093470940934809509349096093A6
:102C80004A0970934B0980934C0990934D09DECA11
:102C90002130310509F0DACA4B0160934609909260
:102CA0004709D4CA2130310509F0D0CA9B0140E060
:102CB00050E060E070E080E090E000E30E940124DA
:102CC00000914E0910914F09B0915009A0915109FE
:102CD000F0915209E0915309202B312B4B2B5A2BA9
:102CE0006F2B7E2B42C02130310509F0AFCA9B010A
:102CF00040E050E060E070E080E090E000E20E94A0
:102D0000012400914E0910914F09B0915009A091F2
:102D10005109F0915409E0915509202B312B4B2B8F
:102D20005A2B21C08091040990910509019709F05F
:102D30008DCA9B0140E050E060E070E080E090E0F0
:102D400000E10E94012400914E0910914F09B091B9
:102D50005209A0915309F0915409E0915509202B93
:102D6000312B6B2B7A2B8F2B9E2B20934E0930937C
:102D70004F09409350095093510960935209709341
:102D80005309809354099093550960CA80910409AE
:102D900090910509019709F059CA4B0160934E09BA
:102DA00090924F0953CA80910409909105090197A7
:102DB00009F04CCA9B0140E050E060E070E080E028
:102DC00090E000E30E9401240091560910915709F8
:102DD000B0915809A0915909F0915A09E0915B0905
:102DE000202B312B4B2B5A2B6F2B7E2B45C08091E8
:102DF000040990910509019709F028CA9B0140E058
:102E000050E060E070E080E090E000E20E94012489
:102E10000091560910915709B0915809A09159098C
:102E2000F0915C09E0915D09202B312B4B2B5A2B43
:102E300021C08091040990910509019709F006CA03
:102E40009B0140E050E060E070E080E090E000E155
:102E50000E9401240091560910915709B0915A0916
:102E6000A0915B09F0915C09E0915D09202B312B69
:102E70006B2B7A2B8F2B9E2B20935609309357095F
:102E8000409358095093590960935A0970935B090C
:102E900080935C0990935D09D9C980910409909150
:102EA0000509019709F0D2C94B0160935609909228
:102EB0005709CCC92130310509F0C8C99B0140E050
:102EC00050E060E070E080E090E000E30E940124C8
:102ED00000915E0910915F09B0916009A0916109AC
:102EE000F0916209E0916309202B312B4B2B5A2B77
:102EF0006F2B7E2B3FC02130310509F0A7C99B0104
:102F000040E050E060E070E080E090E000E20E948D
:102F1000012400915E0910915F09B0916009A091B0
:102F20006109F0916409E0916509202B312B4B2B4D
:102F30005A2B1EC02130310509F088C99B0140E0A1
:102F400050E060E070E080E090E000E10E94012449
:102F500000915E0910915F09B0916209A091630927
:102F6000F0916409E0916509202B312B6B2B7A2BB2
:102F70008F2B9E2B20935E0930935F09409360094D
:102F800050936109609362097093630980936409A7
:102F9000909365095BC92130310509F057C94B0190
:102FA00060935E0990925F0951C92130310509F0A3
:102FB0004DC9709367096093660948C9213031058E
:102FC00009F044C970936909609368093FC92130C9
:102FD000310509F03BC970936B0960936A0936C9E2
:102FE0008091040990910509019709F02FC9709308
:102FF0006D0960936C092AC92130310509F026C991
:1030000070936F0960936E0921C92130310509F071
:103010001DC9709371096093700918C92130310579
:1030200009F014C970937309609372090FC98091F4
:10303000040990910509019709F008C97093750971
:103040006093740903C9809104099091050901975F
:1030500009F0FCC87093770960937609F7C88091EE
:10306000040990910509019709F0F0C865307105D0
:1030700008F0ECC87093790960937809E7C88091EB
:10308000040990910509019709F0E0C870937B0944
:1030900060937A09DBC88091040990910509019732
:1030A00009F0D4C86430710508F0D0C870937D0968
:1030B00060937C09CBC89C012852304A21153840C6
:1030C00068F4A0E0B0E08852904AA109B109845F99
:1030D000964FFC01EE58FF4F6083B8C881E0A4967C
:1030E0000FB6F894DEBF0FBECDBFDF91CF911F9119
:1030F0000F91FF90EF90DF90CF90BF90AF909F9097
:103100008F907F906F905F904F903F902F90089599
:103110000E9460061092570808952F923F924F9296
:103120005F926F927F928F929F92AF92BF92CF9257
:10313000DF92EF92FF920F931F93CF93DF93CDB760
:10314000DEB765970FB6F894DEBF0FBECDBF0E9405
:10315000B606882309F4C2C21A8219820E94B606F2
:10316000882309F4BBC261E0CE0103960E94B90630
:103170009B81923521F49093580881E00DC0809195
:103180005708E82FF0E0E95AF74F91839A3019F485
:103190008A3028F414C08F5F80935708DFCF2091C6
:1031A0005808223561F420915908253441F42091C2
:1031B0005A08273421F420915B082A3321F069E171
:1031C00080E093E0A9C140915C08042E000C550BEF
:1031D0004053510920E137E2429FB001439F700DF7
:1031E000529F700D112440915D08042E000C550B68
:1031F00040535109E8EEF3E04E9F90014F9F300D90
:103200005E9F300D1124260F371F40916008240F58
:10321000311D47FD3A9540915E08042E000C550B78
:1032200040535109E4E6E49FB001E59F700D11247D
:10323000A901460F571F20915F08022E000C330B87
:1032400020533109929FB001939F700D11243A01D0
:10325000660E771E230120E3421A510881508093A5
:103260005708E82FF0E0E95AF74F91819F3309F0B2
:1032700056C1BE016F5F7F4FC2010E948A0B882337
:1032800049F14114510479F40CE810E0F8018491FB
:103290008B830F5F1F4F8823D1F061E0CE0103962F
:1032A0000E948206F3CFF8E24F16F8EA5F0679F43F
:1032B0000EE719E0F80181918F018B8361E0CE0167
:1032C00003960E948206F1E10E371F0799F71092CC
:1032D000570804C229EF421625E7520651F04FEF76
:1032E000441645E7540629F08DE648168DE9580640
:1032F000A1F53A812981932F990F990B492F592FC5
:10330000692F792F892F00E10E9401247B018C0114
:10331000BE016F5F7F4FC3018F972A8B3D8B4B8B15
:103320005C8B0E948A0BFA81A981EF2FEE0FEE0BC6
:103330002A89222E2A2A3D89332E3F2A4B89442E60
:103340004E2A5C89552E5E2A6E2C6E2A7F2C7E2A90
:10335000802E8E2A912E9E2A83C093012B7F298056
:103360003A80C3018B7E88369E4949F020373E491A
:1033700031F020E542162EE9520609F06CC09101A9
:1033800040E050E060E070E080E090E000E30E9408
:103390000124822EA32ED42EE52EB62EC72EF82E73
:1033A000192FBE016F5F7F4FC3018F970E948A0B59
:1033B00049815A819A0140E050E060E070E080E08D
:1033C00090E000E20E940124822A9A2C932AD42AB7
:1033D000E52AB62ABC82C72ACD82F82A192BBE015B
:1033E0006F5F7F4FC3018E970E948A0B49815A817C
:1033F0009A0140E050E060E070E080E090E000E1A1
:103400000E940124A22E4E8358876987B72EC82EAA
:10341000092FBE016F5F7F4FC3018D973D8B0E94C7
:103420008A0B89819A81AC01282D282B892D852B27
:10343000222E2A283D89382E332A4E804D28588442
:103440005E286C804985642A7D807B288F2C8C289F
:10345000912E902A05C0412C512C612C712C4301D6
:103460008AE0809377089101A201B301C401A0E032
:103470000E9453244CF40E94BA2319012A013B01F3
:103480004C018DE28D8302C090E29D83BEE1FFEF8F
:10349000FB0FFC839101A201B301C401A9E0EB2F52
:1034A000F0E00E94532429F124F1CF01895A974F6B
:1034B0009F838E838AE0A82EB12CC12CD12CE12CC5
:1034C000F12C00E010E09101A201B301C4010E94BF
:1034D0002A23205DEE81FF8121839101A201B301A6
:1034E000C4010E942C2319012A013B014C01BC811B
:1034F000CECF2C8120935708E95AF74F80E3820DF5
:103500008183822F90E0FC01E95AF74F4D8141837E
:1035100061E26B1B885A974F0E948206D8CEE1E089
:10352000E9871A861B861C861D861E861F86188ABA
:10353000812C912C1C821D821E821886212C312CFC
:10354000E82FF0E0E95AF74FE181E03209F46CC06E
:103550009FEF980F998BED3289F48093570894016F
:103560004C815D816E817885C1010E94BA23490139
:103570004C835D836E8378871C0158C00E2E000C2F
:10358000FF0BF0979F2F990F990BA984BA84CB84D6
:10359000DC84ED84FE840F8518899F01492F592F03
:1035A000692F792F892F0E9497225401CC80DD80CA
:1035B000EE80F88481010E94382449014C835D83A8
:1035C0006E8378871C0129853A854B855C856D85DE
:1035D0007E858F85988901E00E94012429873A879A
:1035E0004B875C87B62FA72FF82FE92F7A2F8F2FC5
:1035F0009E2F02E00E94012459016A017B018C0187
:1036000029853A854B855C856B2F7A2F8F2F9E2FCE
:103610000E94382429873A874B875C876D877E878D
:103620008F87988B89898CCF80935708FDE64F163A
:10363000FDE95F0691F494014C815D816E8178858E
:10364000C10100E10E941A24B9018DE69DE90E94A2
:10365000B50FB401C3018F973EC0C3018B7F9301A7
:103660002B7E28363E4941F080379E4929F0F0E50F
:103670004F16FEE95F0669F594014C815D816E810C
:103680007885C10100E30E941A24B901C2010E9499
:10369000B50F94014C815D816E817885C10100E296
:1036A0000E941A24B901C3018F970E94B50F94019B
:1036B0004C815D816E817885C10100E10E941A24F0
:1036C000B901C3018E970E94B50FB401C3018D9754
:1036D00002C0B401C2010E94B50FF9CD65960FB6C4
:1036E000F894DEBF0FBECDBFDF91CF911F910F9138
:1036F000FF90EF90DF90CF90BF90AF909F908F9012
:103700007F906F905F904F903F902F9008950F9310
:103710001F93CF93DF93E8E7F8E0108211821282C3
:1037200013821482158216821782108611861286E1
:1037300013861486158616861786E2EEF8E08489CD
:103740009589937F958B848B0E945B02CCE0D9E0B6
:103750000AA11BA12CA13DA14EA15FA168A579A53D
:1037600088E898E00E9476020AA91BA92CA93DA925
:103770004EA95FA968AD79AD80E998E00E94760214
:10378000EEE4F9E000811181228133814481558189
:103790006681778180EA98E00E947602EEE5F9E0A2
:1037A0000081118122813381448155816681778135
:1037B00088EA98E00E94760201E010E020E030E024
:1037C00040E050E060E070E088E998E00E94760216
:1037D0000E943F0780EB98E00E94A62089EC98E0C9
:1037E0000E94A6200E9467000E947B00C8E7D9E0E3
:1037F000888199810E942A0180917C0990917D099C
:103800000E944701688189816F708F700E94320128
:1038100080E00E94130180E090E00E941A01DF9195
:10382000CF911F910F910C947D002F923F924F9258
:103830005F926F927F928F929F92AF92BF92CF9240
:10384000DF92EF92FF920F931F93CF93DF93CDB749
:10385000DEB76D970FB6F894DEBF0FBECDBF809177
:1038600080088E87909181089F87A0918208A88BFD
:10387000B0918308B98BE0918408EA8BF0918508B8
:10388000FB8B809186088C8B909187089D8B80EBB9
:1038900098E00E94C1201C019C0140E050E060E0E3
:1038A00070E080E090E005E00E9401245101C12C0D
:1038B000D12CE12CF12C00E010E00E9441245901B0
:1038C0006A017B01E82F192F06E00E9401240E2FC8
:1038D0000E94412403E00E9401245101C12CD12CFB
:1038E000E12CF12C00E010E00E94382449013A015B
:1038F000B62FA72FF82FE92F02E00E9401245901CB
:103900006A017B018C019401A3016B2F7A2F8F2F09
:103910009E2F0E94382406E00E94012409E10E94A3
:103920001A2427583A40410951096109710981094E
:1039300091098901942E5983262EB72FF82FE92F4C
:10394000A0E00E94532444F400E010E0912C19827E
:10395000212CB0E0F0E0E0E0802EA12F0093E208FF
:103960001093E3084090E4085090E5086090E60862
:103970007090E708202F312F492D5981622D7B2F20
:103980008F2F9E2F02E00E940124A82CB12EC92C5B
:10399000D980E22CFB2E0F2F1E2F0E9441245901AB
:1039A0006A017B01382E192F04E00E940124032DA7
:1039B0000E94412402E00E940124A82CBA2EC92CA6
:1039C000D980E22CFB2E0F2F1E2F0E94382403E0FB
:1039D0000E9401240CE00E941A24E091EA08F09170
:1039E000EB08A5E0F695E795AA95E1F7E258F64FC2
:1039F000A080B12CC12CD12CE12CF12C00E010E0E6
:103A00000E9497221901F42F59876A877D838E833C
:103A10009F83D301C201BB0F880B982FDC018983E0
:103A20009A83AB83BC839201A3016981762F862F91
:103A3000962F02E00E94012452016301E980FE2CCE
:103A40000E2D1E2D0E94412459016A017B01A82FD1
:103A5000192F04E00E9401240A2F0E94412402E051
:103A60000E94012452016301E980FE2C0E2D1E2DBF
:103A70000E94382403E00E940124D22EE32EF42E6B
:103A8000152FB62FE72FB82EC92EA0E00E94532481
:103A900084F42150384F4F4F5F4F6F4F7F4F8F4F00
:103AA0009F4FD22EE32EF42E152FB62FE72FB82ED0
:103AB000C92E2D2D3E2D4F2D512F6B2F7E2F8B2D4F
:103AC0009C2D0BE00E941A242B8739832A013B018D
:103AD0004C0191014F2F59856A857D818E819F818F
:103AE00008E00E941A242093EE083093EF088B859B
:103AF0009981092E000CAA0BBB0B8093F0089093C0
:103B0000F108A093F208B093F30888E998E00E94C6
:103B1000FD022091F8083091F9082115310521F4B2
:103B2000882309F47EC06DC02130310509F063C0DF
:103B30001092F9081092F80800913609109137098F
:103B4000209138093091390940913A0950913B0947
:103B500060913C0970913D0988E998E00E947602E5
:103B60008091F6089091F70893FD5BC09F7D986463
:103B70009093F7088093F6081092780810927908CD
:103B800010927A0810927B0810927C0810927D089F
:103B900010927E0810927F0810928008109281087F
:103BA000109282081092830810928408109285085F
:103BB00010928608109287088091FE089091FF0865
:103BC000019719F483E090E002C081E090E00E9448
:103BD000050180E090E00E941A0180E00E9413013C
:103BE0000E947D00A7E8B3E11197F1F700C0000043
:103BF0000E94790016C08FEF9FEF9093F908809391
:103C0000F8088091F6089091F708977B906290935E
:103C1000F7088093F6081092EB081092EA080E94C9
:103C20007B008091F6089091F7089C7F9093F708AD
:103C30008093F6088091E2089091E30820916A0948
:103C400030916B0982179307E0F420916809309155
:103C5000690928173907A8F400915E0910915F09D6
:103C60002091600930916109409162095091630986
:103C7000609164097091650988EA98E00E94760273
:103C800012C088EA98E00E94FD022091F608309167
:103C9000F708811102C0326002C02860306830939A
:103CA000F7082093F6088091F6089091F70892FDA6
:103CB0003AC04091F0085091F1086091F20870917B
:103CC000F30880911E0990911F09A0E0B0E0481709
:103CD00059076A077B073CF58091200990912109DB
:103CE000A0E0B0E0B095A095909581959F4FAF4F23
:103CF000BF4F84179507A607B707ACF400914E098C
:103D000010914F0920915009309151094091520969
:103D100050915309609154097091550980EA98E0D7
:103D20000E94760212C080EA98E00E94FD02209173
:103D3000F6083091F708811102C0316002C022609C
:103D400030683093F7082093F60880E998E00E94E5
:103D5000FD02882331F18091F6089091F70892FDD9
:103D600020C0209100093091010921303105C9F4AA
:103D700094609093F7088093F60800913E091091A3
:103D80003F092091400930914109409142095091E9
:103D90004309609144097091450980E998E00E94C7
:103DA00076028091F6089091F70893FF6CC12090FD
:103DB000FC083090FD082091EA083091EB088091D2
:103DC000FA089091FB082216330618F41816190603
:103DD000ACF1009799F19C01092E000C440B550B96
:103DE0001816190694F460911E0970911F0980E05D
:103DF00090E00E94F022F4E6AF2EB12CC12CD12C21
:103E0000E12CF12C00E010E016C0609120097091C7
:103E1000210980E090E00E94F022ECE9AE2EBB2464
:103E2000BA94CC24CA94DD24DA94EE24EA94FF24D4
:103E3000FA940FEF1FEF0E942C2308C020E030E01F
:103E400040E050E060E070E080E090E0AB84B9805A
:103E50006201730184010E94412429833D834E83C2
:103E60005F83688779878A879B8720937808309358
:103E70007908E42F40937A08F52F50937B08862F1A
:103E800060937C08972F70937D08AA85A0937E0885
:103E9000BB85B0937F08AF01BC01CD01A090800825
:103EA000B0908108C0908208D0908308E090840888
:103EB000F090850800918608109187080E943824A8
:103EC000922E3D8F4C8F452E562E672E782E892EA2
:103ED0002093800830938108409382085093830890
:103EE0006093840870938508809386089093870870
:103EF00030912B0920912A09932F990F990BA980B2
:103F0000BD80CE80DF80E884F9848D01492F592F50
:103F1000692F792F892F0E9497222C873D874E8BFE
:103F20005F8B688F798F8A8F9B8F30912D092091BD
:103F30002C09932F990F990BA92CBD8CCC8CD42CC8
:103F4000E52CF62C072D182D492F592F692F792F85
:103F5000892F0E94972259016A017B018C012C85CF
:103F60003D854E895F89688D798D8A8D9B8D0E94F4
:103F70003824F22E032F142FD52EE62EB72FF82F2C
:103F8000E92FA0E00E9453242CF529813D814E8128
:103F90005F81688579858A859B850E9453240CF012
:103FA0005AC08E85809380089F8590938108A88948
:103FB000A0938208B989B0938308EA89E0938408C2
:103FC000FB89F09385088C89809386089D8990935E
:103FD000870841C02F2D302F412F5D2D6E2D7B2F57
:103FE0008F2F9E2F00E10E941A24F901498F5E8BCA
:103FF0008F8B988F5101C12CD12CE12CF12C00E03A
:1040000010E00E944A2451F14CF129813D814E81FA
:104010005F81688579858A859B85A0E00E9453240D
:10402000F1F0ECF0AE85A0938008BF85B0938108D5
:10403000E889E0938208F989F09383088A8980935C
:1040400084089B8990938508AC89A0938608BD89D4
:10405000B093870804C0212C312C01C01F0130927D
:10406000EB082092EA08C1010E941A01F10185E0E3
:10407000F695E7958A95E1F7E258F64F80810E9420
:1040800013010E947D0000912E0910912F092091AB
:1040900030093091310940913209509133096091D2
:1040A00034097091350988E898E00E9476026D968F
:1040B0000FB6F894DEBF0FBECDBFDF91CF911F9139
:1040C0000F91FF90EF90DF90CF90BF90AF909F90B7
:1040D0008F907F906F905F904F903F902F900895BA
:1040E000CF93DF93CDB7DEB728970FB6F894DEBF36
:1040F0000FBECDBF18861F821E821D821C821B82AE
:104100001A8219829E012B5F3F4FAE014F5F5F4FB6
:10411000BE016D5F7F4FCE0107960E944B076F81F6
:10412000788580EB98E00E94C52088E898E00E949E
:10413000FD0291E0811190E0892F28960FB6F89446
:10414000DEBF0FBECDBFDF91CF910895FC0111827C
:1041500010821282138214821582168217821086B0
:104160001186138612861486108E178A1686158677
:10417000108A1786128A118A148A138A168A158A57
:104180000895FC018789908D08958F929F92AF9238
:10419000BF92CF92DF92EF92FF920F931F93FC0199
:1041A0009B0140E050E060E070E080E090E0A280A1
:1041B000B380C480D580E680F780008511850E9499
:1041C00038242283338344835583668377838087AF
:1041D0009187A081B1811196B183A083A034B105EC
:1041E00009F08DC003E00E941C24A90133872287B7
:1041F0001182108212821382148215821682178213
:1042000010861186C90190548935964208F077C00E
:104210008485DF01A80FB11DA80FB11D1E965C9308
:104220004E931D978F5F8487853009F068C0258580
:104230003685858996898217930720F4368B258BDE
:104240009687858727853089858996898217930780
:1042500020F4368B258B908B87872189328985893D
:1042600096898217930720F4368B258B928B818B4E
:1042700023893489858996898217930720F4368BA0
:10428000258B948B838B258536858189928982172E
:10429000930720F4328B218B968785872785308979
:1042A000838994898217930720F4348B238B908B16
:1042B000878725853685878590898217930720F41F
:1042C000308B2787968785872189328983899489CE
:1042D0008217930720F4348B238B928B818B278555
:1042E0003089818992898217930720F4328B218B40
:1042F000908B8787148681899289908F878B878995
:10430000908D1F910F91FF90EF90DF90CF90BF9015
:10431000AF909F908F900895FC018789908D0895AC
:104320008F929F92AF92BF92CF92DF92EF92FF92C5
:104330000F931F93FC019B0140E050E060E070E0B0
:1043400080E090E0A280B380C480D580E680F780D2
:10435000008511850E94382422833383448355834A
:104360006683778380879187A081B1811196B1831D
:10437000A083A034B10509F087C003E00E941C248B
:10438000228733871182108212821382148215824F
:1043900016821782108611868485DF01A80FB11D51
:1043A000A80FB11D1D962C931D971E963C938F5FF1
:1043B0008487853009F068C025853685858996898A
:1043C0008217930720F4368B258B96878587278560
:1043D0003089858996898217930720F4368B258B3F
:1043E000908B8787218932898589968982179307DF
:1043F00020F4368B258B928B818B23893489858998
:1044000096898217930720F4368B258B948B838BA8
:1044100025853685818992898217930720F4328B0E
:10442000218B968785872785308983899489821790
:10443000930720F4348B238B908B878725853685D3
:10444000878590898217930720F4308B278796877A
:10445000858721893289838994898217930720F47B
:10446000348B238B928B818B27853089818992892C
:104470008217930720F4328B218B908B87871486C9
:1044800081899289908F878B8789908D1F910F9159
:10449000FF90EF90DF90CF90BF90AF909F908F9064
:1044A00008959EE088E10FB6F894A8958093600087
:1044B0000FBE90936000A89578940E941E0AA8955C
:1044C0000E948818A8950E94CF07A8950E94871B74
:1044D000A8950E94D9070E948D180E94151CA895C6
:1044E0000E9470208111FBCFF4CFA1E21A2EAA1BEB
:1044F000BB1BFD010DC0AA1FBB1FEE1FFF1FA21794
:10450000B307E407F50720F0A21BB30BE40BF50B90
:10451000661F771F881F991F1A9469F76095709519
:10452000809590959B01AC01BD01CF010895DF936B
:10453000CF931F930F939A9DF02D219FF00D8B9D8C
:10454000F00D8A9DE02DF10D039FF00D029FE00D0F
:10455000F11D4E9DE00DF11D5E9DF00D4F9DF00D86
:104560007F936F93BF92AF925F934F93D5010E9459
:104570005F248B01AC01D7010E945F24EB01E80F9F
:10458000F91FD6010E94E7222F913F91D6010E9488
:104590005F24C60FD71FE81FF91FAF91BF910E947C
:1045A000E7222F913F910E945F24C60FD71FE81F7B
:1045B000F91FD6010E945F24E60FF71F9801BE0184
:1045C000CF0111240F911F91CF91DF9108950E9487
:1045D0005F24460F571FC81FD91F08F4319608954E
:1045E00097FB57FF0C9400239F938F930E94002307
:1045F0006E1B7F0BAF91BF918A0B9B0B0895E894C4
:10460000DF93CF93FC01DB010E945F247F936F93C4
:10461000E9019A01AC01BF93AF933F932F93DF0160
:104620000E945F2426F46C1B7D0B820B930B9E0172
:10463000EB01FC010E94E722AF91BF912F913F91C6
:104640000E94E722BE01CF01F9012F913F91CF9146
:10465000DF910895689401C0E894F92FF12B12F0CE
:104660000C945E23A0E0B0E0E8E3F3E20C94D023E6
:10467000092E059422F40E94BA23112392F4F0E843
:104680000F26FFEFE094F09400951095B094C0943D
:10469000D094A194BF0ACF0ADF0AEF0AFF0A0F0BDA
:1046A0001F0B0E94692307FC0E94BA23CDB7DEB717
:1046B000ECE00C94EC23689401C0E8948F929F92F4
:1046C000CF93DF930E946923DF91CF919F908F90CA
:1046D000089588249924F401E401B0E49F93AA2763
:1046E0009A158B049C04ED05FE05CF05D007A107A4
:1046F00098F4AD2FDC2FCF2FFE2FE92D982C892E8B
:10470000982F872F762F652F542F432F322F222754
:10471000B85031F7BF9127C01B2EBF91BB27220F86
:10472000331F441F551F661F771F881F991F881C42
:10473000991CEE1FFF1FCC1FDD1FAA1FBB1F8A1471
:104740009B04EC05FD05CE05DF05A007B10748F089
:104750008A189B08EC09FD09CE09DF09A00BB10BF3
:1047600021601A94E1F62EF49401AF01BE01CD014F
:10477000000C0895609570958095909530954095C2
:10478000509521953F4F4F4F5F4F6F4F7F4F8F4F4A
:104790009F4F08952F923F924F925F926F927F9218
:1047A0008F929F92AF92BF92CF92DF92EF92FF9241
:1047B0000F931F93CF93DF93CDB7DEB7CA1BDB0BED
:1047C0000FB6F894DEBF0FBECDBF09942A88398892
:1047D00048885F846E847D848C849B84AA84B98499
:1047E000C884DF80EE80FD800C811B81AA81B981A5
:1047F000CE0FD11D0FB6F894DEBF0FBECDBFED01B9
:1048000008950F93083090F0982F872F762F652FFB
:10481000542F432F322F22270850F4CF220F331F5B
:10482000441F551F661F771F881F991F0A95B2F7EF
:104830000F91089597FB10F8169400080F93083015
:1048400098F00850232F342F452F562F672F782F9D
:10485000892F902DF4CF0594979587957795679537
:1048600057954795379527950A95AAF70F9108957B
:104870002A0D3B1D4C1D5D1D6E1D7F1D801F911F50
:1048800008952A193B094C095D096E097F09800BBF
:10489000910B08952A153B054C055D056E057F05B6
:1048A0008007910708950024A7FD00942A1730057A
:1048B0004005500560057005800590050895A29F8C
:1048C000B001B39FC001A39F700D811D1124911DE4
:1048D000B29F700D811D1124911D08950E948224A4
:1048E0000C9480250E94792558F00E94722540F092
:1048F00029F45F3F29F00C94592551110C94B425EB
:104900000C945F250E94912568F39923B1F35523F8
:1049100091F3951B550BBB27AA27621773078407D2
:1049200038F09F5F5F4F220F331F441FAA1FA9F368
:1049300035D00E2E3AF0E0E832D091505040E69556
:10494000001CCAF72BD0FE2F29D0660F771F881FB7
:10495000BB1F261737074807AB07B0E809F0BB0BAA
:10496000802DBF01FF2793585F4F3AF09E3F5105BE
:1049700078F00C9459250C94B4255F3FE4F3983EED
:10498000D4F3869577956795B795F7959F5FC9F7A7
:10499000880F911D9695879597F90895E1E0660F28
:1049A000771F881FBB1F621773078407BA0720F0A1
:1049B000621B730B840BBA0BEE1F88F7E09508950A
:1049C000BEE304D008F490E80895BFE3222733271C
:1049D000A9010E94992560F19F5748F1B91740F14C
:1049E000BFE3B91B9927B8503AF4660F771F881FA9
:1049F000991FB395D2F316C0B8504AF0232F342F25
:104A0000452F562F672F782F8827B850BAF7B85FF1
:104A100049F08695779567955795479537952795EA
:104A2000BA95B9F716F40E9462258894089588947F
:104A300060E070E0CB010895E89409C097FB3EF474
:104A400090958095709561957F4F8F4F9F4F9923DB
:104A5000A9F0F92F96E9BB279395F6958795779559
:104A60006795B795F111F8CFFAF4BB0F11F460FF19
:104A70001BC06F5F7F4F8F4F9F4F16C0882311F071
:104A800096E911C0772321F09EE8872F762F05C085
:104A9000662371F096E8862F70E060E02AF09A9520
:104AA000660F771F881FDAF7880F9695879597F915
:104AB000089597F99F6780E870E060E008959FEFA0
:104AC00080EC0895909580957095609550954095EF
:104AD000309521953F4F4F4F5F4F6F4F7F4F8F4F17
:104AE0009F4F089500240A94161617061806090603
:104AF000089500240A941216130614060506089554
:104B0000092E0394000C11F4882352F0BB0F40F4DB
:104B1000BF2B11F460FF04C06F5F7F4F8F4F9F4F1B
:104B2000089557FD9058440F551F59F05F3F71F09D
:104B30004795880F97FB991F61F09F3F79F0879504
:104B40000895121613061406551FF2CF4695F1DF8D
:104B500008C0161617061806991FF1CF869571051D
:104B6000610508940895E894BB2766277727CB0151
:104B700097F908950E94CD250C9480250E947225F6
:104B800038F00E94792520F0952311F00C945925D6
:104B90000C945F2511240C94B4250E94912570F388
:104BA000959FC1F3950F50E0551F629FF001729FD2
:104BB000BB27F00DB11D639FAA27F00DB11DAA1FE1
:104BC000649F6627B00DA11D661F829F2227B00D2E
:104BD000A11D621F739FB00DA11D621F839FA00DB9
:104BE000611D221F749F3327A00D611D231F849F09
:104BF000600D211D822F762F6A2F11249F57504060
:104C00009AF0F1F088234AF0EE0FFF1FBB1F661FDA
:104C1000771F881F91505040A9F79E3F510580F0A3
:104C20000C9459250C94B4255F3FE4F3983ED4F3DB
:104C3000869577956795B795F795E7959F5FC1F747
:104C4000FE2B880F911D9695879597F90895F894F6
:024C5000FFCF94
:104C520000C0C101C30302C2C60607C705C5C4041A
:104C6200CC0C0DCD0FCFCE0E0ACACB0BC90908C88A
:104C7200D81819D91BDBDA1A1EDEDF1FDD1D1CDC7A
:104C820014D4D515D71716D6D21213D311D1D010EA
:104C9200F03031F133F3F23236F6F737F53534F4DA
:104CA2003CFCFD3DFF3F3EFEFA3A3BFB39F9F8384A
:104CB20028E8E929EB2B2AEAEE2E2FEF2DEDEC2C3A
:104CC200E42425E527E7E62622E2E323E12120E0AA
:104CD200A06061A163A3A26266A6A767A56564A49A
:104CE2006CACAD6DAF6F6EAEAA6A6BAB69A9A8680A
:104CF20078B8B979BB7B7ABABE7E7FBF7DBDBC7CFA
:104D0200B47475B577B7B67672B2B373B17170B069
:104D12005090915193535292965657975595945459
:104D22009C5C5D9D5F9F9E5E5A9A9B5B99595898C9
:104D3200884849894B8B8A4A4E8E8F4F8D4D4C8CB9
:104D42004484854587474686824243834181804029
:104D520000C1814001C0804101C0804100C1814049
:104D620001C0804100C1814000C1814001C0804139
:104D720001C0804100C1814000C1814001C0804129
:104D820000C1814001C0804101C0804100C1814019
:104D920001C0804100C1814000C1814001C0804109
:104DA20000C1814001C0804101C0804100C18140F9
:104DB20000C1814001C0804101C0804100C18140E9
:104DC20001C0804100C1814000C1814001C08041D9
:104DD20001C0804100C1814000C1814001C08041C9
:104DE20000C1814001C0804101C0804100C18140B9
:104DF20000C1814001C0804101C0804100C18140A9
:104E020001C0804100C1814000C1814001C0804198
:104E120000C1814001C0804101C0804100C1814088
:104E220001C0804100C1814000C1814001C0804178
:104E320001C0804100C1814000C1814001C0804168
:104E420000C1814001C0804101C0804100C1814058
:104E520053656E64205245473A30303030303F203F
:0A4E6200666F722068656C700A002C
:00000001FF
