:100000000C9446000C9465000C9465000C946500FB
:100010000C9465000C9465000C9465000C946500CC
:100020000C9465000C9465000C9465000C946500BC
:100030000C9465000C9465000C9465000C9491047C
:100040000C9465000C9465000C9465000C944E01B2
:100050000C9449050C9473050C9465000C94650090
:100060000C9465000C9465000C9465000C9465007C
:100070000C941B060C9445060C9465000C946500CA
:100080000C9465000C9465000C94650011241FBE4F
:10009000CFEFD0E4DEBFCDBF11E0A0E0B1E0ECECEB
:1000A000F0E200E00BBF02C007900D92A83AB10742
:1000B000D9F722E1A8EAB1E001C01D92AA3CB2073B
:1000C000E1F70E94220E0C9464100C940000569AE2
:1000D0005E9884B1806B84B926982C9A85B18F750F
:1000E00085B91092A8011092BD0183ED8CBD1DBC95
:1000F00008955E9A08955E9808958091A8018111EF
:10010000FECF1092A9018091BD0181FF0DC0909199
:10011000BE019093AA0191E09093AB0192E090937D
:10012000A801ECEAF1E002C0EAEAF1E082FF0BC0CC
:100130009091BF01908392E0918332969091A801B3
:100140009E5F9093A80183FF0EC09091C001209103
:10015000C1012083918393E0928333969091A8010B
:100160009D5F9093A80184FF0EC09091C2012091E1
:10017000C3012083918394E0928333969091A801E8
:100180009D5F9093A80185FF0BC09091C40190835F
:1001900095E0918332969091A8019E5F9093A8017B
:1001A00086FF0BC09091C501908396E091833296B3
:1001B0009091A8019E5F9093A80187FF0AC080914B
:1001C000C601808387E081838091A8018E5F809340
:1001D000A8011092BD012C9881E28A95F1F70000E8
:1001E000E091A801E11106C081E28A95F1F70000D3
:1001F0002C9A0895F0E0E755FE4F80818EBD8091E6
:10020000A80181508093A8010895029718F41092D4
:10021000BE0103C081E08093BE018091BD01826078
:100220008093BD010895EDEBF1E0828380818460CD
:1002300080830895EDEBF1E094838383808188606F
:1002400080830895EDEBF1E0968385838081806162
:1002500080830895EDEBF1E08F5F8783808180627A
:10026000808308959FEF980F9F3080F49FEF960F43
:100270009F3060F420E1829FC0011124862B80937F
:10028000C5018091BD0180648093BD010895EDEBAF
:10029000F1E0818780818068808308951F920F92AA
:1002A0000FB60F9211240BB60F928F93EF93FF931B
:1002B000E091A801E11106C081E28A95F1F7000002
:1002C0002C9A0AC0F0E0E755FE4F80818EBD8091E8
:1002D000A80181508093A801FF91EF918F910F9019
:1002E0000BBE0F900FBE0F901F9018952F923F924C
:1002F0004F925F926F927F928F929F92AF92BF9236
:10030000CF92DF92EF92FF920F931F93CF93DF93E1
:10031000FB0128E0829FE00111244E0188EF981A2A
:10032000F8946E0198E0C90ED11C7E01A0E030E087
:1003300040E050E060E070E080E090E02A2F08E0CC
:100340000E94C20F432E542E652E762EB72F382EC4
:10035000292EF999FECFE1BCF2BCF89A80B5A22F04
:10036000A82B342D452D562D672D7B2F832D922DB7
:100370002FEFE21AF20AEC14FD0401F7C85FD74F21
:10038000A12C30E040E050E060E070E080E090E0E0
:100390002A2D08E00E94C20FB32E6A017B018C0156
:1003A000F999FECF81BC92BCF89A80B5A22EA82AFA
:1003B0003B2DA601B701C8012FEF821A920A8C16B5
:1003C0009D0631F778942A2F342D452D562D672D13
:1003D0007B2F832D922D0E94171051F010821182D5
:1003E0001282138214821582168217828FEF09C03F
:1003F000A0834182528263827482B58336822782CF
:1004000080E0DF91CF911F910F91FF90EF90DF90EF
:10041000CF90BF90AF909F908F907F906F905F90A4
:100420004F903F902F9008952F923F924F925F925E
:100430006F927F928F929F92AF92BF92CF92DF92F4
:10044000EF92FF920F931F93CF93DF9300D000D0D2
:100450001F92CDB7DEB7A02F612E722E3D834C8345
:10046000B52F2B0128E0829FF0011124FB83EA8342
:100470001F0138EF331AF8944F0188E0880E911C61
:10048000EA80FB8020E0F0E0A12CB12CC12CD12C23
:1004900000E010E03F2FA501B601C80108E00E946E
:1004A000C20FF999FECFE1BCF2BCF89A10B5212B2E
:1004B000F32F5A016B018C01EFEFEE1AFE0AE814DC
:1004C000F90441F7AA2EB62CC72CDD80EC80FB2E58
:1004D00082010E94171079F4EA80FB80F8E0EF0EA9
:1004E000FF1EF10120E0912CA12CB12CC12CD12CAC
:1004F00000E010E029C02A2F362D472D5D816C8148
:100500007B2FC201F999FECF81BC92BC20BDFA9A23
:10051000F99A08E00E94DD0FE1E08E1A9108EA8165
:10052000FB818E169F0671F7D7CFF999FECFE1BDFB
:10053000F2BDF89A10B5212B932E5A016B018C0154
:100540003196EE15FF0541F0392DA501B601C80120
:1005500008E00E94C20FE9CFAA2EB62CC72CDD807E
:10056000EC80FB2E82010E941710E1F0F999FECF7A
:10057000E1BDF2BDA0BDFA9AF99A2A2F362D472D7A
:100580005D816C817B2FC20108E00E94DD0FA22FEC
:10059000632E742E5D836C83B72F2C013197E21587
:1005A000F30521F7789480E00F900F900F900F9053
:1005B0000F90DF91CF911F910F91FF90EF90DF90FF
:1005C000CF90BF90AF909F908F907F906F905F90F3
:1005D0004F903F902F900895F8941092C701109279
:1005E000C8011092C9011092CA011092CB01109259
:1005F000CC011092CD011092CE0110928500109284
:100600008400EFE6F0E080818160808310928000BA
:1006100081E080938100789408952F923F924F92C9
:100620005F926F927F928F929F92AF92BF92CF9282
:10063000DF92EF92FF920F931F93CF93DF93CDB78B
:10064000DEB727970FB6F894DEBF0FBECDBFFC0113
:10065000A22FF32EE42ED52ECB01209085003090D2
:1006600084002091C7012091C8014090C901509099
:10067000CA01B091CB01B983B091CC01BA83B091DA
:10068000CD01BB83B091CE01BC8398014A2F5F2D71
:100690006E2D7D2D02E00E94C20F39014A016E834A
:1006A0007D83B82FA92F0E94C20F59016A017B01D7
:1006B0008C019301A4016E817D818B2F9A2F0E9462
:1006C000F90F39014A01DB018E839F83222D30E02F
:1006D00040E050E060E070E080E090E008E00E94E0
:1006E000C20FB32EA32CA22AC42CC42AD52CD52ADF
:1006F000E980E62AFA80F72A0B81082B1C81192B46
:100700009301A401BD018E819F810E94F90F208376
:1007100031834283538364837583868397832796CB
:100720000FB6F894DEBF0FBECDBFDF91CF911F9102
:100730000F91FF90EF90DF90CF90BF90AF909F9080
:100740008F907F906F905F904F903F902F90089583
:100750007F928F929F92AF92BF92CF92DF92EF9251
:10076000FF920F931F93CF93DF93FC01209185009D
:10077000A0908400708081809280D381C481B581F3
:10078000A681E7818091C7018091C801C090C9010D
:10079000D090CA01E090CB01F090CC01F091CD0156
:1007A0001091CE0130E040E050E060E070E080E089
:1007B00090E008E00E94C20FB32EA22AC42AD52AD4
:1007C000E62AF72A0F2F082B192B272D382D492D14
:1007D0005D2F6C2F7B2F8A2F9E2F0E940E10F1E031
:1007E000A72CB82CC92CDD2EEC2EFB2E0A2F1E2F89
:1007F0000E94171008F4F0E08F2FDF91CF911F9126
:100800000F91FF90EF90DF90CF90BF90AF909F90AF
:100810008F907F9008952F923F924F925F926F92A8
:100820007F928F929F92AF92BF92CF92DF92EF9280
:10083000FF920F931F93CF93DF9300D000D01F92AE
:10084000CDB7DEB7FC0120918500A0908400208008
:1008500031804280538064807580A681A983F781AE
:100860008091C7018091C801C090C901D090CA0190
:10087000E090CB01F090CC01E091CD011091CE0140
:1008800030E040E050E060E070E080E090E008E0C0
:100890000E94C20FB32EA22AC42AD52AE62AF72A1A
:1008A0000E2F082B192B9101A201B3018A2F9F2F24
:1008B0000E940E105B838C839D8351016201730142
:1008C00009811F2F0E94171060F4E4E1AE2EB12CB5
:1008D000C12CD12CE12CF12C00E010E00E941E0F65
:1008E00008C020E030E040E050E060E070E080E0F0
:1008F00090E00F900F900F900F900F90DF91CF919D
:100900001F910F91FF90EF90DF90CF90BF90AF902D
:100910009F908F907F906F905F904F903F902F901F
:1009200008951F920F920FB60F9211242F933F93A9
:100930004F935F936F937F938F939F932091C70102
:100940003091C8014091C9015091CA016091CB0119
:100950007091CC018091CD019091CE014F5F5F4F9E
:100960006F4F7F4F8F4F9F4F2093C7013093C80128
:100970004093C9015093CA016093CB017093CC019D
:100980008093CD019093CE019F918F917F916F9134
:100990005F914F913F912F910F900FBE0F901F903D
:1009A00018951092D2031092D3031092D403109290
:1009B000CF021092D0021092D10282E08093C50043
:1009C00088E08093C400E0ECF0E080818260808366
:1009D000E1ECF0E0808188698083E2ECF0E08081E6
:1009E000866080830895EFEFF0E0262F30E040919D
:1009F000D403DF01A41BB1092A173B07C4F7282F32
:100A0000FC018E2F821B861768F4A091D303B0E0FF
:100A10008191AE52BD4F8C938091D3038F5F8093B1
:100A2000D303EFCF8091D403680F6093D4038091F8
:100A3000C10085FD0AC08091C00080648093C00021
:100A40008091C10080628093C10008952091D102FD
:100A50002617E0F3282FFC018E2F821B861768F4DF
:100A6000A091CF02B0E0A153BE4F8C9181938091B1
:100A7000CF028F5F8093CF02EFCF8091D102861B90
:100A80008093D10208951092D40308951092D10258
:100A900008951F920F920FB60F9211240BB60F926A
:100AA0008F93EF93FF938091D1028F3F91F0E0916C
:100AB000D002F0E08091C600E153FE4F8083809128
:100AC000D0028F5F8093D0028091D1028F5F80939C
:100AD000D102FF91EF918F910F900BBE0F900FBE3F
:100AE0000F901F9018951F920F920FB60F9211241E
:100AF0000BB60F928F93EF93FF938091D4038823CB
:100B000099F0E091D203F0E0EE52FD4F80818093A6
:100B1000C6008091D2038F5F8093D2038091D4036B
:100B200081508093D40305C08091C1008F7D809354
:100B3000C100FF91EF918F910F900BBE0F900FBEF0
:100B40000F901F9018951092D8051092D905109209
:100B5000DA051092D5041092D6041092D70482E0E0
:100B60008093CD0088E08093CC00E8ECF0E08081B9
:100B700082608083E9ECF0E0808188698083EAEC20
:100B8000F0E08081866080830895EFEFF0E0262F0B
:100B900030E04091DA05DF01A41BB1092A173B07B9
:100BA000C4F7282FFC018E2F821B861768F4A091B2
:100BB000D905B0E08191A852BB4F8C938091D905A3
:100BC0008F5F8093D905EFCF8091DA05680F60932E
:100BD000DA058091C90085FD0AC08091C800806453
:100BE0008093C8008091C90080628093C9000895F5
:100BF0002091D7042617E0F3282FFC018E2F821BAB
:100C0000861768F4A091D504B0E0AB52BC4F8C912C
:100C100081938091D5048F5F8093D504EFCF80912D
:100C2000D704861B8093D70408951092DA0508959F
:100C30001092D70408951F920F920FB60F921124AD
:100C40000BB60F928F93EF93FF938091D7048F3F52
:100C500091F0E091D604F0E08091CE00EB52FC4F91
:100C600080838091D6048F5F8093D6048091D704CF
:100C70008F5F8093D704FF91EF918F910F900BBE00
:100C80000F900FBE0F901F9018951F920F920FB6E6
:100C90000F9211240BB60F928F93EF93FF938091D5
:100CA000DA05882399F0E091D805F0E0E852FB4F8F
:100CB00080818093CE008091D8058F5F8093D80586
:100CC0008091DA0581508093DA0505C08091C900D2
:100CD0008F7D8093C900FF91EF918F910F900BBE94
:100CE0000F900FBE0F901F90189587B18F7087B926
:100CF00088B18F7088B98AB1806A8AB95D985F9A25
:100D00000895AF92BF92CF92DF92FF920F931F93FD
:100D1000CF93DF935C01EBB1EF75EBB983E08A957C
:100D2000F1F700005D9AA3E0AA95F1F700005D9845
:100D3000B3E0BA95F1F700005D9AE3E0EA95F1F7C8
:100D40000000ADE0FA2EC12CD12CA0E0B0E0C0E054
:100D5000D0E000E010E05D98F3E0FA95F1F70000D4
:100D60005D9A000F111FCC0FDD1FAA0FBB1FCC0C0B
:100D7000DD1C349901603599C1603699A160379BBB
:100D800002C06894C0F8FA94F110E5CF5F9A1F7022
:100D9000F50111830083DF70FB01D183C083BF7035
:100DA000FA01B183A083F601FF70D901ED93FC93A2
:100DB000DF91CF911F910F91FF90DF90CF90BF9067
:100DC000AF900895CF93DF93CDB7DEB728970FB6D6
:100DD000F894DEBF0FBECDBF19821A821B821C821F
:100DE0001D821E821F821886BE016F5F7F4F81E0C9
:100DF0000E94760187FF03C060E071E019C189811C
:100E00009A819093260A8093250ABE016F5F7F4FD7
:100E100082E00E94760187FF03C06BE071E008C1A9
:100E200089819A819093280A8093270ABE016F5F77
:100E30007F4F83E00E94760187FF03C066E171E087
:100E4000F7C089819A8190932A0A8093290ABE016A
:100E50006F5F7F4F84E00E94760187FF03C061E2ED
:100E600071E0E6C089819A8190932C0A80932B0AC5
:100E7000BE016F5F7F4F85E00E94760187FF03C050
:100E80006CE271E0D5C089819A8190932E0A80939B
:100E90002D0ABE016F5F7F4F86E00E94760187FFBB
:100EA00003C067E371E0C4C089819A819093300ADE
:100EB00080932F0ABE016F5F7F4F87E00E9476010B
:100EC00087FF03C062E471E0B3C089818093310A77
:100ED000BE016F5F7F4F88E00E94760187FF03C0ED
:100EE0006DE471E0A5C089818093320A8A81809384
:100EF000330A8B818093340A8C818093350A8D81EB
:100F00008093360A8E818093370A8F818093380AC6
:100F100088858093390ABE016F5F7F4F89E00E9408
:100F2000760187FF03C068E571E082C08981809304
:100F30003A0A8A8180933B0A8B8180933C0A8C8198
:100F400080933D0A8D8180933E0A8E8180933F0A73
:100F50008F818093400A88858093410ABE016F5F2C
:100F60007F4F8AE00E94760187FF03C063E671E04D
:100F70005FC089818093420A8A818093430A8B8172
:100F80008093440A8C818093450A8D818093460A20
:100F90008E818093470A8F818093480A8885809349
:100FA000490ABE016F5F7F4F8BE00E94760187FF89
:100FB00003C06EE671E03CC0898180934A0A8A8151
:100FC00080934B0A8B8180934C0A8C8180934D0ACD
:100FD0008D8180934E0A8E8180934F0A8F818093FA
:100FE000500A88858093510ABE016F5F7F4F8CE065
:100FF0000E94760187FF03C069E771E019C089810B
:101000009A819093530A8093520ABE016F5F7F4F7B
:101010008DE00E94760187FF03C065E871E008C09B
:1010200089819A819093550A8093540A60E971E00E
:1010300086E592E128960FB6F894DEBF0FBECDBFCD
:10104000DF91CF910C945D10E7E1FAE011821082FC
:1010500013821282158214821782168211861086DC
:101060001386128615861486EAEBF2E1118210824D
:1010700013821282158214821782168211861086BC
:10108000138612861586148617861686E5E2FAE020
:1010900011821082138212821582148217821682A4
:1010A0001186108613861286148615861686178674
:1010B000108A118A128A138A148A158A168A178A44
:1010C000108E118E128E138E148E158E168E178E14
:1010D00010A211A212A213A214A215A216A217A264
:1010E00010A611A612A613A614A616A615A610AA37
:1010F00017A66AE971E086E592E10E945D100C9402
:10110000E20608950F931F93CF93DF93EBEDF5E085
:101110001082118212821382148215821682178223
:1011200010861186128613861486158616861786F3
:10113000108A118A8EE098E00E94A60D85E096E064
:101140000E94A60D0E94EC02C5E2DAE00DA11EA1EC
:101150002FA138A549A55AA56BA57CA58DEE95E0D4
:101160000E940D030D891E892F89388D498D5A8D56
:101170006B8D7C8D85EF95E00E940D0301E010E002
:1011800020E030E040E050E060E070E08DEF95E07E
:101190000E940D030E9475060E9467000E947B005A
:1011A00083E090E00E942A0180E00E94130180E029
:1011B00090E00E941A01DF91CF911F910F910C9442
:1011C0007D002F923F924F925F926F927F928F920B
:1011D0009F92AF92BF92CF92DF92EF92FF920F93C6
:1011E0001F93CF93DF93CDB7DEB76B970FB6F8940D
:1011F000DEBF0FBECDBF4090C0125090C112809094
:10120000BE129090BF128091E4058E879091E50503
:101210009F87A091E605A88BB091E705B98BE09177
:10122000E805EA8BF091E905FB8B8091EA058C8B50
:101230009091EB059D8B052C000C66087708D30177
:10124000C201BB0F880B982FDC0189839A83AB8383
:10125000BC839201A3016981762F862F962F02E02D
:101260000E94C20F52016301E980FE2C0E2D1E2D3B
:101270000E940E1059016A017B01E82F192F04E02A
:101280000E94C20F0E2F0E940E1002E00E94C20F99
:1012900052016301E980FE2C0E2D1E2D0E94F90FD4
:1012A00003E00E94C20F122FD32E042FB52FF62F6A
:1012B000E72F7C01A0E00E9420107CF42150384FE1
:1012C0004F4F5F4F6F4F7F4F8F4F9F4F122FD32E38
:1012D000042FB52FF62FE72F7C01212F3D2D402F16
:1012E0005B2F6F2F7E2FC7010BE00E94DB0F2B8738
:1012F0003C874D835E836F83788789879A87240133
:10130000990C66087708D301C201BB0F880B982F90
:10131000DC0189839A83AB83BC839201A301698139
:10132000762F862F962F02E00E94C20F5201630192
:10133000E980FE2C0E2D1E2D0E940E1059016A010F
:101340007B01E82F192F04E00E94C20F0E2F0E948C
:101350000E1002E00E94C20F52016301E980FE2CD0
:101360000E2D1E2D0E94F90F03E00E94C20F79017D
:10137000142FB52FF62FE72F6C01A0E00E9420104C
:1013800074F42150384F4F4F5F4F6F4F7F4F8F4F47
:101390009F4F7901142FB52FF62FE72F6C0197017E
:1013A000412F5B2F6F2F7E2FC6010BE00E94DB0FBA
:1013B000E091C212F091C312A6E0F695E795AA95C6
:1013C000E1F7EE0FFF1FEB5DF54F01A8F2A9E02D4D
:1013D0005F01C12CD12CE12CF12C00E010E00E9427
:1013E000580E08E00E94DB0F2093BA123093BB1214
:1013F0009B858C859093BC128093BD128DEF95E0F8
:101400000E94A8032091170A3091180A211531056E
:1014100021F4882309F471C068C02130310509F036
:101420005EC01092180A1092170A0091320A1091A9
:10143000330A2091340A3091350A4091360A50918E
:10144000370A6091380A7091390A8DEF95E00E9451
:101450000D038091DB05811150C081E08093DB0595
:101460001092DC051092DD051092DE051092DF056A
:101470001092E0051092E1051092E2051092E3054A
:101480001092E4051092E5051092E6051092E7052A
:101490001092E8051092E9051092EA051092EB050A
:1014A00080911D0A90911E0A019719F483E090E043
:1014B00002C081E090E00E94050180E090E00E947F
:1014C0001A0180E00E9413010E947D00A7E8B3E1A9
:1014D0001197F1F700C000000E9479000EC08FEF55
:1014E0009FEF9093180A8093170A1092DB051092D1
:1014F000C3121092C2120E947B0085EF95E00E94F9
:10150000A8038823D1F18091EC058130B9F41092C1
:10151000EC051092220A1092210A0091420A1091C1
:10152000430A2091440A3091450A4091460A50915D
:10153000470A6091480A7091490A1BC081111DC079
:101540008091210A9091220A0197B9F481E0809359
:10155000EC0500913A0A10913B0A20913C0A309127
:101560003D0A40913E0A50913F0A6091400A7091B5
:10157000410A85EF95E00E940D038091DB058823E9
:1015800009F483C18091EC0520911B0A30911C0A5B
:10159000813041F5121613062CF460912D0A7091DA
:1015A0002E0A27C021153105F1F160912F0A7091A3
:1015B000300A80E090E0032E000C440B550B0E9493
:1015C000B10EFCE9AF2EBB24BA94CC24CA94DD241E
:1015D000DA94EE24EA94FF24FA940FEF1FEF0E94AE
:1015E000ED0E29C012161306B4F46091290A709109
:1015F0002A0A80E090E0032E000C440B550B0E9459
:10160000B10EE4E6AE2EB12CC12CD12CE12CF12C84
:1016100000E010E0E4CF2115310529F060912B0A9C
:1016200070912C0AC6CF20E030E040E050E060E04E
:1016300070E080E090E0AB84BC84CD80DE80EF8001
:10164000F88409851A850E940E1029833D834E83F4
:101650005F83688779878A879B872093DC0530932F
:10166000DD05E42F4093DE05F52F5093DF05862F2F
:101670006093E005972F7093E105AA85A093E2059A
:10168000BB85B093E305AF01BC01CD01A090E4059B
:10169000B090E505C090E605D090E705E090E8053C
:1016A000F090E9050091EA051091EB050E94F90F11
:1016B000722E832E942E5B8F6A8F472E582E692EA2
:1016C0002093E4053093E5054093E6055093E70544
:1016D0006093E8057093E9058093EA059093EB0524
:1016E0003091530A2091520A932F990F990BA98098
:1016F000BD80CE80DF80E884F9848D01492F592F89
:10170000692F792F892F0E94580E19014C875D8708
:101710006E8B7F8B888F998F3091550A2091540A58
:10172000932F990F990BA72CB82CC92CDB8CEA8C22
:10173000F42C052D162D492F592F692F792F892F1C
:101740000E94580E59016A017B018C0191014C8560
:101750005D856E897F89888D998D0E94F90F790149
:10176000142FD52E062FB72FF82FE92FA0E00E94B7
:1017700020102CF529813D814E815F816885798516
:101780008A859B850E9420100CF065C08E85809311
:10179000E4059F859093E505A889A093E605B9899E
:1017A000B093E705EA89E093E805FB89F093E90542
:1017B0008C898093EA059D899093EB054CC0970135
:1017C000412F5D2D602F7B2F8F2F9E2F00E10E94D8
:1017D000DB0FF901498F5E8BB62FA72F8F8B988F68
:1017E0008091190A90911A0A1C019F016B2F7A2F80
:1017F0008F89988D5101C12CD12CE12CF12C00E066
:1018000010E00E94171051F14CF129813D814E8169
:101810005F81688579858A859B85A0E00E9420107C
:10182000F1F0ECF0AE85A093E405BF85B093E5053B
:10183000E889E093E605F989F093E7058A898093C2
:10184000E8059B899093E905AC89A093EA05BD89D9
:10185000B093EB0504C0212C312C01C01F01309244
:10186000C3122092C212C1010E941A01F10186E046
:10187000F695E7958A95E1F7EE0FFF1FEB5DF54FC3
:1018800081A90E9413010E947D0000914A0A1091D3
:101890004B0A20914C0A30914D0A40914E0A5091CA
:1018A0004F0A6091500A7091510A8DEE95E00E94A6
:1018B0000D036B960FB6F894DEBF0FBECDBFDF9160
:1018C000CF911F910F91FF90EF90DF90CF90BF903D
:1018D000AF909F908F907F906F905F904F903F90D0
:1018E0002F9008952F923F924F925F926F927F9226
:1018F0008F929F92AF92BF92CF92DF92EF92FF9220
:101900000F931F93CF93DF93CDB7DEB7A4970FB696
:10191000F894DEBF0FBECDBF198E1A8E1B8E1C8EA3
:101920001D8E1E8E1F8E18A2198A1A8A1B8A1C8A67
:101930001D8A1E8A1F8A188E19861A861B861C8687
:101940001D861E861F86188A19821A821B821C8297
:101950001D821E821F8218869E012F5F3F4FAE019F
:10196000475F5F4FBE016F5E7F4FCE0149960E9479
:101970008106298D3A8D4B8D5C8D6D8D7E8D8F8D81
:1019800098A1275638404109510961097109810917
:10199000910959016A017B01E82F192F02E00E9489
:1019A000C20F0E2F0E94F90F722E832E942EB52F88
:1019B000F62FE72F682E192FA0E00E9420105CF46C
:1019C000A3E00E940210722E832E942EB52FF62FC4
:1019D000E72F682E192F272D382D492D5B2F6F2FBC
:1019E0007E2F862D912F02E00E94DB0F322E432E98
:1019F000542E652E69A37AA38BA39CA3298F3A8FBB
:101A00004B8F5C8F6D8F7E8F8BA18F8F98A32989D1
:101A10003A894B895C896D897E898F89988D275693
:101A20003840410951096109710981099109222E42
:101A3000732E4A01B62FA72FF82FE92F06E00E9438
:101A4000C20FA22CB72C6401EB2EFA2E0F2F1E2FE3
:101A50000E940E1001E00E94C20F0F2F0E940E1074
:101A600002E00E94C20F722E832E942EB52FF62F05
:101A7000E72F182F292EA0E00E9420105CF4AFE081
:101A80000E940210722E832E942EB52FF62FE72F70
:101A9000182F292E272D382D492D5B2F6F2F7E2FA4
:101AA000812F922D04E00E94DB0F298B3A8B4B8B08
:101AB0005C8B6D8B7E8B8F8B988F232D342D452DDA
:101AC000562D69A17AA18BA19CA1A0E00E942010B3
:101AD00044F4198E1A8E1B8E1C8E1D8E1E8E1F8E28
:101AE00018A2698D7A8D8EE098E00E94C20D9093C5
:101AF000BF128093BE1269897A8985E096E00E94C0
:101B0000C20D9093C1128093C0128DEE95E00E9499
:101B1000A80391E0811190E0892FA4960FB6F89464
:101B2000DEBF0FBECDBFDF91CF911F910F91FF9010
:101B3000EF90DF90CF90BF90AF909F908F907F906D
:101B40006F905F904F903F902F900895DC01BE5FA3
:101B50001C92FC01EB5FFD4F1082118212821382F6
:101B600034971082118212821382FC011192119219
:101B7000EA17FB07D9F70895FC01EB5FFD4F808161
:101B8000918108954F925F926F927F928F929F9270
:101B9000AF92BF92CF92DF92FF920F931F93CF939A
:101BA000DF938C015B016C018EEFD81AF601F08097
:101BB000E801CF0DD11DCF0DD11D31964880598040
:101BC000052C000C6608770880819181A281B38181
:101BD000AC01BD014419550966097709C5010B2CF3
:101BE000000CAA0BBB0B3A014B01680E791E8A1E32
:101BF0009B1EC401B301608271828282938220E0C5
:101C000031E040E050E00E94390EF801EB5FFD4FFB
:101C10002083318342835383B982A882F394F601EF
:101C2000F082C901DF91CF911F910F91FF90DF905A
:101C3000CF90BF90AF909F908F907F906F905F906C
:101C40004F9008950FB6F894A89580916000886130
:101C500080936000109260000FBE78940E94240868
:101C60000E9482080E94720C8111FCCF0E94E10840
:101C7000F9CF052E97FB1EF400940E94500E57FDDD
:101C800007D00E942C1007FC03D04EF40C94500E89
:101C900050954095309521953F4F4F4F5F4F089598
:101CA00090958095709561957F4F8F4F9F4F0895C8
:101CB000DF93CF931F930F939A9DF02D219FF00DEB
:101CC0008B9DF00D8A9DE02DF10D039FF00D029F7D
:101CD000E00DF11D4E9DE00DF11D5E9DF00D4F9D3F
:101CE000F00D7F936F93BF92AF925F934F93D501A7
:101CF0000E944E108B01AC01D7010E944E10EB01E7
:101D0000E80FF91FD6010E94A80E2F913F91D6012E
:101D10000E944E10C60FD71FE81FF91FAF91BF9149
:101D20000E94A80E2F913F910E944E10C60FD71F00
:101D3000E81FF91FD6010E944E10E60FF71F980109
:101D4000BE01CF0111240F911F91CF91DF91089512
:101D50000E944E10460F571FC81FD91F08F4319616
:101D6000089597FB57FF0C94C10E9F938F930E9489
:101D7000C10E6E1B7F0BAF91BF918A0B9B0B089519
:101D8000E894DF93CF93FC01DB010E944E107F9318
:101D90006F93E9019A01AC01BF93AF933F932F93E7
:101DA000DF010E944E1026F46C1B7D0B820B930BFF
:101DB0009E01EB01FC010E94A80EAF91BF912F91F3
:101DC0003F910E94A80EBE01CF01F9012F913F91D2
:101DD000CF91DF910895689401C0E894F92FF12B19
:101DE00012F00C941F0FA0E0B0E0E9EFFEE00C94BD
:101DF000910F092E059422F40E947B0F112392F477
:101E0000F0E80F26FFEFE094F09400951095B09461
:101E1000C094D094A194BF0ACF0ADF0AEF0AFF0A48
:101E20000F0B1F0B0E942A0F07FC0E947B0FCDB7E0
:101E3000DEB7ECE00C94AD0F689401C0E8948F928B
:101E40009F92CF93DF930E942A0FDF91CF919F90B3
:101E50008F90089588249924F401E401B0E49F93BD
:101E6000AA279A158B049C04ED05FE05CF05D00723
:101E7000A10798F4AD2FDC2FCF2FFE2FE92D982C42
:101E8000892E982F872F762F652F542F432F322F8F
:101E90002227B85031F7BF9127C01B2EBF91BB2717
:101EA000220F331F441F551F661F771F881F991F5E
:101EB000881C991CEE1FFF1FCC1FDD1FAA1FBB1F14
:101EC0008A149B04EC05FD05CE05DF05A007B107CC
:101ED00048F08A189B08EC09FD09CE09DF09A00B20
:101EE000B10B21601A94E1F62EF49401AF01BE010A
:101EF000CD01000C08956095709580959095309572
:101F00004095509521953F4F4F4F5F4F6F4F7F4FFB
:101F10008F4F9F4F08952F923F924F925F926F92F3
:101F20007F928F929F92AF92BF92CF92DF92EF9269
:101F3000FF920F931F93CF93DF93CDB7DEB7CA1BEA
:101F4000DB0B0FB6F894DEBF0FBECDBF09942A8815
:101F5000398848885F846E847D848C849B84AA84BD
:101F6000B984C884DF80EE80FD800C811B81AA814A
:101F7000B981CE0FD11D0FB6F894DEBF0FBECDBF15
:101F8000ED0108950F93083090F0982F872F762F4A
:101F9000652F542F432F322F22270850F4CF220FC2
:101FA000331F441F551F661F771F881F991F0A95EF
:101FB000B2F70F91089597FB10F8169400080F934D
:101FC000083098F00850232F342F452F562F672FB5
:101FD000782F892F902DF4CF059497958795779535
:101FE000679557954795379527950A95AAF70F91C5
:101FF00008952A0D3B1D4C1D5D1D6E1D7F1D801F0C
:10200000911F08950024A7FD00942A0F301D401D44
:10201000501D601D701D801D901D08952A193B09DB
:102020004C095D096E097F09800B910B08952A15F3
:102030003B054C055D056E057F05800791070895FA
:102040000024A7FD00942A173005400550056005BF
:102050007005800590050895A1E21A2EAA1BBB1BEE
:10206000FD010DC0AA1FBB1FEE1FFF1FA217B30764
:10207000E407F50720F0A21BB30BE40BF50B661F7A
:10208000771F881F991F1A9469F76095709580953E
:1020900090959B01AC01BD01CF010895A29FB001B5
:1020A000B39FC001A39F700D811D1124911DB29F8C
:1020B000700D811D1124911D0895FB01DC0101901B
:0C20C0000D920020E1F70895F894FFCF86
:1020CC004552524F522050303031004552524F52EF
:1020DC002050303032004552524F52205030303365
:1020EC00004552524F522050303034004552524F1E
:1020FC00522050303035004552524F522050303023
:10210C0036004552524F5220503030370045525213
:10211C004F522050303038004552524F52205030E0
:10212C003039004552524F52205030313000455218
:10213C00524F522050303131004552524F522050A4
:10214C0030303132004552524F5220503031330032
:10215C0053595354454D204F4B00494E4954494116
:08216C004C495A494E4700009E
:00000001FF
