:020000020000FC
:1000000012C0189518951895189518951895189563
:100010001895189518951895189518951895189578
:100020001895189565C0A89502E00EBF0FE50DBFA5
:1000300008E101BD04E001BD78940FD05BD0A89524
:10004000B6994AD0B69BFBCF08B702FFFBCF57D07B
:100050007AD008B7026008BFF2CF0FE307BB0FEFFB
:1000600004BD03E500BF00E30FBD05E507BD01EEDC
:1000700006BD00E000B90FEF13E015BD0BBD02E8AF
:1000800009BD2FEF0000000000002A95D9F709B53F
:1000900000FFFDCF07E809BD08950FB5007F0FBD34
:1000A00007B50F730FBD089503E500BF05E507BD54
:1000B00006B5006C06BD0FB5007F04600FBD089546
:1000C00003E500BF05E507BD06B5006C06BD0FB52D
:1000D000007F04600FBD089503E500BF05E507BD7F
:1000E00006B5006C06BD0FB5007F04600FBD089516
:1000F000D4DF189561EE79E180E090E008950FB5C6
:1001000030E0272F2F7700FF02C0220F331F02FF9E
:1001100002C0220F331F77FD0BC0820F931F00E236
:100120001CE18017910708F40895801B910B089536
:10013000821B930B00E21CE18017910708F40895DD
:10014000800F911F089530E0082E192E00EB14E067
:100150000016110620F03395001A110AF9CF001984
:100160001109000F111FE8E7F2E0E00FF11F859081
:100170009490000C111CE8E7F2E0E00DF11DA59051
:10018000B490262F00E010E00024222444241124FF
:10019000332455248894279530F4080C291C401EDC
:1001A0001A0C3B1C511E8894881C991C001F8894B3
:1001B000AA1CBB1C111F222369F7822C942CA32C90
:1001C000B52C082C192C0A0C1B1C00E014E000199B
:1001D000110916950795602E712E00E0E3EFF0E00F
:1001E000E30FF01F099406C010C01AC024C02EC02F
:1001F00038C0089575BC6DBC680C791C75BC6CBCAE
:100200006A0C7B1C75BC6ABC089575BC6CBC6A0C1E
:100210007B1C75BC6DBC680C791C75BC6ABC0895F0
:1002200075BC6CBC680C791C75BC6ABC6A0C7B1C08
:1002300075BC6DBC089575BC6ABC6A0C7B1C75BC32
:100240006CBC680C791C75BC6DBC089575BC6ABC2F
:10025000680C791C75BC6DBC6A0C7B1C75BC6CBCD5
:10026000089575BC6DBC6A0C7B1C75BC6ABC680CBF
:10027000791C75BC6CBC08950000010002000300ED
:1002800004000400050006000700080009000A0039
:100290000B000C000D000D000E000F0010001100EF
:1002A00012001300140015001500160017001800A6
:1002B00019001A001B001C001D001D001E001F005D
:1002C0002000210022002300240025002600260013
:1002D0002700280029002A002B002C002D002E00CA
:1002E0002E002F0030003100320033003400350082
:1002F000360036003700380039003A003B003C0039
:100300003D003E003F003F004000410042004300EE
:1003100044004500460047004700480049004A00A5
:100320004B004C004D004E004F004F00500051005C
:100330005200530054005500560057005700580013
:1003400059005A005B005C005D005E005F005F00CA
:100350006000610062006300640065006600670081
:100360006700680069006A006B006C006D006E0039
:100370006F006F00700071007200730074007500F0
:10038000760077007700780079007A007B007C00A7
:100390007D007E007F007F0080008100820083005E
:1003A00084008500860087008700880089008A0015
:1003B0008B008C008D008E008F008F0090009100CC
:1003C0009200930094009500960096009700980084
:1003D00099009A009B009C009D009E009E009F003B
:1003E000A000A100A200A300A400A500A500A600F3
:1003F000A700A800A900AA00AB00AC00AD00AD00AA
:10040000AE00AF00B000B100B200B300B400B40061
:10041000B500B600B700B800B900BA00BB00BB0019
:10042000BC00BD00BE00BF00C000C100C200C300D0
:10043000C300C400C500C600C700C800C900CA0088
:10044000CA00CB00CC00CD00CE00CF00D000D10040
:10045000D100D200D300D400D500D600D700D800F8
:10046000D800D900DA00DB00DC00DD00DE00DF00B0
:10047000DF00E000E100E200E300E400E500E50069
:10048000E600E700E800E900EA00EB00EC00EC0021
:10049000ED00EE00EF00F000F100F200F300F300D9
:1004A000F400F500F600F700F800F900F900FA0092
:1004B000FB00FC00FD00FE00FF0000010001010147
:1004C00002010301040105010601060107010801FB
:1004D00009010A010B010C010C010D010E010F01B4
:1004E000100111011201130113011401150116016C
:1004F00017011801190119011A011B011C011D0125
:100500001E011F011F0120012101220123012401DD
:100510002501250126012701280129012A012B0196
:100520002B012C012D012E012F0130013101310150
:10053000320133013401350136013601370138010A
:1005400039013A013B013C013C013D013E013F01C3
:10055000400141014201420143014401450146017C
:1005600047014701480149014A014B014C014D0136
:100570004D014E014F0150015101520152015301F1
:1005800054015501560157015801580159015A01AA
:100590005B015C015D015D015E015F016001610164
:1005A000620162016301640165016601670167011F
:1005B000680169016A016B016C016C016D016E01DA
:1005C0006F01700171017101720173017401750194
:1005D000760176017701780179017A017B017B014F
:1005E0007C017D017E017F0180018001810182010A
:1005F00083018401850185018601870188018901C4
:100600008A018A018B018C018D018E018E018F017F
:10061000900191019201930193019401950196013A
:1006200097019701980199019A019B019C019C01F6
:100630009D019E019F01A001A001A101A201A301B2
:10064000A401A501A501A601A701A801A901A9016D
:10065000AA01AB01AC01AD01AE01AE01AF01B00129
:10066000B101B201B201B301B401B501B601B601E5
:10067000B701B801B901BA01BA01BB01BC01BD01A2
:10068000BE01BE01BF01C001C101C201C201C3015F
:10069000C401C501C601C701C701C801C901CA011A
:1006A000CB01CB01CC01CD01CE01CE01CF01D001D8
:1006B000D101D201D201D301D401D501D601D60195
:1006C000D701D801D901DA01DA01DB01DC01DD0152
:1006D000DE01DE01DF01E001E101E201E201E3010F
:1006E000E401E501E501E601E701E801E901E901CD
:1006F000EA01EB01EC01ED01ED01EE01EF01F0018A
:10070000F001F101F201F301F401F401F501F60148
:10071000F701F701F801F901FA01FB01FB01FC0106
:10072000FD01FE01FE01FF010002010202020202C0
:10073000030204020502050206020702080208027B
:1007400009020A020B020C020C020D020E020F0239
:100750000F021002110212021202130214021502F9
:100760001602160217021802190219021A021B02B7
:100770001C021C021D021E021F021F022002210277
:100780002202220223022402250225022602270237
:100790002802280229022A022B022B022C022D02F7
:1007A0002E022E022F0230023102310232023302B7
:1007B0003402340235023602370237023802390277
:1007C0003A023A023B023C023D023D023E023F0237
:1007D00040024002410242024302430244024502F7
:1007E0004502460247024802480249024A024B02B9
:1007F0004B024C024D024E024E024F02500250027A
:10080000510252025302530254025502560256023A
:1008100057025802580259025A025B025B025C02FC
:100820005D025E025E025F026002600261026202BD
:10083000630263026402650265026602670268027F
:10084000680269026A026A026B026C026D026D0242
:100850006E026F026F027002710271027202730205
:1008600074027402750276027602770278027902C7
:1008700079027A027B027B027C027D027D027E028B
:100880007F0280028002810282028202830284024D
:100890008402850286028702870288028902890211
:1008A0008A028B028B028C028D028D028E028F02D5
:1008B0008F02900291029202920293029402940299
:1008C00095029602960297029802980299029A025D
:1008D0009A029B029C029C029D029E029E029F0223
:1008E000A002A002A102A202A202A302A402A502E7
:1008F000A502A602A702A702A802A902A902AA02AB
:10090000AB02AB02AC02AD02AD02AE02AF02AF026F
:10091000B002B102B102B202B202B302B402B40236
:10092000B502B602B602B702B802B802B902BA02FC
:10093000BA02BB02BC02BC02BD02BE02BE02BF02C2
:10094000C002C002C102C202C202C302C302C40288
:10095000C502C502C602C702C702C802C902C9024F
:10096000CA02CB02CB02CC02CC02CD02CE02CE0216
:10097000CF02D002D002D102D202D202D302D302DD
:10098000D402D502D502D602D702D702D802D802A5
:10099000D902DA02DA02DB02DC02DC02DD02DD026D
:1009A000DE02DF02DF02E002E102E102E202E20235
:1009B000E302E402E402E502E602E602E702E702FD
:1009C000E802E902E902EA02EA02EB02EC02EC02C6
:1009D000ED02EE02EE02EF02EF02F002F102F1028E
:1009E000F202F202F302F402F402F502F502F60258
:1009F000F702F702F802F802F902FA02FA02FB0221
:100A0000FB02FC02FD02FD02FE02FE02FF020003E9
:100A100000030103010302030203030304030403AD
:100A20000503050306030703070308030803090377
:100A300009030A030B030B030C030C030D030E0342
:100A40000E030F030F03100310031103120312030D
:100A500013031303140314031503160316031703D8
:100A600017031803180319031A031A031B031B03A4
:100A70001C031C031D031D031E031F031F03200370
:100A8000200321032103220323032303240324033C
:100A90002503250326032603270327032803290309
:100AA00029032A032A032B032B032C032C032D03D6
:100AB0002D032E032F032F033003300331033103A3
:100AC0003203320333033303340334033503360371
:100AD00036033703370338033803390339033A033E
:100AE0003A033B033B033C033C033D033D033E030E
:100AF0003F033F03400340034103410342034203DA
:100B000043034303440344034503450346034603A9
:100B10004703470348034803490349034A034A0379
:100B20004B034B034C034C034D034D034E034E0349
:100B30004F034F0350035003510351035203520319
:100B400053035303540354035503550356035603E9
:100B50005703570358035803590359035A035A03B9
:100B60005B035B035C035C035D035D035E035E0389
:100B70005F035F0360036003610361036203620359
:100B8000630363036303640364036503650366032C
:100B900066036703670368036803690369036A03FD
:100BA0006A036B036B036B036C036C036D036D03D0
:100BB0006E036E036F036F037003700370037103A2
:100BC0007103720372037303730374037403750375
:080BD00075037503760376033B
:00000001FF
