:020000020000FC
:1000000012C0189518951895189518951895189563
:100010001895189518951895189518951895189578
:100020001895189589C0A89502E00EBF0FE50DBF81
:1000300008E101BD04E001BD789403D0A8950FD07C
:10004000FDCF61EE7FEF80E090E050E126D02AD036
:100050002CD036D03AD04AD071D098D008955130B3
:1000600011F44CD012C0523011F44ED00EC05430A6
:1000700011F450D00AC0583011F452D006C050319B
:1000800011F454D002C035D0089508B702FF089586
:1000900055D07CD004E008BF08950FE707BB00E00F
:1000A00008BB08950FEF04BD089503E500BF00E30A
:1000B0000FBD00E007BD01E006BD00E000B90895F6
:1000C0000FEF13E015BD0BBD089502E809BD2FEF3A
:1000D0000000000000002A95D9F709B500FFFDCF08
:1000E00007E809BD089505E507BD089500E007BDCF
:1000F0000895FCDF0FB5007F0FBD0895F4DF0FB545
:10010000007F05600FBD0895EEDF0FB5007F04602E
:100110000FBD0895E8DF0FB5007F03600FBD0895A0
:10012000E2DF0FB5007F02600FBD0895DCDF0FB581
:10013000007F01600FBD0895DCDF18950FB50F70CB
:1001400077FD03C030E0272F04C030E02FEF271BDE
:1001500023950A9519F0220F331FFBCF77FD0BC0B3
:10016000820F931F08E01DE38017910708F408959C
:10017000801B910B0895821B930B08E01DE38017F1
:10018000910708F40895800F911F089530E0082E1C
:10019000192E0CE21AE00016110620F03395001A11
:1001A000110AF9CFE4EBF2E000191109E00FF11F99
:1001B000E00FF11F85909490E4EBF2E0E00DF11D6B
:1001C000E00DF11DA590B490262F00E010E0002472
:1001D00022244424112433245524269530F4080C79
:1001E000291C401E1A0C3B1C511E880C991C001F18
:1001F000AA0CBB1C111F222381F7822C942CA32C48
:10020000B52C0FEF13E0602E712E681879086A186C
:100210007B086694779400E0E1E1F1E0E30FF01FE2
:10022000099406C010C01AC024C02EC038C008955A
:1002300075BC6DBC680C791C75BC6CBC6A0C7B1CF5
:1002400075BC6ABC089575BC6CBC6A0C7B1C75BC23
:100250006DBC680C791C75BC6ABC089575BC6CBC1F
:10026000680C791C75BC6ABC6A0C7B1C75BC6DBCC7
:10027000089575BC6ABC6A0C7B1C75BC6CBC680CB0
:10028000791C75BC6DBC089575BC6ABC680C791C82
:1002900075BC6DBC6A0C7B1C75BC6CBC089575BCD0
:1002A0006DBC6A0C7B1C75BC6ABC680C791C75BC87
:1002B0006CBC089500000000010001000200020073
:1002C000020003000300040004000500050005000F
:1002D00006000600070007000700080008000900E4
:1002E000090009000A000A000B000B000C000C00BA
:1002F0000C000D000D000E000E000E000F000F0090
:100300001000100010001100110012001200130064
:10031000130013001400140015001500150016003A
:100320001600170017001700180018001900190010
:100330001A001A001A001B001B001C001C001C00E5
:100340001D001D001E001E001E001F001F002000BB
:100350002000200021002100220022002300230091
:100360002300240024002500250025002600260067
:1003700027002700270028002800290029002A003C
:100380002A002A002B002B002C002C002C002D0012
:100390002D002E002E002E002F002F0030003000E8
:1003A00031003100310032003200330033003300BD
:1003B0003400340035003500350036003600370093
:1003C0003700380038003800390039003A003A0068
:1003D0003A003B003B003C003C003C003D003D003F
:1003E0003E003E003E003F003F0040004000410014
:1003F00041004100420042004300430043004400EA
:1004000044004500450045004600460047004700BF
:10041000480048004800490049004A004A004A0094
:100420004B004B004C004C004C004D004D004E006A
:100430004E004E004F004F00500050005100510040
:100440005100520052005300530053005400540016
:1004500055005500550056005600570057005800EB
:1004600058005800590059005A005A005A005B00C1
:100470005B005C005C005C005D005D005E005E0097
:100480005E005F005F00600060006100610061006D
:100490006200620063006300630064006400650042
:1004A0006500650066006600670067006700680019
:1004B0006800690069006A006A006A006B006B00EE
:1004C0006C006C006C006D006D006E006E006E00C4
:1004D0006F006F007000700070007100710072009A
:1004E000720073007300730074007400750075006F
:1004F0007500760076007700770077007800780046
:100500007900790079007A007A007B007B007C001A
:100510007C007C007D007D007E007E007E007F00F0
:100520007F008000800080008100810082008200C6
:10053000820083008300840084008500850085009C
:100540008600860087008700870088008800890071
:10055000890089008A008A008B008B008B008C0048
:100560008C008D008D008D008E008E008F008F001E
:1005700090009000900091009100920092009200F3
:1005800093009300940094009400950095009600C9
:1005900096009600970097009800980098009900A0
:1005A00099009A009A009B009B009B009C009C0075
:1005B0009D009D009D009E009E009F009F009F004B
:1005C000A000A000A100A100A100A200A200A30021
:1005D000A300A300A400A400A500A500A500A600F8
:1005E000A600A700A700A800A800A800A900A900CD
:1005F000AA00AA00AA00AB00AB00AC00AC00AC00A3
:10060000AD00AD00AE00AE00AE00AF00AF00B00078
:10061000B000B000B100B100B200B200B200B3004F
:10062000B300B400B400B400B500B500B600B60025
:10063000B700B700B700B800B800B900B900B900FA
:10064000BA00BA00BB00BB00BB00BC00BC00BD00D0
:10065000BD00BD00BE00BE00BF00BF00BF00C000A7
:10066000C000C100C100C100C200C200C300C3007D
:10067000C300C400C400C500C500C500C600C60054
:10068000C700C700C700C800C800C900C900C9002A
:10069000CA00CA00CB00CB00CC00CC00CC00CD00FF
:1006A000CD00CE00CE00CE00CF00CF00D000D000D5
:1006B000D000D100D100D200D200D200D300D300AC
:1006C000D400D400D400D500D500D600D600D60082
:1006D000D700D700D800D800D800D900D900DA0058
:1006E000DA00DA00DB00DB00DC00DC00DC00DD002F
:1006F000DD00DE00DE00DE00DF00DF00E000E00005
:10070000E000E100E100E200E200E200E300E300DB
:10071000E400E400E400E500E500E600E600E600B1
:10072000E700E700E800E800E800E900E900EA0087
:10073000EA00EA00EB00EB00EC00EC00EC00ED005E
:10074000ED00EE00EE00EE00EF00EF00F000F00034
:10075000F000F100F100F200F200F200F300F3000B
:10076000F400F400F400F500F500F600F600F600E1
:10077000F700F700F800F800F800F900F900FA00B7
:10078000FA00FA00FB00FB00FC00FC00FC00FD008E
:10079000FD00FE00FE00FE00FF00FF000001000162
:1007A0000001010101010201020102010301030133
:1007B0000401040104010501050106010601060109
:1007C00007010701080108010801090109010A01DF
:1007D0000A010A010B010B010C010C010C010D01B6
:1007E0000D010E010E010E010F010F01100110018C
:1007F0001001110111011201120112011301130163
:10080000130114011401150115011501160116013A
:100810001701170117011801180119011901190110
:100820001A011A011B011B011B011C011C011D01E6
:100830001D011D011E011E011F011F011F012001BD
:100840002001210121012101220122012301230193
:10085000230124012401240125012501260126016B
:100860002601270127012801280128012901290142
:100870002A012A012A012B012B012C012C012C0118
:100880002D012D012E012E012E012F012F012F01EF
:1008900030013001310131013101320132013301C6
:1008A000330133013401340135013501350136019D
:1008B0003601370137013701380138013901390173
:1008C00039013A013A013A013B013B013C013C014B
:1008D0003C013D013D013E013E013E013F013F0122
:1008E00040014001400141014101420142014201F8
:1008F00043014301430144014401450145014501D0
:1009000046014601470147014701480148014901A5
:10091000490149014A014A014A014B014B014C017D
:100920004C014C014D014D014E014E014E014F0154
:100930004F0150015001500151015101510152012B
:100940005201530153015301540154015501550102
:1009500055015601560157015701570158015801D9
:100960005801590159015A015A015A015B015B01B1
:100970005C015C015C015D015D015D015E015E0188
:100980005F015F015F01600160016101610161015F
:100990006201620163016301630164016401640136
:1009A000650165016601660166016701670168010D
:1009B000680168016901690169016A016A016B01E5
:1009C0006B016B016C016C016D016D016D016E01BC
:1009D0006E016E016F016F01700170017001710194
:1009E000710172017201720173017301730174016B
:1009F0007401750175017501760176017701770142
:100A00007701780178017801790179017A017A0119
:100A10007A017B017B017B017C017C017D017D01F1
:100A20007D017E017E017F017F017F0180018001C8
:100A300080018101810182018201820183018301A0
:100A40008301840184018501850185018601860178
:100A5000870187018701880188018801890189014F
:100A60008A018A018A018B018B018B018C018C0127
:100A70008D018D018D018E018E018F018F018F01FE
:100A800090019001900191019101920192019201D6
:100A900093019301930194019401950195019501AE
:100AA0009601960196019701970198019801980186
:100AB0009901990199019A019A019B019B019B015E
:100AC0009C019C019C019D019D019E019E019E0136
:100AD0009F019F019F01A001A001A101A101A1010E
:100AE000A201A201A201A301A301A401A401A401E6
:100AF000A501A501A501A601A601A701A701A701BE
:100B0000A801A801A801A901A901AA01AA01AA0195
:100B1000AB01AB01AB01AC01AC01AD01AD01AD016D
:100B2000AE01AE01AE01AF01AF01B001B001B00145
:100B3000B101B101B101B201B201B301B301B3011D
:100B4000B401B401B401B501B501B601B601B601F5
:100B5000B701B701B701B801B801B901B901B901CD
:100B6000BA01BA01BA01BB01BB01BB01BC01BC01A6
:100B7000BD01BD01BD01BE01BE01BE01BF01BF017E
:100B8000C001C001C001C101C101C101C201C20156
:100B9000C301C301C301C401C401C401C501C5012E
:100BA000C501C601C601C701C701C701C801C80107
:100BB000C801C901C901CA01CA01CA01CB01CB01DF
:100BC000CB01CC01CC01CC01CD01CD01CE01CE01B8
:100BD000CE01CF01CF01CF01D001D001D101D10190
:100BE000D101D201D201D201D301D301D301D40169
:100BF000D401D501D501D501D601D601D601D70141
:100C0000D701D701D801D801D901D901D901DA0119
:100C1000DA01DA01DB01DB01DB01DC01DC01DD01F2
:100C2000DD01DD01DE01DE01DE01DF01DF01DF01CB
:100C3000E001E001E101E101E101E201E201E201A3
:100C4000E301E301E301E401E401E501E501E5017C
:100C5000E601E601E601E701E701E701E801E80155
:100C6000E901E901E901EA01EA01EA01EB01EB012D
:100C7000EB01EC01EC01ED01ED01ED01EE01EE0106
:100C8000EE01EF01EF01EF01F001F001F001F101E0
:100C9000F101F201F201F201F301F301F301F401B8
:100CA000F401F401F501F501F501F601F601F70192
:100CB000F701F701F801F801F801F901F901F9016B
:100CC000FA01FA01FB01FB01FB01FC01FC01FC0143
:100CD000FD01FD01FD01FE01FE01FE01FF01FF011D
:100CE000FF010002000201020102010202020202EF
:100CF00002020302030203020402040204020502C8
:100D0000050206020602060207020702070208029F
:100D1000080208020902090209020A020A020B0279
:100D20000B020B020C020C020C020D020D020D0252
:100D30000E020E020E020F020F020F02100210022C
:100D40001102110211021202120212021302130204
:100D500013021402140214021502150215021602DF
:100D600016021602170217021802180218021902B8
:100D7000190219021A021A021A021B021B021B0292
:100D80001C021C021C021D021D021D021E021E026C
:100D90001F021F021F022002200220022102210244
:100DA000210222022202220223022302230224021F
:100DB00024022402250225022502260226022702F9
:100DC00027022702280228022802290229022902D2
:100DD0002A022A022A022B022B022B022C022C02AC
:100DE0002C022D022D022D022E022E022E022F0287
:100DF0002F0230023002300231023102310232025F
:100E00003202320233023302330234023402340239
:100E10003502350235023602360236023702370213
:100E200037023802380238023902390239023A02EE
:100E30003A023A023B023B023C023C023C023D02C7
:100E40003D023D023E023E023E023F023F023F02A1
:100E5000400240024002410241024102420242027B
:100E60004202430243024302440244024402450256
:100E70004502450246024602460247024702470231
:100E80004802480248024902490249024A024A020B
:100E90004A024B024B024B024C024C024C024D02E6
:100EA0004D024D024E024E024E024F024F024F02C1
:100EB000500250025002510251025102520252029B
:100EC0005202530253025302540254025502550275
:100ED000550256025602560257025702570258024E
:100EE000580258025902590259025A025A025A0229
:100EF0005B025B025B025B025C025C025C025D0205
:100F00005D025D025E025E025E025F025F025F02E0
:100F100060026002600261026102610262026202BA
:100F20006202630263026302640264026402650295
:100F30006502650266026602660267026702670270
:100F40006802680268026902690269026A026A024A
:100F50006A026B026B026B026C026C026C026D0225
:100F60006D026D026E026E026E026F026F026F0200
:100F700070027002700271027102710272027202DA
:100F800072027302730273027302740274027402B7
:100F90007502750275027602760276027702770292
:100FA00077027802780278027902790279027A026D
:100FB0007A027A027B027B027B027C027C027C0248
:100FC0007D027D027D027E027E027E027E027F0223
:100FD0007F027F0280028002800281028102810200
:100FE00082028202820283028302830284028402DA
:100FF00084028502850285028602860286028602B6
:101000008702870287028802880288028902890291
:1010100089028A028A028A028B028B028B028C026C
:101020008C028C028D028D028D028D028E028E0248
:101030008E028F028F028F02900290029002910224
:1010400091029102920292029202930293029302FF
:1010500093029402940294029502950295029602DC
:1010600096029602970297029702980298029802B7
:1010700098029902990299029A029A029A029B0294
:101080009B029B029C029C029C029D029D029D026F
:101090009D029E029E029E029F029F029F02A0024C
:1010A000A002A002A102A102A102A202A202A20227
:1010B000A202A302A302A302A402A402A402A50204
:1010C000A502A502A602A602A602A602A702A702E0
:1010D000A702A802A802A802A902A902A902AA02BC
:1010E000AA02AA02AA02AB02AB02AB02AC02AC0299
:1010F000AC02AD02AD02AD02AD02AE02AE02AE0276
:10110000AF02AF02AF02B002B002B002B102B10250
:10111000B102B102B202B202B202B302B302B3022E
:10112000B402B402B402B402B502B502B502B6020A
:10113000B602B602B702B702B702B802B802B802E6
:10114000B802B902B902B902BA02BA02BA02BB02C3
:10115000BB02BB02BB02BC02BC02BC02BD02BD02A0
:10116000BD02BE02BE02BE02BE02BF02BF02BF027D
:10117000C002C002C002C102C102C102C102C20259
:10118000C202C202C302C302C302C302C402C40237
:10119000C402C502C502C502C602C602C602C60214
:1011A000C702C702C702C802C802C802C902C902F0
:1011B000C902C902CA02CA02CA02CB02CB02CB02CE
:1011C000CB02CC02CC02CC02CD02CD02CD02CE02AB
:1011D000CE02CE02CE02CF02CF02CF02D002D00288
:1011E000D002D002D102D102D102D202D202D20266
:1011F000D202D302D302D302D402D402D402D50243
:10120000D502D502D502D602D602D602D702D7021F
:10121000D702D702D802D802D802D902D902D902FD
:10122000D902DA02DA02DA02DB02DB02DB02DB02DB
:10123000DC02DC02DC02DD02DD02DD02DD02DE02B8
:10124000DE02DE02DF02DF02DF02DF02E002E00296
:10125000E002E102E102E102E102E202E202E20274
:10126000E302E302E302E302E402E402E402E50251
:10127000E502E502E502E602E602E602E702E7022F
:10128000E702E702E802E802E802E902E902E9020D
:10129000E902EA02EA02EA02EB02EB02EB02EB02EB
:1012A000EC02EC02EC02ED02ED02ED02ED02EE02C8
:1012B000EE02EE02EE02EF02EF02EF02F002F002A7
:1012C000F002F002F102F102F102F202F202F20285
:1012D000F202F302F302F302F302F402F402F40264
:1012E000F502F502F502F502F602F602F602F70241
:1012F000F702F702F702F802F802F802F802F90220
:10130000F902F902FA02FA02FA02FA02FB02FB02FD
:10131000FB02FB02FC02FC02FC02FD02FD02FD02DC
:10132000FD02FE02FE02FE02FE02FF02FF02FF02BB
:101330000003000300030003010301030103010391
:10134000020302030203030303030303030304036F
:10135000040304030403050305030503060306034E
:10136000060306030703070307030703080308032D
:10137000080308030903090309030A030A030A030C
:101380000A030B030B030B030B030C030C030C03EB
:101390000C030D030D030D030E030E030E030E03CA
:1013A0000F030F030F030F031003100310031003A9
:1013B0001103110311031203120312031203130387
:1013C0001303130313031403140314031403150367
:1013D0001503150315031603160316031603170347
:1013E0001703170318031803180318031903190325
:1013F000190319031A031A031A031A031B031B0305
:101400001B031B031C031C031C031C031D031D03E4
:101410001D031D031E031E031E031F031F031F03C3
:101420001F032003200320032003210321032103A2
:101430002103220322032203220323032303230382
:101440002303240324032403240325032503250362
:101450002503260326032603260327032703270342
:101460002703280328032803280329032903290322
:1014700029032A032A032A032A032B032B032B0302
:101480002B032C032C032C032C032D032D032D03E2
:101490002D032E032E032E032E032F032F032F03C2
:1014A0002F033003300330033003310331033103A2
:1014B0003103320332033203320333033303330382
:1014C0003303340334033403340335033503350362
:1014D0003503360336033603360337033703370342
:1014E0003703380338033803380339033903390322
:1014F00039033A033A033A033A033B033B033B0302
:101500003B033B033C033C033C033C033D033D03E3
:101510003D033D033E033E033E033E033F033F03C3
:101520003F033F03400340034003400341034103A3
:101530004103410341034203420342034203430385
:101540004303430343034403440344034403450365
:101550004503450345034603460346034603460346
:101560004703470347034703480348034803480327
:1015700049034903490349034A034A034A034A0307
:101580004A034B034B034B034B034C034C034C03E9
:101590004C034D034D034D034D034D034E034E03CA
:1015A0004E034E034F034F034F034F0350035003AB
:1015B000500350035003510351035103510352038D
:1015C000520352035203530353035303530353036E
:1015D000540354035403540355035503550355034F
:1015E0005503560356035603560357035703570331
:1015F0005703580358035803580358035903590312
:10160000590359035A035A035A035A035A035B03F3
:101610005B035B035B035C035C035C035C035C03D5
:101620005D035D035D035D035E035E035E035E03B6
:101630005E035F035F035F035F0360036003600398
:10164000600360036103610361036103620362037A
:10165000620362036203630363036303630364035C
:10166000640364036403640365036503650365033E
:101670006503660366036603660367036703670320
:101680006703670368036803680368036803690303
:101690006903690369036A036A036A036A036A03E5
:1016A0006B036B036B036B036B036C036C036C03C7
:1016B0006C036D036D036D036D036D036E036E03A9
:1016C0006E036E036E036F036F036F036F036F038D
:1016D000700370037003700371037103710371036E
:1016E0007103720372037203720372037303730351
:1016F0007303730373037403740374037403750334
:0E170000750375037503750376037603760390
:00000001FF
